{"abi":[{"type":"constructor","inputs":[{"name":"_tokenA","type":"address","internalType":"address"},{"name":"_tokenB","type":"address","internalType":"address"}],"stateMutability":"nonpayable"},{"type":"function","name":"FEE_DEN","inputs":[],"outputs":[{"name":"","type":"uint256","internalType":"uint256"}],"stateMutability":"view"},{"type":"function","name":"FEE_NUM","inputs":[],"outputs":[{"name":"","type":"uint256","internalType":"uint256"}],"stateMutability":"view"},{"type":"function","name":"SCALE","inputs":[],"outputs":[{"name":"","type":"uint256","internalType":"uint256"}],"stateMutability":"view"},{"type":"function","name":"addLiquidity","inputs":[{"name":"amountA","type":"uint256","internalType":"uint256"},{"name":"amountB","type":"uint256","internalType":"uint256"}],"outputs":[],"stateMutability":"nonpayable"},{"type":"function","name":"allowance","inputs":[{"name":"owner","type":"address","internalType":"address"},{"name":"spender","type":"address","internalType":"address"}],"outputs":[{"name":"","type":"uint256","internalType":"uint256"}],"stateMutability":"view"},{"type":"function","name":"approve","inputs":[{"name":"spender","type":"address","internalType":"address"},{"name":"value","type":"uint256","internalType":"uint256"}],"outputs":[{"name":"","type":"bool","internalType":"bool"}],"stateMutability":"nonpayable"},{"type":"function","name":"balanceOf","inputs":[{"name":"account","type":"address","internalType":"address"}],"outputs":[{"name":"","type":"uint256","internalType":"uint256"}],"stateMutability":"view"},{"type":"function","name":"decimals","inputs":[],"outputs":[{"name":"","type":"uint8","internalType":"uint8"}],"stateMutability":"view"},{"type":"function","name":"name","inputs":[],"outputs":[{"name":"","type":"string","internalType":"string"}],"stateMutability":"view"},{"type":"function","name":"removeLiquidity","inputs":[{"name":"lpTokenAmount","type":"uint256","internalType":"uint256"}],"outputs":[],"stateMutability":"nonpayable"},{"type":"function","name":"swapAtoB","inputs":[{"name":"amountA","type":"uint256","internalType":"uint256"},{"name":"rateAtoB","type":"uint256","internalType":"uint256"}],"outputs":[],"stateMutability":"nonpayable"},{"type":"function","name":"swapBtoA","inputs":[{"name":"amountB","type":"uint256","internalType":"uint256"},{"name":"rateBtoA","type":"uint256","internalType":"uint256"}],"outputs":[],"stateMutability":"nonpayable"},{"type":"function","name":"symbol","inputs":[],"outputs":[{"name":"","type":"string","internalType":"string"}],"stateMutability":"view"},{"type":"function","name":"tokenA","inputs":[],"outputs":[{"name":"","type":"address","internalType":"contract IERC20"}],"stateMutability":"view"},{"type":"function","name":"tokenB","inputs":[],"outputs":[{"name":"","type":"address","internalType":"contract IERC20"}],"stateMutability":"view"},{"type":"function","name":"totalSupply","inputs":[],"outputs":[{"name":"","type":"uint256","internalType":"uint256"}],"stateMutability":"view"},{"type":"function","name":"transfer","inputs":[{"name":"to","type":"address","internalType":"address"},{"name":"value","type":"uint256","internalType":"uint256"}],"outputs":[{"name":"","type":"bool","internalType":"bool"}],"stateMutability":"nonpayable"},{"type":"function","name":"transferFrom","inputs":[{"name":"from","type":"address","internalType":"address"},{"name":"to","type":"address","internalType":"address"},{"name":"value","type":"uint256","internalType":"uint256"}],"outputs":[{"name":"","type":"bool","internalType":"bool"}],"stateMutability":"nonpayable"},{"type":"event","name":"Approval","inputs":[{"name":"owner","type":"address","indexed":true,"internalType":"address"},{"name":"spender","type":"address","indexed":true,"internalType":"address"},{"name":"value","type":"uint256","indexed":false,"internalType":"uint256"}],"anonymous":false},{"type":"event","name":"Transfer","inputs":[{"name":"from","type":"address","indexed":true,"internalType":"address"},{"name":"to","type":"address","indexed":true,"internalType":"address"},{"name":"value","type":"uint256","indexed":false,"internalType":"uint256"}],"anonymous":false},{"type":"error","name":"ERC20InsufficientAllowance","inputs":[{"name":"spender","type":"address","internalType":"address"},{"name":"allowance","type":"uint256","internalType":"uint256"},{"name":"needed","type":"uint256","internalType":"uint256"}]},{"type":"error","name":"ERC20InsufficientBalance","inputs":[{"name":"sender","type":"address","internalType":"address"},{"name":"balance","type":"uint256","internalType":"uint256"},{"name":"needed","type":"uint256","internalType":"uint256"}]},{"type":"error","name":"ERC20InvalidApprover","inputs":[{"name":"approver","type":"address","internalType":"address"}]},{"type":"error","name":"ERC20InvalidReceiver","inputs":[{"name":"receiver","type":"address","internalType":"address"}]},{"type":"error","name":"ERC20InvalidSender","inputs":[{"name":"sender","type":"address","internalType":"address"}]},{"type":"error","name":"ERC20InvalidSpender","inputs":[{"name":"spender","type":"address","internalType":"address"}]}],"bytecode":{"object":"0x60c060405234801561000f575f5ffd5b506040516129ab3803806129ab8339818101604052810190610031919061018c565b6040518060400160405280600b81526020017f4669617453776170204c500000000000000000000000000000000000000000008152506040518060400160405280600481526020017f46534c500000000000000000000000000000000000000000000000000000000081525081600390816100ac9190610407565b5080600490816100bc9190610407565b5050508173ffffffffffffffffffffffffffffffffffffffff1660808173ffffffffffffffffffffffffffffffffffffffff16815250508073ffffffffffffffffffffffffffffffffffffffff1660a08173ffffffffffffffffffffffffffffffffffffffff168152505050506104d6565b5f5ffd5b5f73ffffffffffffffffffffffffffffffffffffffff82169050919050565b5f61015b82610132565b9050919050565b61016b81610151565b8114610175575f5ffd5b50565b5f8151905061018681610162565b92915050565b5f5f604083850312156101a2576101a161012e565b5b5f6101af85828601610178565b92505060206101c085828601610178565b9150509250929050565b5f81519050919050565b7f4e487b71000000000000000000000000000000000000000000000000000000005f52604160045260245ffd5b7f4e487b71000000000000000000000000000000000000000000000000000000005f52602260045260245ffd5b5f600282049050600182168061024557607f821691505b60208210810361025857610257610201565b5b50919050565b5f819050815f5260205f209050919050565b5f6020601f8301049050919050565b5f82821b905092915050565b5f600883026102ba7fffffffffffffffffffffffffffffffffffffffffffffffffffffffffffffffff8261027f565b6102c4868361027f565b95508019841693508086168417925050509392505050565b5f819050919050565b5f819050919050565b5f6103086103036102fe846102dc565b6102e5565b6102dc565b9050919050565b5f819050919050565b610321836102ee565b61033561032d8261030f565b84845461028b565b825550505050565b5f5f905090565b61034c61033d565b610357818484610318565b505050565b5b8181101561037a5761036f5f82610344565b60018101905061035d565b5050565b601f8211156103bf576103908161025e565b61039984610270565b810160208510156103a8578190505b6103bc6103b485610270565b83018261035c565b50505b505050565b5f82821c905092915050565b5f6103df5f19846008026103c4565b1980831691505092915050565b5f6103f783836103d0565b9150826002028217905092915050565b610410826101ca565b67ffffffffffffffff811115610429576104286101d4565b5b610433825461022e565b61043e82828561037e565b5f60209050601f83116001811461046f575f841561045d578287015190505b61046785826103ec565b8655506104ce565b601f19841661047d8661025e565b5f5b828110156104a45784890151825560018201915060208501945060208101905061047f565b868310156104c157848901516104bd601f8916826103d0565b8355505b6001600288020188555050505b505050505050565b60805160a0516124596105525f395f818161060d015281816107ca015281816109ec01528181610ba901528181610db40152818161110101526112b601525f818161043a01528181610534015281816106e90152818161095101528181610acf01528181610cd801528181610ea901526111da01526124595ff3fe608060405234801561000f575f5ffd5b5060043610610114575f3560e01c806370a08231116100a0578063a9059cbb1161006f578063a9059cbb146102ce578063dd62ed3e146102fe578063eced55261461032e578063f0b456e91461034c578063fe08b58c1461036857610114565b806370a082311461024857806395d89b41146102785780639c8f9f23146102965780639cd441da146102b257610114565b806318160ddd116100e757806318160ddd146101a257806323b872dd146101c0578063313ce567146101f05780634242ec521461020e5780635f64b55b1461022a57610114565b806306fdde0314610118578063095ea7b3146101365780630fc63d10146101665780631605b17f14610184575b5f5ffd5b610120610386565b60405161012d9190611a8c565b60405180910390f35b610150600480360381019061014b9190611b3d565b610416565b60405161015d9190611b95565b60405180910390f35b61016e610438565b60405161017b9190611c09565b60405180910390f35b61018c61045c565b6040516101999190611c31565b60405180910390f35b6101aa610462565b6040516101b79190611c31565b60405180910390f35b6101da60048036038101906101d59190611c4a565b61046b565b6040516101e79190611b95565b60405180910390f35b6101f8610499565b6040516102059190611cb5565b60405180910390f35b61022860048036038101906102239190611cce565b6104a1565b005b6102326107c8565b60405161023f9190611c09565b60405180910390f35b610262600480360381019061025d9190611d0c565b6107ec565b60405161026f9190611c31565b60405180910390f35b610280610831565b60405161028d9190611a8c565b60405180910390f35b6102b060048036038101906102ab9190611d37565b6108c1565b005b6102cc60048036038101906102c79190611cce565b610c89565b005b6102e860048036038101906102e39190611b3d565b610fbe565b6040516102f59190611b95565b60405180910390f35b61031860048036038101906103139190611d62565b610fe0565b6040516103259190611c31565b60405180910390f35b610336611062565b6040516103439190611c31565b60405180910390f35b61036660048036038101906103619190611cce565b61106e565b005b610370611395565b60405161037d9190611c31565b60405180910390f35b60606003805461039590611dcd565b80601f01602080910402602001604051908101604052809291908181526020018280546103c190611dcd565b801561040c5780601f106103e35761010080835404028352916020019161040c565b820191905f5260205f20905b8154815290600101906020018083116103ef57829003601f168201915b5050505050905090565b5f5f61042061139a565b905061042d8185856113a1565b600191505092915050565b7f000000000000000000000000000000000000000000000000000000000000000081565b6103e881565b5f600254905090565b5f5f61047561139a565b90506104828582856113b3565b61048d858585611446565b60019150509392505050565b5f6012905090565b5f82116104e3576040517f08c379a00000000000000000000000000000000000000000000000000000000081526004016104da90611e47565b60405180910390fd5b5f6103e86003846104f49190611e92565b6104fe9190611f00565b90505f818461050d9190611f30565b90505f670de0b6b3a764000084836105259190611e92565b61052f9190611f00565b9050807f000000000000000000000000000000000000000000000000000000000000000073ffffffffffffffffffffffffffffffffffffffff166370a08231306040518263ffffffff1660e01b815260040161058b9190611f72565b602060405180830381865afa1580156105a6573d5f5f3e3d5ffd5b505050506040513d601f19601f820116820180604052508101906105ca9190611f9f565b101561060b576040517f08c379a000000000000000000000000000000000000000000000000000000000815260040161060290612014565b60405180910390fd5b7f000000000000000000000000000000000000000000000000000000000000000073ffffffffffffffffffffffffffffffffffffffff166323b872dd3330886040518463ffffffff1660e01b815260040161066893929190612032565b6020604051808303815f875af1158015610684573d5f5f3e3d5ffd5b505050506040513d601f19601f820116820180604052508101906106a89190612091565b6106e7576040517f08c379a00000000000000000000000000000000000000000000000000000000081526004016106de90612106565b60405180910390fd5b7f000000000000000000000000000000000000000000000000000000000000000073ffffffffffffffffffffffffffffffffffffffff1663a9059cbb33836040518363ffffffff1660e01b8152600401610742929190612124565b6020604051808303815f875af115801561075e573d5f5f3e3d5ffd5b505050506040513d601f19601f820116820180604052508101906107829190612091565b6107c1576040517f08c379a00000000000000000000000000000000000000000000000000000000081526004016107b890612195565b60405180910390fd5b5050505050565b7f000000000000000000000000000000000000000000000000000000000000000081565b5f5f5f8373ffffffffffffffffffffffffffffffffffffffff1673ffffffffffffffffffffffffffffffffffffffff1681526020019081526020015f20549050919050565b60606004805461084090611dcd565b80601f016020809104026020016040519081016040528092919081815260200182805461086c90611dcd565b80156108b75780601f1061088e576101008083540402835291602001916108b7565b820191905f5260205f20905b81548152906001019060200180831161089a57829003601f168201915b5050505050905090565b5f8111610903576040517f08c379a00000000000000000000000000000000000000000000000000000000081526004016108fa906121fd565b60405180910390fd5b8061090d336107ec565b101561094e576040517f08c379a000000000000000000000000000000000000000000000000000000000815260040161094590612265565b60405180910390fd5b5f7f000000000000000000000000000000000000000000000000000000000000000073ffffffffffffffffffffffffffffffffffffffff166370a08231306040518263ffffffff1660e01b81526004016109a89190611f72565b602060405180830381865afa1580156109c3573d5f5f3e3d5ffd5b505050506040513d601f19601f820116820180604052508101906109e79190611f9f565b90505f7f000000000000000000000000000000000000000000000000000000000000000073ffffffffffffffffffffffffffffffffffffffff166370a08231306040518263ffffffff1660e01b8152600401610a439190611f72565b602060405180830381865afa158015610a5e573d5f5f3e3d5ffd5b505050506040513d601f19601f82011682018060405250810190610a829190611f9f565b90505f610a8d610462565b90505f818486610a9d9190611e92565b610aa79190611f00565b90505f828487610ab79190611e92565b610ac19190611f00565b9050610acd3387611536565b7f000000000000000000000000000000000000000000000000000000000000000073ffffffffffffffffffffffffffffffffffffffff1663a9059cbb33846040518363ffffffff1660e01b8152600401610b28929190612124565b6020604051808303815f875af1158015610b44573d5f5f3e3d5ffd5b505050506040513d601f19601f82011682018060405250810190610b689190612091565b610ba7576040517f08c379a0000000000000000000000000000000000000000000000000000000008152600401610b9e90612195565b60405180910390fd5b7f000000000000000000000000000000000000000000000000000000000000000073ffffffffffffffffffffffffffffffffffffffff1663a9059cbb33836040518363ffffffff1660e01b8152600401610c02929190612124565b6020604051808303815f875af1158015610c1e573d5f5f3e3d5ffd5b505050506040513d601f19601f82011682018060405250810190610c429190612091565b610c81576040517f08c379a0000000000000000000000000000000000000000000000000000000008152600401610c7890612106565b60405180910390fd5b505050505050565b5f82118015610c9757505f81115b610cd6576040517f08c379a0000000000000000000000000000000000000000000000000000000008152600401610ccd906122cd565b60405180910390fd5b7f000000000000000000000000000000000000000000000000000000000000000073ffffffffffffffffffffffffffffffffffffffff166323b872dd3330856040518463ffffffff1660e01b8152600401610d3393929190612032565b6020604051808303815f875af1158015610d4f573d5f5f3e3d5ffd5b505050506040513d601f19601f82011682018060405250810190610d739190612091565b610db2576040517f08c379a0000000000000000000000000000000000000000000000000000000008152600401610da990612195565b60405180910390fd5b7f000000000000000000000000000000000000000000000000000000000000000073ffffffffffffffffffffffffffffffffffffffff166323b872dd3330846040518463ffffffff1660e01b8152600401610e0f93929190612032565b6020604051808303815f875af1158015610e2b573d5f5f3e3d5ffd5b505050506040513d601f19601f82011682018060405250810190610e4f9190612091565b610e8e576040517f08c379a0000000000000000000000000000000000000000000000000000000008152600401610e8590612106565b60405180910390fd5b5f5f610e98610462565b03610ea557829050610f6d565b5f837f000000000000000000000000000000000000000000000000000000000000000073ffffffffffffffffffffffffffffffffffffffff166370a08231306040518263ffffffff1660e01b8152600401610f009190611f72565b602060405180830381865afa158015610f1b573d5f5f3e3d5ffd5b505050506040513d601f19601f82011682018060405250810190610f3f9190611f9f565b610f499190611f30565b905080610f54610462565b85610f5f9190611e92565b610f699190611f00565b9150505b5f8111610faf576040517f08c379a0000000000000000000000000000000000000000000000000000000008152600401610fa690612335565b60405180910390fd5b610fb933826115b5565b505050565b5f5f610fc861139a565b9050610fd5818585611446565b600191505092915050565b5f60015f8473ffffffffffffffffffffffffffffffffffffffff1673ffffffffffffffffffffffffffffffffffffffff1681526020019081526020015f205f8373ffffffffffffffffffffffffffffffffffffffff1673ffffffffffffffffffffffffffffffffffffffff1681526020019081526020015f2054905092915050565b670de0b6b3a764000081565b5f82116110b0576040517f08c379a00000000000000000000000000000000000000000000000000000000081526004016110a790611e47565b60405180910390fd5b5f6103e86003846110c19190611e92565b6110cb9190611f00565b90505f81846110da9190611f30565b90505f670de0b6b3a764000084836110f29190611e92565b6110fc9190611f00565b9050807f000000000000000000000000000000000000000000000000000000000000000073ffffffffffffffffffffffffffffffffffffffff166370a08231306040518263ffffffff1660e01b81526004016111589190611f72565b602060405180830381865afa158015611173573d5f5f3e3d5ffd5b505050506040513d601f19601f820116820180604052508101906111979190611f9f565b10156111d8576040517f08c379a00000000000000000000000000000000000000000000000000000000081526004016111cf9061239d565b60405180910390fd5b7f000000000000000000000000000000000000000000000000000000000000000073ffffffffffffffffffffffffffffffffffffffff166323b872dd3330886040518463ffffffff1660e01b815260040161123593929190612032565b6020604051808303815f875af1158015611251573d5f5f3e3d5ffd5b505050506040513d601f19601f820116820180604052508101906112759190612091565b6112b4576040517f08c379a00000000000000000000000000000000000000000000000000000000081526004016112ab90612195565b60405180910390fd5b7f000000000000000000000000000000000000000000000000000000000000000073ffffffffffffffffffffffffffffffffffffffff1663a9059cbb33836040518363ffffffff1660e01b815260040161130f929190612124565b6020604051808303815f875af115801561132b573d5f5f3e3d5ffd5b505050506040513d601f19601f8201168201806040525081019061134f9190612091565b61138e576040517f08c379a000000000000000000000000000000000000000000000000000000000815260040161138590612106565b60405180910390fd5b5050505050565b600381565b5f33905090565b6113ae8383836001611634565b505050565b5f6113be8484610fe0565b90507fffffffffffffffffffffffffffffffffffffffffffffffffffffffffffffffff8110156114405781811015611431578281836040517ffb8f41b2000000000000000000000000000000000000000000000000000000008152600401611428939291906123bb565b60405180910390fd5b61143f84848484035f611634565b5b50505050565b5f73ffffffffffffffffffffffffffffffffffffffff168373ffffffffffffffffffffffffffffffffffffffff16036114b6575f6040517f96c6fd1e0000000000000000000000000000000000000000000000000000000081526004016114ad9190611f72565b60405180910390fd5b5f73ffffffffffffffffffffffffffffffffffffffff168273ffffffffffffffffffffffffffffffffffffffff1603611526575f6040517fec442f0500000000000000000000000000000000000000000000000000000000815260040161151d9190611f72565b60405180910390fd5b611531838383611803565b505050565b5f73ffffffffffffffffffffffffffffffffffffffff168273ffffffffffffffffffffffffffffffffffffffff16036115a6575f6040517f96c6fd1e00000000000000000000000000000000000000000000000000000000815260040161159d9190611f72565b60405180910390fd5b6115b1825f83611803565b5050565b5f73ffffffffffffffffffffffffffffffffffffffff168273ffffffffffffffffffffffffffffffffffffffff1603611625575f6040517fec442f0500000000000000000000000000000000000000000000000000000000815260040161161c9190611f72565b60405180910390fd5b6116305f8383611803565b5050565b5f73ffffffffffffffffffffffffffffffffffffffff168473ffffffffffffffffffffffffffffffffffffffff16036116a4575f6040517fe602df0500000000000000000000000000000000000000000000000000000000815260040161169b9190611f72565b60405180910390fd5b5f73ffffffffffffffffffffffffffffffffffffffff168373ffffffffffffffffffffffffffffffffffffffff1603611714575f6040517f94280d6200000000000000000000000000000000000000000000000000000000815260040161170b9190611f72565b60405180910390fd5b8160015f8673ffffffffffffffffffffffffffffffffffffffff1673ffffffffffffffffffffffffffffffffffffffff1681526020019081526020015f205f8573ffffffffffffffffffffffffffffffffffffffff1673ffffffffffffffffffffffffffffffffffffffff1681526020019081526020015f208190555080156117fd578273ffffffffffffffffffffffffffffffffffffffff168473ffffffffffffffffffffffffffffffffffffffff167f8c5be1e5ebec7d5bd14f71427d1e84f3dd0314c0f7b2291e5b200ac8c7c3b925846040516117f49190611c31565b60405180910390a35b50505050565b5f73ffffffffffffffffffffffffffffffffffffffff168373ffffffffffffffffffffffffffffffffffffffff1603611853578060025f82825461184791906123f0565b92505081905550611921565b5f5f5f8573ffffffffffffffffffffffffffffffffffffffff1673ffffffffffffffffffffffffffffffffffffffff1681526020019081526020015f20549050818110156118dc578381836040517fe450d38c0000000000000000000000000000000000000000000000000000000081526004016118d3939291906123bb565b60405180910390fd5b8181035f5f8673ffffffffffffffffffffffffffffffffffffffff1673ffffffffffffffffffffffffffffffffffffffff1681526020019081526020015f2081905550505b5f73ffffffffffffffffffffffffffffffffffffffff168273ffffffffffffffffffffffffffffffffffffffff1603611968578060025f82825403925050819055506119b2565b805f5f8473ffffffffffffffffffffffffffffffffffffffff1673ffffffffffffffffffffffffffffffffffffffff1681526020019081526020015f205f82825401925050819055505b8173ffffffffffffffffffffffffffffffffffffffff168373ffffffffffffffffffffffffffffffffffffffff167fddf252ad1be2c89b69c2b068fc378daa952ba7f163c4a11628f55a4df523b3ef83604051611a0f9190611c31565b60405180910390a3505050565b5f81519050919050565b5f82825260208201905092915050565b8281835e5f83830152505050565b5f601f19601f8301169050919050565b5f611a5e82611a1c565b611a688185611a26565b9350611a78818560208601611a36565b611a8181611a44565b840191505092915050565b5f6020820190508181035f830152611aa48184611a54565b905092915050565b5f5ffd5b5f73ffffffffffffffffffffffffffffffffffffffff82169050919050565b5f611ad982611ab0565b9050919050565b611ae981611acf565b8114611af3575f5ffd5b50565b5f81359050611b0481611ae0565b92915050565b5f819050919050565b611b1c81611b0a565b8114611b26575f5ffd5b50565b5f81359050611b3781611b13565b92915050565b5f5f60408385031215611b5357611b52611aac565b5b5f611b6085828601611af6565b9250506020611b7185828601611b29565b9150509250929050565b5f8115159050919050565b611b8f81611b7b565b82525050565b5f602082019050611ba85f830184611b86565b92915050565b5f819050919050565b5f611bd1611bcc611bc784611ab0565b611bae565b611ab0565b9050919050565b5f611be282611bb7565b9050919050565b5f611bf382611bd8565b9050919050565b611c0381611be9565b82525050565b5f602082019050611c1c5f830184611bfa565b92915050565b611c2b81611b0a565b82525050565b5f602082019050611c445f830184611c22565b92915050565b5f5f5f60608486031215611c6157611c60611aac565b5b5f611c6e86828701611af6565b9350506020611c7f86828701611af6565b9250506040611c9086828701611b29565b9150509250925092565b5f60ff82169050919050565b611caf81611c9a565b82525050565b5f602082019050611cc85f830184611ca6565b92915050565b5f5f60408385031215611ce457611ce3611aac565b5b5f611cf185828601611b29565b9250506020611d0285828601611b29565b9150509250929050565b5f60208284031215611d2157611d20611aac565b5b5f611d2e84828501611af6565b91505092915050565b5f60208284031215611d4c57611d4b611aac565b5b5f611d5984828501611b29565b91505092915050565b5f5f60408385031215611d7857611d77611aac565b5b5f611d8585828601611af6565b9250506020611d9685828601611af6565b9150509250929050565b7f4e487b71000000000000000000000000000000000000000000000000000000005f52602260045260245ffd5b5f6002820490506001821680611de457607f821691505b602082108103611df757611df6611da0565b5b50919050565b7f496e76616c696420616d6f756e740000000000000000000000000000000000005f82015250565b5f611e31600e83611a26565b9150611e3c82611dfd565b602082019050919050565b5f6020820190508181035f830152611e5e81611e25565b9050919050565b7f4e487b71000000000000000000000000000000000000000000000000000000005f52601160045260245ffd5b5f611e9c82611b0a565b9150611ea783611b0a565b9250828202611eb581611b0a565b91508282048414831517611ecc57611ecb611e65565b5b5092915050565b7f4e487b71000000000000000000000000000000000000000000000000000000005f52601260045260245ffd5b5f611f0a82611b0a565b9150611f1583611b0a565b925082611f2557611f24611ed3565b5b828204905092915050565b5f611f3a82611b0a565b9150611f4583611b0a565b9250828203905081811115611f5d57611f5c611e65565b5b92915050565b611f6c81611acf565b82525050565b5f602082019050611f855f830184611f63565b92915050565b5f81519050611f9981611b13565b92915050565b5f60208284031215611fb457611fb3611aac565b5b5f611fc184828501611f8b565b91505092915050565b7f4e6f7420656e6f756768206c697175696469747920696e2041000000000000005f82015250565b5f611ffe601983611a26565b915061200982611fca565b602082019050919050565b5f6020820190508181035f83015261202b81611ff2565b9050919050565b5f6060820190506120455f830186611f63565b6120526020830185611f63565b61205f6040830184611c22565b949350505050565b61207081611b7b565b811461207a575f5ffd5b50565b5f8151905061208b81612067565b92915050565b5f602082840312156120a6576120a5611aac565b5b5f6120b38482850161207d565b91505092915050565b7f546f6b656e42207472616e73666572206661696c6564000000000000000000005f82015250565b5f6120f0601683611a26565b91506120fb826120bc565b602082019050919050565b5f6020820190508181035f83015261211d816120e4565b9050919050565b5f6040820190506121375f830185611f63565b6121446020830184611c22565b9392505050565b7f546f6b656e41207472616e73666572206661696c6564000000000000000000005f82015250565b5f61217f601683611a26565b915061218a8261214b565b602082019050919050565b5f6020820190508181035f8301526121ac81612173565b9050919050565b7f4d7573742072656d6f7665203e2030204c5020746f6b656e73000000000000005f82015250565b5f6121e7601983611a26565b91506121f2826121b3565b602082019050919050565b5f6020820190508181035f830152612214816121db565b9050919050565b7f496e73756666696369656e74204c502062616c616e63650000000000000000005f82015250565b5f61224f601783611a26565b915061225a8261221b565b602082019050919050565b5f6020820190508181035f83015261227c81612243565b9050919050565b7f4d7573742070726f7669646520626f746820746f6b656e7300000000000000005f82015250565b5f6122b7601883611a26565b91506122c282612283565b602082019050919050565b5f6020820190508181035f8301526122e4816122ab565b9050919050565b7f496e73756666696369656e74206c6971756964697479206d696e7465640000005f82015250565b5f61231f601d83611a26565b915061232a826122eb565b602082019050919050565b5f6020820190508181035f83015261234c81612313565b9050919050565b7f4e6f7420656e6f756768206c697175696469747920696e2042000000000000005f82015250565b5f612387601983611a26565b915061239282612353565b602082019050919050565b5f6020820190508181035f8301526123b48161237b565b9050919050565b5f6060820190506123ce5f830186611f63565b6123db6020830185611c22565b6123e86040830184611c22565b949350505050565b5f6123fa82611b0a565b915061240583611b0a565b925082820190508082111561241d5761241c611e65565b5b9291505056fea2646970667358221220066c758c527aedd4560a5c0b084036ced8e31d4ea62bb867a2057f8b344813b164736f6c634300081e0033","linkReferences":{}},"methodIdentifiers":{"FEE_DEN()":"1605b17f","FEE_NUM()":"fe08b58c","SCALE()":"eced5526","addLiquidity(uint256,uint256)":"9cd441da","allowance(address,address)":"dd62ed3e","approve(address,uint256)":"095ea7b3","balanceOf(address)":"70a08231","decimals()":"313ce567","name()":"06fdde03","removeLiquidity(uint256)":"9c8f9f23","swapAtoB(uint256,uint256)":"f0b456e9","swapBtoA(uint256,uint256)":"4242ec52","symbol()":"95d89b41","tokenA()":"0fc63d10","tokenB()":"5f64b55b","totalSupply()":"18160ddd","transfer(address,uint256)":"a9059cbb","transferFrom(address,address,uint256)":"23b872dd"},"id":27}