{"abi":[{"type":"constructor","inputs":[{"name":"_lzEndpoint","type":"address","internalType":"address"},{"name":"_owner","type":"address","internalType":"address"},{"name":"_flowToken","type":"address","internalType":"address"},{"name":"_appContract","type":"address","internalType":"address"},{"name":"_baseChainEid","type":"uint32","internalType":"uint32"},{"name":"_rngContractAddress","type":"bytes32","internalType":"bytes32"}],"stateMutability":"nonpayable"},{"type":"receive","stateMutability":"payable"},{"type":"function","name":"DRAW_INTERVAL","inputs":[],"outputs":[{"name":"","type":"uint256","internalType":"uint256"}],"stateMutability":"view"},{"type":"function","name":"allowInitializePath","inputs":[{"name":"origin","type":"tuple","internalType":"struct Origin","components":[{"name":"srcEid","type":"uint32","internalType":"uint32"},{"name":"sender","type":"bytes32","internalType":"bytes32"},{"name":"nonce","type":"uint64","internalType":"uint64"}]}],"outputs":[{"name":"","type":"bool","internalType":"bool"}],"stateMutability":"view"},{"type":"function","name":"appContract","inputs":[],"outputs":[{"name":"","type":"address","internalType":"contract IApp"}],"stateMutability":"view"},{"type":"function","name":"baseChainEid","inputs":[],"outputs":[{"name":"","type":"uint32","internalType":"uint32"}],"stateMutability":"view"},{"type":"function","name":"endpoint","inputs":[],"outputs":[{"name":"","type":"address","internalType":"contract ILayerZeroEndpointV2"}],"stateMutability":"view"},{"type":"function","name":"enterLottery","inputs":[{"name":"_user","type":"address","internalType":"address"},{"name":"_amount","type":"uint256","internalType":"uint256"},{"name":"_tokenAddress","type":"address","internalType":"address"},{"name":"_updateData","type":"bytes[]","internalType":"bytes[]"}],"outputs":[],"stateMutability":"payable"},{"type":"function","name":"flowToken","inputs":[],"outputs":[{"name":"","type":"address","internalType":"contract IERC20"}],"stateMutability":"view"},{"type":"function","name":"isComposeMsgSender","inputs":[{"name":"","type":"tuple","internalType":"struct Origin","components":[{"name":"srcEid","type":"uint32","internalType":"uint32"},{"name":"sender","type":"bytes32","internalType":"bytes32"},{"name":"nonce","type":"uint64","internalType":"uint64"}]},{"name":"","type":"bytes","internalType":"bytes"},{"name":"_sender","type":"address","internalType":"address"}],"outputs":[{"name":"","type":"bool","internalType":"bool"}],"stateMutability":"view"},{"type":"function","name":"keeper","inputs":[],"outputs":[{"name":"","type":"address","internalType":"address"}],"stateMutability":"view"},{"type":"function","name":"lastDrawTimestamp","inputs":[],"outputs":[{"name":"","type":"uint256","internalType":"uint256"}],"stateMutability":"view"},{"type":"function","name":"lastWinner","inputs":[],"outputs":[{"name":"","type":"address","internalType":"address"}],"stateMutability":"view"},{"type":"function","name":"lzReceive","inputs":[{"name":"_origin","type":"tuple","internalType":"struct Origin","components":[{"name":"srcEid","type":"uint32","internalType":"uint32"},{"name":"sender","type":"bytes32","internalType":"bytes32"},{"name":"nonce","type":"uint64","internalType":"uint64"}]},{"name":"_guid","type":"bytes32","internalType":"bytes32"},{"name":"_message","type":"bytes","internalType":"bytes"},{"name":"_executor","type":"address","internalType":"address"},{"name":"_extraData","type":"bytes","internalType":"bytes"}],"outputs":[],"stateMutability":"payable"},{"type":"function","name":"nextNonce","inputs":[{"name":"","type":"uint32","internalType":"uint32"},{"name":"","type":"bytes32","internalType":"bytes32"}],"outputs":[{"name":"nonce","type":"uint64","internalType":"uint64"}],"stateMutability":"view"},{"type":"function","name":"oAppVersion","inputs":[],"outputs":[{"name":"senderVersion","type":"uint64","internalType":"uint64"},{"name":"receiverVersion","type":"uint64","internalType":"uint64"}],"stateMutability":"pure"},{"type":"function","name":"owner","inputs":[],"outputs":[{"name":"","type":"address","internalType":"address"}],"stateMutability":"view"},{"type":"function","name":"participantStakes","inputs":[{"name":"","type":"address","internalType":"address"}],"outputs":[{"name":"","type":"uint256","internalType":"uint256"}],"stateMutability":"view"},{"type":"function","name":"participants","inputs":[{"name":"","type":"uint256","internalType":"uint256"}],"outputs":[{"name":"","type":"address","internalType":"address"}],"stateMutability":"view"},{"type":"function","name":"peers","inputs":[{"name":"eid","type":"uint32","internalType":"uint32"}],"outputs":[{"name":"peer","type":"bytes32","internalType":"bytes32"}],"stateMutability":"view"},{"type":"function","name":"renounceOwnership","inputs":[],"outputs":[],"stateMutability":"nonpayable"},{"type":"function","name":"requestRandomWinner","inputs":[],"outputs":[],"stateMutability":"payable"},{"type":"function","name":"rngContractAddress","inputs":[],"outputs":[{"name":"","type":"bytes32","internalType":"bytes32"}],"stateMutability":"view"},{"type":"function","name":"setDelegate","inputs":[{"name":"_delegate","type":"address","internalType":"address"}],"outputs":[],"stateMutability":"nonpayable"},{"type":"function","name":"setKeeper","inputs":[{"name":"_newKeeper","type":"address","internalType":"address"}],"outputs":[],"stateMutability":"nonpayable"},{"type":"function","name":"setPeer","inputs":[{"name":"_eid","type":"uint32","internalType":"uint32"},{"name":"_peer","type":"bytes32","internalType":"bytes32"}],"outputs":[],"stateMutability":"nonpayable"},{"type":"function","name":"totalPoolSize","inputs":[],"outputs":[{"name":"","type":"uint256","internalType":"uint256"}],"stateMutability":"view"},{"type":"function","name":"transferOwnership","inputs":[{"name":"newOwner","type":"address","internalType":"address"}],"outputs":[],"stateMutability":"nonpayable"},{"type":"function","name":"withdraw","inputs":[{"name":"_to","type":"address","internalType":"address payable"}],"outputs":[],"stateMutability":"nonpayable"},{"type":"event","name":"DrawRequested","inputs":[{"name":"destinationEid","type":"uint32","indexed":false,"internalType":"uint32"},{"name":"receiver","type":"bytes32","indexed":false,"internalType":"bytes32"}],"anonymous":false},{"type":"event","name":"OwnershipTransferred","inputs":[{"name":"previousOwner","type":"address","indexed":true,"internalType":"address"},{"name":"newOwner","type":"address","indexed":true,"internalType":"address"}],"anonymous":false},{"type":"event","name":"PeerSet","inputs":[{"name":"eid","type":"uint32","indexed":false,"internalType":"uint32"},{"name":"peer","type":"bytes32","indexed":false,"internalType":"bytes32"}],"anonymous":false},{"type":"event","name":"StakeReceived","inputs":[{"name":"user","type":"address","indexed":true,"internalType":"address"},{"name":"amount","type":"uint256","indexed":false,"internalType":"uint256"}],"anonymous":false},{"type":"event","name":"WinnerSelected","inputs":[{"name":"winner","type":"address","indexed":true,"internalType":"address"},{"name":"amountWon","type":"uint256","indexed":false,"internalType":"uint256"}],"anonymous":false},{"type":"error","name":"InvalidDelegate","inputs":[]},{"type":"error","name":"InvalidEndpointCall","inputs":[]},{"type":"error","name":"InvalidOptionType","inputs":[{"name":"optionType","type":"uint16","internalType":"uint16"}]},{"type":"error","name":"LzTokenUnavailable","inputs":[]},{"type":"error","name":"NoPeer","inputs":[{"name":"eid","type":"uint32","internalType":"uint32"}]},{"type":"error","name":"NotEnoughNative","inputs":[{"name":"msgValue","type":"uint256","internalType":"uint256"}]},{"type":"error","name":"OnlyEndpoint","inputs":[{"name":"addr","type":"address","internalType":"address"}]},{"type":"error","name":"OnlyPeer","inputs":[{"name":"eid","type":"uint32","internalType":"uint32"},{"name":"sender","type":"bytes32","internalType":"bytes32"}]},{"type":"error","name":"OwnableInvalidOwner","inputs":[{"name":"owner","type":"address","internalType":"address"}]},{"type":"error","name":"OwnableUnauthorizedAccount","inputs":[{"name":"account","type":"address","internalType":"address"}]},{"type":"error","name":"SafeCastOverflowedUintDowncast","inputs":[{"name":"bits","type":"uint8","internalType":"uint8"},{"name":"value","type":"uint256","internalType":"uint256"}]},{"type":"error","name":"SafeERC20FailedOperation","inputs":[{"name":"token","type":"address","internalType":"address"}]}],"bytecode":{"object":"0x610100604052348015610010575f5ffd5b50604051613bbe380380613bbe83398181016040528101906100329190610429565b85858181885f73ffffffffffffffffffffffffffffffffffffffff168173ffffffffffffffffffffffffffffffffffffffff16036100a7575f6040517f1e4fbdf700000000000000000000000000000000000000000000000000000000815260040161009e91906104c1565b60405180910390fd5b6100b68161029e60201b60201c565b508173ffffffffffffffffffffffffffffffffffffffff1660808173ffffffffffffffffffffffffffffffffffffffff16815250505f73ffffffffffffffffffffffffffffffffffffffff168173ffffffffffffffffffffffffffffffffffffffff1603610150576040517fb586360400000000000000000000000000000000000000000000000000000000815260040160405180910390fd5b60805173ffffffffffffffffffffffffffffffffffffffff1663ca5eb5e1826040518263ffffffff1660e01b815260040161018b91906104c1565b5f604051808303815f87803b1580156101a2575f5ffd5b505af11580156101b4573d5f5f3e3d5ffd5b50505050505050508373ffffffffffffffffffffffffffffffffffffffff1660a08173ffffffffffffffffffffffffffffffffffffffff16815250508260035f6101000a81548173ffffffffffffffffffffffffffffffffffffffff021916908373ffffffffffffffffffffffffffffffffffffffff1602179055508460025f6101000a81548173ffffffffffffffffffffffffffffffffffffffff021916908373ffffffffffffffffffffffffffffffffffffffff1602179055508163ffffffff1660c08163ffffffff16815250508060e08181525050426007819055505050505050506104da565b5f5f5f9054906101000a900473ffffffffffffffffffffffffffffffffffffffff169050815f5f6101000a81548173ffffffffffffffffffffffffffffffffffffffff021916908373ffffffffffffffffffffffffffffffffffffffff1602179055508173ffffffffffffffffffffffffffffffffffffffff168173ffffffffffffffffffffffffffffffffffffffff167f8be0079c531659141344cd1fd0a4f28419497f9722a3daafe3b4186f6b6457e060405160405180910390a35050565b5f5ffd5b5f73ffffffffffffffffffffffffffffffffffffffff82169050919050565b5f61038c82610363565b9050919050565b61039c81610382565b81146103a6575f5ffd5b50565b5f815190506103b781610393565b92915050565b5f63ffffffff82169050919050565b6103d5816103bd565b81146103df575f5ffd5b50565b5f815190506103f0816103cc565b92915050565b5f819050919050565b610408816103f6565b8114610412575f5ffd5b50565b5f81519050610423816103ff565b92915050565b5f5f5f5f5f5f60c087890312156104435761044261035f565b5b5f61045089828a016103a9565b965050602061046189828a016103a9565b955050604061047289828a016103a9565b945050606061048389828a016103a9565b935050608061049489828a016103e2565b92505060a06104a589828a01610415565b9150509295509295509295565b6104bb81610382565b82525050565b5f6020820190506104d45f8301846104b2565b92915050565b60805160a05160c05160e05161365d6105615f395f818161075b01528181610f6d015261139401525f8181610e8c01528181610f0001528181610f4c01528181611064015261134d01525f610fcd01525f818161064401528181610fa901528181611148015281816115d0015281816116da01528181611cac0152611da4015261365d5ff3fe60806040526004361061019f575f3560e01c80637565d7ab116100eb578063c4353d8d11610089578063debe86ed11610063578063debe86ed14610573578063f2fde38b1461059d578063fe188184146105c5578063ff7bd03d146105ef576101a6565b8063c4353d8d146104f7578063c6b749e214610521578063ca5eb5e11461054b576101a6565b80638c21460b116100c55780638c21460b1461043d5780638da5cb5b14610467578063aced166114610491578063bb0b6a53146104bb576101a6565b80637565d7ab1461039b5780637d25a05e146103c557806382413eac14610401576101a6565b806351cff8d911610158578063631c307411610132578063631c3074146102f75780636d29c18114610321578063715018a61461035d578063748747e614610373576101a6565b806351cff8d91461029b578063522a1f0b146102c35780635e280f11146102cd576101a6565b806313137d65146101aa57806317442b70146101c65780631f945f5f146101f15780633400288b1461021b57806335c1d349146102435780633ea0fddb1461027f576101a6565b366101a657005b5f5ffd5b6101c460048036038101906101bf9190612102565b61062b565b005b3480156101d1575f5ffd5b506101da61074b565b6040516101e89291906121db565b60405180910390f35b3480156101fc575f5ffd5b50610205610759565b6040516102129190612211565b60405180910390f35b348015610226575f5ffd5b50610241600480360381019061023c9190612263565b61077d565b005b34801561024e575f5ffd5b50610269600480360381019061026491906122d4565b610793565b604051610276919061230e565b60405180910390f35b6102996004803603810190610294919061237c565b6107ce565b005b3480156102a6575f5ffd5b506102c160048036038101906102bc919061243b565b610ccb565b005b6102cb610d1a565b005b3480156102d8575f5ffd5b506102e1610fa7565b6040516102ee91906124c1565b60405180910390f35b348015610302575f5ffd5b5061030b610fcb565b60405161031891906124fa565b60405180910390f35b34801561032c575f5ffd5b5061034760048036038101906103429190612513565b610fef565b604051610354919061254d565b60405180910390f35b348015610368575f5ffd5b50610371611004565b005b34801561037e575f5ffd5b5061039960048036038101906103949190612513565b611017565b005b3480156103a6575f5ffd5b506103af611062565b6040516103bc9190612575565b60405180910390f35b3480156103d0575f5ffd5b506103eb60048036038101906103e69190612263565b611086565b6040516103f8919061258e565b60405180910390f35b34801561040c575f5ffd5b50610427600480360381019061042291906125a7565b611090565b6040516104349190612632565b60405180910390f35b348015610448575f5ffd5b506104516110ca565b60405161045e919061254d565b60405180910390f35b348015610472575f5ffd5b5061047b6110d0565b604051610488919061230e565b60405180910390f35b34801561049c575f5ffd5b506104a56110f7565b6040516104b2919061230e565b60405180910390f35b3480156104c6575f5ffd5b506104e160048036038101906104dc919061264b565b61111c565b6040516104ee9190612211565b60405180910390f35b348015610502575f5ffd5b5061050b611131565b604051610518919061254d565b60405180910390f35b34801561052c575f5ffd5b50610535611137565b604051610542919061254d565b60405180910390f35b348015610556575f5ffd5b50610571600480360381019061056c9190612513565b61113e565b005b34801561057e575f5ffd5b506105876111cf565b6040516105949190612696565b60405180910390f35b3480156105a8575f5ffd5b506105c360048036038101906105be9190612513565b6111f4565b005b3480156105d0575f5ffd5b506105d9611278565b6040516105e6919061230e565b60405180910390f35b3480156105fa575f5ffd5b50610615600480360381019061061091906126af565b61129d565b6040516106229190612632565b60405180910390f35b3373ffffffffffffffffffffffffffffffffffffffff167f000000000000000000000000000000000000000000000000000000000000000073ffffffffffffffffffffffffffffffffffffffff16146106bb57336040517f91ac5e4f0000000000000000000000000000000000000000000000000000000081526004016106b2919061230e565b60405180910390fd5b86602001356106da885f0160208101906106d5919061264b565b6112da565b1461073357865f0160208101906106f1919061264b565b87602001356040517fc26bebcc00000000000000000000000000000000000000000000000000000000815260040161072a9291906126da565b60405180910390fd5b6107428787878787878761134b565b50505050505050565b5f5f60016002915091509091565b7f000000000000000000000000000000000000000000000000000000000000000081565b610785611420565b61078f82826114a7565b5050565b600481815481106107a2575f80fd5b905f5260205f20015f915054906101000a900473ffffffffffffffffffffffffffffffffffffffff1681565b60035f9054906101000a900473ffffffffffffffffffffffffffffffffffffffff1673ffffffffffffffffffffffffffffffffffffffff163373ffffffffffffffffffffffffffffffffffffffff161461085d576040517f08c379a00000000000000000000000000000000000000000000000000000000081526004016108549061275b565b60405180910390fd5b5f841161089f576040517f08c379a0000000000000000000000000000000000000000000000000000000008152600401610896906127c3565b60405180910390fd5b8273ffffffffffffffffffffffffffffffffffffffff166323b872dd60035f9054906101000a900473ffffffffffffffffffffffffffffffffffffffff1630876040518463ffffffff1660e01b81526004016108fd939291906127e1565b6020604051808303815f875af1158015610919573d5f5f3e3d5ffd5b505050506040513d601f19601f8201168201806040525081019061093d9190612840565b508273ffffffffffffffffffffffffffffffffffffffff1663095ea7b360035f9054906101000a900473ffffffffffffffffffffffffffffffffffffffff16866040518363ffffffff1660e01b815260040161099a92919061286b565b6020604051808303815f875af11580156109b6573d5f5f3e3d5ffd5b505050506040513d601f19601f820116820180604052508101906109da9190612840565b505f4790505f60035f9054906101000a900473ffffffffffffffffffffffffffffffffffffffff1673ffffffffffffffffffffffffffffffffffffffff1663e2a04b62866040518263ffffffff1660e01b8152600401610a3a919061230e565b5f60405180830381865afa158015610a54573d5f5f3e3d5ffd5b505050506040513d5f823e3d601f19601f82011682018060405250810190610a7c91906129ca565b905060035f9054906101000a900473ffffffffffffffffffffffffffffffffffffffff1673ffffffffffffffffffffffffffffffffffffffff1663d9e30eaa34838988886040518663ffffffff1660e01b8152600401610adf9493929190612bb9565b5f604051808303818588803b158015610af6575f5ffd5b505af1158015610b08573d5f5f3e3d5ffd5b50505050505f4790505f8382610b1e9190612c2b565b90505f8111610b62576040517f08c379a0000000000000000000000000000000000000000000000000000000008152600401610b5990612ca8565b60405180910390fd5b5f60055f8b73ffffffffffffffffffffffffffffffffffffffff1673ffffffffffffffffffffffffffffffffffffffff1681526020019081526020015f205403610c0757600489908060018154018082558091505060019003905f5260205f20015f9091909190916101000a81548173ffffffffffffffffffffffffffffffffffffffff021916908373ffffffffffffffffffffffffffffffffffffffff1602179055505b8060055f8b73ffffffffffffffffffffffffffffffffffffffff1673ffffffffffffffffffffffffffffffffffffffff1681526020019081526020015f205f828254610c539190612cc6565b925050819055508060065f828254610c6b9190612cc6565b925050819055508873ffffffffffffffffffffffffffffffffffffffff167f85ca1943c20501f52a51dade608849218a28cdf3afb59ef35e0c77bb8223cf6082604051610cb8919061254d565b60405180910390a2505050505050505050565b610cd3611420565b8073ffffffffffffffffffffffffffffffffffffffff166108fc4790811502906040515f60405180830381858888f19350505050158015610d16573d5f5f3e3d5ffd5b5050565b60025f9054906101000a900473ffffffffffffffffffffffffffffffffffffffff1673ffffffffffffffffffffffffffffffffffffffff163373ffffffffffffffffffffffffffffffffffffffff1614610da9576040517f08c379a0000000000000000000000000000000000000000000000000000000008152600401610da090612d43565b60405180910390fd5b62093a80600754610dba9190612cc6565b421015610dfc576040517f08c379a0000000000000000000000000000000000000000000000000000000008152600401610df390612dab565b60405180910390fd5b5f60048054905011610e43576040517f08c379a0000000000000000000000000000000000000000000000000000000008152600401610e3a90612e13565b60405180910390fd5b5f604051602001610e5390612e54565b60405160208183030381529060405290505f610e8462030d405f610e75611506565b61152e9092919063ffffffff16565b90505f610eb37f000000000000000000000000000000000000000000000000000000000000000084845f6115c6565b9050805f0151341015610efb576040517f08c379a0000000000000000000000000000000000000000000000000000000008152600401610ef290612ebc565b60405180910390fd5b610f287f0000000000000000000000000000000000000000000000000000000000000000848484336116a7565b507f258586672c07366a2c9468dc494b9d27ab756a1f885ffc721bfd066d5e7675c27f00000000000000000000000000000000000000000000000000000000000000007f0000000000000000000000000000000000000000000000000000000000000000604051610f9a9291906126da565b60405180910390a1505050565b7f000000000000000000000000000000000000000000000000000000000000000081565b7f000000000000000000000000000000000000000000000000000000000000000081565b6005602052805f5260405f205f915090505481565b61100c611420565b6110155f6117bd565b565b61101f611420565b8060025f6101000a81548173ffffffffffffffffffffffffffffffffffffffff021916908373ffffffffffffffffffffffffffffffffffffffff16021790555050565b7f000000000000000000000000000000000000000000000000000000000000000081565b5f5f905092915050565b5f3073ffffffffffffffffffffffffffffffffffffffff168273ffffffffffffffffffffffffffffffffffffffff16149050949350505050565b60075481565b5f5f5f9054906101000a900473ffffffffffffffffffffffffffffffffffffffff16905090565b60025f9054906101000a900473ffffffffffffffffffffffffffffffffffffffff1681565b6001602052805f5260405f205f915090505481565b60065481565b62093a8081565b611146611420565b7f000000000000000000000000000000000000000000000000000000000000000073ffffffffffffffffffffffffffffffffffffffff1663ca5eb5e1826040518263ffffffff1660e01b815260040161119f919061230e565b5f604051808303815f87803b1580156111b6575f5ffd5b505af11580156111c8573d5f5f3e3d5ffd5b5050505050565b60035f9054906101000a900473ffffffffffffffffffffffffffffffffffffffff1681565b6111fc611420565b5f73ffffffffffffffffffffffffffffffffffffffff168173ffffffffffffffffffffffffffffffffffffffff160361126c575f6040517f1e4fbdf7000000000000000000000000000000000000000000000000000000008152600401611263919061230e565b60405180910390fd5b611275816117bd565b50565b60085f9054906101000a900473ffffffffffffffffffffffffffffffffffffffff1681565b5f816020013560015f845f0160208101906112b8919061264b565b63ffffffff1663ffffffff1681526020019081526020015f2054149050919050565b5f5f60015f8463ffffffff1663ffffffff1681526020019081526020015f205490505f5f1b810361134257826040517ff6ff4fb70000000000000000000000000000000000000000000000000000000081526004016113399190612575565b60405180910390fd5b80915050919050565b7f000000000000000000000000000000000000000000000000000000000000000063ffffffff16875f016020810190611384919061264b565b63ffffffff161480156113ba57507f00000000000000000000000000000000000000000000000000000000000000008760200135145b6113f9576040517f08c379a00000000000000000000000000000000000000000000000000000000081526004016113f090612f24565b60405180910390fd5b5f85858101906114099190612f42565b9050611416815f1c61187e565b5050505050505050565b611428611aca565b73ffffffffffffffffffffffffffffffffffffffff166114466110d0565b73ffffffffffffffffffffffffffffffffffffffff16146114a557611469611aca565b6040517f118cdaa700000000000000000000000000000000000000000000000000000000815260040161149c919061230e565b60405180910390fd5b565b8060015f8463ffffffff1663ffffffff1681526020019081526020015f20819055507f238399d427b947898edb290f5ff0f9109849b1c3ba196a42e35f00c50a54b98b82826040516114fa9291906126da565b60405180910390a15050565b6060600360405160200161151a9190612fae565b604051602081830303815290604052905090565b606083600361ffff1661154a5f83611ad190919063ffffffff16565b61ffff16146115a2576115665f82611ad190919063ffffffff16565b6040517f3a51740d0000000000000000000000000000000000000000000000000000000081526004016115999190612fd7565b60405180910390fd5b5f6115ad8585611b36565b90506115bb86600183611ba1565b925050509392505050565b6115ce611f61565b7f000000000000000000000000000000000000000000000000000000000000000073ffffffffffffffffffffffffffffffffffffffff1663ddc28c586040518060a001604052808863ffffffff16815260200161162a896112da565b8152602001878152602001868152602001851515815250306040518363ffffffff1660e01b815260040161165f9291906130d9565b6040805180830381865afa158015611679573d5f5f3e3d5ffd5b505050506040513d601f19601f8201168201806040525081019061169d919061316c565b9050949350505050565b6116af611f79565b5f6116bc845f0151611c5c565b90505f846020015111156116d8576116d78460200151611ca9565b5b7f000000000000000000000000000000000000000000000000000000000000000073ffffffffffffffffffffffffffffffffffffffff16632637a450826040518060a001604052808b63ffffffff1681526020016117358c6112da565b81526020018a81526020018981526020015f8960200151111515815250866040518463ffffffff1660e01b81526004016117709291906130d9565b60806040518083038185885af115801561178c573d5f5f3e3d5ffd5b50505050506040513d601f19601f820116820180604052508101906117b19190613236565b91505095945050505050565b5f5f5f9054906101000a900473ffffffffffffffffffffffffffffffffffffffff169050815f5f6101000a81548173ffffffffffffffffffffffffffffffffffffffff021916908373ffffffffffffffffffffffffffffffffffffffff1602179055508173ffffffffffffffffffffffffffffffffffffffff168173ffffffffffffffffffffffffffffffffffffffff167f8be0079c531659141344cd1fd0a4f28419497f9722a3daafe3b4186f6b6457e060405160405180910390a35050565b5f60048054905082611890919061328e565b90505f600482815481106118a7576118a66132be565b5b905f5260205f20015f9054906101000a900473ffffffffffffffffffffffffffffffffffffffff1690508060085f6101000a81548173ffffffffffffffffffffffffffffffffffffffff021916908373ffffffffffffffffffffffffffffffffffffffff1602179055505f60065490505f600681905550426007819055505f5f90505b6004805490508110156119bf5760055f6004838154811061194e5761194d6132be565b5b905f5260205f20015f9054906101000a900473ffffffffffffffffffffffffffffffffffffffff1673ffffffffffffffffffffffffffffffffffffffff1673ffffffffffffffffffffffffffffffffffffffff1681526020019081526020015f205f9055808060010191505061192a565b5060045f6119cd9190611fa8565b5f8273ffffffffffffffffffffffffffffffffffffffff16826040516119f290613315565b5f6040518083038185875af1925050503d805f8114611a2c576040519150601f19603f3d011682016040523d82523d5f602084013e611a31565b606091505b5050905080611a75576040517f08c379a0000000000000000000000000000000000000000000000000000000008152600401611a6c90613373565b60405180910390fd5b8273ffffffffffffffffffffffffffffffffffffffff167f75060f9e79552df167b73353fee6237a75bb5ba8ea022f77224e32f152138bcb83604051611abb919061254d565b60405180910390a25050505050565b5f33905090565b5f600282611adf9190612cc6565b83511015611b22576040517f08c379a0000000000000000000000000000000000000000000000000000000008152600401611b19906133db565b60405180910390fd5b5f8260028501015190508091505092915050565b60605f826fffffffffffffffffffffffffffffffff1614611b78578282604051602001611b64929190613448565b604051602081830303815290604052611b99565b82604051602001611b899190613473565b6040516020818303038152906040525b905092915050565b606083600361ffff16611bbd5f83611ad190919063ffffffff16565b61ffff1614611c1557611bd95f82611ad190919063ffffffff16565b6040517f3a51740d000000000000000000000000000000000000000000000000000000008152600401611c0c9190612fd7565b60405180910390fd5b84600180611c238651611def565b611c2d919061348d565b8686604051602001611c43959493929190613532565b6040516020818303038152906040529150509392505050565b5f813414611ca157346040517f9f704120000000000000000000000000000000000000000000000000000000008152600401611c98919061254d565b60405180910390fd5b819050919050565b5f7f000000000000000000000000000000000000000000000000000000000000000073ffffffffffffffffffffffffffffffffffffffff1663e4fe1d946040518163ffffffff1660e01b8152600401602060405180830381865afa158015611d13573d5f5f3e3d5ffd5b505050506040513d601f19601f82011682018060405250810190611d37919061359c565b90505f73ffffffffffffffffffffffffffffffffffffffff168173ffffffffffffffffffffffffffffffffffffffff1603611d9e576040517f5373352a00000000000000000000000000000000000000000000000000000000815260040160405180910390fd5b611deb337f0000000000000000000000000000000000000000000000000000000000000000848473ffffffffffffffffffffffffffffffffffffffff16611e44909392919063ffffffff16565b5050565b5f61ffff8016821115611e3c576010826040517f6dfcc650000000000000000000000000000000000000000000000000000000008152600401611e33929190613600565b60405180910390fd5b819050919050565b611ec0848573ffffffffffffffffffffffffffffffffffffffff166323b872dd868686604051602401611e79939291906127e1565b604051602081830303815290604052915060e01b6020820180517bffffffffffffffffffffffffffffffffffffffffffffffffffffffff8381831617835250505050611ec6565b50505050565b5f5f60205f8451602086015f885af180611ee5576040513d5f823e3d81fd5b3d92505f519150505f8214611efe576001811415611f19565b5f8473ffffffffffffffffffffffffffffffffffffffff163b145b15611f5b57836040517f5274afe7000000000000000000000000000000000000000000000000000000008152600401611f52919061230e565b60405180910390fd5b50505050565b60405180604001604052805f81526020015f81525090565b60405180606001604052805f81526020015f67ffffffffffffffff168152602001611fa2611f61565b81525090565b5080545f8255905f5260205f2090810190611fc39190611fc6565b50565b5b80821115611fdd575f815f905550600101611fc7565b5090565b5f604051905090565b5f5ffd5b5f5ffd5b5f5ffd5b5f6060828403121561200b5761200a611ff2565b5b81905092915050565b5f819050919050565b61202681612014565b8114612030575f5ffd5b50565b5f813590506120418161201d565b92915050565b5f5ffd5b5f5ffd5b5f5ffd5b5f5f83601f84011261206857612067612047565b5b8235905067ffffffffffffffff8111156120855761208461204b565b5b6020830191508360018202830111156120a1576120a061204f565b5b9250929050565b5f73ffffffffffffffffffffffffffffffffffffffff82169050919050565b5f6120d1826120a8565b9050919050565b6120e1816120c7565b81146120eb575f5ffd5b50565b5f813590506120fc816120d8565b92915050565b5f5f5f5f5f5f5f60e0888a03121561211d5761211c611fea565b5b5f61212a8a828b01611ff6565b975050606061213b8a828b01612033565b965050608088013567ffffffffffffffff81111561215c5761215b611fee565b5b6121688a828b01612053565b955095505060a061217b8a828b016120ee565b93505060c088013567ffffffffffffffff81111561219c5761219b611fee565b5b6121a88a828b01612053565b925092505092959891949750929550565b5f67ffffffffffffffff82169050919050565b6121d5816121b9565b82525050565b5f6040820190506121ee5f8301856121cc565b6121fb60208301846121cc565b9392505050565b61220b81612014565b82525050565b5f6020820190506122245f830184612202565b92915050565b5f63ffffffff82169050919050565b6122428161222a565b811461224c575f5ffd5b50565b5f8135905061225d81612239565b92915050565b5f5f6040838503121561227957612278611fea565b5b5f6122868582860161224f565b925050602061229785828601612033565b9150509250929050565b5f819050919050565b6122b3816122a1565b81146122bd575f5ffd5b50565b5f813590506122ce816122aa565b92915050565b5f602082840312156122e9576122e8611fea565b5b5f6122f6848285016122c0565b91505092915050565b612308816120c7565b82525050565b5f6020820190506123215f8301846122ff565b92915050565b5f5f83601f84011261233c5761233b612047565b5b8235905067ffffffffffffffff8111156123595761235861204b565b5b6020830191508360208202830111156123755761237461204f565b5b9250929050565b5f5f5f5f5f6080868803121561239557612394611fea565b5b5f6123a2888289016120ee565b95505060206123b3888289016122c0565b94505060406123c4888289016120ee565b935050606086013567ffffffffffffffff8111156123e5576123e4611fee565b5b6123f188828901612327565b92509250509295509295909350565b5f61240a826120a8565b9050919050565b61241a81612400565b8114612424575f5ffd5b50565b5f8135905061243581612411565b92915050565b5f602082840312156124505761244f611fea565b5b5f61245d84828501612427565b91505092915050565b5f819050919050565b5f61248961248461247f846120a8565b612466565b6120a8565b9050919050565b5f61249a8261246f565b9050919050565b5f6124ab82612490565b9050919050565b6124bb816124a1565b82525050565b5f6020820190506124d45f8301846124b2565b92915050565b5f6124e482612490565b9050919050565b6124f4816124da565b82525050565b5f60208201905061250d5f8301846124eb565b92915050565b5f6020828403121561252857612527611fea565b5b5f612535848285016120ee565b91505092915050565b612547816122a1565b82525050565b5f6020820190506125605f83018461253e565b92915050565b61256f8161222a565b82525050565b5f6020820190506125885f830184612566565b92915050565b5f6020820190506125a15f8301846121cc565b92915050565b5f5f5f5f60a085870312156125bf576125be611fea565b5b5f6125cc87828801611ff6565b945050606085013567ffffffffffffffff8111156125ed576125ec611fee565b5b6125f987828801612053565b9350935050608061260c878288016120ee565b91505092959194509250565b5f8115159050919050565b61262c81612618565b82525050565b5f6020820190506126455f830184612623565b92915050565b5f602082840312156126605761265f611fea565b5b5f61266d8482850161224f565b91505092915050565b5f61268082612490565b9050919050565b61269081612676565b82525050565b5f6020820190506126a95f830184612687565b92915050565b5f606082840312156126c4576126c3611fea565b5b5f6126d184828501611ff6565b91505092915050565b5f6040820190506126ed5f830185612566565b6126fa6020830184612202565b9392505050565b5f82825260208201905092915050565b7f4f6e6c792041707020636f6e74726163742063616e2063616c6c0000000000005f82015250565b5f612745601a83612701565b915061275082612711565b602082019050919050565b5f6020820190508181035f83015261277281612739565b9050919050565b7f416d6f756e74206d75737420626520706f7369746976650000000000000000005f82015250565b5f6127ad601783612701565b91506127b882612779565b602082019050919050565b5f6020820190508181035f8301526127da816127a1565b9050919050565b5f6060820190506127f45f8301866122ff565b61280160208301856122ff565b61280e604083018461253e565b949350505050565b61281f81612618565b8114612829575f5ffd5b50565b5f8151905061283a81612816565b92915050565b5f6020828403121561285557612854611fea565b5b5f6128628482850161282c565b91505092915050565b5f60408201905061287e5f8301856122ff565b61288b602083018461253e565b9392505050565b5f5ffd5b5f601f19601f8301169050919050565b7f4e487b71000000000000000000000000000000000000000000000000000000005f52604160045260245ffd5b6128dc82612896565b810181811067ffffffffffffffff821117156128fb576128fa6128a6565b5b80604052505050565b5f61290d611fe1565b905061291982826128d3565b919050565b5f67ffffffffffffffff821115612938576129376128a6565b5b61294182612896565b9050602081019050919050565b8281835e5f83830152505050565b5f61296e6129698461291e565b612904565b90508281526020810184848401111561298a57612989612892565b5b61299584828561294e565b509392505050565b5f82601f8301126129b1576129b0612047565b5b81516129c184826020860161295c565b91505092915050565b5f602082840312156129df576129de611fea565b5b5f82015167ffffffffffffffff8111156129fc576129fb611fee565b5b612a088482850161299d565b91505092915050565b5f81519050919050565b5f612a2582612a11565b612a2f8185612701565b9350612a3f81856020860161294e565b612a4881612896565b840191505092915050565b5f82825260208201905092915050565b5f819050919050565b5f82825260208201905092915050565b828183375f83830152505050565b5f612a958385612a6c565b9350612aa2838584612a7c565b612aab83612896565b840190509392505050565b5f612ac2848484612a8a565b90509392505050565b5f5ffd5b5f5ffd5b5f5ffd5b5f5f83356001602003843603038112612af357612af2612ad3565b5b83810192508235915060208301925067ffffffffffffffff821115612b1b57612b1a612acb565b5b600182023603831315612b3157612b30612acf565b5b509250929050565b5f602082019050919050565b5f612b508385612a53565b935083602084028501612b6284612a63565b805f5b87811015612ba7578484038952612b7c8284612ad7565b612b87868284612ab6565b9550612b9284612b39565b935060208b019a505050600181019050612b65565b50829750879450505050509392505050565b5f6060820190508181035f830152612bd18187612a1b565b9050612be0602083018661253e565b8181036040830152612bf3818486612b45565b905095945050505050565b7f4e487b71000000000000000000000000000000000000000000000000000000005f52601160045260245ffd5b5f612c35826122a1565b9150612c40836122a1565b9250828203905081811115612c5857612c57612bfe565b5b92915050565b7f5377617020746f20464c4f57206661696c6564000000000000000000000000005f82015250565b5f612c92601383612701565b9150612c9d82612c5e565b602082019050919050565b5f6020820190508181035f830152612cbf81612c86565b9050919050565b5f612cd0826122a1565b9150612cdb836122a1565b9250828201905080821115612cf357612cf2612bfe565b5b92915050565b7f4f6e6c79206b65657065722063616e2063616c6c0000000000000000000000005f82015250565b5f612d2d601483612701565b9150612d3882612cf9565b602082019050919050565b5f6020820190508181035f830152612d5a81612d21565b9050919050565b7f4472617720696e74657276616c206e6f742070617373656400000000000000005f82015250565b5f612d95601883612701565b9150612da082612d61565b602082019050919050565b5f6020820190508181035f830152612dc281612d89565b9050919050565b7f4e6f207061727469636970616e747320696e2074686520706f6f6c00000000005f82015250565b5f612dfd601b83612701565b9150612e0882612dc9565b602082019050919050565b5f6020820190508181035f830152612e2a81612df1565b9050919050565b50565b5f612e3f5f83612701565b9150612e4a82612e31565b5f82019050919050565b5f6020820190508181035f830152612e6b81612e34565b9050919050565b7f4c6f7474657279506f6f6c3a20496e73756666696369656e74206665652e00005f82015250565b5f612ea6601e83612701565b9150612eb182612e72565b602082019050919050565b5f6020820190508181035f830152612ed381612e9a565b9050919050565b7f556e617574686f72697a65642073656e646572000000000000000000000000005f82015250565b5f612f0e601383612701565b9150612f1982612eda565b602082019050919050565b5f6020820190508181035f830152612f3b81612f02565b9050919050565b5f60208284031215612f5757612f56611fea565b5b5f612f6484828501612033565b91505092915050565b5f61ffff82169050919050565b5f8160f01b9050919050565b5f612f9082612f7a565b9050919050565b612fa8612fa382612f6d565b612f86565b82525050565b5f612fb98284612f97565b60028201915081905092915050565b612fd181612f6d565b82525050565b5f602082019050612fea5f830184612fc8565b92915050565b612ff98161222a565b82525050565b61300881612014565b82525050565b5f81519050919050565b5f6130228261300e565b61302c8185612a6c565b935061303c81856020860161294e565b61304581612896565b840191505092915050565b61305981612618565b82525050565b5f60a083015f8301516130745f860182612ff0565b5060208301516130876020860182612fff565b506040830151848203604086015261309f8282613018565b915050606083015184820360608601526130b98282613018565b91505060808301516130ce6080860182613050565b508091505092915050565b5f6040820190508181035f8301526130f1818561305f565b905061310060208301846122ff565b9392505050565b5f5ffd5b5f81519050613119816122aa565b92915050565b5f6040828403121561313457613133613107565b5b61313e6040612904565b90505f61314d8482850161310b565b5f8301525060206131608482850161310b565b60208301525092915050565b5f6040828403121561318157613180611fea565b5b5f61318e8482850161311f565b91505092915050565b5f815190506131a58161201d565b92915050565b6131b4816121b9565b81146131be575f5ffd5b50565b5f815190506131cf816131ab565b92915050565b5f608082840312156131ea576131e9613107565b5b6131f46060612904565b90505f61320384828501613197565b5f830152506020613216848285016131c1565b602083015250604061322a8482850161311f565b60408301525092915050565b5f6080828403121561324b5761324a611fea565b5b5f613258848285016131d5565b91505092915050565b7f4e487b71000000000000000000000000000000000000000000000000000000005f52601260045260245ffd5b5f613298826122a1565b91506132a3836122a1565b9250826132b3576132b2613261565b5b828206905092915050565b7f4e487b71000000000000000000000000000000000000000000000000000000005f52603260045260245ffd5b5f81905092915050565b5f6133005f836132eb565b915061330b82612e31565b5f82019050919050565b5f61331f826132f5565b9150819050919050565b7f5472616e73666572206661696c656400000000000000000000000000000000005f82015250565b5f61335d600f83612701565b915061336882613329565b602082019050919050565b5f6020820190508181035f83015261338a81613351565b9050919050565b7f746f55696e7431365f6f75744f66426f756e64730000000000000000000000005f82015250565b5f6133c5601483612701565b91506133d082613391565b602082019050919050565b5f6020820190508181035f8301526133f2816133b9565b9050919050565b5f6fffffffffffffffffffffffffffffffff82169050919050565b5f8160801b9050919050565b5f61342a82613414565b9050919050565b61344261343d826133f9565b613420565b82525050565b5f6134538285613431565b6010820191506134638284613431565b6010820191508190509392505050565b5f61347e8284613431565b60108201915081905092915050565b5f61349782612f6d565b91506134a283612f6d565b9250828201905061ffff8111156134bc576134bb612bfe565b5b92915050565b5f6134cc8261300e565b6134d681856132eb565b93506134e681856020860161294e565b80840191505092915050565b5f60ff82169050919050565b5f8160f81b9050919050565b5f613514826134fe565b9050919050565b61352c613527826134f2565b61350a565b82525050565b5f61353d82886134c2565b9150613549828761351b565b6001820191506135598286612f97565b600282019150613569828561351b565b60018201915061357982846134c2565b91508190509695505050505050565b5f81519050613596816120d8565b92915050565b5f602082840312156135b1576135b0611fea565b5b5f6135be84828501613588565b91505092915050565b5f819050919050565b5f6135ea6135e56135e0846135c7565b612466565b6134f2565b9050919050565b6135fa816135d0565b82525050565b5f6040820190506136135f8301856135f1565b613620602083018461253e565b939250505056fea26469706673582212203d273d04355a89a1baaa7d9286f950c748103c436b93ad42922fe367c6a8813264736f6c634300081e0033","linkReferences":{}},"methodIdentifiers":{"DRAW_INTERVAL()":"c6b749e2","allowInitializePath((uint32,bytes32,uint64))":"ff7bd03d","appContract()":"debe86ed","baseChainEid()":"7565d7ab","endpoint()":"5e280f11","enterLottery(address,uint256,address,bytes[])":"3ea0fddb","flowToken()":"631c3074","isComposeMsgSender((uint32,bytes32,uint64),bytes,address)":"82413eac","keeper()":"aced1661","lastDrawTimestamp()":"8c21460b","lastWinner()":"fe188184","lzReceive((uint32,bytes32,uint64),bytes32,bytes,address,bytes)":"13137d65","nextNonce(uint32,bytes32)":"7d25a05e","oAppVersion()":"17442b70","owner()":"8da5cb5b","participantStakes(address)":"6d29c181","participants(uint256)":"35c1d349","peers(uint32)":"bb0b6a53","renounceOwnership()":"715018a6","requestRandomWinner()":"522a1f0b","rngContractAddress()":"1f945f5f","setDelegate(address)":"ca5eb5e1","setKeeper(address)":"748747e6","setPeer(uint32,bytes32)":"3400288b","totalPoolSize()":"c4353d8d","transferOwnership(address)":"f2fde38b","withdraw(address)":"51cff8d9"},"id":54}