{"abi":[{"type":"constructor","inputs":[{"name":"_fCHF_Address","type":"address","internalType":"address"},{"name":"_fEUR_Address","type":"address","internalType":"address"},{"name":"_fGBP_Address","type":"address","internalType":"address"},{"name":"_fINR_Address","type":"address","internalType":"address"},{"name":"_fUSD_Address","type":"address","internalType":"address"},{"name":"_fYEN_Address","type":"address","internalType":"address"},{"name":"_basketNFTAddress","type":"address","internalType":"address"}],"stateMutability":"nonpayable"},{"type":"receive","stateMutability":"payable"},{"type":"function","name":"DECIMALS","inputs":[],"outputs":[{"name":"","type":"uint256","internalType":"uint256"}],"stateMutability":"view"},{"type":"function","name":"EUR_USD","inputs":[],"outputs":[{"name":"","type":"bytes32","internalType":"bytes32"}],"stateMutability":"view"},{"type":"function","name":"FLOW_USD","inputs":[],"outputs":[{"name":"","type":"bytes32","internalType":"bytes32"}],"stateMutability":"view"},{"type":"function","name":"GBP_USD","inputs":[],"outputs":[{"name":"","type":"bytes32","internalType":"bytes32"}],"stateMutability":"view"},{"type":"function","name":"PythAddress","inputs":[],"outputs":[{"name":"","type":"address","internalType":"address"}],"stateMutability":"view"},{"type":"function","name":"SCALE","inputs":[],"outputs":[{"name":"","type":"uint256","internalType":"uint256"}],"stateMutability":"view"},{"type":"function","name":"USDC_USD","inputs":[],"outputs":[{"name":"","type":"bytes32","internalType":"bytes32"}],"stateMutability":"view"},{"type":"function","name":"USD_CHF","inputs":[],"outputs":[{"name":"","type":"bytes32","internalType":"bytes32"}],"stateMutability":"view"},{"type":"function","name":"USD_INR","inputs":[],"outputs":[{"name":"","type":"bytes32","internalType":"bytes32"}],"stateMutability":"view"},{"type":"function","name":"USD_YEN","inputs":[],"outputs":[{"name":"","type":"bytes32","internalType":"bytes32"}],"stateMutability":"view"},{"type":"function","name":"addInitialLiquidity","inputs":[],"outputs":[],"stateMutability":"nonpayable"},{"type":"function","name":"addressToName","inputs":[{"name":"","type":"address","internalType":"address"}],"outputs":[{"name":"","type":"string","internalType":"string"}],"stateMutability":"view"},{"type":"function","name":"basketNFT","inputs":[],"outputs":[{"name":"","type":"address","internalType":"contract BasketJsonNFT"}],"stateMutability":"view"},{"type":"function","name":"buyTokensFromFlow","inputs":[{"name":"_tokenName","type":"string","internalType":"string"},{"name":"updateData","type":"bytes[]","internalType":"bytes[]"}],"outputs":[],"stateMutability":"payable"},{"type":"function","name":"executeBasket","inputs":[{"name":"_inputTokenName","type":"string","internalType":"string"},{"name":"_inputAmount","type":"uint256","internalType":"uint256"},{"name":"_outputTokenNames","type":"string[]","internalType":"string[]"},{"name":"_outputPercentages","type":"uint256[]","internalType":"uint256[]"},{"name":"_basket_lockout_period","type":"uint256","internalType":"uint256"},{"name":"_jsonMetadata","type":"string","internalType":"string"},{"name":"updateData","type":"bytes[]","internalType":"bytes[]"}],"outputs":[],"stateMutability":"payable"},{"type":"function","name":"fCHF_Address","inputs":[],"outputs":[{"name":"","type":"address","internalType":"address"}],"stateMutability":"view"},{"type":"function","name":"fEUR_Address","inputs":[],"outputs":[{"name":"","type":"address","internalType":"address"}],"stateMutability":"view"},{"type":"function","name":"fGBP_Address","inputs":[],"outputs":[{"name":"","type":"address","internalType":"address"}],"stateMutability":"view"},{"type":"function","name":"fINR_Address","inputs":[],"outputs":[{"name":"","type":"address","internalType":"address"}],"stateMutability":"view"},{"type":"function","name":"fUSD_Address","inputs":[],"outputs":[{"name":"","type":"address","internalType":"address"}],"stateMutability":"view"},{"type":"function","name":"fYEN_Address","inputs":[],"outputs":[{"name":"","type":"address","internalType":"address"}],"stateMutability":"view"},{"type":"function","name":"getNormalizedPrice","inputs":[{"name":"priceId","type":"bytes32","internalType":"bytes32"}],"outputs":[{"name":"","type":"uint256","internalType":"uint256"}],"stateMutability":"view"},{"type":"function","name":"getUserNFTCount","inputs":[{"name":"user","type":"address","internalType":"address"}],"outputs":[{"name":"","type":"uint256","internalType":"uint256"}],"stateMutability":"view"},{"type":"function","name":"getUserNFTs","inputs":[{"name":"user","type":"address","internalType":"address"}],"outputs":[{"name":"","type":"uint256[]","internalType":"uint256[]"}],"stateMutability":"view"},{"type":"function","name":"initialLiquidityAdded","inputs":[],"outputs":[{"name":"","type":"bool","internalType":"bool"}],"stateMutability":"view"},{"type":"function","name":"nameToAddress","inputs":[{"name":"","type":"string","internalType":"string"}],"outputs":[{"name":"","type":"address","internalType":"address"}],"stateMutability":"view"},{"type":"function","name":"nameToId","inputs":[{"name":"","type":"string","internalType":"string"}],"outputs":[{"name":"","type":"bytes32","internalType":"bytes32"}],"stateMutability":"view"},{"type":"function","name":"nftBaskets","inputs":[{"name":"","type":"uint256","internalType":"uint256"}],"outputs":[{"name":"owner","type":"address","internalType":"address"},{"name":"inputToken","type":"string","internalType":"string"},{"name":"unlockTimestamp","type":"uint256","internalType":"uint256"}],"stateMutability":"view"},{"type":"function","name":"nftIndex","inputs":[{"name":"","type":"uint256","internalType":"uint256"}],"outputs":[{"name":"","type":"uint256","internalType":"uint256"}],"stateMutability":"view"},{"type":"function","name":"owner","inputs":[],"outputs":[{"name":"","type":"address","internalType":"address"}],"stateMutability":"view"},{"type":"function","name":"redeemBasket","inputs":[{"name":"_nftId","type":"uint256","internalType":"uint256"},{"name":"updateData","type":"bytes[]","internalType":"bytes[]"}],"outputs":[],"stateMutability":"payable"},{"type":"function","name":"renounceOwnership","inputs":[],"outputs":[],"stateMutability":"nonpayable"},{"type":"function","name":"sellTokensForFlow","inputs":[{"name":"_tokenName","type":"string","internalType":"string"},{"name":"tokenAmount","type":"uint256","internalType":"uint256"},{"name":"updateData","type":"bytes[]","internalType":"bytes[]"}],"outputs":[],"stateMutability":"payable"},{"type":"function","name":"swapContracts","inputs":[{"name":"","type":"bytes32","internalType":"bytes32"}],"outputs":[{"name":"","type":"address","internalType":"address"}],"stateMutability":"view"},{"type":"function","name":"transferOwnership","inputs":[{"name":"newOwner","type":"address","internalType":"address"}],"outputs":[],"stateMutability":"nonpayable"},{"type":"function","name":"updatePrice","inputs":[{"name":"updateData","type":"bytes[]","internalType":"bytes[]"}],"outputs":[],"stateMutability":"payable"},{"type":"function","name":"userNFTs","inputs":[{"name":"","type":"address","internalType":"address"},{"name":"","type":"uint256","internalType":"uint256"}],"outputs":[{"name":"","type":"uint256","internalType":"uint256"}],"stateMutability":"view"},{"type":"function","name":"userOwnsNFT","inputs":[{"name":"user","type":"address","internalType":"address"},{"name":"nftId","type":"uint256","internalType":"uint256"}],"outputs":[{"name":"","type":"bool","internalType":"bool"}],"stateMutability":"view"},{"type":"function","name":"withdrawETH","inputs":[{"name":"amount","type":"uint256","internalType":"uint256"}],"outputs":[],"stateMutability":"nonpayable"},{"type":"event","name":"BasketCreated","inputs":[{"name":"user","type":"address","indexed":true,"internalType":"address"},{"name":"nftId","type":"uint256","indexed":true,"internalType":"uint256"},{"name":"tokens","type":"string[]","indexed":false,"internalType":"string[]"},{"name":"amounts","type":"uint256[]","indexed":false,"internalType":"uint256[]"}],"anonymous":false},{"type":"event","name":"BasketRedeemed","inputs":[{"name":"user","type":"address","indexed":true,"internalType":"address"},{"name":"nftId","type":"uint256","indexed":true,"internalType":"uint256"},{"name":"amountRedeemed","type":"uint256","indexed":false,"internalType":"uint256"}],"anonymous":false},{"type":"event","name":"OwnershipTransferred","inputs":[{"name":"previousOwner","type":"address","indexed":true,"internalType":"address"},{"name":"newOwner","type":"address","indexed":true,"internalType":"address"}],"anonymous":false},{"type":"event","name":"TokensBoughtWithFlow","inputs":[{"name":"user","type":"address","indexed":true,"internalType":"address"},{"name":"token","type":"address","indexed":true,"internalType":"address"},{"name":"flowAmount","type":"uint256","indexed":false,"internalType":"uint256"},{"name":"tokenAmount","type":"uint256","indexed":false,"internalType":"uint256"}],"anonymous":false},{"type":"event","name":"TokensSoldForFlow","inputs":[{"name":"user","type":"address","indexed":true,"internalType":"address"},{"name":"token","type":"address","indexed":true,"internalType":"address"},{"name":"tokenAmount","type":"uint256","indexed":false,"internalType":"uint256"},{"name":"flowAmount","type":"uint256","indexed":false,"internalType":"uint256"}],"anonymous":false},{"type":"error","name":"OwnableInvalidOwner","inputs":[{"name":"owner","type":"address","internalType":"address"}]},{"type":"error","name":"OwnableUnauthorizedAccount","inputs":[{"name":"account","type":"address","internalType":"address"}]}],"bytecode":{"object":"0x610140604052348015610010575f5ffd5b50604051618a2f380380618a2f83398181016040528101906100329190610dd4565b335f73ffffffffffffffffffffffffffffffffffffffff168173ffffffffffffffffffffffffffffffffffffffff16036100a3575f6040517f1e4fbdf700000000000000000000000000000000000000000000000000000000815260040161009a9190610e80565b60405180910390fd5b6100b281610c1460201b60201c565b50732880ab155794e7179c9ee2e38200202908c17b4360015f6101000a81548173ffffffffffffffffffffffffffffffffffffffff021916908373ffffffffffffffffffffffffffffffffffffffff1602179055508060025f6101000a81548173ffffffffffffffffffffffffffffffffffffffff021916908373ffffffffffffffffffffffffffffffffffffffff1602179055508673ffffffffffffffffffffffffffffffffffffffff1660808173ffffffffffffffffffffffffffffffffffffffff16815250508573ffffffffffffffffffffffffffffffffffffffff1660a08173ffffffffffffffffffffffffffffffffffffffff16815250508473ffffffffffffffffffffffffffffffffffffffff1660c08173ffffffffffffffffffffffffffffffffffffffff16815250508373ffffffffffffffffffffffffffffffffffffffff1660e08173ffffffffffffffffffffffffffffffffffffffff16815250508273ffffffffffffffffffffffffffffffffffffffff166101008173ffffffffffffffffffffffffffffffffffffffff16815250508173ffffffffffffffffffffffffffffffffffffffff166101208173ffffffffffffffffffffffffffffffffffffffff168152505086600460405161029090610eed565b90815260200160405180910390205f6101000a81548173ffffffffffffffffffffffffffffffffffffffff021916908373ffffffffffffffffffffffffffffffffffffffff1602179055506040518060400160405280600481526020017f664348460000000000000000000000000000000000000000000000000000000081525060055f8973ffffffffffffffffffffffffffffffffffffffff1673ffffffffffffffffffffffffffffffffffffffff1681526020019081526020015f20908161035a919061113e565b5085600460405161036a90611257565b90815260200160405180910390205f6101000a81548173ffffffffffffffffffffffffffffffffffffffff021916908373ffffffffffffffffffffffffffffffffffffffff1602179055506040518060400160405280600481526020017f664555520000000000000000000000000000000000000000000000000000000081525060055f8873ffffffffffffffffffffffffffffffffffffffff1673ffffffffffffffffffffffffffffffffffffffff1681526020019081526020015f209081610434919061113e565b50846004604051610444906112b5565b90815260200160405180910390205f6101000a81548173ffffffffffffffffffffffffffffffffffffffff021916908373ffffffffffffffffffffffffffffffffffffffff1602179055506040518060400160405280600481526020017f664742500000000000000000000000000000000000000000000000000000000081525060055f8773ffffffffffffffffffffffffffffffffffffffff1673ffffffffffffffffffffffffffffffffffffffff1681526020019081526020015f20908161050e919061113e565b5083600460405161051e90611313565b90815260200160405180910390205f6101000a81548173ffffffffffffffffffffffffffffffffffffffff021916908373ffffffffffffffffffffffffffffffffffffffff1602179055506040518060400160405280600481526020017f66494e520000000000000000000000000000000000000000000000000000000081525060055f8673ffffffffffffffffffffffffffffffffffffffff1673ffffffffffffffffffffffffffffffffffffffff1681526020019081526020015f2090816105e8919061113e565b508260046040516105f890611371565b90815260200160405180910390205f6101000a81548173ffffffffffffffffffffffffffffffffffffffff021916908373ffffffffffffffffffffffffffffffffffffffff1602179055506040518060400160405280600481526020017f665553440000000000000000000000000000000000000000000000000000000081525060055f8573ffffffffffffffffffffffffffffffffffffffff1673ffffffffffffffffffffffffffffffffffffffff1681526020019081526020015f2090816106c2919061113e565b508160046040516106d2906113cf565b90815260200160405180910390205f6101000a81548173ffffffffffffffffffffffffffffffffffffffff021916908373ffffffffffffffffffffffffffffffffffffffff1602179055506040518060400160405280600481526020017f6659454e0000000000000000000000000000000000000000000000000000000081525060055f8473ffffffffffffffffffffffffffffffffffffffff1673ffffffffffffffffffffffffffffffffffffffff1681526020019081526020015f20908161079c919061113e565b507f0b1e3297e69f162877b577b0d6a47a0d63b2392bc8499e6540da4187a63e28f85f1b60036040516107ce90610eed565b9081526020016040518091039020819055507fa995d00bb36a63cef7fd2c287dc105fc8f3d93779f062f09551b0af3e81ec30b5f1b600360405161081190611257565b9081526020016040518091039020819055507f84c2dde9633d93d1bcad84e7dc41c9d56578b7ec52fabedc1f335d673df0a7c15f1b6003604051610854906112b5565b9081526020016040518091039020819055507f0ac0f9a2886fc2dd708bc66cc2cea359052ce89d324f45d95fadbc6c4fcf18095f1b600360405161089790611313565b9081526020016040518091039020819055507feaa020c61cc479712813461ce153894a96a6c00b21ed0cfc2798d1f9a9e9c94a5f1b60036040516108da90611371565b9081526020016040518091039020819055507fef2c98c804ba503c6a707e38be4dfbb16683775f195b091252bf24693042fd525f1b600360405161091d906113cf565b9081526020016040518091039020819055505f6040518060c001604052808973ffffffffffffffffffffffffffffffffffffffff1673ffffffffffffffffffffffffffffffffffffffff1681526020018873ffffffffffffffffffffffffffffffffffffffff1673ffffffffffffffffffffffffffffffffffffffff1681526020018773ffffffffffffffffffffffffffffffffffffffff1673ffffffffffffffffffffffffffffffffffffffff1681526020018673ffffffffffffffffffffffffffffffffffffffff1673ffffffffffffffffffffffffffffffffffffffff1681526020018573ffffffffffffffffffffffffffffffffffffffff1673ffffffffffffffffffffffffffffffffffffffff1681526020018473ffffffffffffffffffffffffffffffffffffffff1673ffffffffffffffffffffffffffffffffffffffff1681525090505f5f90505b6006811015610c06575f600182610a839190611410565b90505b6006811015610bf8575f610ace848460068110610aa657610aa5611443565b5b6020020151858460068110610abe57610abd611443565b5b6020020151610cd560201b60201c565b90505f848460068110610ae457610ae3611443565b5b6020020151858460068110610afc57610afb611443565b5b6020020151604051610b0d90610d69565b610b18929190611470565b604051809103905ff080158015610b31573d5f5f3e3d5ffd5b5090508060065f8481526020019081526020015f205f6101000a81548173ffffffffffffffffffffffffffffffffffffffff021916908373ffffffffffffffffffffffffffffffffffffffff1602179055508073ffffffffffffffffffffffffffffffffffffffff16639127cc69336040518263ffffffff1660e01b8152600401610bbc9190610e80565b5f604051808303815f87803b158015610bd3575f5ffd5b505af1158015610be5573d5f5f3e3d5ffd5b5050505050508080600101915050610a86565b508080600101915050610a6c565b505050505050505050611507565b5f5f5f9054906101000a900473ffffffffffffffffffffffffffffffffffffffff169050815f5f6101000a81548173ffffffffffffffffffffffffffffffffffffffff021916908373ffffffffffffffffffffffffffffffffffffffff1602179055508173ffffffffffffffffffffffffffffffffffffffff168173ffffffffffffffffffffffffffffffffffffffff167f8be0079c531659141344cd1fd0a4f28419497f9722a3daafe3b4186f6b6457e060405160405180910390a35050565b5f8173ffffffffffffffffffffffffffffffffffffffff168373ffffffffffffffffffffffffffffffffffffffff1610610d37578183604051602001610d1c9291906114dc565b60405160208183030381529060405280519060200120610d61565b8282604051602001610d4a9291906114dc565b604051602081830303815290604052805190602001205b905092915050565b6116f88061733783390190565b5f5ffd5b5f73ffffffffffffffffffffffffffffffffffffffff82169050919050565b5f610da382610d7a565b9050919050565b610db381610d99565b8114610dbd575f5ffd5b50565b5f81519050610dce81610daa565b92915050565b5f5f5f5f5f5f5f60e0888a031215610def57610dee610d76565b5b5f610dfc8a828b01610dc0565b9750506020610e0d8a828b01610dc0565b9650506040610e1e8a828b01610dc0565b9550506060610e2f8a828b01610dc0565b9450506080610e408a828b01610dc0565b93505060a0610e518a828b01610dc0565b92505060c0610e628a828b01610dc0565b91505092959891949750929550565b610e7a81610d99565b82525050565b5f602082019050610e935f830184610e71565b92915050565b5f81905092915050565b7f66434846000000000000000000000000000000000000000000000000000000005f82015250565b5f610ed7600483610e99565b9150610ee282610ea3565b600482019050919050565b5f610ef782610ecb565b9150819050919050565b5f81519050919050565b7f4e487b71000000000000000000000000000000000000000000000000000000005f52604160045260245ffd5b7f4e487b71000000000000000000000000000000000000000000000000000000005f52602260045260245ffd5b5f6002820490506001821680610f7c57607f821691505b602082108103610f8f57610f8e610f38565b5b50919050565b5f819050815f5260205f209050919050565b5f6020601f8301049050919050565b5f82821b905092915050565b5f60088302610ff17fffffffffffffffffffffffffffffffffffffffffffffffffffffffffffffffff82610fb6565b610ffb8683610fb6565b95508019841693508086168417925050509392505050565b5f819050919050565b5f819050919050565b5f61103f61103a61103584611013565b61101c565b611013565b9050919050565b5f819050919050565b61105883611025565b61106c61106482611046565b848454610fc2565b825550505050565b5f5f905090565b611083611074565b61108e81848461104f565b505050565b5b818110156110b1576110a65f8261107b565b600181019050611094565b5050565b601f8211156110f6576110c781610f95565b6110d084610fa7565b810160208510156110df578190505b6110f36110eb85610fa7565b830182611093565b50505b505050565b5f82821c905092915050565b5f6111165f19846008026110fb565b1980831691505092915050565b5f61112e8383611107565b9150826002028217905092915050565b61114782610f01565b67ffffffffffffffff8111156111605761115f610f0b565b5b61116a8254610f65565b6111758282856110b5565b5f60209050601f8311600181146111a6575f8415611194578287015190505b61119e8582611123565b865550611205565b601f1984166111b486610f95565b5f5b828110156111db578489015182556001820191506020850194506020810190506111b6565b868310156111f857848901516111f4601f891682611107565b8355505b6001600288020188555050505b505050505050565b7f66455552000000000000000000000000000000000000000000000000000000005f82015250565b5f611241600483610e99565b915061124c8261120d565b600482019050919050565b5f61126182611235565b9150819050919050565b7f66474250000000000000000000000000000000000000000000000000000000005f82015250565b5f61129f600483610e99565b91506112aa8261126b565b600482019050919050565b5f6112bf82611293565b9150819050919050565b7f66494e52000000000000000000000000000000000000000000000000000000005f82015250565b5f6112fd600483610e99565b9150611308826112c9565b600482019050919050565b5f61131d826112f1565b9150819050919050565b7f66555344000000000000000000000000000000000000000000000000000000005f82015250565b5f61135b600483610e99565b915061136682611327565b600482019050919050565b5f61137b8261134f565b9150819050919050565b7f6659454e000000000000000000000000000000000000000000000000000000005f82015250565b5f6113b9600483610e99565b91506113c482611385565b600482019050919050565b5f6113d9826113ad565b9150819050919050565b7f4e487b71000000000000000000000000000000000000000000000000000000005f52601160045260245ffd5b5f61141a82611013565b915061142583611013565b925082820190508082111561143d5761143c6113e3565b5b92915050565b7f4e487b71000000000000000000000000000000000000000000000000000000005f52603260045260245ffd5b5f6040820190506114835f830185610e71565b6114906020830184610e71565b9392505050565b5f8160601b9050919050565b5f6114ad82611497565b9050919050565b5f6114be826114a3565b9050919050565b6114d66114d182610d99565b6114b4565b82525050565b5f6114e782856114c5565b6014820191506114f782846114c5565b6014820191508190509392505050565b60805160a05160c05160e0516101005161012051615dbf6115785f395f8181610af901526122c701525f8181610aa701526118c301525f8181610a550152611cad01525f8181610a030152611cf601525f81816109b10152611d4001525f818161095f01526118740152615dbf5ff3fe608060405260043610610233575f3560e01c80638477484a1161012d578063d5932652116100aa578063eced55261161006e578063eced552614610806578063ed343f5414610830578063f14210a61461086e578063f2fde38b14610896578063f6d8f2cb146108be5761023a565b8063d59326521461072c578063d94eba4314610756578063d9e30eaa14610792578063e289c181146107ae578063e2a04b62146107ca5761023a565b8063a216ffd2116100f1578063a216ffd214610636578063a90cb77014610660578063b2865e041461069c578063c211648c146106d8578063c93eb561146107025761023a565b80638477484a146105605780638da5cb5b1461058a5780639666be7c146105b45780639dc38a02146105de5780639f6476cf1461061a5761023a565b8063422830c9116101bb578063703ad2991161017f578063703ad299146104a2578063715018a6146104cc57806373bd699a146104e257806379178b461461050c5780637b7e7aa7146105365761023a565b8063422830c9146103ac5780634dd290a1146103d657806352de4ee5146104005780635e3a20f41461043c57806360ca396f146104665761023a565b806327f7e4be1161020257806327f7e4be146102d6578063291c73c3146102f25780632b6c86df1461032e5780632e0f262514610358578063392015b3146103825761023a565b80630210a83d1461023e57806308d88aad146102545780632592c0bf14610290578063269ae32d146102ac5761023a565b3661023a57005b5f5ffd5b348015610249575f5ffd5b506102526108fa565b005b34801561025f575f5ffd5b5061027a60048036038101906102759190613f90565b610e0a565b6040516102879190614016565b60405180910390f35b6102aa60048036038101906102a5919061408c565b610e52565b005b3480156102b7575f5ffd5b506102c061101b565b6040516102cd91906140ef565b60405180910390f35b6102f060048036038101906102eb91906142d9565b611041565b005b3480156102fd575f5ffd5b5061031860048036038101906103139190614430565b611847565b604051610325919061447d565b60405180910390f35b348015610339575f5ffd5b50610342611872565b60405161034f9190614016565b60405180910390f35b348015610363575f5ffd5b5061036c611896565b604051610379919061447d565b60405180910390f35b34801561038d575f5ffd5b5061039661189b565b6040516103a391906140ef565b60405180910390f35b3480156103b7575f5ffd5b506103c06118c1565b6040516103cd9190614016565b60405180910390f35b3480156103e1575f5ffd5b506103ea6118e5565b6040516103f791906140ef565b60405180910390f35b34801561040b575f5ffd5b5061042660048036038101906104219190614496565b61190b565b6040516104339190614578565b60405180910390f35b348015610447575f5ffd5b5061045061199e565b60405161045d91906140ef565b60405180910390f35b348015610471575f5ffd5b5061048c600480360381019061048791906145c2565b6119c4565b604051610499919061447d565b60405180910390f35b3480156104ad575f5ffd5b506104b6611cab565b6040516104c39190614016565b60405180910390f35b3480156104d7575f5ffd5b506104e0611ccf565b005b3480156104ed575f5ffd5b506104f6611ce2565b6040516105039190614607565b60405180910390f35b348015610517575f5ffd5b50610520611cf4565b60405161052d9190614016565b60405180910390f35b348015610541575f5ffd5b5061054a611d18565b60405161055791906140ef565b60405180910390f35b34801561056b575f5ffd5b50610574611d3e565b6040516105819190614016565b60405180910390f35b348015610595575f5ffd5b5061059e611d62565b6040516105ab9190614016565b60405180910390f35b3480156105bf575f5ffd5b506105c8611d89565b6040516105d591906140ef565b60405180910390f35b3480156105e9575f5ffd5b5061060460048036038101906105ff91906145c2565b611daf565b6040516106119190614016565b60405180910390f35b610634600480360381019061062f9190614620565b611ddf565b005b348015610641575f5ffd5b5061064a6122c5565b6040516106579190614016565b60405180910390f35b34801561066b575f5ffd5b5061068660048036038101906106819190614699565b6122e9565b604051610693919061447d565b60405180910390f35b3480156106a7575f5ffd5b506106c260048036038101906106bd9190614496565b6122fe565b6040516106cf919061447d565b60405180910390f35b3480156106e3575f5ffd5b506106ec612347565b6040516106f99190614016565b60405180910390f35b34801561070d575f5ffd5b5061071661235f565b604051610723919061471f565b60405180910390f35b348015610737575f5ffd5b50610740612384565b60405161074d91906140ef565b60405180910390f35b348015610761575f5ffd5b5061077c60048036038101906107779190614430565b6123aa565b6040516107899190614607565b60405180910390f35b6107ac60048036038101906107a79190614738565b61248b565b005b6107c860048036038101906107c391906147c5565b612986565b005b3480156107d5575f5ffd5b506107f060048036038101906107eb9190614496565b613039565b6040516107fd9190614882565b60405180910390f35b348015610811575f5ffd5b5061081a6130d4565b604051610827919061447d565b60405180910390f35b34801561083b575f5ffd5b5061085660048036038101906108519190614699565b6130e0565b604051610865939291906148a2565b60405180910390f35b348015610879575f5ffd5b50610894600480360381019061088f9190614699565b6131ab565b005b3480156108a1575f5ffd5b506108bc60048036038101906108b79190614496565b613244565b005b3480156108c9575f5ffd5b506108e460048036038101906108df9190613f90565b6132c8565b6040516108f191906140ef565b60405180910390f35b6109026132f5565b600a5f9054906101000a900460ff1615610951576040517f08c379a000000000000000000000000000000000000000000000000000000000815260040161094890614928565b60405180910390fd5b5f6040518060c001604052807f000000000000000000000000000000000000000000000000000000000000000073ffffffffffffffffffffffffffffffffffffffff1673ffffffffffffffffffffffffffffffffffffffff1681526020017f000000000000000000000000000000000000000000000000000000000000000073ffffffffffffffffffffffffffffffffffffffff1673ffffffffffffffffffffffffffffffffffffffff1681526020017f000000000000000000000000000000000000000000000000000000000000000073ffffffffffffffffffffffffffffffffffffffff1673ffffffffffffffffffffffffffffffffffffffff1681526020017f000000000000000000000000000000000000000000000000000000000000000073ffffffffffffffffffffffffffffffffffffffff1673ffffffffffffffffffffffffffffffffffffffff1681526020017f000000000000000000000000000000000000000000000000000000000000000073ffffffffffffffffffffffffffffffffffffffff1673ffffffffffffffffffffffffffffffffffffffff1681526020017f000000000000000000000000000000000000000000000000000000000000000073ffffffffffffffffffffffffffffffffffffffff1673ffffffffffffffffffffffffffffffffffffffff1681525090505f5f90505b6006811015610bf357818160068110610b6a57610b69614946565b5b602002015173ffffffffffffffffffffffffffffffffffffffff16636d8ea4be306f03c2f7086aed236c807a1b50000000006040518363ffffffff1660e01b8152600401610bb99291906149ac565b5f604051808303815f87803b158015610bd0575f5ffd5b505af1158015610be2573d5f5f3e3d5ffd5b505050508080600101915050610b4e565b505f5f90505b6006811015610dec575f600182610c109190614a00565b90505b6006811015610dde575f610c55848460068110610c3357610c32614946565b5b6020020151858460068110610c4b57610c4a614946565b5b602002015161337c565b90505f60065f8381526020019081526020015f205f9054906101000a900473ffffffffffffffffffffffffffffffffffffffff169050848460068110610c9e57610c9d614946565b5b602002015173ffffffffffffffffffffffffffffffffffffffff1663a9059cbb826ec097ce7bc90715b34b9f10000000006040518363ffffffff1660e01b8152600401610cec929190614a6c565b6020604051808303815f875af1158015610d08573d5f5f3e3d5ffd5b505050506040513d601f19601f82011682018060405250810190610d2c9190614abd565b50848360068110610d4057610d3f614946565b5b602002015173ffffffffffffffffffffffffffffffffffffffff1663a9059cbb826ec097ce7bc90715b34b9f10000000006040518363ffffffff1660e01b8152600401610d8e929190614a6c565b6020604051808303815f875af1158015610daa573d5f5f3e3d5ffd5b505050506040513d601f19601f82011682018060405250810190610dce9190614abd565b5050508080600101915050610c13565b508080600101915050610bf9565b506001600a5f6101000a81548160ff02191690831515021790555050565b6004818051602081018201805184825260208301602085012081835280955050505050505f915054906101000a900473ffffffffffffffffffffffffffffffffffffffff1681565b5f60015f9054906101000a900473ffffffffffffffffffffffffffffffffffffffff1673ffffffffffffffffffffffffffffffffffffffff1663d47eed4584846040518363ffffffff1660e01b8152600401610eaf929190614c40565b602060405180830381865afa158015610eca573d5f5f3e3d5ffd5b505050506040513d601f19601f82011682018060405250810190610eee9190614c76565b905080341015610f33576040517f08c379a0000000000000000000000000000000000000000000000000000000008152600401610f2a90614d11565b60405180910390fd5b60015f9054906101000a900473ffffffffffffffffffffffffffffffffffffffff1673ffffffffffffffffffffffffffffffffffffffff1663ef9e5e288285856040518463ffffffff1660e01b8152600401610f90929190614c40565b5f604051808303818588803b158015610fa7575f5ffd5b505af1158015610fb9573d5f5f3e3d5ffd5b505050505080341115611016573373ffffffffffffffffffffffffffffffffffffffff166108fc8234610fec9190614d2f565b90811502906040515f60405180830381858888f19350505050158015611014573d5f5f3e3d5ffd5b505b505050565b7feaa020c61cc479712813461ce153894a96a6c00b21ed0cfc2798d1f9a9e9c94a5f1b81565b8451865114611085576040517f08c379a000000000000000000000000000000000000000000000000000000000815260040161107c90614dac565b60405180910390fd5b5f5f90505f5f90505b86518110156110cc578681815181106110aa576110a9614946565b5b6020026020010151826110bd9190614a00565b9150808060010191505061108e565b506127108114611111576040517f08c379a000000000000000000000000000000000000000000000000000000000815260040161110890614e3a565b60405180910390fd5b5f60015f9054906101000a900473ffffffffffffffffffffffffffffffffffffffff1673ffffffffffffffffffffffffffffffffffffffff1663d47eed4585856040518363ffffffff1660e01b815260040161116e929190614c40565b602060405180830381865afa158015611189573d5f5f3e3d5ffd5b505050506040513d601f19601f820116820180604052508101906111ad9190614c76565b9050803410156111f2576040517f08c379a00000000000000000000000000000000000000000000000000000000081526004016111e990614ea2565b60405180910390fd5b60015f9054906101000a900473ffffffffffffffffffffffffffffffffffffffff1673ffffffffffffffffffffffffffffffffffffffff1663ef9e5e288286866040518463ffffffff1660e01b815260040161124f929190614c40565b5f604051808303818588803b158015611266575f5ffd5b505af1158015611278573d5f5f3e3d5ffd5b5050505050803411156112d5573373ffffffffffffffffffffffffffffffffffffffff166108fc82346112ab9190614d2f565b90811502906040515f60405180830381858888f193505050501580156112d3573d5f5f3e3d5ffd5b505b5f60048b6040516112e69190614efa565b90815260200160405180910390205f9054906101000a900473ffffffffffffffffffffffffffffffffffffffff1690505f73ffffffffffffffffffffffffffffffffffffffff168173ffffffffffffffffffffffffffffffffffffffff1603611384576040517f08c379a000000000000000000000000000000000000000000000000000000000815260040161137b90614f5a565b60405180910390fd5b8073ffffffffffffffffffffffffffffffffffffffff166323b872dd33308d6040518463ffffffff1660e01b81526004016113c193929190614f78565b6020604051808303815f875af11580156113dd573d5f5f3e3d5ffd5b505050506040513d601f19601f820116820180604052508101906114019190614abd565b505f895167ffffffffffffffff81111561141e5761141d613e6c565b5b60405190808252806020026020018201604052801561144c5781602001602082028036833780820191505090505b5090505f61147760038e6040516114639190614efa565b9081526020016040518091039020546119c4565b90505f5f90505b8b51811015611510575f6127108c838151811061149e5761149d614946565b5b60200260200101518f6114b19190614fad565b6114bb919061501b565b90506114e3858e84815181106114d4576114d3614946565b5b60200260200101518386613410565b8483815181106114f6576114f5614946565b5b60200260200101818152505050808060010191505061147e565b505f60025f9054906101000a900473ffffffffffffffffffffffffffffffffffffffff1673ffffffffffffffffffffffffffffffffffffffff166375794a3c6040518163ffffffff1660e01b8152600401602060405180830381865afa15801561157c573d5f5f3e3d5ffd5b505050506040513d601f19601f820116820180604052508101906115a09190614c76565b90506040518060a001604052803373ffffffffffffffffffffffffffffffffffffffff1681526020018f81526020018b426115db9190614a00565b81526020018d81526020018481525060075f8381526020019081526020015f205f820151815f015f6101000a81548173ffffffffffffffffffffffffffffffffffffffff021916908373ffffffffffffffffffffffffffffffffffffffff1602179055506020820151816001019081611654919061523f565b5060408201518160020155606082015181600301908051906020019061167b929190613cea565b506080820151816004019080519060200190611698929190613d41565b5090505060025f9054906101000a900473ffffffffffffffffffffffffffffffffffffffff1673ffffffffffffffffffffffffffffffffffffffff1663fb37e8838a6040518263ffffffff1660e01b81526004016116f69190614882565b5f604051808303815f87803b15801561170d575f5ffd5b505af115801561171f573d5f5f3e3d5ffd5b5050505060085f3373ffffffffffffffffffffffffffffffffffffffff1673ffffffffffffffffffffffffffffffffffffffff1681526020019081526020015f2081908060018154018082558091505060019003905f5260205f20015f9091909190915055600160085f3373ffffffffffffffffffffffffffffffffffffffff1673ffffffffffffffffffffffffffffffffffffffff1681526020019081526020015f20805490506117d19190614d2f565b60095f8381526020019081526020015f2081905550803373ffffffffffffffffffffffffffffffffffffffff167f5ad7b074f4912fa69ee9c4079c45e33c020dba9a720bc6f9fc0736432aee5fad8e8660405161182f929190615411565b60405180910390a35050505050505050505050505050565b6008602052815f5260405f208181548110611860575f80fd5b905f5260205f20015f91509150505481565b7f000000000000000000000000000000000000000000000000000000000000000081565b601281565b7f84c2dde9633d93d1bcad84e7dc41c9d56578b7ec52fabedc1f335d673df0a7c15f1b81565b7f000000000000000000000000000000000000000000000000000000000000000081565b7fef2c98c804ba503c6a707e38be4dfbb16683775f195b091252bf24693042fd525f1b81565b606060085f8373ffffffffffffffffffffffffffffffffffffffff1673ffffffffffffffffffffffffffffffffffffffff1681526020019081526020015f2080548060200260200160405190810160405280929190818152602001828054801561199257602002820191905f5260205f20905b81548152602001906001019080831161197e575b50505050509050919050565b7f2fb245b9a84554a0f15aa123cbb5f64cd263b59e9a87d80148cbffab50c69f305f1b81565b5f5f60015f9054906101000a900473ffffffffffffffffffffffffffffffffffffffff1673ffffffffffffffffffffffffffffffffffffffff166396834ad3846040518263ffffffff1660e01b8152600401611a2091906140ef565b608060405180830381865afa158015611a3b573d5f5f3e3d5ffd5b505050506040513d601f19601f82011682018060405250810190611a5f9190615568565b90505f815f015160070b13611aa9576040517f08c379a0000000000000000000000000000000000000000000000000000000008152600401611aa0906155dd565b60405180910390fd5b5f815f015160070b90505f8260400151611ac2906155fb565b60030b90507f2fb245b9a84554a0f15aa123cbb5f64cd263b59e9a87d80148cbffab50c69f305f1b851480611b1857507f84c2dde9633d93d1bcad84e7dc41c9d56578b7ec52fabedc1f335d673df0a7c15f1b85145b80611b4457507fa995d00bb36a63cef7fd2c287dc105fc8f3d93779f062f09551b0af3e81ec30b5f1b85145b80611b7057507feaa020c61cc479712813461ce153894a96a6c00b21ed0cfc2798d1f9a9e9c94a5f1b85145b15611baf57816012600a611b849190615770565b82600a611b919190615770565b611b9b9190614fad565b611ba5919061501b565b9350505050611ca6565b7f0b1e3297e69f162877b577b0d6a47a0d63b2392bc8499e6540da4187a63e28f85f1b851480611c0057507f0ac0f9a2886fc2dd708bc66cc2cea359052ce89d324f45d95fadbc6c4fcf18095f1b85145b80611c2c57507fef2c98c804ba503c6a707e38be4dfbb16683775f195b091252bf24693042fd525f1b85145b15611c6b5780600a611c3e9190615770565b6012600a611c4c9190615770565b83611c579190614fad565b611c61919061501b565b9350505050611ca6565b6040517f08c379a0000000000000000000000000000000000000000000000000000000008152600401611c9d90615804565b60405180910390fd5b919050565b7f000000000000000000000000000000000000000000000000000000000000000081565b611cd76132f5565b611ce05f6137bb565b565b600a5f9054906101000a900460ff1681565b7f000000000000000000000000000000000000000000000000000000000000000081565b7f0b1e3297e69f162877b577b0d6a47a0d63b2392bc8499e6540da4187a63e28f85f1b81565b7f000000000000000000000000000000000000000000000000000000000000000081565b5f5f5f9054906101000a900473ffffffffffffffffffffffffffffffffffffffff16905090565b7f0ac0f9a2886fc2dd708bc66cc2cea359052ce89d324f45d95fadbc6c4fcf18095f1b81565b6006602052805f5260405f205f915054906101000a900473ffffffffffffffffffffffffffffffffffffffff1681565b5f8390505f60015f9054906101000a900473ffffffffffffffffffffffffffffffffffffffff1673ffffffffffffffffffffffffffffffffffffffff1663d47eed4585856040518363ffffffff1660e01b8152600401611e40929190614c40565b602060405180830381865afa158015611e5b573d5f5f3e3d5ffd5b505050506040513d601f19601f82011682018060405250810190611e7f9190614c76565b9050803411611ec3576040517f08c379a0000000000000000000000000000000000000000000000000000000008152600401611eba90615892565b60405180910390fd5b60015f9054906101000a900473ffffffffffffffffffffffffffffffffffffffff1673ffffffffffffffffffffffffffffffffffffffff1663ef9e5e288286866040518463ffffffff1660e01b8152600401611f20929190614c40565b5f604051808303818588803b158015611f37575f5ffd5b505af1158015611f49573d5f5f3e3d5ffd5b50505050505f8134611f5b9190614d2f565b90505f600384604051611f6e9190614efa565b90815260200160405180910390205490505f5f1b8103611fc3576040517f08c379a0000000000000000000000000000000000000000000000000000000008152600401611fba906158fa565b60405180910390fd5b5f600485604051611fd49190614efa565b90815260200160405180910390205f9054906101000a900473ffffffffffffffffffffffffffffffffffffffff1690505f8173ffffffffffffffffffffffffffffffffffffffff166370a08231306040518263ffffffff1660e01b815260040161203e9190614016565b602060405180830381865afa158015612059573d5f5f3e3d5ffd5b505050506040513d601f19601f8201168201806040525081019061207d9190614c76565b90505f6120ab7f2fb245b9a84554a0f15aa123cbb5f64cd263b59e9a87d80148cbffab50c69f305f1b6119c4565b90505f6120b7856119c4565b90505f816012600a6120c99190615770565b846120d49190614fad565b6120de919061501b565b90508473ffffffffffffffffffffffffffffffffffffffff16633610724e88836040518363ffffffff1660e01b815260040161211a919061447d565b5f604051808303818588803b158015612131575f5ffd5b505af1158015612143573d5f5f3e3d5ffd5b50505050505f8573ffffffffffffffffffffffffffffffffffffffff166370a08231306040518263ffffffff1660e01b81526004016121829190614016565b602060405180830381865afa15801561219d573d5f5f3e3d5ffd5b505050506040513d601f19601f820116820180604052508101906121c19190614c76565b90505f85826121d09190614d2f565b90508673ffffffffffffffffffffffffffffffffffffffff1663a9059cbb33836040518363ffffffff1660e01b815260040161220d929190615918565b6020604051808303815f875af1158015612229573d5f5f3e3d5ffd5b505050506040513d601f19601f8201168201806040525081019061224d9190614abd565b508673ffffffffffffffffffffffffffffffffffffffff163373ffffffffffffffffffffffffffffffffffffffff167f3829ce9b8af96b65b723a35c5edf9b7d7e10bb8eff0ca4bee0f62703f6d52cee8b846040516122ad92919061593f565b60405180910390a35050505050505050505050505050565b7f000000000000000000000000000000000000000000000000000000000000000081565b6009602052805f5260405f205f915090505481565b5f60085f8373ffffffffffffffffffffffffffffffffffffffff1673ffffffffffffffffffffffffffffffffffffffff1681526020019081526020015f20805490509050919050565b732880ab155794e7179c9ee2e38200202908c17b4381565b60025f9054906101000a900473ffffffffffffffffffffffffffffffffffffffff1681565b7fa995d00bb36a63cef7fd2c287dc105fc8f3d93779f062f09551b0af3e81ec30b5f1b81565b5f5f60085f8573ffffffffffffffffffffffffffffffffffffffff1673ffffffffffffffffffffffffffffffffffffffff1681526020019081526020015f2080548060200260200160405190810160405280929190818152602001828054801561243157602002820191905f5260205f20905b81548152602001906001019080831161241d575b505050505090505f5f90505b815181101561247f578382828151811061245a57612459614946565b5b60200260200101510361247257600192505050612485565b808060010191505061243d565b505f9150505b92915050565b5f8490505f60015f9054906101000a900473ffffffffffffffffffffffffffffffffffffffff1673ffffffffffffffffffffffffffffffffffffffff1663d47eed4585856040518363ffffffff1660e01b81526004016124ec929190614c40565b602060405180830381865afa158015612507573d5f5f3e3d5ffd5b505050506040513d601f19601f8201168201806040525081019061252b9190614c76565b905080341015612570576040517f08c379a000000000000000000000000000000000000000000000000000000000815260040161256790614ea2565b60405180910390fd5b60015f9054906101000a900473ffffffffffffffffffffffffffffffffffffffff1673ffffffffffffffffffffffffffffffffffffffff1663ef9e5e288286866040518463ffffffff1660e01b81526004016125cd929190614c40565b5f604051808303818588803b1580156125e4575f5ffd5b505af11580156125f6573d5f5f3e3d5ffd5b505050505080341115612653573373ffffffffffffffffffffffffffffffffffffffff166108fc82346126299190614d2f565b90811502906040515f60405180830381858888f19350505050158015612651573d5f5f3e3d5ffd5b505b5f6003836040516126649190614efa565b90815260200160405180910390205490505f5f1b81036126b9576040517f08c379a00000000000000000000000000000000000000000000000000000000081526004016126b0906158fa565b60405180910390fd5b5f6004846040516126ca9190614efa565b90815260200160405180910390205f9054906101000a900473ffffffffffffffffffffffffffffffffffffffff1690505f6127267f2fb245b9a84554a0f15aa123cbb5f64cd263b59e9a87d80148cbffab50c69f305f1b6119c4565b90505f612732846119c4565b90505f816012600a6127449190615770565b8461274f9190614fad565b612759919061501b565b90505f816012600a61276b9190615770565b8c6127769190614fad565b612780919061501b565b90508473ffffffffffffffffffffffffffffffffffffffff166323b872dd33308e6040518463ffffffff1660e01b81526004016127bf93929190614f78565b6020604051808303815f875af11580156127db573d5f5f3e3d5ffd5b505050506040513d601f19601f820116820180604052508101906127ff9190614abd565b508473ffffffffffffffffffffffffffffffffffffffff1663ed9772b68c846040518363ffffffff1660e01b815260040161283b92919061593f565b5f604051808303815f87803b158015612852575f5ffd5b505af1158015612864573d5f5f3e3d5ffd5b505050505f3373ffffffffffffffffffffffffffffffffffffffff168260405161288d90615993565b5f6040518083038185875af1925050503d805f81146128c7576040519150601f19603f3d011682016040523d82523d5f602084013e6128cc565b606091505b5050905080612910576040517f08c379a0000000000000000000000000000000000000000000000000000000008152600401612907906159f1565b60405180910390fd5b8573ffffffffffffffffffffffffffffffffffffffff163373ffffffffffffffffffffffffffffffffffffffff167ff7c8601905f921b7b7b21b454fed87177c3c9d097cb38bf4ebcf270419604b038e8560405161296f92919061593f565b60405180910390a350505050505050505050505050565b3373ffffffffffffffffffffffffffffffffffffffff1660025f9054906101000a900473ffffffffffffffffffffffffffffffffffffffff1673ffffffffffffffffffffffffffffffffffffffff16636352211e856040518263ffffffff1660e01b81526004016129f7919061447d565b602060405180830381865afa158015612a12573d5f5f3e3d5ffd5b505050506040513d601f19601f82011682018060405250810190612a369190615a23565b73ffffffffffffffffffffffffffffffffffffffff1614612a8c576040517f08c379a0000000000000000000000000000000000000000000000000000000008152600401612a8390615a98565b60405180910390fd5b5f60075f8581526020019081526020015f2090508060020154421015612ae7576040517f08c379a0000000000000000000000000000000000000000000000000000000008152600401612ade90615b00565b60405180910390fd5b5f60015f9054906101000a900473ffffffffffffffffffffffffffffffffffffffff1673ffffffffffffffffffffffffffffffffffffffff1663d47eed4585856040518363ffffffff1660e01b8152600401612b44929190614c40565b602060405180830381865afa158015612b5f573d5f5f3e3d5ffd5b505050506040513d601f19601f82011682018060405250810190612b839190614c76565b905080341015612bc8576040517f08c379a0000000000000000000000000000000000000000000000000000000008152600401612bbf90614ea2565b60405180910390fd5b60015f9054906101000a900473ffffffffffffffffffffffffffffffffffffffff1673ffffffffffffffffffffffffffffffffffffffff1663ef9e5e288286866040518463ffffffff1660e01b8152600401612c25929190614c40565b5f604051808303818588803b158015612c3c575f5ffd5b505af1158015612c4e573d5f5f3e3d5ffd5b505050505080341115612cab573373ffffffffffffffffffffffffffffffffffffffff166108fc8234612c819190614d2f565b90811502906040515f60405180830381858888f19350505050158015612ca9573d5f5f3e3d5ffd5b505b5f5f90505f836001018054612cbf90615078565b80601f0160208091040260200160405190810160405280929190818152602001828054612ceb90615078565b8015612d365780601f10612d0d57610100808354040283529160200191612d36565b820191905f5260205f20905b815481529060010190602001808311612d1957829003601f168201915b505050505090505f600482604051612d4e9190614efa565b90815260200160405180910390205f9054906101000a900473ffffffffffffffffffffffffffffffffffffffff1690505f612da6600384604051612d929190614efa565b9081526020016040518091039020546119c4565b90505f5f90505b8660030180549050811015612e64575f6004886003018381548110612dd557612dd4614946565b5b905f5260205f2001604051612dea9190615b9e565b90815260200160405180910390205f9054906101000a900473ffffffffffffffffffffffffffffffffffffffff1690505f886004018381548110612e3157612e30614946565b5b905f5260205f2001549050612e488286838761387c565b87612e539190614a00565b965050508080600101915050612dad565b5060025f9054906101000a900473ffffffffffffffffffffffffffffffffffffffff1673ffffffffffffffffffffffffffffffffffffffff166342966c688a6040518263ffffffff1660e01b8152600401612ebf919061447d565b5f604051808303815f87803b158015612ed6575f5ffd5b505af1158015612ee8573d5f5f3e3d5ffd5b5050505060075f8a81526020019081526020015f205f5f82015f6101000a81549073ffffffffffffffffffffffffffffffffffffffff0219169055600182015f612f329190613d8c565b600282015f9055600382015f612f489190613dc9565b600482015f612f579190613de7565b5050612f63338a613bd1565b8173ffffffffffffffffffffffffffffffffffffffff1663a9059cbb33866040518363ffffffff1660e01b8152600401612f9e929190615918565b6020604051808303815f875af1158015612fba573d5f5f3e3d5ffd5b505050506040513d601f19601f82011682018060405250810190612fde9190614abd565b50883373ffffffffffffffffffffffffffffffffffffffff167fd3157cbbbe69a1cf19035ae6146be186023de9def859d12538cd8ed84642628d86604051613026919061447d565b60405180910390a3505050505050505050565b6005602052805f5260405f205f91509050805461305590615078565b80601f016020809104026020016040519081016040528092919081815260200182805461308190615078565b80156130cc5780601f106130a3576101008083540402835291602001916130cc565b820191905f5260205f20905b8154815290600101906020018083116130af57829003601f168201915b505050505081565b670de0b6b3a764000081565b6007602052805f5260405f205f91509050805f015f9054906101000a900473ffffffffffffffffffffffffffffffffffffffff169080600101805461312490615078565b80601f016020809104026020016040519081016040528092919081815260200182805461315090615078565b801561319b5780601f106131725761010080835404028352916020019161319b565b820191905f5260205f20905b81548152906001019060200180831161317e57829003601f168201915b5050505050908060020154905083565b6131b36132f5565b804710156131f6576040517f08c379a00000000000000000000000000000000000000000000000000000000081526004016131ed90615bfe565b60405180910390fd5b6131fe611d62565b73ffffffffffffffffffffffffffffffffffffffff166108fc8290811502906040515f60405180830381858888f19350505050158015613240573d5f5f3e3d5ffd5b5050565b61324c6132f5565b5f73ffffffffffffffffffffffffffffffffffffffff168173ffffffffffffffffffffffffffffffffffffffff16036132bc575f6040517f1e4fbdf70000000000000000000000000000000000000000000000000000000081526004016132b39190614016565b60405180910390fd5b6132c5816137bb565b50565b6003818051602081018201805184825260208301602085012081835280955050505050505f915090505481565b6132fd613ce3565b73ffffffffffffffffffffffffffffffffffffffff1661331b611d62565b73ffffffffffffffffffffffffffffffffffffffff161461337a5761333e613ce3565b6040517f118cdaa70000000000000000000000000000000000000000000000000000000081526004016133719190614016565b60405180910390fd5b565b5f8173ffffffffffffffffffffffffffffffffffffffff168373ffffffffffffffffffffffffffffffffffffffff16106133de5781836040516020016133c3929190615c61565b60405160208183030381529060405280519060200120613408565b82826040516020016133f1929190615c61565b604051602081830303815290604052805190602001205b905092915050565b5f5f6004856040516134229190614efa565b90815260200160405180910390205f9054906101000a900473ffffffffffffffffffffffffffffffffffffffff1690505f73ffffffffffffffffffffffffffffffffffffffff168173ffffffffffffffffffffffffffffffffffffffff16036134c0576040517f08c379a00000000000000000000000000000000000000000000000000000000081526004016134b790615cd6565b60405180910390fd5b5f6134e86003876040516134d49190614efa565b9081526020016040518091039020546119c4565b90505f81670de0b6b3a7640000866135009190614fad565b61350a919061501b565b90505f60065f61351a8b8761337c565b81526020019081526020015f205f9054906101000a900473ffffffffffffffffffffffffffffffffffffffff1690505f73ffffffffffffffffffffffffffffffffffffffff168173ffffffffffffffffffffffffffffffffffffffff16036135b7576040517f08c379a00000000000000000000000000000000000000000000000000000000081526004016135ae90615d3e565b60405180910390fd5b8873ffffffffffffffffffffffffffffffffffffffff1663095ea7b382896040518363ffffffff1660e01b81526004016135f2929190615918565b6020604051808303815f875af115801561360e573d5f5f3e3d5ffd5b505050506040513d601f19601f820116820180604052508101906136329190614abd565b508373ffffffffffffffffffffffffffffffffffffffff168973ffffffffffffffffffffffffffffffffffffffff1610156136d4578073ffffffffffffffffffffffffffffffffffffffff1663f0b456e988846040518363ffffffff1660e01b81526004016136a292919061593f565b5f604051808303815f87803b1580156136b9575f5ffd5b505af11580156136cb573d5f5f3e3d5ffd5b50505050613760565b5f82670de0b6b3a7640000806136ea9190614fad565b6136f4919061501b565b90508173ffffffffffffffffffffffffffffffffffffffff16634242ec5289836040518363ffffffff1660e01b815260040161373192919061593f565b5f604051808303815f87803b158015613748575f5ffd5b505af115801561375a573d5f5f3e3d5ffd5b50505050505b5f6103e86003896137719190614fad565b61377b919061501b565b90505f818961378a9190614d2f565b9050670de0b6b3a764000084826137a19190614fad565b6137ab919061501b565b9650505050505050949350505050565b5f5f5f9054906101000a900473ffffffffffffffffffffffffffffffffffffffff169050815f5f6101000a81548173ffffffffffffffffffffffffffffffffffffffff021916908373ffffffffffffffffffffffffffffffffffffffff1602179055508173ffffffffffffffffffffffffffffffffffffffff168173ffffffffffffffffffffffffffffffffffffffff167f8be0079c531659141344cd1fd0a4f28419497f9722a3daafe3b4186f6b6457e060405160405180910390a35050565b5f5f60055f8773ffffffffffffffffffffffffffffffffffffffff1673ffffffffffffffffffffffffffffffffffffffff1681526020019081526020015f2080546138c690615078565b80601f01602080910402602001604051908101604052809291908181526020018280546138f290615078565b801561393d5780601f106139145761010080835404028352916020019161393d565b820191905f5260205f20905b81548152906001019060200180831161392057829003601f168201915b505050505090505f61396c6003836040516139589190614efa565b9081526020016040518091039020546119c4565b90505f84670de0b6b3a7640000836139849190614fad565b61398e919061501b565b90505f60065f61399e8b8b61337c565b81526020019081526020015f205f9054906101000a900473ffffffffffffffffffffffffffffffffffffffff1690508873ffffffffffffffffffffffffffffffffffffffff1663095ea7b382896040518363ffffffff1660e01b8152600401613a08929190615918565b6020604051808303815f875af1158015613a24573d5f5f3e3d5ffd5b505050506040513d601f19601f82011682018060405250810190613a489190614abd565b508773ffffffffffffffffffffffffffffffffffffffff168973ffffffffffffffffffffffffffffffffffffffff161015613aea578073ffffffffffffffffffffffffffffffffffffffff1663f0b456e988846040518363ffffffff1660e01b8152600401613ab892919061593f565b5f604051808303815f87803b158015613acf575f5ffd5b505af1158015613ae1573d5f5f3e3d5ffd5b50505050613b76565b5f82670de0b6b3a764000080613b009190614fad565b613b0a919061501b565b90508173ffffffffffffffffffffffffffffffffffffffff16634242ec5289836040518363ffffffff1660e01b8152600401613b4792919061593f565b5f604051808303815f87803b158015613b5e575f5ffd5b505af1158015613b70573d5f5f3e3d5ffd5b50505050505b5f6103e8600389613b879190614fad565b613b91919061501b565b90505f8189613ba09190614d2f565b9050670de0b6b3a76400008482613bb79190614fad565b613bc1919061501b565b9650505050505050949350505050565b5f60085f8473ffffffffffffffffffffffffffffffffffffffff1673ffffffffffffffffffffffffffffffffffffffff1681526020019081526020015f2090505f60095f8481526020019081526020015f2054905060018280549050613c379190614d2f565b811015613ca5575f8260018480549050613c519190614d2f565b81548110613c6257613c61614946565b5b905f5260205f200154905080838381548110613c8157613c80614946565b5b905f5260205f2001819055508160095f8381526020019081526020015f2081905550505b81805480613cb657613cb5615d5c565b5b600190038181905f5260205f20015f9055905560095f8481526020019081526020015f205f905550505050565b5f33905090565b828054828255905f5260205f20908101928215613d30579160200282015b82811115613d2f578251829081613d1f919061523f565b5091602001919060010190613d08565b5b509050613d3d9190613e05565b5090565b828054828255905f5260205f20908101928215613d7b579160200282015b82811115613d7a578251825591602001919060010190613d5f565b5b509050613d889190613e28565b5090565b508054613d9890615078565b5f825580601f10613da95750613dc6565b601f0160209004905f5260205f2090810190613dc59190613e28565b5b50565b5080545f8255905f5260205f2090810190613de49190613e05565b50565b5080545f8255905f5260205f2090810190613e029190613e28565b50565b5b80821115613e24575f8181613e1b9190613d8c565b50600101613e06565b5090565b5b80821115613e3f575f815f905550600101613e29565b5090565b5f604051905090565b5f5ffd5b5f5ffd5b5f5ffd5b5f5ffd5b5f601f19601f8301169050919050565b7f4e487b71000000000000000000000000000000000000000000000000000000005f52604160045260245ffd5b613ea282613e5c565b810181811067ffffffffffffffff82111715613ec157613ec0613e6c565b5b80604052505050565b5f613ed3613e43565b9050613edf8282613e99565b919050565b5f67ffffffffffffffff821115613efe57613efd613e6c565b5b613f0782613e5c565b9050602081019050919050565b828183375f83830152505050565b5f613f34613f2f84613ee4565b613eca565b905082815260208101848484011115613f5057613f4f613e58565b5b613f5b848285613f14565b509392505050565b5f82601f830112613f7757613f76613e54565b5b8135613f87848260208601613f22565b91505092915050565b5f60208284031215613fa557613fa4613e4c565b5b5f82013567ffffffffffffffff811115613fc257613fc1613e50565b5b613fce84828501613f63565b91505092915050565b5f73ffffffffffffffffffffffffffffffffffffffff82169050919050565b5f61400082613fd7565b9050919050565b61401081613ff6565b82525050565b5f6020820190506140295f830184614007565b92915050565b5f5ffd5b5f5ffd5b5f5f83601f84011261404c5761404b613e54565b5b8235905067ffffffffffffffff8111156140695761406861402f565b5b60208301915083602082028301111561408557614084614033565b5b9250929050565b5f5f602083850312156140a2576140a1613e4c565b5b5f83013567ffffffffffffffff8111156140bf576140be613e50565b5b6140cb85828601614037565b92509250509250929050565b5f819050919050565b6140e9816140d7565b82525050565b5f6020820190506141025f8301846140e0565b92915050565b5f819050919050565b61411a81614108565b8114614124575f5ffd5b50565b5f8135905061413581614111565b92915050565b5f67ffffffffffffffff82111561415557614154613e6c565b5b602082029050602081019050919050565b5f6141786141738461413b565b613eca565b9050808382526020820190506020840283018581111561419b5761419a614033565b5b835b818110156141e257803567ffffffffffffffff8111156141c0576141bf613e54565b5b8086016141cd8982613f63565b8552602085019450505060208101905061419d565b5050509392505050565b5f82601f830112614200576141ff613e54565b5b8135614210848260208601614166565b91505092915050565b5f67ffffffffffffffff82111561423357614232613e6c565b5b602082029050602081019050919050565b5f61425661425184614219565b613eca565b9050808382526020820190506020840283018581111561427957614278614033565b5b835b818110156142a2578061428e8882614127565b84526020840193505060208101905061427b565b5050509392505050565b5f82601f8301126142c0576142bf613e54565b5b81356142d0848260208601614244565b91505092915050565b5f5f5f5f5f5f5f5f60e0898b0312156142f5576142f4613e4c565b5b5f89013567ffffffffffffffff81111561431257614311613e50565b5b61431e8b828c01613f63565b985050602061432f8b828c01614127565b975050604089013567ffffffffffffffff8111156143505761434f613e50565b5b61435c8b828c016141ec565b965050606089013567ffffffffffffffff81111561437d5761437c613e50565b5b6143898b828c016142ac565b955050608061439a8b828c01614127565b94505060a089013567ffffffffffffffff8111156143bb576143ba613e50565b5b6143c78b828c01613f63565b93505060c089013567ffffffffffffffff8111156143e8576143e7613e50565b5b6143f48b828c01614037565b92509250509295985092959890939650565b61440f81613ff6565b8114614419575f5ffd5b50565b5f8135905061442a81614406565b92915050565b5f5f6040838503121561444657614445613e4c565b5b5f6144538582860161441c565b925050602061446485828601614127565b9150509250929050565b61447781614108565b82525050565b5f6020820190506144905f83018461446e565b92915050565b5f602082840312156144ab576144aa613e4c565b5b5f6144b88482850161441c565b91505092915050565b5f81519050919050565b5f82825260208201905092915050565b5f819050602082019050919050565b6144f381614108565b82525050565b5f61450483836144ea565b60208301905092915050565b5f602082019050919050565b5f614526826144c1565b61453081856144cb565b935061453b836144db565b805f5b8381101561456b57815161455288826144f9565b975061455d83614510565b92505060018101905061453e565b5085935050505092915050565b5f6020820190508181035f830152614590818461451c565b905092915050565b6145a1816140d7565b81146145ab575f5ffd5b50565b5f813590506145bc81614598565b92915050565b5f602082840312156145d7576145d6613e4c565b5b5f6145e4848285016145ae565b91505092915050565b5f8115159050919050565b614601816145ed565b82525050565b5f60208201905061461a5f8301846145f8565b92915050565b5f5f5f6040848603121561463757614636613e4c565b5b5f84013567ffffffffffffffff81111561465457614653613e50565b5b61466086828701613f63565b935050602084013567ffffffffffffffff81111561468157614680613e50565b5b61468d86828701614037565b92509250509250925092565b5f602082840312156146ae576146ad613e4c565b5b5f6146bb84828501614127565b91505092915050565b5f819050919050565b5f6146e76146e26146dd84613fd7565b6146c4565b613fd7565b9050919050565b5f6146f8826146cd565b9050919050565b5f614709826146ee565b9050919050565b614719816146ff565b82525050565b5f6020820190506147325f830184614710565b92915050565b5f5f5f5f606085870312156147505761474f613e4c565b5b5f85013567ffffffffffffffff81111561476d5761476c613e50565b5b61477987828801613f63565b945050602061478a87828801614127565b935050604085013567ffffffffffffffff8111156147ab576147aa613e50565b5b6147b787828801614037565b925092505092959194509250565b5f5f5f604084860312156147dc576147db613e4c565b5b5f6147e986828701614127565b935050602084013567ffffffffffffffff81111561480a57614809613e50565b5b61481686828701614037565b92509250509250925092565b5f81519050919050565b5f82825260208201905092915050565b8281835e5f83830152505050565b5f61485482614822565b61485e818561482c565b935061486e81856020860161483c565b61487781613e5c565b840191505092915050565b5f6020820190508181035f83015261489a818461484a565b905092915050565b5f6060820190506148b55f830186614007565b81810360208301526148c7818561484a565b90506148d6604083018461446e565b949350505050565b7f496e697469616c206c697175696469747920616c7265616479206164646564005f82015250565b5f614912601f8361482c565b915061491d826148de565b602082019050919050565b5f6020820190508181035f83015261493f81614906565b9050919050565b7f4e487b71000000000000000000000000000000000000000000000000000000005f52603260045260245ffd5b5f819050919050565b5f61499661499161498c84614973565b6146c4565b614108565b9050919050565b6149a68161497c565b82525050565b5f6040820190506149bf5f830185614007565b6149cc602083018461499d565b9392505050565b7f4e487b71000000000000000000000000000000000000000000000000000000005f52601160045260245ffd5b5f614a0a82614108565b9150614a1583614108565b9250828201905080821115614a2d57614a2c6149d3565b5b92915050565b5f819050919050565b5f614a56614a51614a4c84614a33565b6146c4565b614108565b9050919050565b614a6681614a3c565b82525050565b5f604082019050614a7f5f830185614007565b614a8c6020830184614a5d565b9392505050565b614a9c816145ed565b8114614aa6575f5ffd5b50565b5f81519050614ab781614a93565b92915050565b5f60208284031215614ad257614ad1613e4c565b5b5f614adf84828501614aa9565b91505092915050565b5f82825260208201905092915050565b5f819050919050565b5f82825260208201905092915050565b5f614b1c8385614b01565b9350614b29838584613f14565b614b3283613e5c565b840190509392505050565b5f614b49848484614b11565b90509392505050565b5f5ffd5b5f5ffd5b5f5ffd5b5f5f83356001602003843603038112614b7a57614b79614b5a565b5b83810192508235915060208301925067ffffffffffffffff821115614ba257614ba1614b52565b5b600182023603831315614bb857614bb7614b56565b5b509250929050565b5f602082019050919050565b5f614bd78385614ae8565b935083602084028501614be984614af8565b805f5b87811015614c2e578484038952614c038284614b5e565b614c0e868284614b3d565b9550614c1984614bc0565b935060208b019a505050600181019050614bec565b50829750879450505050509392505050565b5f6020820190508181035f830152614c59818486614bcc565b90509392505050565b5f81519050614c7081614111565b92915050565b5f60208284031215614c8b57614c8a613e4c565b5b5f614c9884828501614c62565b91505092915050565b7f496e73756666696369656e74206665652070726f766964656420666f722050795f8201527f7468207570646174650000000000000000000000000000000000000000000000602082015250565b5f614cfb60298361482c565b9150614d0682614ca1565b604082019050919050565b5f6020820190508181035f830152614d2881614cef565b9050919050565b5f614d3982614108565b9150614d4483614108565b9250828203905081811115614d5c57614d5b6149d3565b5b92915050565b7f417272617973206d75737420686176652073616d65206c656e677468000000005f82015250565b5f614d96601c8361482c565b9150614da182614d62565b602082019050919050565b5f6020820190508181035f830152614dc381614d8a565b9050919050565b7f50657263656e7461676573206d7573742073756d20746f2031303030302062615f8201527f73697320706f696e747300000000000000000000000000000000000000000000602082015250565b5f614e24602a8361482c565b9150614e2f82614dca565b604082019050919050565b5f6020820190508181035f830152614e5181614e18565b9050919050565b7f496e73756666696369656e742066656520666f722050797468207570646174655f82015250565b5f614e8c60208361482c565b9150614e9782614e58565b602082019050919050565b5f6020820190508181035f830152614eb981614e80565b9050919050565b5f81905092915050565b5f614ed482614822565b614ede8185614ec0565b9350614eee81856020860161483c565b80840191505092915050565b5f614f058284614eca565b915081905092915050565b7f496e76616c696420696e70757420746f6b656e000000000000000000000000005f82015250565b5f614f4460138361482c565b9150614f4f82614f10565b602082019050919050565b5f6020820190508181035f830152614f7181614f38565b9050919050565b5f606082019050614f8b5f830186614007565b614f986020830185614007565b614fa5604083018461446e565b949350505050565b5f614fb782614108565b9150614fc283614108565b9250828202614fd081614108565b91508282048414831517614fe757614fe66149d3565b5b5092915050565b7f4e487b71000000000000000000000000000000000000000000000000000000005f52601260045260245ffd5b5f61502582614108565b915061503083614108565b9250826150405761503f614fee565b5b828204905092915050565b7f4e487b71000000000000000000000000000000000000000000000000000000005f52602260045260245ffd5b5f600282049050600182168061508f57607f821691505b6020821081036150a2576150a161504b565b5b50919050565b5f819050815f5260205f209050919050565b5f6020601f8301049050919050565b5f82821b905092915050565b5f600883026151047fffffffffffffffffffffffffffffffffffffffffffffffffffffffffffffffff826150c9565b61510e86836150c9565b95508019841693508086168417925050509392505050565b5f61514061513b61513684614108565b6146c4565b614108565b9050919050565b5f819050919050565b61515983615126565b61516d61516582615147565b8484546150d5565b825550505050565b5f5f905090565b615184615175565b61518f818484615150565b505050565b5b818110156151b2576151a75f8261517c565b600181019050615195565b5050565b601f8211156151f7576151c8816150a8565b6151d1846150ba565b810160208510156151e0578190505b6151f46151ec856150ba565b830182615194565b50505b505050565b5f82821c905092915050565b5f6152175f19846008026151fc565b1980831691505092915050565b5f61522f8383615208565b9150826002028217905092915050565b61524882614822565b67ffffffffffffffff81111561526157615260613e6c565b5b61526b8254615078565b6152768282856151b6565b5f60209050601f8311600181146152a7575f8415615295578287015190505b61529f8582615224565b865550615306565b601f1984166152b5866150a8565b5f5b828110156152dc578489015182556001820191506020850194506020810190506152b7565b868310156152f957848901516152f5601f891682615208565b8355505b6001600288020188555050505b505050505050565b5f81519050919050565b5f82825260208201905092915050565b5f819050602082019050919050565b5f82825260208201905092915050565b5f61535182614822565b61535b8185615337565b935061536b81856020860161483c565b61537481613e5c565b840191505092915050565b5f61538a8383615347565b905092915050565b5f602082019050919050565b5f6153a88261530e565b6153b28185615318565b9350836020820285016153c485615328565b805f5b858110156153ff57848403895281516153e0858261537f565b94506153eb83615392565b925060208a019950506001810190506153c7565b50829750879550505050505092915050565b5f6040820190508181035f830152615429818561539e565b9050818103602083015261543d818461451c565b90509392505050565b5f5ffd5b5f8160070b9050919050565b61545f8161544a565b8114615469575f5ffd5b50565b5f8151905061547a81615456565b92915050565b5f67ffffffffffffffff82169050919050565b61549c81615480565b81146154a6575f5ffd5b50565b5f815190506154b781615493565b92915050565b5f8160030b9050919050565b6154d2816154bd565b81146154dc575f5ffd5b50565b5f815190506154ed816154c9565b92915050565b5f6080828403121561550857615507615446565b5b6155126080613eca565b90505f6155218482850161546c565b5f830152506020615534848285016154a9565b6020830152506040615548848285016154df565b604083015250606061555c84828501614c62565b60608301525092915050565b5f6080828403121561557d5761557c613e4c565b5b5f61558a848285016154f3565b91505092915050565b7f5079746820707269636520697320696e76616c696400000000000000000000005f82015250565b5f6155c760158361482c565b91506155d282615593565b602082019050919050565b5f6020820190508181035f8301526155f4816155bb565b9050919050565b5f615605826154bd565b91507fffffffffffffffffffffffffffffffffffffffffffffffffffffffff800000008203615637576156366149d3565b5b815f039050919050565b5f8160011c9050919050565b5f5f8291508390505b600185111561569657808604811115615672576156716149d3565b5b60018516156156815780820291505b808102905061568f85615641565b9450615656565b94509492505050565b5f826156ae5760019050615769565b816156bb575f9050615769565b81600181146156d157600281146156db5761570a565b6001915050615769565b60ff8411156156ed576156ec6149d3565b5b8360020a915084821115615704576157036149d3565b5b50615769565b5060208310610133831016604e8410600b841016171561573f5782820a90508381111561573a576157396149d3565b5b615769565b61574c848484600161564d565b92509050818404811115615763576157626149d3565b5b81810290505b9392505050565b5f61577a82614108565b915061578583614108565b92506157b27fffffffffffffffffffffffffffffffffffffffffffffffffffffffffffffffff848461569f565b905092915050565b7f50726963652066656564206e6f7420737570706f7274656400000000000000005f82015250565b5f6157ee60188361482c565b91506157f9826157ba565b602082019050919050565b5f6020820190508181035f83015261581b816157e2565b9050919050565b7f496e73756666696369656e74204554483a204d75737420636f766572205079745f8201527f682066656520616e6420746f6b656e20636f7374000000000000000000000000602082015250565b5f61587c60348361482c565b915061588782615822565b604082019050919050565b5f6020820190508181035f8301526158a981615870565b9050919050565b7f546f6b656e206e6f7420737570706f72746564000000000000000000000000005f82015250565b5f6158e460138361482c565b91506158ef826158b0565b602082019050919050565b5f6020820190508181035f830152615911816158d8565b9050919050565b5f60408201905061592b5f830185614007565b615938602083018461446e565b9392505050565b5f6040820190506159525f83018561446e565b61595f602083018461446e565b9392505050565b5f81905092915050565b50565b5f61597e5f83615966565b915061598982615970565b5f82019050919050565b5f61599d82615973565b9150819050919050565b7f5472616e73616374696f6e20756e7375636365737366756c00000000000000005f82015250565b5f6159db60188361482c565b91506159e6826159a7565b602082019050919050565b5f6020820190508181035f830152615a08816159cf565b9050919050565b5f81519050615a1d81614406565b92915050565b5f60208284031215615a3857615a37613e4c565b5b5f615a4584828501615a0f565b91505092915050565b7f4e6f7420746865206f776e6572206f6620746865204e465400000000000000005f82015250565b5f615a8260188361482c565b9150615a8d82615a4e565b602082019050919050565b5f6020820190508181035f830152615aaf81615a76565b9050919050565b7f4c6f636b20706572696f6420686173206e6f7420656e646564000000000000005f82015250565b5f615aea60198361482c565b9150615af582615ab6565b602082019050919050565b5f6020820190508181035f830152615b1781615ade565b9050919050565b5f8154615b2a81615078565b615b348186614ec0565b9450600182165f8114615b4e5760018114615b6357615b95565b60ff1983168652811515820286019350615b95565b615b6c856150a8565b5f5b83811015615b8d57815481890152600182019150602081019050615b6e565b838801955050505b50505092915050565b5f615ba98284615b1e565b915081905092915050565b7f496e73756666696369656e74204554482062616c616e636500000000000000005f82015250565b5f615be860188361482c565b9150615bf382615bb4565b602082019050919050565b5f6020820190508181035f830152615c1581615bdc565b9050919050565b5f8160601b9050919050565b5f615c3282615c1c565b9050919050565b5f615c4382615c28565b9050919050565b615c5b615c5682613ff6565b615c39565b82525050565b5f615c6c8285615c4a565b601482019150615c7c8284615c4a565b6014820191508190509392505050565b7f496e76616c6964206f757470757420746f6b656e0000000000000000000000005f82015250565b5f615cc060148361482c565b9150615ccb82615c8c565b602082019050919050565b5f6020820190508181035f830152615ced81615cb4565b9050919050565b7f5377617020636f6e7472616374206e6f7420666f756e640000000000000000005f82015250565b5f615d2860178361482c565b9150615d3382615cf4565b602082019050919050565b5f6020820190508181035f830152615d5581615d1c565b9050919050565b7f4e487b71000000000000000000000000000000000000000000000000000000005f52603160045260245ffdfea26469706673582212206768ddd5cab2d61aedf31802afc6fd8e04d04f989d165a00bd3d73faa6fc6c7d64736f6c634300081e003360c060405234801561000f575f5ffd5b506040516116f83803806116f883398181016040528101906100319190610240565b335f73ffffffffffffffffffffffffffffffffffffffff168173ffffffffffffffffffffffffffffffffffffffff16036100a2575f6040517f1e4fbdf7000000000000000000000000000000000000000000000000000000008152600401610099919061028d565b60405180910390fd5b6100b18161012160201b60201c565b508173ffffffffffffffffffffffffffffffffffffffff1660808173ffffffffffffffffffffffffffffffffffffffff16815250508073ffffffffffffffffffffffffffffffffffffffff1660a08173ffffffffffffffffffffffffffffffffffffffff168152505050506102a6565b5f5f5f9054906101000a900473ffffffffffffffffffffffffffffffffffffffff169050815f5f6101000a81548173ffffffffffffffffffffffffffffffffffffffff021916908373ffffffffffffffffffffffffffffffffffffffff1602179055508173ffffffffffffffffffffffffffffffffffffffff168173ffffffffffffffffffffffffffffffffffffffff167f8be0079c531659141344cd1fd0a4f28419497f9722a3daafe3b4186f6b6457e060405160405180910390a35050565b5f5ffd5b5f73ffffffffffffffffffffffffffffffffffffffff82169050919050565b5f61020f826101e6565b9050919050565b61021f81610205565b8114610229575f5ffd5b50565b5f8151905061023a81610216565b92915050565b5f5f60408385031215610256576102556101e2565b5b5f6102638582860161022c565b92505060206102748582860161022c565b9150509250929050565b61028781610205565b82525050565b5f6020820190506102a05f83018461027e565b92915050565b60805160a0516114076102f15f395f818161046401528181610621015281816108c60152610a7b01525f81816102040152818161038b01528181610540015261099f01526114075ff3fe608060405234801561000f575f5ffd5b50600436106100b2575f3560e01c80639127cc691161006f5780639127cc6914610154578063e927fc5c14610170578063eced55261461018e578063f0b456e9146101ac578063f2fde38b146101c8578063fe08b58c146101e4576100b2565b80630fc63d10146100b65780631605b17f146100d45780634242ec52146100f25780635f64b55b1461010e578063715018a61461012c5780638da5cb5b14610136575b5f5ffd5b6100be610202565b6040516100cb9190610dac565b60405180910390f35b6100dc610226565b6040516100e99190610ddd565b60405180910390f35b61010c60048036038101906101079190610e24565b61022c565b005b61011661061f565b6040516101239190610dac565b60405180910390f35b610134610643565b005b61013e610656565b60405161014b9190610e82565b60405180910390f35b61016e60048036038101906101699190610ec5565b61067d565b005b610178610736565b6040516101859190610e82565b60405180910390f35b61019661075b565b6040516101a39190610ddd565b60405180910390f35b6101c660048036038101906101c19190610e24565b610767565b005b6101e260048036038101906101dd9190610ec5565b610b5a565b005b6101ec610bde565b6040516101f99190610ddd565b60405180910390f35b7f000000000000000000000000000000000000000000000000000000000000000081565b6103e881565b610234610656565b73ffffffffffffffffffffffffffffffffffffffff163373ffffffffffffffffffffffffffffffffffffffff1614806102b9575060015f9054906101000a900473ffffffffffffffffffffffffffffffffffffffff1673ffffffffffffffffffffffffffffffffffffffff163373ffffffffffffffffffffffffffffffffffffffff16145b6102f8576040517f08c379a00000000000000000000000000000000000000000000000000000000081526004016102ef90610f4a565b60405180910390fd5b5f821161033a576040517f08c379a000000000000000000000000000000000000000000000000000000000815260040161033190610fb2565b60405180910390fd5b5f6103e860038461034b9190610ffd565b610355919061106b565b90505f8184610364919061109b565b90505f670de0b6b3a7640000848361037c9190610ffd565b610386919061106b565b9050807f000000000000000000000000000000000000000000000000000000000000000073ffffffffffffffffffffffffffffffffffffffff166370a08231306040518263ffffffff1660e01b81526004016103e29190610e82565b602060405180830381865afa1580156103fd573d5f5f3e3d5ffd5b505050506040513d601f19601f8201168201806040525081019061042191906110e2565b1015610462576040517f08c379a000000000000000000000000000000000000000000000000000000000815260040161045990611157565b60405180910390fd5b7f000000000000000000000000000000000000000000000000000000000000000073ffffffffffffffffffffffffffffffffffffffff166323b872dd3330886040518463ffffffff1660e01b81526004016104bf93929190611175565b6020604051808303815f875af11580156104db573d5f5f3e3d5ffd5b505050506040513d601f19601f820116820180604052508101906104ff91906111df565b61053e576040517f08c379a000000000000000000000000000000000000000000000000000000000815260040161053590611254565b60405180910390fd5b7f000000000000000000000000000000000000000000000000000000000000000073ffffffffffffffffffffffffffffffffffffffff1663a9059cbb33836040518363ffffffff1660e01b8152600401610599929190611272565b6020604051808303815f875af11580156105b5573d5f5f3e3d5ffd5b505050506040513d601f19601f820116820180604052508101906105d991906111df565b610618576040517f08c379a000000000000000000000000000000000000000000000000000000000815260040161060f906112e3565b60405180910390fd5b5050505050565b7f000000000000000000000000000000000000000000000000000000000000000081565b61064b610be3565b6106545f610c6a565b565b5f5f5f9054906101000a900473ffffffffffffffffffffffffffffffffffffffff16905090565b610685610be3565b5f73ffffffffffffffffffffffffffffffffffffffff168173ffffffffffffffffffffffffffffffffffffffff16036106f3576040517f08c379a00000000000000000000000000000000000000000000000000000000081526004016106ea9061134b565b60405180910390fd5b8060015f6101000a81548173ffffffffffffffffffffffffffffffffffffffff021916908373ffffffffffffffffffffffffffffffffffffffff16021790555050565b60015f9054906101000a900473ffffffffffffffffffffffffffffffffffffffff1681565b670de0b6b3a764000081565b61076f610656565b73ffffffffffffffffffffffffffffffffffffffff163373ffffffffffffffffffffffffffffffffffffffff1614806107f4575060015f9054906101000a900473ffffffffffffffffffffffffffffffffffffffff1673ffffffffffffffffffffffffffffffffffffffff163373ffffffffffffffffffffffffffffffffffffffff16145b610833576040517f08c379a000000000000000000000000000000000000000000000000000000000815260040161082a90610f4a565b60405180910390fd5b5f8211610875576040517f08c379a000000000000000000000000000000000000000000000000000000000815260040161086c90610fb2565b60405180910390fd5b5f6103e86003846108869190610ffd565b610890919061106b565b90505f818461089f919061109b565b90505f670de0b6b3a764000084836108b79190610ffd565b6108c1919061106b565b9050807f000000000000000000000000000000000000000000000000000000000000000073ffffffffffffffffffffffffffffffffffffffff166370a08231306040518263ffffffff1660e01b815260040161091d9190610e82565b602060405180830381865afa158015610938573d5f5f3e3d5ffd5b505050506040513d601f19601f8201168201806040525081019061095c91906110e2565b101561099d576040517f08c379a0000000000000000000000000000000000000000000000000000000008152600401610994906113b3565b60405180910390fd5b7f000000000000000000000000000000000000000000000000000000000000000073ffffffffffffffffffffffffffffffffffffffff166323b872dd3330886040518463ffffffff1660e01b81526004016109fa93929190611175565b6020604051808303815f875af1158015610a16573d5f5f3e3d5ffd5b505050506040513d601f19601f82011682018060405250810190610a3a91906111df565b610a79576040517f08c379a0000000000000000000000000000000000000000000000000000000008152600401610a70906112e3565b60405180910390fd5b7f000000000000000000000000000000000000000000000000000000000000000073ffffffffffffffffffffffffffffffffffffffff1663a9059cbb33836040518363ffffffff1660e01b8152600401610ad4929190611272565b6020604051808303815f875af1158015610af0573d5f5f3e3d5ffd5b505050506040513d601f19601f82011682018060405250810190610b1491906111df565b610b53576040517f08c379a0000000000000000000000000000000000000000000000000000000008152600401610b4a90611254565b60405180910390fd5b5050505050565b610b62610be3565b5f73ffffffffffffffffffffffffffffffffffffffff168173ffffffffffffffffffffffffffffffffffffffff1603610bd2575f6040517f1e4fbdf7000000000000000000000000000000000000000000000000000000008152600401610bc99190610e82565b60405180910390fd5b610bdb81610c6a565b50565b600381565b610beb610d2b565b73ffffffffffffffffffffffffffffffffffffffff16610c09610656565b73ffffffffffffffffffffffffffffffffffffffff1614610c6857610c2c610d2b565b6040517f118cdaa7000000000000000000000000000000000000000000000000000000008152600401610c5f9190610e82565b60405180910390fd5b565b5f5f5f9054906101000a900473ffffffffffffffffffffffffffffffffffffffff169050815f5f6101000a81548173ffffffffffffffffffffffffffffffffffffffff021916908373ffffffffffffffffffffffffffffffffffffffff1602179055508173ffffffffffffffffffffffffffffffffffffffff168173ffffffffffffffffffffffffffffffffffffffff167f8be0079c531659141344cd1fd0a4f28419497f9722a3daafe3b4186f6b6457e060405160405180910390a35050565b5f33905090565b5f73ffffffffffffffffffffffffffffffffffffffff82169050919050565b5f819050919050565b5f610d74610d6f610d6a84610d32565b610d51565b610d32565b9050919050565b5f610d8582610d5a565b9050919050565b5f610d9682610d7b565b9050919050565b610da681610d8c565b82525050565b5f602082019050610dbf5f830184610d9d565b92915050565b5f819050919050565b610dd781610dc5565b82525050565b5f602082019050610df05f830184610dce565b92915050565b5f5ffd5b610e0381610dc5565b8114610e0d575f5ffd5b50565b5f81359050610e1e81610dfa565b92915050565b5f5f60408385031215610e3a57610e39610df6565b5b5f610e4785828601610e10565b9250506020610e5885828601610e10565b9150509250929050565b5f610e6c82610d32565b9050919050565b610e7c81610e62565b82525050565b5f602082019050610e955f830184610e73565b92915050565b610ea481610e62565b8114610eae575f5ffd5b50565b5f81359050610ebf81610e9b565b92915050565b5f60208284031215610eda57610ed9610df6565b5b5f610ee784828501610eb1565b91505092915050565b5f82825260208201905092915050565b7f4e6f7420617574686f72697a65640000000000000000000000000000000000005f82015250565b5f610f34600e83610ef0565b9150610f3f82610f00565b602082019050919050565b5f6020820190508181035f830152610f6181610f28565b9050919050565b7f496e76616c696420616d6f756e740000000000000000000000000000000000005f82015250565b5f610f9c600e83610ef0565b9150610fa782610f68565b602082019050919050565b5f6020820190508181035f830152610fc981610f90565b9050919050565b7f4e487b71000000000000000000000000000000000000000000000000000000005f52601160045260245ffd5b5f61100782610dc5565b915061101283610dc5565b925082820261102081610dc5565b9150828204841483151761103757611036610fd0565b5b5092915050565b7f4e487b71000000000000000000000000000000000000000000000000000000005f52601260045260245ffd5b5f61107582610dc5565b915061108083610dc5565b9250826110905761108f61103e565b5b828204905092915050565b5f6110a582610dc5565b91506110b083610dc5565b92508282039050818111156110c8576110c7610fd0565b5b92915050565b5f815190506110dc81610dfa565b92915050565b5f602082840312156110f7576110f6610df6565b5b5f611104848285016110ce565b91505092915050565b7f4e6f7420656e6f756768206c697175696469747920696e2041000000000000005f82015250565b5f611141601983610ef0565b915061114c8261110d565b602082019050919050565b5f6020820190508181035f83015261116e81611135565b9050919050565b5f6060820190506111885f830186610e73565b6111956020830185610e73565b6111a26040830184610dce565b949350505050565b5f8115159050919050565b6111be816111aa565b81146111c8575f5ffd5b50565b5f815190506111d9816111b5565b92915050565b5f602082840312156111f4576111f3610df6565b5b5f611201848285016111cb565b91505092915050565b7f546f6b656e42207472616e73666572206661696c6564000000000000000000005f82015250565b5f61123e601683610ef0565b91506112498261120a565b602082019050919050565b5f6020820190508181035f83015261126b81611232565b9050919050565b5f6040820190506112855f830185610e73565b6112926020830184610dce565b9392505050565b7f546f6b656e41207472616e73666572206661696c6564000000000000000000005f82015250565b5f6112cd601683610ef0565b91506112d882611299565b602082019050919050565b5f6020820190508181035f8301526112fa816112c1565b9050919050565b7f496e76616c69642063726561746f7220616464726573730000000000000000005f82015250565b5f611335601783610ef0565b915061134082611301565b602082019050919050565b5f6020820190508181035f83015261136281611329565b9050919050565b7f4e6f7420656e6f756768206c697175696469747920696e2042000000000000005f82015250565b5f61139d601983610ef0565b91506113a882611369565b602082019050919050565b5f6020820190508181035f8301526113ca81611391565b905091905056fea264697066735822122076e86ee31fed3c52b7dd23eac0c70932700890da6eab6076389d52228edd378864736f6c634300081e0033","linkReferences":{}},"methodIdentifiers":{"DECIMALS()":"2e0f2625","EUR_USD()":"d5932652","FLOW_USD()":"5e3a20f4","GBP_USD()":"392015b3","PythAddress()":"c211648c","SCALE()":"eced5526","USDC_USD()":"269ae32d","USD_CHF()":"7b7e7aa7","USD_INR()":"9666be7c","USD_YEN()":"4dd290a1","addInitialLiquidity()":"0210a83d","addressToName(address)":"e2a04b62","basketNFT()":"c93eb561","buyTokensFromFlow(string,bytes[])":"9f6476cf","executeBasket(string,uint256,string[],uint256[],uint256,string,bytes[])":"27f7e4be","fCHF_Address()":"2b6c86df","fEUR_Address()":"8477484a","fGBP_Address()":"79178b46","fINR_Address()":"703ad299","fUSD_Address()":"422830c9","fYEN_Address()":"a216ffd2","getNormalizedPrice(bytes32)":"60ca396f","getUserNFTCount(address)":"b2865e04","getUserNFTs(address)":"52de4ee5","initialLiquidityAdded()":"73bd699a","nameToAddress(string)":"08d88aad","nameToId(string)":"f6d8f2cb","nftBaskets(uint256)":"ed343f54","nftIndex(uint256)":"a90cb770","owner()":"8da5cb5b","redeemBasket(uint256,bytes[])":"e289c181","renounceOwnership()":"715018a6","sellTokensForFlow(string,uint256,bytes[])":"d9e30eaa","swapContracts(bytes32)":"9dc38a02","transferOwnership(address)":"f2fde38b","updatePrice(bytes[])":"2592c0bf","userNFTs(address,uint256)":"291c73c3","userOwnsNFT(address,uint256)":"d94eba43","withdrawETH(uint256)":"f14210a6"},"id":42}