{"abi":[{"type":"constructor","inputs":[{"name":"_fCHF_Address","type":"address","internalType":"address"},{"name":"_fEUR_Address","type":"address","internalType":"address"},{"name":"_fGBP_Address","type":"address","internalType":"address"},{"name":"_fINR_Address","type":"address","internalType":"address"},{"name":"_fUSD_Address","type":"address","internalType":"address"},{"name":"_fYEN_Address","type":"address","internalType":"address"},{"name":"_basketNFTAddress","type":"address","internalType":"address"}],"stateMutability":"nonpayable"},{"type":"function","name":"DECIMALS","inputs":[],"outputs":[{"name":"","type":"uint256","internalType":"uint256"}],"stateMutability":"view"},{"type":"function","name":"EUR_USD","inputs":[],"outputs":[{"name":"","type":"bytes32","internalType":"bytes32"}],"stateMutability":"view"},{"type":"function","name":"FLOW_USD","inputs":[],"outputs":[{"name":"","type":"bytes32","internalType":"bytes32"}],"stateMutability":"view"},{"type":"function","name":"GBP_USD","inputs":[],"outputs":[{"name":"","type":"bytes32","internalType":"bytes32"}],"stateMutability":"view"},{"type":"function","name":"PythAddress","inputs":[],"outputs":[{"name":"","type":"address","internalType":"address"}],"stateMutability":"view"},{"type":"function","name":"SCALE","inputs":[],"outputs":[{"name":"","type":"uint256","internalType":"uint256"}],"stateMutability":"view"},{"type":"function","name":"USDC_USD","inputs":[],"outputs":[{"name":"","type":"bytes32","internalType":"bytes32"}],"stateMutability":"view"},{"type":"function","name":"USD_CHF","inputs":[],"outputs":[{"name":"","type":"bytes32","internalType":"bytes32"}],"stateMutability":"view"},{"type":"function","name":"USD_INR","inputs":[],"outputs":[{"name":"","type":"bytes32","internalType":"bytes32"}],"stateMutability":"view"},{"type":"function","name":"USD_YEN","inputs":[],"outputs":[{"name":"","type":"bytes32","internalType":"bytes32"}],"stateMutability":"view"},{"type":"function","name":"addLiquidity","inputs":[{"name":"_tokenNameA","type":"string","internalType":"string"},{"name":"_tokenNameB","type":"string","internalType":"string"},{"name":"amountA","type":"uint256","internalType":"uint256"},{"name":"updateData","type":"bytes[]","internalType":"bytes[]"}],"outputs":[],"stateMutability":"payable"},{"type":"function","name":"addressToName","inputs":[{"name":"","type":"address","internalType":"address"}],"outputs":[{"name":"","type":"string","internalType":"string"}],"stateMutability":"view"},{"type":"function","name":"basketNFT","inputs":[],"outputs":[{"name":"","type":"address","internalType":"contract BasketJsonNFT"}],"stateMutability":"view"},{"type":"function","name":"buyTokensFromFlow","inputs":[{"name":"_tokenName","type":"string","internalType":"string"},{"name":"updateData","type":"bytes[]","internalType":"bytes[]"}],"outputs":[],"stateMutability":"payable"},{"type":"function","name":"executeBasket","inputs":[{"name":"_inputTokenName","type":"string","internalType":"string"},{"name":"_inputAmount","type":"uint256","internalType":"uint256"},{"name":"_outputTokenNames","type":"string[]","internalType":"string[]"},{"name":"_outputPercentages","type":"uint256[]","internalType":"uint256[]"},{"name":"_basket_lockout_period","type":"uint256","internalType":"uint256"},{"name":"_jsonMetadata","type":"string","internalType":"string"},{"name":"updateData","type":"bytes[]","internalType":"bytes[]"}],"outputs":[],"stateMutability":"payable"},{"type":"function","name":"fCHF_Address","inputs":[],"outputs":[{"name":"","type":"address","internalType":"address"}],"stateMutability":"view"},{"type":"function","name":"fEUR_Address","inputs":[],"outputs":[{"name":"","type":"address","internalType":"address"}],"stateMutability":"view"},{"type":"function","name":"fGBP_Address","inputs":[],"outputs":[{"name":"","type":"address","internalType":"address"}],"stateMutability":"view"},{"type":"function","name":"fINR_Address","inputs":[],"outputs":[{"name":"","type":"address","internalType":"address"}],"stateMutability":"view"},{"type":"function","name":"fUSD_Address","inputs":[],"outputs":[{"name":"","type":"address","internalType":"address"}],"stateMutability":"view"},{"type":"function","name":"fYEN_Address","inputs":[],"outputs":[{"name":"","type":"address","internalType":"address"}],"stateMutability":"view"},{"type":"function","name":"getNormalizedPrice","inputs":[{"name":"priceId","type":"bytes32","internalType":"bytes32"}],"outputs":[{"name":"","type":"uint256","internalType":"uint256"}],"stateMutability":"view"},{"type":"function","name":"nameToAddress","inputs":[{"name":"","type":"string","internalType":"string"}],"outputs":[{"name":"","type":"address","internalType":"address"}],"stateMutability":"view"},{"type":"function","name":"nameToId","inputs":[{"name":"","type":"string","internalType":"string"}],"outputs":[{"name":"","type":"bytes32","internalType":"bytes32"}],"stateMutability":"view"},{"type":"function","name":"nftBaskets","inputs":[{"name":"","type":"uint256","internalType":"uint256"}],"outputs":[{"name":"owner","type":"address","internalType":"address"},{"name":"inputToken","type":"string","internalType":"string"},{"name":"unlockTimestamp","type":"uint256","internalType":"uint256"}],"stateMutability":"view"},{"type":"function","name":"redeemBasket","inputs":[{"name":"_nftId","type":"uint256","internalType":"uint256"},{"name":"updateData","type":"bytes[]","internalType":"bytes[]"}],"outputs":[],"stateMutability":"payable"},{"type":"function","name":"removeLiquidity","inputs":[{"name":"_tokenNameA","type":"string","internalType":"string"},{"name":"_tokenNameB","type":"string","internalType":"string"},{"name":"lpTokenAmount","type":"uint256","internalType":"uint256"}],"outputs":[],"stateMutability":"nonpayable"},{"type":"function","name":"sellTokensForFlow","inputs":[{"name":"_tokenName","type":"string","internalType":"string"},{"name":"tokenAmount","type":"uint256","internalType":"uint256"},{"name":"updateData","type":"bytes[]","internalType":"bytes[]"}],"outputs":[],"stateMutability":"payable"},{"type":"function","name":"swapContracts","inputs":[{"name":"","type":"bytes32","internalType":"bytes32"}],"outputs":[{"name":"","type":"address","internalType":"address"}],"stateMutability":"view"},{"type":"function","name":"updatePrice","inputs":[{"name":"updateData","type":"bytes[]","internalType":"bytes[]"}],"outputs":[],"stateMutability":"payable"},{"type":"event","name":"BasketCreated","inputs":[{"name":"user","type":"address","indexed":true,"internalType":"address"},{"name":"nftId","type":"uint256","indexed":true,"internalType":"uint256"},{"name":"tokens","type":"string[]","indexed":false,"internalType":"string[]"},{"name":"amounts","type":"uint256[]","indexed":false,"internalType":"uint256[]"}],"anonymous":false},{"type":"event","name":"BasketRedeemed","inputs":[{"name":"user","type":"address","indexed":true,"internalType":"address"},{"name":"nftId","type":"uint256","indexed":true,"internalType":"uint256"},{"name":"amountRedeemed","type":"uint256","indexed":false,"internalType":"uint256"}],"anonymous":false},{"type":"event","name":"LiquidityAdded","inputs":[{"name":"user","type":"address","indexed":true,"internalType":"address"},{"name":"swapContract","type":"address","indexed":true,"internalType":"address"},{"name":"lpTokensMinted","type":"uint256","indexed":false,"internalType":"uint256"}],"anonymous":false},{"type":"event","name":"LiquidityRemoved","inputs":[{"name":"user","type":"address","indexed":true,"internalType":"address"},{"name":"swapContract","type":"address","indexed":true,"internalType":"address"},{"name":"amountAReturned","type":"uint256","indexed":false,"internalType":"uint256"},{"name":"amountBReturned","type":"uint256","indexed":false,"internalType":"uint256"}],"anonymous":false},{"type":"event","name":"TokensBoughtWithFlow","inputs":[{"name":"user","type":"address","indexed":true,"internalType":"address"},{"name":"token","type":"address","indexed":true,"internalType":"address"},{"name":"flowAmount","type":"uint256","indexed":false,"internalType":"uint256"},{"name":"tokenAmount","type":"uint256","indexed":false,"internalType":"uint256"}],"anonymous":false},{"type":"event","name":"TokensSoldForFlow","inputs":[{"name":"user","type":"address","indexed":true,"internalType":"address"},{"name":"token","type":"address","indexed":true,"internalType":"address"},{"name":"tokenAmount","type":"uint256","indexed":false,"internalType":"uint256"},{"name":"flowAmount","type":"uint256","indexed":false,"internalType":"uint256"}],"anonymous":false}],"bytecode":{"object":"0x610140604052348015610010575f5ffd5b50604051619ba3380380619ba383398181016040528101906100329190610c2b565b732880ab155794e7179c9ee2e38200202908c17b435f5f6101000a81548173ffffffffffffffffffffffffffffffffffffffff021916908373ffffffffffffffffffffffffffffffffffffffff1602179055508060015f6101000a81548173ffffffffffffffffffffffffffffffffffffffff021916908373ffffffffffffffffffffffffffffffffffffffff1602179055508673ffffffffffffffffffffffffffffffffffffffff1660808173ffffffffffffffffffffffffffffffffffffffff16815250508573ffffffffffffffffffffffffffffffffffffffff1660a08173ffffffffffffffffffffffffffffffffffffffff16815250508473ffffffffffffffffffffffffffffffffffffffff1660c08173ffffffffffffffffffffffffffffffffffffffff16815250508373ffffffffffffffffffffffffffffffffffffffff1660e08173ffffffffffffffffffffffffffffffffffffffff16815250508273ffffffffffffffffffffffffffffffffffffffff166101008173ffffffffffffffffffffffffffffffffffffffff16815250508173ffffffffffffffffffffffffffffffffffffffff166101208173ffffffffffffffffffffffffffffffffffffffff168152505086600460405161020e90610d1c565b90815260200160405180910390205f6101000a81548173ffffffffffffffffffffffffffffffffffffffff021916908373ffffffffffffffffffffffffffffffffffffffff1602179055506040518060400160405280600481526020017f664348460000000000000000000000000000000000000000000000000000000081525060055f8973ffffffffffffffffffffffffffffffffffffffff1673ffffffffffffffffffffffffffffffffffffffff1681526020019081526020015f2090816102d89190610f6d565b508560046040516102e890611086565b90815260200160405180910390205f6101000a81548173ffffffffffffffffffffffffffffffffffffffff021916908373ffffffffffffffffffffffffffffffffffffffff1602179055506040518060400160405280600481526020017f664555520000000000000000000000000000000000000000000000000000000081525060055f8873ffffffffffffffffffffffffffffffffffffffff1673ffffffffffffffffffffffffffffffffffffffff1681526020019081526020015f2090816103b29190610f6d565b508460046040516103c2906110e4565b90815260200160405180910390205f6101000a81548173ffffffffffffffffffffffffffffffffffffffff021916908373ffffffffffffffffffffffffffffffffffffffff1602179055506040518060400160405280600481526020017f664742500000000000000000000000000000000000000000000000000000000081525060055f8773ffffffffffffffffffffffffffffffffffffffff1673ffffffffffffffffffffffffffffffffffffffff1681526020019081526020015f20908161048c9190610f6d565b5083600460405161049c90611142565b90815260200160405180910390205f6101000a81548173ffffffffffffffffffffffffffffffffffffffff021916908373ffffffffffffffffffffffffffffffffffffffff1602179055506040518060400160405280600481526020017f66494e520000000000000000000000000000000000000000000000000000000081525060055f8673ffffffffffffffffffffffffffffffffffffffff1673ffffffffffffffffffffffffffffffffffffffff1681526020019081526020015f2090816105669190610f6d565b50826004604051610576906111a0565b90815260200160405180910390205f6101000a81548173ffffffffffffffffffffffffffffffffffffffff021916908373ffffffffffffffffffffffffffffffffffffffff1602179055506040518060400160405280600481526020017f665553440000000000000000000000000000000000000000000000000000000081525060055f8573ffffffffffffffffffffffffffffffffffffffff1673ffffffffffffffffffffffffffffffffffffffff1681526020019081526020015f2090816106409190610f6d565b50816004604051610650906111fe565b90815260200160405180910390205f6101000a81548173ffffffffffffffffffffffffffffffffffffffff021916908373ffffffffffffffffffffffffffffffffffffffff1602179055506040518060400160405280600481526020017f6659454e0000000000000000000000000000000000000000000000000000000081525060055f8473ffffffffffffffffffffffffffffffffffffffff1673ffffffffffffffffffffffffffffffffffffffff1681526020019081526020015f20908161071a9190610f6d565b507f0b1e3297e69f162877b577b0d6a47a0d63b2392bc8499e6540da4187a63e28f85f1b600360405161074c90610d1c565b9081526020016040518091039020819055507fa995d00bb36a63cef7fd2c287dc105fc8f3d93779f062f09551b0af3e81ec30b5f1b600360405161078f90611086565b9081526020016040518091039020819055507f84c2dde9633d93d1bcad84e7dc41c9d56578b7ec52fabedc1f335d673df0a7c15f1b60036040516107d2906110e4565b9081526020016040518091039020819055507f0ac0f9a2886fc2dd708bc66cc2cea359052ce89d324f45d95fadbc6c4fcf18095f1b600360405161081590611142565b9081526020016040518091039020819055507feaa020c61cc479712813461ce153894a96a6c00b21ed0cfc2798d1f9a9e9c94a5f1b6003604051610858906111a0565b9081526020016040518091039020819055507fef2c98c804ba503c6a707e38be4dfbb16683775f195b091252bf24693042fd525f1b600360405161089b906111fe565b9081526020016040518091039020819055505f6040518060c001604052808973ffffffffffffffffffffffffffffffffffffffff1673ffffffffffffffffffffffffffffffffffffffff1681526020018873ffffffffffffffffffffffffffffffffffffffff1673ffffffffffffffffffffffffffffffffffffffff1681526020018773ffffffffffffffffffffffffffffffffffffffff1673ffffffffffffffffffffffffffffffffffffffff1681526020018673ffffffffffffffffffffffffffffffffffffffff1673ffffffffffffffffffffffffffffffffffffffff1681526020018573ffffffffffffffffffffffffffffffffffffffff1673ffffffffffffffffffffffffffffffffffffffff1681526020018473ffffffffffffffffffffffffffffffffffffffff1673ffffffffffffffffffffffffffffffffffffffff1681525090505f5f90505b6006811015610b1e575f600182610a01919061123f565b90505b6006811015610b10575f610a4c848460068110610a2457610a23611272565b5b6020020151858460068110610a3c57610a3b611272565b5b6020020151610b2c60201b60201c565b90505f848460068110610a6257610a61611272565b5b6020020151858460068110610a7a57610a79611272565b5b6020020151604051610a8b90610bc0565b610a969291906112ae565b604051809103905ff080158015610aaf573d5f5f3e3d5ffd5b5090508060065f8481526020019081526020015f205f6101000a81548173ffffffffffffffffffffffffffffffffffffffff021916908373ffffffffffffffffffffffffffffffffffffffff16021790555050508080600101915050610a04565b5080806001019150506109ea565b505050505050505050611345565b5f8173ffffffffffffffffffffffffffffffffffffffff168373ffffffffffffffffffffffffffffffffffffffff1610610b8e578183604051602001610b7392919061131a565b60405160208183030381529060405280519060200120610bb8565b8282604051602001610ba192919061131a565b604051602081830303815290604052805190602001205b905092915050565b6129ab806171f883390190565b5f5ffd5b5f73ffffffffffffffffffffffffffffffffffffffff82169050919050565b5f610bfa82610bd1565b9050919050565b610c0a81610bf0565b8114610c14575f5ffd5b50565b5f81519050610c2581610c01565b92915050565b5f5f5f5f5f5f5f60e0888a031215610c4657610c45610bcd565b5b5f610c538a828b01610c17565b9750506020610c648a828b01610c17565b9650506040610c758a828b01610c17565b9550506060610c868a828b01610c17565b9450506080610c978a828b01610c17565b93505060a0610ca88a828b01610c17565b92505060c0610cb98a828b01610c17565b91505092959891949750929550565b5f81905092915050565b7f66434846000000000000000000000000000000000000000000000000000000005f82015250565b5f610d06600483610cc8565b9150610d1182610cd2565b600482019050919050565b5f610d2682610cfa565b9150819050919050565b5f81519050919050565b7f4e487b71000000000000000000000000000000000000000000000000000000005f52604160045260245ffd5b7f4e487b71000000000000000000000000000000000000000000000000000000005f52602260045260245ffd5b5f6002820490506001821680610dab57607f821691505b602082108103610dbe57610dbd610d67565b5b50919050565b5f819050815f5260205f209050919050565b5f6020601f8301049050919050565b5f82821b905092915050565b5f60088302610e207fffffffffffffffffffffffffffffffffffffffffffffffffffffffffffffffff82610de5565b610e2a8683610de5565b95508019841693508086168417925050509392505050565b5f819050919050565b5f819050919050565b5f610e6e610e69610e6484610e42565b610e4b565b610e42565b9050919050565b5f819050919050565b610e8783610e54565b610e9b610e9382610e75565b848454610df1565b825550505050565b5f5f905090565b610eb2610ea3565b610ebd818484610e7e565b505050565b5b81811015610ee057610ed55f82610eaa565b600181019050610ec3565b5050565b601f821115610f2557610ef681610dc4565b610eff84610dd6565b81016020851015610f0e578190505b610f22610f1a85610dd6565b830182610ec2565b50505b505050565b5f82821c905092915050565b5f610f455f1984600802610f2a565b1980831691505092915050565b5f610f5d8383610f36565b9150826002028217905092915050565b610f7682610d30565b67ffffffffffffffff811115610f8f57610f8e610d3a565b5b610f998254610d94565b610fa4828285610ee4565b5f60209050601f831160018114610fd5575f8415610fc3578287015190505b610fcd8582610f52565b865550611034565b601f198416610fe386610dc4565b5f5b8281101561100a57848901518255600182019150602085019450602081019050610fe5565b868310156110275784890151611023601f891682610f36565b8355505b6001600288020188555050505b505050505050565b7f66455552000000000000000000000000000000000000000000000000000000005f82015250565b5f611070600483610cc8565b915061107b8261103c565b600482019050919050565b5f61109082611064565b9150819050919050565b7f66474250000000000000000000000000000000000000000000000000000000005f82015250565b5f6110ce600483610cc8565b91506110d98261109a565b600482019050919050565b5f6110ee826110c2565b9150819050919050565b7f66494e52000000000000000000000000000000000000000000000000000000005f82015250565b5f61112c600483610cc8565b9150611137826110f8565b600482019050919050565b5f61114c82611120565b9150819050919050565b7f66555344000000000000000000000000000000000000000000000000000000005f82015250565b5f61118a600483610cc8565b915061119582611156565b600482019050919050565b5f6111aa8261117e565b9150819050919050565b7f6659454e000000000000000000000000000000000000000000000000000000005f82015250565b5f6111e8600483610cc8565b91506111f3826111b4565b600482019050919050565b5f611208826111dc565b9150819050919050565b7f4e487b71000000000000000000000000000000000000000000000000000000005f52601160045260245ffd5b5f61124982610e42565b915061125483610e42565b925082820190508082111561126c5761126b611212565b5b92915050565b7f4e487b71000000000000000000000000000000000000000000000000000000005f52603260045260245ffd5b6112a881610bf0565b82525050565b5f6040820190506112c15f83018561129f565b6112ce602083018461129f565b9392505050565b5f8160601b9050919050565b5f6112eb826112d5565b9050919050565b5f6112fc826112e1565b9050919050565b61131461130f82610bf0565b6112f2565b82525050565b5f6113258285611303565b6014820191506113358284611303565b6014820191508190509392505050565b60805160a05160c05160e0516101005161012051615e6c61138c5f395f6119ba01525f61109801525f6113ee01525f61141201525f61145c01525f6110490152615e6c5ff3fe6080604052600436106101cc575f3560e01c80639666be7c116100f6578063d593265211610094578063e2a04b6211610063578063e2a04b62146105f4578063eced552614610630578063ed343f541461065a578063f6d8f2cb14610698576101cc565b8063d593265214610576578063d6305b7a146105a0578063d9e30eaa146105bc578063e289c181146105d8576101cc565b8063a216ffd2116100d0578063a216ffd2146104d0578063a8c9e831146104fa578063c211648c14610522578063c93eb5611461054c576101cc565b80639666be7c1461044e5780639dc38a02146104785780639f6476cf146104b4576101cc565b8063422830c91161016e578063703ad2991161013d578063703ad299146103a657806379178b46146103d05780637b7e7aa7146103fa5780638477484a14610424576101cc565b8063422830c9146102ec5780634dd290a1146103165780635e3a20f41461034057806360ca396f1461036a576101cc565b806327f7e4be116101aa57806327f7e4be146102525780632b6c86df1461026e5780632e0f262514610298578063392015b3146102c2576101cc565b806308d88aad146101d05780632592c0bf1461020c578063269ae32d14610228575b5f5ffd5b3480156101db575f5ffd5b506101f660048036038101906101f19190614004565b6106d4565b604051610203919061408a565b60405180910390f35b61022660048036038101906102219190614100565b61071c565b005b348015610233575f5ffd5b5061023c6108e3565b6040516102499190614163565b60405180910390f35b61026c6004803603810190610267919061434d565b610909565b005b348015610279575f5ffd5b50610282611047565b60405161028f919061408a565b60405180910390f35b3480156102a3575f5ffd5b506102ac61106b565b6040516102b99190614489565b60405180910390f35b3480156102cd575f5ffd5b506102d6611070565b6040516102e39190614163565b60405180910390f35b3480156102f7575f5ffd5b50610300611096565b60405161030d919061408a565b60405180910390f35b348015610321575f5ffd5b5061032a6110ba565b6040516103379190614163565b60405180910390f35b34801561034b575f5ffd5b506103546110e0565b6040516103619190614163565b60405180910390f35b348015610375575f5ffd5b50610390600480360381019061038b91906144cc565b611106565b60405161039d9190614489565b60405180910390f35b3480156103b1575f5ffd5b506103ba6113ec565b6040516103c7919061408a565b60405180910390f35b3480156103db575f5ffd5b506103e4611410565b6040516103f1919061408a565b60405180910390f35b348015610405575f5ffd5b5061040e611434565b60405161041b9190614163565b60405180910390f35b34801561042f575f5ffd5b5061043861145a565b604051610445919061408a565b60405180910390f35b348015610459575f5ffd5b5061046261147e565b60405161046f9190614163565b60405180910390f35b348015610483575f5ffd5b5061049e600480360381019061049991906144cc565b6114a4565b6040516104ab919061408a565b60405180910390f35b6104ce60048036038101906104c991906144f7565b6114d4565b005b3480156104db575f5ffd5b506104e46119b8565b6040516104f1919061408a565b60405180910390f35b348015610505575f5ffd5b50610520600480360381019061051b9190614570565b6119dc565b005b34801561052d575f5ffd5b50610536611f64565b604051610543919061408a565b60405180910390f35b348015610557575f5ffd5b50610560611f7c565b60405161056d9190614653565b60405180910390f35b348015610581575f5ffd5b5061058a611fa1565b6040516105979190614163565b60405180910390f35b6105ba60048036038101906105b5919061466c565b611fc7565b005b6105d660048036038101906105d19190614728565b61288b565b005b6105f260048036038101906105ed91906147b5565b612d84565b005b3480156105ff575f5ffd5b5061061a6004803603810190610615919061483c565b61342b565b60405161062791906148c7565b60405180910390f35b34801561063b575f5ffd5b506106446134c6565b6040516106519190614489565b60405180910390f35b348015610665575f5ffd5b50610680600480360381019061067b91906148e7565b6134d2565b60405161068f93929190614912565b60405180910390f35b3480156106a3575f5ffd5b506106be60048036038101906106b99190614004565b61359d565b6040516106cb9190614163565b60405180910390f35b6004818051602081018201805184825260208301602085012081835280955050505050505f915054906101000a900473ffffffffffffffffffffffffffffffffffffffff1681565b5f5f5f9054906101000a900473ffffffffffffffffffffffffffffffffffffffff1673ffffffffffffffffffffffffffffffffffffffff1663d47eed4584846040518363ffffffff1660e01b8152600401610778929190614aa6565b602060405180830381865afa158015610793573d5f5f3e3d5ffd5b505050506040513d601f19601f820116820180604052508101906107b79190614adc565b9050803410156107fc576040517f08c379a00000000000000000000000000000000000000000000000000000000081526004016107f390614b77565b60405180910390fd5b5f5f9054906101000a900473ffffffffffffffffffffffffffffffffffffffff1673ffffffffffffffffffffffffffffffffffffffff1663ef9e5e288285856040518463ffffffff1660e01b8152600401610858929190614aa6565b5f604051808303818588803b15801561086f575f5ffd5b505af1158015610881573d5f5f3e3d5ffd5b5050505050803411156108de573373ffffffffffffffffffffffffffffffffffffffff166108fc82346108b49190614bc2565b90811502906040515f60405180830381858888f193505050501580156108dc573d5f5f3e3d5ffd5b505b505050565b7feaa020c61cc479712813461ce153894a96a6c00b21ed0cfc2798d1f9a9e9c94a5f1b81565b845186511461094d576040517f08c379a000000000000000000000000000000000000000000000000000000000815260040161094490614c3f565b60405180910390fd5b5f5f5f90505b86518110156109915786818151811061096f5761096e614c5d565b5b6020026020010151826109829190614c8a565b91508080600101915050610953565b5061271081146109d6576040517f08c379a00000000000000000000000000000000000000000000000000000000081526004016109cd90614d07565b60405180910390fd5b5f5f5f9054906101000a900473ffffffffffffffffffffffffffffffffffffffff1673ffffffffffffffffffffffffffffffffffffffff1663d47eed4585856040518363ffffffff1660e01b8152600401610a32929190614aa6565b602060405180830381865afa158015610a4d573d5f5f3e3d5ffd5b505050506040513d601f19601f82011682018060405250810190610a719190614adc565b905080341015610ab6576040517f08c379a0000000000000000000000000000000000000000000000000000000008152600401610aad90614d6f565b60405180910390fd5b5f5f9054906101000a900473ffffffffffffffffffffffffffffffffffffffff1673ffffffffffffffffffffffffffffffffffffffff1663ef9e5e288286866040518463ffffffff1660e01b8152600401610b12929190614aa6565b5f604051808303818588803b158015610b29575f5ffd5b505af1158015610b3b573d5f5f3e3d5ffd5b505050505080341115610b98573373ffffffffffffffffffffffffffffffffffffffff166108fc8234610b6e9190614bc2565b90811502906040515f60405180830381858888f19350505050158015610b96573d5f5f3e3d5ffd5b505b5f60048b604051610ba99190614dc7565b90815260200160405180910390205f9054906101000a900473ffffffffffffffffffffffffffffffffffffffff1690505f73ffffffffffffffffffffffffffffffffffffffff168173ffffffffffffffffffffffffffffffffffffffff1603610c47576040517f08c379a0000000000000000000000000000000000000000000000000000000008152600401610c3e90614e27565b60405180910390fd5b8073ffffffffffffffffffffffffffffffffffffffff166323b872dd33308d6040518463ffffffff1660e01b8152600401610c8493929190614e45565b6020604051808303815f875af1158015610ca0573d5f5f3e3d5ffd5b505050506040513d601f19601f82011682018060405250810190610cc49190614eaf565b505f895167ffffffffffffffff811115610ce157610ce0613ee0565b5b604051908082528060200260200182016040528015610d0f5781602001602082028036833780820191505090505b5090505f610d3a60038e604051610d269190614dc7565b908152602001604051809103902054611106565b90505f5f90505b8b51811015610dd3575f6127108c8381518110610d6157610d60614c5d565b5b60200260200101518f610d749190614eda565b610d7e9190614f48565b9050610da6858e8481518110610d9757610d96614c5d565b5b602002602001015183866135ca565b848381518110610db957610db8614c5d565b5b602002602001018181525050508080600101915050610d41565b505f60015f9054906101000a900473ffffffffffffffffffffffffffffffffffffffff1673ffffffffffffffffffffffffffffffffffffffff166375794a3c6040518163ffffffff1660e01b8152600401602060405180830381865afa158015610e3f573d5f5f3e3d5ffd5b505050506040513d601f19601f82011682018060405250810190610e639190614adc565b90506040518060a001604052803373ffffffffffffffffffffffffffffffffffffffff1681526020018f81526020018b42610e9e9190614c8a565b81526020018d81526020018481525060025f8381526020019081526020015f205f820151815f015f6101000a81548173ffffffffffffffffffffffffffffffffffffffff021916908373ffffffffffffffffffffffffffffffffffffffff1602179055506020820151816001019081610f17919061516c565b50604082015181600201556060820151816003019080519060200190610f3e929190613d5e565b506080820151816004019080519060200190610f5b929190613db5565b5090505060015f9054906101000a900473ffffffffffffffffffffffffffffffffffffffff1673ffffffffffffffffffffffffffffffffffffffff1663fb37e8838a6040518263ffffffff1660e01b8152600401610fb991906148c7565b5f604051808303815f87803b158015610fd0575f5ffd5b505af1158015610fe2573d5f5f3e3d5ffd5b50505050803373ffffffffffffffffffffffffffffffffffffffff167f5ad7b074f4912fa69ee9c4079c45e33c020dba9a720bc6f9fc0736432aee5fad8e8660405161102f9291906153f5565b60405180910390a35050505050505050505050505050565b7f000000000000000000000000000000000000000000000000000000000000000081565b601281565b7f84c2dde9633d93d1bcad84e7dc41c9d56578b7ec52fabedc1f335d673df0a7c15f1b81565b7f000000000000000000000000000000000000000000000000000000000000000081565b7fef2c98c804ba503c6a707e38be4dfbb16683775f195b091252bf24693042fd525f1b81565b7f2fb245b9a84554a0f15aa123cbb5f64cd263b59e9a87d80148cbffab50c69f305f1b81565b5f5f5f5f9054906101000a900473ffffffffffffffffffffffffffffffffffffffff1673ffffffffffffffffffffffffffffffffffffffff166396834ad3846040518263ffffffff1660e01b81526004016111619190614163565b608060405180830381865afa15801561117c573d5f5f3e3d5ffd5b505050506040513d601f19601f820116820180604052508101906111a0919061554c565b90505f815f015160070b136111ea576040517f08c379a00000000000000000000000000000000000000000000000000000000081526004016111e1906155c1565b60405180910390fd5b5f815f015160070b90505f8260400151611203906155df565b60030b90507f2fb245b9a84554a0f15aa123cbb5f64cd263b59e9a87d80148cbffab50c69f305f1b85148061125957507f84c2dde9633d93d1bcad84e7dc41c9d56578b7ec52fabedc1f335d673df0a7c15f1b85145b8061128557507fa995d00bb36a63cef7fd2c287dc105fc8f3d93779f062f09551b0af3e81ec30b5f1b85145b806112b157507feaa020c61cc479712813461ce153894a96a6c00b21ed0cfc2798d1f9a9e9c94a5f1b85145b156112f057816012600a6112c59190615754565b82600a6112d29190615754565b6112dc9190614eda565b6112e69190614f48565b93505050506113e7565b7f0b1e3297e69f162877b577b0d6a47a0d63b2392bc8499e6540da4187a63e28f85f1b85148061134157507f0ac0f9a2886fc2dd708bc66cc2cea359052ce89d324f45d95fadbc6c4fcf18095f1b85145b8061136d57507fef2c98c804ba503c6a707e38be4dfbb16683775f195b091252bf24693042fd525f1b85145b156113ac5780600a61137f9190615754565b6012600a61138d9190615754565b836113989190614eda565b6113a29190614f48565b93505050506113e7565b6040517f08c379a00000000000000000000000000000000000000000000000000000000081526004016113de906157e8565b60405180910390fd5b919050565b7f000000000000000000000000000000000000000000000000000000000000000081565b7f000000000000000000000000000000000000000000000000000000000000000081565b7f0b1e3297e69f162877b577b0d6a47a0d63b2392bc8499e6540da4187a63e28f85f1b81565b7f000000000000000000000000000000000000000000000000000000000000000081565b7f0ac0f9a2886fc2dd708bc66cc2cea359052ce89d324f45d95fadbc6c4fcf18095f1b81565b6006602052805f5260405f205f915054906101000a900473ffffffffffffffffffffffffffffffffffffffff1681565b5f8390505f5f5f9054906101000a900473ffffffffffffffffffffffffffffffffffffffff1673ffffffffffffffffffffffffffffffffffffffff1663d47eed4585856040518363ffffffff1660e01b8152600401611534929190614aa6565b602060405180830381865afa15801561154f573d5f5f3e3d5ffd5b505050506040513d601f19601f820116820180604052508101906115739190614adc565b90508034116115b7576040517f08c379a00000000000000000000000000000000000000000000000000000000081526004016115ae90615876565b60405180910390fd5b5f5f9054906101000a900473ffffffffffffffffffffffffffffffffffffffff1673ffffffffffffffffffffffffffffffffffffffff1663ef9e5e288286866040518463ffffffff1660e01b8152600401611613929190614aa6565b5f604051808303818588803b15801561162a575f5ffd5b505af115801561163c573d5f5f3e3d5ffd5b50505050505f813461164e9190614bc2565b90505f6003846040516116619190614dc7565b90815260200160405180910390205490505f5f1b81036116b6576040517f08c379a00000000000000000000000000000000000000000000000000000000081526004016116ad906158de565b60405180910390fd5b5f6004856040516116c79190614dc7565b90815260200160405180910390205f9054906101000a900473ffffffffffffffffffffffffffffffffffffffff1690505f8173ffffffffffffffffffffffffffffffffffffffff166370a08231306040518263ffffffff1660e01b8152600401611731919061408a565b602060405180830381865afa15801561174c573d5f5f3e3d5ffd5b505050506040513d601f19601f820116820180604052508101906117709190614adc565b90505f61179e7f2fb245b9a84554a0f15aa123cbb5f64cd263b59e9a87d80148cbffab50c69f305f1b611106565b90505f6117aa85611106565b90505f816012600a6117bc9190615754565b846117c79190614eda565b6117d19190614f48565b90508473ffffffffffffffffffffffffffffffffffffffff16633610724e88836040518363ffffffff1660e01b815260040161180d9190614489565b5f604051808303818588803b158015611824575f5ffd5b505af1158015611836573d5f5f3e3d5ffd5b50505050505f8573ffffffffffffffffffffffffffffffffffffffff166370a08231306040518263ffffffff1660e01b8152600401611875919061408a565b602060405180830381865afa158015611890573d5f5f3e3d5ffd5b505050506040513d601f19601f820116820180604052508101906118b49190614adc565b90505f85826118c39190614bc2565b90508673ffffffffffffffffffffffffffffffffffffffff1663a9059cbb33836040518363ffffffff1660e01b81526004016119009291906158fc565b6020604051808303815f875af115801561191c573d5f5f3e3d5ffd5b505050506040513d601f19601f820116820180604052508101906119409190614eaf565b508673ffffffffffffffffffffffffffffffffffffffff163373ffffffffffffffffffffffffffffffffffffffff167f3829ce9b8af96b65b723a35c5edf9b7d7e10bb8eff0ca4bee0f62703f6d52cee8b846040516119a0929190615923565b60405180910390a35050505050505050505050505050565b7f000000000000000000000000000000000000000000000000000000000000000081565b5f6004846040516119ed9190614dc7565b90815260200160405180910390205f9054906101000a900473ffffffffffffffffffffffffffffffffffffffff1690505f600484604051611a2e9190614dc7565b90815260200160405180910390205f9054906101000a900473ffffffffffffffffffffffffffffffffffffffff1690505f60065f611a6c8585613975565b81526020019081526020015f205f9054906101000a900473ffffffffffffffffffffffffffffffffffffffff1690505f73ffffffffffffffffffffffffffffffffffffffff168173ffffffffffffffffffffffffffffffffffffffff1603611b09576040517f08c379a0000000000000000000000000000000000000000000000000000000008152600401611b00906159ba565b60405180910390fd5b8073ffffffffffffffffffffffffffffffffffffffff166323b872dd3330876040518463ffffffff1660e01b8152600401611b4693929190614e45565b6020604051808303815f875af1158015611b62573d5f5f3e3d5ffd5b505050506040513d601f19601f82011682018060405250810190611b869190614eaf565b505f8373ffffffffffffffffffffffffffffffffffffffff166370a08231306040518263ffffffff1660e01b8152600401611bc1919061408a565b602060405180830381865afa158015611bdc573d5f5f3e3d5ffd5b505050506040513d601f19601f82011682018060405250810190611c009190614adc565b90505f8373ffffffffffffffffffffffffffffffffffffffff166370a08231306040518263ffffffff1660e01b8152600401611c3c919061408a565b602060405180830381865afa158015611c57573d5f5f3e3d5ffd5b505050506040513d601f19601f82011682018060405250810190611c7b9190614adc565b90508273ffffffffffffffffffffffffffffffffffffffff16639c8f9f23876040518263ffffffff1660e01b8152600401611cb69190614489565b5f604051808303815f87803b158015611ccd575f5ffd5b505af1158015611cdf573d5f5f3e3d5ffd5b505050505f8573ffffffffffffffffffffffffffffffffffffffff166370a08231306040518263ffffffff1660e01b8152600401611d1d919061408a565b602060405180830381865afa158015611d38573d5f5f3e3d5ffd5b505050506040513d601f19601f82011682018060405250810190611d5c9190614adc565b90505f8573ffffffffffffffffffffffffffffffffffffffff166370a08231306040518263ffffffff1660e01b8152600401611d98919061408a565b602060405180830381865afa158015611db3573d5f5f3e3d5ffd5b505050506040513d601f19601f82011682018060405250810190611dd79190614adc565b90505f8483611de69190614bc2565b90505f8483611df59190614bc2565b90508873ffffffffffffffffffffffffffffffffffffffff1663a9059cbb33846040518363ffffffff1660e01b8152600401611e329291906158fc565b6020604051808303815f875af1158015611e4e573d5f5f3e3d5ffd5b505050506040513d601f19601f82011682018060405250810190611e729190614eaf565b508773ffffffffffffffffffffffffffffffffffffffff1663a9059cbb33836040518363ffffffff1660e01b8152600401611eae9291906158fc565b6020604051808303815f875af1158015611eca573d5f5f3e3d5ffd5b505050506040513d601f19601f82011682018060405250810190611eee9190614eaf565b508673ffffffffffffffffffffffffffffffffffffffff163373ffffffffffffffffffffffffffffffffffffffff167f3b5c196aff80bb96c03b41c96906b66827014de931d1b36e0ede6ee8caeb4bf98484604051611f4e929190615923565b60405180910390a3505050505050505050505050565b732880ab155794e7179c9ee2e38200202908c17b4381565b60015f9054906101000a900473ffffffffffffffffffffffffffffffffffffffff1681565b7fa995d00bb36a63cef7fd2c287dc105fc8f3d93779f062f09551b0af3e81ec30b5f1b81565b5f5f5f9054906101000a900473ffffffffffffffffffffffffffffffffffffffff1673ffffffffffffffffffffffffffffffffffffffff1663d47eed4584846040518363ffffffff1660e01b8152600401612023929190614aa6565b602060405180830381865afa15801561203e573d5f5f3e3d5ffd5b505050506040513d601f19601f820116820180604052508101906120629190614adc565b9050803410156120a7576040517f08c379a000000000000000000000000000000000000000000000000000000000815260040161209e90614d6f565b60405180910390fd5b5f5f9054906101000a900473ffffffffffffffffffffffffffffffffffffffff1673ffffffffffffffffffffffffffffffffffffffff1663ef9e5e288285856040518463ffffffff1660e01b8152600401612103929190614aa6565b5f604051808303818588803b15801561211a575f5ffd5b505af115801561212c573d5f5f3e3d5ffd5b505050505080341115612189573373ffffffffffffffffffffffffffffffffffffffff166108fc823461215f9190614bc2565b90811502906040515f60405180830381858888f19350505050158015612187573d5f5f3e3d5ffd5b505b5f60048760405161219a9190614dc7565b90815260200160405180910390205f9054906101000a900473ffffffffffffffffffffffffffffffffffffffff1690505f6004876040516121db9190614dc7565b90815260200160405180910390205f9054906101000a900473ffffffffffffffffffffffffffffffffffffffff1690505f73ffffffffffffffffffffffffffffffffffffffff168273ffffffffffffffffffffffffffffffffffffffff161415801561227357505f73ffffffffffffffffffffffffffffffffffffffff168173ffffffffffffffffffffffffffffffffffffffff1614155b6122b2576040517f08c379a00000000000000000000000000000000000000000000000000000000081526004016122a990615a22565b60405180910390fd5b5f6122da60038a6040516122c69190614dc7565b908152602001604051809103902054611106565b90505f61230460038a6040516122f09190614dc7565b908152602001604051809103902054611106565b90505f81670de0b6b3a76400008461231c9190614eda565b6123269190614f48565b90505f670de0b6b3a7640000828b61233e9190614eda565b6123489190614f48565b90505f60065f6123588989613975565b81526020019081526020015f205f9054906101000a900473ffffffffffffffffffffffffffffffffffffffff1690505f73ffffffffffffffffffffffffffffffffffffffff168173ffffffffffffffffffffffffffffffffffffffff16036123f5576040517f08c379a00000000000000000000000000000000000000000000000000000000081526004016123ec906159ba565b60405180910390fd5b8673ffffffffffffffffffffffffffffffffffffffff166323b872dd33308e6040518463ffffffff1660e01b815260040161243293929190614e45565b6020604051808303815f875af115801561244e573d5f5f3e3d5ffd5b505050506040513d601f19601f820116820180604052508101906124729190614eaf565b508573ffffffffffffffffffffffffffffffffffffffff166323b872dd3330856040518463ffffffff1660e01b81526004016124b093929190614e45565b6020604051808303815f875af11580156124cc573d5f5f3e3d5ffd5b505050506040513d601f19601f820116820180604052508101906124f09190614eaf565b508673ffffffffffffffffffffffffffffffffffffffff1663095ea7b3828d6040518363ffffffff1660e01b815260040161252c9291906158fc565b6020604051808303815f875af1158015612548573d5f5f3e3d5ffd5b505050506040513d601f19601f8201168201806040525081019061256c9190614eaf565b508573ffffffffffffffffffffffffffffffffffffffff1663095ea7b382846040518363ffffffff1660e01b81526004016125a89291906158fc565b6020604051808303815f875af11580156125c4573d5f5f3e3d5ffd5b505050506040513d601f19601f820116820180604052508101906125e89190614eaf565b505f8173ffffffffffffffffffffffffffffffffffffffff166370a08231306040518263ffffffff1660e01b8152600401612623919061408a565b602060405180830381865afa15801561263e573d5f5f3e3d5ffd5b505050506040513d601f19601f820116820180604052508101906126629190614adc565b90508173ffffffffffffffffffffffffffffffffffffffff16639cd441da8d856040518363ffffffff1660e01b815260040161269f929190615923565b5f604051808303815f87803b1580156126b6575f5ffd5b505af11580156126c8573d5f5f3e3d5ffd5b505050505f8273ffffffffffffffffffffffffffffffffffffffff166370a08231306040518263ffffffff1660e01b8152600401612706919061408a565b602060405180830381865afa158015612721573d5f5f3e3d5ffd5b505050506040513d601f19601f820116820180604052508101906127459190614adc565b90505f82826127549190614bc2565b90505f8111612798576040517f08c379a000000000000000000000000000000000000000000000000000000000815260040161278f90615a8a565b60405180910390fd5b8373ffffffffffffffffffffffffffffffffffffffff1663a9059cbb33836040518363ffffffff1660e01b81526004016127d39291906158fc565b6020604051808303815f875af11580156127ef573d5f5f3e3d5ffd5b505050506040513d601f19601f820116820180604052508101906128139190614eaf565b508373ffffffffffffffffffffffffffffffffffffffff163373ffffffffffffffffffffffffffffffffffffffff167f9d278c56ba6dc86a12eefe6b43112bd6e06648eb4ec0b950ee2d783d40e2acb4836040516128719190614489565b60405180910390a350505050505050505050505050505050565b5f8490505f5f5f9054906101000a900473ffffffffffffffffffffffffffffffffffffffff1673ffffffffffffffffffffffffffffffffffffffff1663d47eed4585856040518363ffffffff1660e01b81526004016128eb929190614aa6565b602060405180830381865afa158015612906573d5f5f3e3d5ffd5b505050506040513d601f19601f8201168201806040525081019061292a9190614adc565b90508034101561296f576040517f08c379a000000000000000000000000000000000000000000000000000000000815260040161296690614d6f565b60405180910390fd5b5f5f9054906101000a900473ffffffffffffffffffffffffffffffffffffffff1673ffffffffffffffffffffffffffffffffffffffff1663ef9e5e288286866040518463ffffffff1660e01b81526004016129cb929190614aa6565b5f604051808303818588803b1580156129e2575f5ffd5b505af11580156129f4573d5f5f3e3d5ffd5b505050505080341115612a51573373ffffffffffffffffffffffffffffffffffffffff166108fc8234612a279190614bc2565b90811502906040515f60405180830381858888f19350505050158015612a4f573d5f5f3e3d5ffd5b505b5f600383604051612a629190614dc7565b90815260200160405180910390205490505f5f1b8103612ab7576040517f08c379a0000000000000000000000000000000000000000000000000000000008152600401612aae906158de565b60405180910390fd5b5f600484604051612ac89190614dc7565b90815260200160405180910390205f9054906101000a900473ffffffffffffffffffffffffffffffffffffffff1690505f612b247f2fb245b9a84554a0f15aa123cbb5f64cd263b59e9a87d80148cbffab50c69f305f1b611106565b90505f612b3084611106565b90505f816012600a612b429190615754565b84612b4d9190614eda565b612b579190614f48565b90505f816012600a612b699190615754565b8c612b749190614eda565b612b7e9190614f48565b90508473ffffffffffffffffffffffffffffffffffffffff166323b872dd33308e6040518463ffffffff1660e01b8152600401612bbd93929190614e45565b6020604051808303815f875af1158015612bd9573d5f5f3e3d5ffd5b505050506040513d601f19601f82011682018060405250810190612bfd9190614eaf565b508473ffffffffffffffffffffffffffffffffffffffff1663ed9772b68c846040518363ffffffff1660e01b8152600401612c39929190615923565b5f604051808303815f87803b158015612c50575f5ffd5b505af1158015612c62573d5f5f3e3d5ffd5b505050505f3373ffffffffffffffffffffffffffffffffffffffff1682604051612c8b90615ad5565b5f6040518083038185875af1925050503d805f8114612cc5576040519150601f19603f3d011682016040523d82523d5f602084013e612cca565b606091505b5050905080612d0e576040517f08c379a0000000000000000000000000000000000000000000000000000000008152600401612d0590615b33565b60405180910390fd5b8573ffffffffffffffffffffffffffffffffffffffff163373ffffffffffffffffffffffffffffffffffffffff167ff7c8601905f921b7b7b21b454fed87177c3c9d097cb38bf4ebcf270419604b038e85604051612d6d929190615923565b60405180910390a350505050505050505050505050565b3373ffffffffffffffffffffffffffffffffffffffff1660015f9054906101000a900473ffffffffffffffffffffffffffffffffffffffff1673ffffffffffffffffffffffffffffffffffffffff16636352211e856040518263ffffffff1660e01b8152600401612df59190614489565b602060405180830381865afa158015612e10573d5f5f3e3d5ffd5b505050506040513d601f19601f82011682018060405250810190612e349190615b65565b73ffffffffffffffffffffffffffffffffffffffff1614612e8a576040517f08c379a0000000000000000000000000000000000000000000000000000000008152600401612e8190615bda565b60405180910390fd5b5f60025f8581526020019081526020015f2090508060020154421015612ee5576040517f08c379a0000000000000000000000000000000000000000000000000000000008152600401612edc90615c42565b60405180910390fd5b5f5f5f9054906101000a900473ffffffffffffffffffffffffffffffffffffffff1673ffffffffffffffffffffffffffffffffffffffff1663d47eed4585856040518363ffffffff1660e01b8152600401612f41929190614aa6565b602060405180830381865afa158015612f5c573d5f5f3e3d5ffd5b505050506040513d601f19601f82011682018060405250810190612f809190614adc565b905080341015612fc5576040517f08c379a0000000000000000000000000000000000000000000000000000000008152600401612fbc90614d6f565b60405180910390fd5b5f5f9054906101000a900473ffffffffffffffffffffffffffffffffffffffff1673ffffffffffffffffffffffffffffffffffffffff1663ef9e5e288286866040518463ffffffff1660e01b8152600401613021929190614aa6565b5f604051808303818588803b158015613038575f5ffd5b505af115801561304a573d5f5f3e3d5ffd5b5050505050803411156130a7573373ffffffffffffffffffffffffffffffffffffffff166108fc823461307d9190614bc2565b90811502906040515f60405180830381858888f193505050501580156130a5573d5f5f3e3d5ffd5b505b5f5f90505f8360010180546130bb90614fa5565b80601f01602080910402602001604051908101604052809291908181526020018280546130e790614fa5565b80156131325780601f1061310957610100808354040283529160200191613132565b820191905f5260205f20905b81548152906001019060200180831161311557829003601f168201915b505050505090505f60048260405161314a9190614dc7565b90815260200160405180910390205f9054906101000a900473ffffffffffffffffffffffffffffffffffffffff1690505f6131a260038460405161318e9190614dc7565b908152602001604051809103902054611106565b90505f5f90505b8660030180549050811015613260575f60048860030183815481106131d1576131d0614c5d565b5b905f5260205f20016040516131e69190615ce0565b90815260200160405180910390205f9054906101000a900473ffffffffffffffffffffffffffffffffffffffff1690505f88600401838154811061322d5761322c614c5d565b5b905f5260205f200154905061324482868387613a09565b8761324f9190614c8a565b9650505080806001019150506131a9565b5060015f9054906101000a900473ffffffffffffffffffffffffffffffffffffffff1673ffffffffffffffffffffffffffffffffffffffff166342966c688a6040518263ffffffff1660e01b81526004016132bb9190614489565b5f604051808303815f87803b1580156132d2575f5ffd5b505af11580156132e4573d5f5f3e3d5ffd5b5050505060025f8a81526020019081526020015f205f5f82015f6101000a81549073ffffffffffffffffffffffffffffffffffffffff0219169055600182015f61332e9190613e00565b600282015f9055600382015f6133449190613e3d565b600482015f6133539190613e5b565b50508173ffffffffffffffffffffffffffffffffffffffff1663a9059cbb33866040518363ffffffff1660e01b81526004016133909291906158fc565b6020604051808303815f875af11580156133ac573d5f5f3e3d5ffd5b505050506040513d601f19601f820116820180604052508101906133d09190614eaf565b50883373ffffffffffffffffffffffffffffffffffffffff167fd3157cbbbe69a1cf19035ae6146be186023de9def859d12538cd8ed84642628d866040516134189190614489565b60405180910390a3505050505050505050565b6005602052805f5260405f205f91509050805461344790614fa5565b80601f016020809104026020016040519081016040528092919081815260200182805461347390614fa5565b80156134be5780601f10613495576101008083540402835291602001916134be565b820191905f5260205f20905b8154815290600101906020018083116134a157829003601f168201915b505050505081565b670de0b6b3a764000081565b6002602052805f5260405f205f91509050805f015f9054906101000a900473ffffffffffffffffffffffffffffffffffffffff169080600101805461351690614fa5565b80601f016020809104026020016040519081016040528092919081815260200182805461354290614fa5565b801561358d5780601f106135645761010080835404028352916020019161358d565b820191905f5260205f20905b81548152906001019060200180831161357057829003601f168201915b5050505050908060020154905083565b6003818051602081018201805184825260208301602085012081835280955050505050505f915090505481565b5f5f6004856040516135dc9190614dc7565b90815260200160405180910390205f9054906101000a900473ffffffffffffffffffffffffffffffffffffffff1690505f73ffffffffffffffffffffffffffffffffffffffff168173ffffffffffffffffffffffffffffffffffffffff160361367a576040517f08c379a000000000000000000000000000000000000000000000000000000000815260040161367190615d40565b60405180910390fd5b5f6136a260038760405161368e9190614dc7565b908152602001604051809103902054611106565b90505f81670de0b6b3a7640000866136ba9190614eda565b6136c49190614f48565b90505f60065f6136d48b87613975565b81526020019081526020015f205f9054906101000a900473ffffffffffffffffffffffffffffffffffffffff1690505f73ffffffffffffffffffffffffffffffffffffffff168173ffffffffffffffffffffffffffffffffffffffff1603613771576040517f08c379a000000000000000000000000000000000000000000000000000000000815260040161376890615da8565b60405180910390fd5b8873ffffffffffffffffffffffffffffffffffffffff1663095ea7b382896040518363ffffffff1660e01b81526004016137ac9291906158fc565b6020604051808303815f875af11580156137c8573d5f5f3e3d5ffd5b505050506040513d601f19601f820116820180604052508101906137ec9190614eaf565b508373ffffffffffffffffffffffffffffffffffffffff168973ffffffffffffffffffffffffffffffffffffffff16101561388e578073ffffffffffffffffffffffffffffffffffffffff1663f0b456e988846040518363ffffffff1660e01b815260040161385c929190615923565b5f604051808303815f87803b158015613873575f5ffd5b505af1158015613885573d5f5f3e3d5ffd5b5050505061391a565b5f82670de0b6b3a7640000806138a49190614eda565b6138ae9190614f48565b90508173ffffffffffffffffffffffffffffffffffffffff16634242ec5289836040518363ffffffff1660e01b81526004016138eb929190615923565b5f604051808303815f87803b158015613902575f5ffd5b505af1158015613914573d5f5f3e3d5ffd5b50505050505b5f6103e860038961392b9190614eda565b6139359190614f48565b90505f81896139449190614bc2565b9050670de0b6b3a7640000848261395b9190614eda565b6139659190614f48565b9650505050505050949350505050565b5f8173ffffffffffffffffffffffffffffffffffffffff168373ffffffffffffffffffffffffffffffffffffffff16106139d75781836040516020016139bc929190615e0b565b60405160208183030381529060405280519060200120613a01565b82826040516020016139ea929190615e0b565b604051602081830303815290604052805190602001205b905092915050565b5f5f60055f8773ffffffffffffffffffffffffffffffffffffffff1673ffffffffffffffffffffffffffffffffffffffff1681526020019081526020015f208054613a5390614fa5565b80601f0160208091040260200160405190810160405280929190818152602001828054613a7f90614fa5565b8015613aca5780601f10613aa157610100808354040283529160200191613aca565b820191905f5260205f20905b815481529060010190602001808311613aad57829003601f168201915b505050505090505f613af9600383604051613ae59190614dc7565b908152602001604051809103902054611106565b90505f84670de0b6b3a764000083613b119190614eda565b613b1b9190614f48565b90505f60065f613b2b8b8b613975565b81526020019081526020015f205f9054906101000a900473ffffffffffffffffffffffffffffffffffffffff1690508873ffffffffffffffffffffffffffffffffffffffff1663095ea7b382896040518363ffffffff1660e01b8152600401613b959291906158fc565b6020604051808303815f875af1158015613bb1573d5f5f3e3d5ffd5b505050506040513d601f19601f82011682018060405250810190613bd59190614eaf565b508773ffffffffffffffffffffffffffffffffffffffff168973ffffffffffffffffffffffffffffffffffffffff161015613c77578073ffffffffffffffffffffffffffffffffffffffff1663f0b456e988846040518363ffffffff1660e01b8152600401613c45929190615923565b5f604051808303815f87803b158015613c5c575f5ffd5b505af1158015613c6e573d5f5f3e3d5ffd5b50505050613d03565b5f82670de0b6b3a764000080613c8d9190614eda565b613c979190614f48565b90508173ffffffffffffffffffffffffffffffffffffffff16634242ec5289836040518363ffffffff1660e01b8152600401613cd4929190615923565b5f604051808303815f87803b158015613ceb575f5ffd5b505af1158015613cfd573d5f5f3e3d5ffd5b50505050505b5f6103e8600389613d149190614eda565b613d1e9190614f48565b90505f8189613d2d9190614bc2565b9050670de0b6b3a76400008482613d449190614eda565b613d4e9190614f48565b9650505050505050949350505050565b828054828255905f5260205f20908101928215613da4579160200282015b82811115613da3578251829081613d93919061516c565b5091602001919060010190613d7c565b5b509050613db19190613e79565b5090565b828054828255905f5260205f20908101928215613def579160200282015b82811115613dee578251825591602001919060010190613dd3565b5b509050613dfc9190613e9c565b5090565b508054613e0c90614fa5565b5f825580601f10613e1d5750613e3a565b601f0160209004905f5260205f2090810190613e399190613e9c565b5b50565b5080545f8255905f5260205f2090810190613e589190613e79565b50565b5080545f8255905f5260205f2090810190613e769190613e9c565b50565b5b80821115613e98575f8181613e8f9190613e00565b50600101613e7a565b5090565b5b80821115613eb3575f815f905550600101613e9d565b5090565b5f604051905090565b5f5ffd5b5f5ffd5b5f5ffd5b5f5ffd5b5f601f19601f8301169050919050565b7f4e487b71000000000000000000000000000000000000000000000000000000005f52604160045260245ffd5b613f1682613ed0565b810181811067ffffffffffffffff82111715613f3557613f34613ee0565b5b80604052505050565b5f613f47613eb7565b9050613f538282613f0d565b919050565b5f67ffffffffffffffff821115613f7257613f71613ee0565b5b613f7b82613ed0565b9050602081019050919050565b828183375f83830152505050565b5f613fa8613fa384613f58565b613f3e565b905082815260208101848484011115613fc457613fc3613ecc565b5b613fcf848285613f88565b509392505050565b5f82601f830112613feb57613fea613ec8565b5b8135613ffb848260208601613f96565b91505092915050565b5f6020828403121561401957614018613ec0565b5b5f82013567ffffffffffffffff81111561403657614035613ec4565b5b61404284828501613fd7565b91505092915050565b5f73ffffffffffffffffffffffffffffffffffffffff82169050919050565b5f6140748261404b565b9050919050565b6140848161406a565b82525050565b5f60208201905061409d5f83018461407b565b92915050565b5f5ffd5b5f5ffd5b5f5f83601f8401126140c0576140bf613ec8565b5b8235905067ffffffffffffffff8111156140dd576140dc6140a3565b5b6020830191508360208202830111156140f9576140f86140a7565b5b9250929050565b5f5f6020838503121561411657614115613ec0565b5b5f83013567ffffffffffffffff81111561413357614132613ec4565b5b61413f858286016140ab565b92509250509250929050565b5f819050919050565b61415d8161414b565b82525050565b5f6020820190506141765f830184614154565b92915050565b5f819050919050565b61418e8161417c565b8114614198575f5ffd5b50565b5f813590506141a981614185565b92915050565b5f67ffffffffffffffff8211156141c9576141c8613ee0565b5b602082029050602081019050919050565b5f6141ec6141e7846141af565b613f3e565b9050808382526020820190506020840283018581111561420f5761420e6140a7565b5b835b8181101561425657803567ffffffffffffffff81111561423457614233613ec8565b5b8086016142418982613fd7565b85526020850194505050602081019050614211565b5050509392505050565b5f82601f83011261427457614273613ec8565b5b81356142848482602086016141da565b91505092915050565b5f67ffffffffffffffff8211156142a7576142a6613ee0565b5b602082029050602081019050919050565b5f6142ca6142c58461428d565b613f3e565b905080838252602082019050602084028301858111156142ed576142ec6140a7565b5b835b818110156143165780614302888261419b565b8452602084019350506020810190506142ef565b5050509392505050565b5f82601f83011261433457614333613ec8565b5b81356143448482602086016142b8565b91505092915050565b5f5f5f5f5f5f5f5f60e0898b03121561436957614368613ec0565b5b5f89013567ffffffffffffffff81111561438657614385613ec4565b5b6143928b828c01613fd7565b98505060206143a38b828c0161419b565b975050604089013567ffffffffffffffff8111156143c4576143c3613ec4565b5b6143d08b828c01614260565b965050606089013567ffffffffffffffff8111156143f1576143f0613ec4565b5b6143fd8b828c01614320565b955050608061440e8b828c0161419b565b94505060a089013567ffffffffffffffff81111561442f5761442e613ec4565b5b61443b8b828c01613fd7565b93505060c089013567ffffffffffffffff81111561445c5761445b613ec4565b5b6144688b828c016140ab565b92509250509295985092959890939650565b6144838161417c565b82525050565b5f60208201905061449c5f83018461447a565b92915050565b6144ab8161414b565b81146144b5575f5ffd5b50565b5f813590506144c6816144a2565b92915050565b5f602082840312156144e1576144e0613ec0565b5b5f6144ee848285016144b8565b91505092915050565b5f5f5f6040848603121561450e5761450d613ec0565b5b5f84013567ffffffffffffffff81111561452b5761452a613ec4565b5b61453786828701613fd7565b935050602084013567ffffffffffffffff81111561455857614557613ec4565b5b614564868287016140ab565b92509250509250925092565b5f5f5f6060848603121561458757614586613ec0565b5b5f84013567ffffffffffffffff8111156145a4576145a3613ec4565b5b6145b086828701613fd7565b935050602084013567ffffffffffffffff8111156145d1576145d0613ec4565b5b6145dd86828701613fd7565b92505060406145ee8682870161419b565b9150509250925092565b5f819050919050565b5f61461b6146166146118461404b565b6145f8565b61404b565b9050919050565b5f61462c82614601565b9050919050565b5f61463d82614622565b9050919050565b61464d81614633565b82525050565b5f6020820190506146665f830184614644565b92915050565b5f5f5f5f5f6080868803121561468557614684613ec0565b5b5f86013567ffffffffffffffff8111156146a2576146a1613ec4565b5b6146ae88828901613fd7565b955050602086013567ffffffffffffffff8111156146cf576146ce613ec4565b5b6146db88828901613fd7565b94505060406146ec8882890161419b565b935050606086013567ffffffffffffffff81111561470d5761470c613ec4565b5b614719888289016140ab565b92509250509295509295909350565b5f5f5f5f606085870312156147405761473f613ec0565b5b5f85013567ffffffffffffffff81111561475d5761475c613ec4565b5b61476987828801613fd7565b945050602061477a8782880161419b565b935050604085013567ffffffffffffffff81111561479b5761479a613ec4565b5b6147a7878288016140ab565b925092505092959194509250565b5f5f5f604084860312156147cc576147cb613ec0565b5b5f6147d98682870161419b565b935050602084013567ffffffffffffffff8111156147fa576147f9613ec4565b5b614806868287016140ab565b92509250509250925092565b61481b8161406a565b8114614825575f5ffd5b50565b5f8135905061483681614812565b92915050565b5f6020828403121561485157614850613ec0565b5b5f61485e84828501614828565b91505092915050565b5f81519050919050565b5f82825260208201905092915050565b8281835e5f83830152505050565b5f61489982614867565b6148a38185614871565b93506148b3818560208601614881565b6148bc81613ed0565b840191505092915050565b5f6020820190508181035f8301526148df818461488f565b905092915050565b5f602082840312156148fc576148fb613ec0565b5b5f6149098482850161419b565b91505092915050565b5f6060820190506149255f83018661407b565b8181036020830152614937818561488f565b9050614946604083018461447a565b949350505050565b5f82825260208201905092915050565b5f819050919050565b5f82825260208201905092915050565b5f6149828385614967565b935061498f838584613f88565b61499883613ed0565b840190509392505050565b5f6149af848484614977565b90509392505050565b5f5ffd5b5f5ffd5b5f5ffd5b5f5f833560016020038436030381126149e0576149df6149c0565b5b83810192508235915060208301925067ffffffffffffffff821115614a0857614a076149b8565b5b600182023603831315614a1e57614a1d6149bc565b5b509250929050565b5f602082019050919050565b5f614a3d838561494e565b935083602084028501614a4f8461495e565b805f5b87811015614a94578484038952614a6982846149c4565b614a748682846149a3565b9550614a7f84614a26565b935060208b019a505050600181019050614a52565b50829750879450505050509392505050565b5f6020820190508181035f830152614abf818486614a32565b90509392505050565b5f81519050614ad681614185565b92915050565b5f60208284031215614af157614af0613ec0565b5b5f614afe84828501614ac8565b91505092915050565b7f496e73756666696369656e74206665652070726f766964656420666f722050795f8201527f7468207570646174650000000000000000000000000000000000000000000000602082015250565b5f614b61602983614871565b9150614b6c82614b07565b604082019050919050565b5f6020820190508181035f830152614b8e81614b55565b9050919050565b7f4e487b71000000000000000000000000000000000000000000000000000000005f52601160045260245ffd5b5f614bcc8261417c565b9150614bd78361417c565b9250828203905081811115614bef57614bee614b95565b5b92915050565b7f417272617973206d75737420686176652073616d65206c656e677468000000005f82015250565b5f614c29601c83614871565b9150614c3482614bf5565b602082019050919050565b5f6020820190508181035f830152614c5681614c1d565b9050919050565b7f4e487b71000000000000000000000000000000000000000000000000000000005f52603260045260245ffd5b5f614c948261417c565b9150614c9f8361417c565b9250828201905080821115614cb757614cb6614b95565b5b92915050565b7f50657263656e7461676573206d7573742073756d20746f2031303030300000005f82015250565b5f614cf1601d83614871565b9150614cfc82614cbd565b602082019050919050565b5f6020820190508181035f830152614d1e81614ce5565b9050919050565b7f496e73756666696369656e742066656520666f722050797468207570646174655f82015250565b5f614d59602083614871565b9150614d6482614d25565b602082019050919050565b5f6020820190508181035f830152614d8681614d4d565b9050919050565b5f81905092915050565b5f614da182614867565b614dab8185614d8d565b9350614dbb818560208601614881565b80840191505092915050565b5f614dd28284614d97565b915081905092915050565b7f496e76616c696420696e70757420746f6b656e000000000000000000000000005f82015250565b5f614e11601383614871565b9150614e1c82614ddd565b602082019050919050565b5f6020820190508181035f830152614e3e81614e05565b9050919050565b5f606082019050614e585f83018661407b565b614e65602083018561407b565b614e72604083018461447a565b949350505050565b5f8115159050919050565b614e8e81614e7a565b8114614e98575f5ffd5b50565b5f81519050614ea981614e85565b92915050565b5f60208284031215614ec457614ec3613ec0565b5b5f614ed184828501614e9b565b91505092915050565b5f614ee48261417c565b9150614eef8361417c565b9250828202614efd8161417c565b91508282048414831517614f1457614f13614b95565b5b5092915050565b7f4e487b71000000000000000000000000000000000000000000000000000000005f52601260045260245ffd5b5f614f528261417c565b9150614f5d8361417c565b925082614f6d57614f6c614f1b565b5b828204905092915050565b7f4e487b71000000000000000000000000000000000000000000000000000000005f52602260045260245ffd5b5f6002820490506001821680614fbc57607f821691505b602082108103614fcf57614fce614f78565b5b50919050565b5f819050815f5260205f209050919050565b5f6020601f8301049050919050565b5f82821b905092915050565b5f600883026150317fffffffffffffffffffffffffffffffffffffffffffffffffffffffffffffffff82614ff6565b61503b8683614ff6565b95508019841693508086168417925050509392505050565b5f61506d6150686150638461417c565b6145f8565b61417c565b9050919050565b5f819050919050565b61508683615053565b61509a61509282615074565b848454615002565b825550505050565b5f5f905090565b6150b16150a2565b6150bc81848461507d565b505050565b5b818110156150df576150d45f826150a9565b6001810190506150c2565b5050565b601f821115615124576150f581614fd5565b6150fe84614fe7565b8101602085101561510d578190505b61512161511985614fe7565b8301826150c1565b50505b505050565b5f82821c905092915050565b5f6151445f1984600802615129565b1980831691505092915050565b5f61515c8383615135565b9150826002028217905092915050565b61517582614867565b67ffffffffffffffff81111561518e5761518d613ee0565b5b6151988254614fa5565b6151a38282856150e3565b5f60209050601f8311600181146151d4575f84156151c2578287015190505b6151cc8582615151565b865550615233565b601f1984166151e286614fd5565b5f5b82811015615209578489015182556001820191506020850194506020810190506151e4565b868310156152265784890151615222601f891682615135565b8355505b6001600288020188555050505b505050505050565b5f81519050919050565b5f82825260208201905092915050565b5f819050602082019050919050565b5f82825260208201905092915050565b5f61527e82614867565b6152888185615264565b9350615298818560208601614881565b6152a181613ed0565b840191505092915050565b5f6152b78383615274565b905092915050565b5f602082019050919050565b5f6152d58261523b565b6152df8185615245565b9350836020820285016152f185615255565b805f5b8581101561532c578484038952815161530d85826152ac565b9450615318836152bf565b925060208a019950506001810190506152f4565b50829750879550505050505092915050565b5f81519050919050565b5f82825260208201905092915050565b5f819050602082019050919050565b6153708161417c565b82525050565b5f6153818383615367565b60208301905092915050565b5f602082019050919050565b5f6153a38261533e565b6153ad8185615348565b93506153b883615358565b805f5b838110156153e85781516153cf8882615376565b97506153da8361538d565b9250506001810190506153bb565b5085935050505092915050565b5f6040820190508181035f83015261540d81856152cb565b905081810360208301526154218184615399565b90509392505050565b5f5ffd5b5f8160070b9050919050565b6154438161542e565b811461544d575f5ffd5b50565b5f8151905061545e8161543a565b92915050565b5f67ffffffffffffffff82169050919050565b61548081615464565b811461548a575f5ffd5b50565b5f8151905061549b81615477565b92915050565b5f8160030b9050919050565b6154b6816154a1565b81146154c0575f5ffd5b50565b5f815190506154d1816154ad565b92915050565b5f608082840312156154ec576154eb61542a565b5b6154f66080613f3e565b90505f61550584828501615450565b5f8301525060206155188482850161548d565b602083015250604061552c848285016154c3565b604083015250606061554084828501614ac8565b60608301525092915050565b5f6080828403121561556157615560613ec0565b5b5f61556e848285016154d7565b91505092915050565b7f5079746820707269636520697320696e76616c696400000000000000000000005f82015250565b5f6155ab601583614871565b91506155b682615577565b602082019050919050565b5f6020820190508181035f8301526155d88161559f565b9050919050565b5f6155e9826154a1565b91507fffffffffffffffffffffffffffffffffffffffffffffffffffffffff80000000820361561b5761561a614b95565b5b815f039050919050565b5f8160011c9050919050565b5f5f8291508390505b600185111561567a5780860481111561565657615655614b95565b5b60018516156156655780820291505b808102905061567385615625565b945061563a565b94509492505050565b5f82615692576001905061574d565b8161569f575f905061574d565b81600181146156b557600281146156bf576156ee565b600191505061574d565b60ff8411156156d1576156d0614b95565b5b8360020a9150848211156156e8576156e7614b95565b5b5061574d565b5060208310610133831016604e8410600b84101617156157235782820a90508381111561571e5761571d614b95565b5b61574d565b6157308484846001615631565b9250905081840481111561574757615746614b95565b5b81810290505b9392505050565b5f61575e8261417c565b91506157698361417c565b92506157967fffffffffffffffffffffffffffffffffffffffffffffffffffffffffffffffff8484615683565b905092915050565b7f50726963652066656564206e6f7420737570706f7274656400000000000000005f82015250565b5f6157d2601883614871565b91506157dd8261579e565b602082019050919050565b5f6020820190508181035f8301526157ff816157c6565b9050919050565b7f496e73756666696369656e74204554483a204d75737420636f766572205079745f8201527f682066656520616e6420746f6b656e20636f7374000000000000000000000000602082015250565b5f615860603483614871565b915061586b82615806565b604082019050919050565b5f6020820190508181035f83015261588d81615854565b9050919050565b7f546f6b656e206e6f7420737570706f72746564000000000000000000000000005f82015250565b5f6158c8601383614871565b91506158d382615894565b602082019050919050565b5f6020820190508181035f8301526158f5816158bc565b9050919050565b5f60408201905061590f5f83018561407b565b61591c602083018461447a565b9392505050565b5f6040820190506159365f83018561447a565b615943602083018461447a565b9392505050565b7f5377617020636f6e747261637420666f7220746869732070616972206e6f74205f8201527f666f756e64000000000000000000000000000000000000000000000000000000602082015250565b5f6159a4602583614871565b91506159af8261594a565b604082019050919050565b5f6020820190508181035f8301526159d181615998565b9050919050565b7f496e76616c696420746f6b656e206e616d6500000000000000000000000000005f82015250565b5f615a0c601283614871565b9150615a17826159d8565b602082019050919050565b5f6020820190508181035f830152615a3981615a00565b9050919050565b7f4e6f206c697175696469747920746f6b656e73206d696e7465640000000000005f82015250565b5f615a74601a83614871565b9150615a7f82615a40565b602082019050919050565b5f6020820190508181035f830152615aa181615a68565b9050919050565b5f81905092915050565b50565b5f615ac05f83615aa8565b9150615acb82615ab2565b5f82019050919050565b5f615adf82615ab5565b9150819050919050565b7f5472616e73616374696f6e20756e7375636365737366756c00000000000000005f82015250565b5f615b1d601883614871565b9150615b2882615ae9565b602082019050919050565b5f6020820190508181035f830152615b4a81615b11565b9050919050565b5f81519050615b5f81614812565b92915050565b5f60208284031215615b7a57615b79613ec0565b5b5f615b8784828501615b51565b91505092915050565b7f4e6f7420746865206f776e6572206f6620746865204e465400000000000000005f82015250565b5f615bc4601883614871565b9150615bcf82615b90565b602082019050919050565b5f6020820190508181035f830152615bf181615bb8565b9050919050565b7f4c6f636b20706572696f6420686173206e6f7420656e646564000000000000005f82015250565b5f615c2c601983614871565b9150615c3782615bf8565b602082019050919050565b5f6020820190508181035f830152615c5981615c20565b9050919050565b5f8154615c6c81614fa5565b615c768186614d8d565b9450600182165f8114615c905760018114615ca557615cd7565b60ff1983168652811515820286019350615cd7565b615cae85614fd5565b5f5b83811015615ccf57815481890152600182019150602081019050615cb0565b838801955050505b50505092915050565b5f615ceb8284615c60565b915081905092915050565b7f496e76616c6964206f757470757420746f6b656e0000000000000000000000005f82015250565b5f615d2a601483614871565b9150615d3582615cf6565b602082019050919050565b5f6020820190508181035f830152615d5781615d1e565b9050919050565b7f5377617020636f6e7472616374206e6f7420666f756e640000000000000000005f82015250565b5f615d92601783614871565b9150615d9d82615d5e565b602082019050919050565b5f6020820190508181035f830152615dbf81615d86565b9050919050565b5f8160601b9050919050565b5f615ddc82615dc6565b9050919050565b5f615ded82615dd2565b9050919050565b615e05615e008261406a565b615de3565b82525050565b5f615e168285615df4565b601482019150615e268284615df4565b601482019150819050939250505056fea26469706673582212200dcd8a2c55fb51f8321a6967ebffa32ca36b49c199c2daa1bafa03ae57f3c80764736f6c634300081e003360c060405234801561000f575f5ffd5b506040516129ab3803806129ab8339818101604052810190610031919061018c565b6040518060400160405280600b81526020017f4669617453776170204c500000000000000000000000000000000000000000008152506040518060400160405280600481526020017f46534c500000000000000000000000000000000000000000000000000000000081525081600390816100ac9190610407565b5080600490816100bc9190610407565b5050508173ffffffffffffffffffffffffffffffffffffffff1660808173ffffffffffffffffffffffffffffffffffffffff16815250508073ffffffffffffffffffffffffffffffffffffffff1660a08173ffffffffffffffffffffffffffffffffffffffff168152505050506104d6565b5f5ffd5b5f73ffffffffffffffffffffffffffffffffffffffff82169050919050565b5f61015b82610132565b9050919050565b61016b81610151565b8114610175575f5ffd5b50565b5f8151905061018681610162565b92915050565b5f5f604083850312156101a2576101a161012e565b5b5f6101af85828601610178565b92505060206101c085828601610178565b9150509250929050565b5f81519050919050565b7f4e487b71000000000000000000000000000000000000000000000000000000005f52604160045260245ffd5b7f4e487b71000000000000000000000000000000000000000000000000000000005f52602260045260245ffd5b5f600282049050600182168061024557607f821691505b60208210810361025857610257610201565b5b50919050565b5f819050815f5260205f209050919050565b5f6020601f8301049050919050565b5f82821b905092915050565b5f600883026102ba7fffffffffffffffffffffffffffffffffffffffffffffffffffffffffffffffff8261027f565b6102c4868361027f565b95508019841693508086168417925050509392505050565b5f819050919050565b5f819050919050565b5f6103086103036102fe846102dc565b6102e5565b6102dc565b9050919050565b5f819050919050565b610321836102ee565b61033561032d8261030f565b84845461028b565b825550505050565b5f5f905090565b61034c61033d565b610357818484610318565b505050565b5b8181101561037a5761036f5f82610344565b60018101905061035d565b5050565b601f8211156103bf576103908161025e565b61039984610270565b810160208510156103a8578190505b6103bc6103b485610270565b83018261035c565b50505b505050565b5f82821c905092915050565b5f6103df5f19846008026103c4565b1980831691505092915050565b5f6103f783836103d0565b9150826002028217905092915050565b610410826101ca565b67ffffffffffffffff811115610429576104286101d4565b5b610433825461022e565b61043e82828561037e565b5f60209050601f83116001811461046f575f841561045d578287015190505b61046785826103ec565b8655506104ce565b601f19841661047d8661025e565b5f5b828110156104a45784890151825560018201915060208501945060208101905061047f565b868310156104c157848901516104bd601f8916826103d0565b8355505b6001600288020188555050505b505050505050565b60805160a0516124596105525f395f818161060d015281816107ca015281816109ec01528181610ba901528181610db40152818161110101526112b601525f818161043a01528181610534015281816106e90152818161095101528181610acf01528181610cd801528181610ea901526111da01526124595ff3fe608060405234801561000f575f5ffd5b5060043610610114575f3560e01c806370a08231116100a0578063a9059cbb1161006f578063a9059cbb146102ce578063dd62ed3e146102fe578063eced55261461032e578063f0b456e91461034c578063fe08b58c1461036857610114565b806370a082311461024857806395d89b41146102785780639c8f9f23146102965780639cd441da146102b257610114565b806318160ddd116100e757806318160ddd146101a257806323b872dd146101c0578063313ce567146101f05780634242ec521461020e5780635f64b55b1461022a57610114565b806306fdde0314610118578063095ea7b3146101365780630fc63d10146101665780631605b17f14610184575b5f5ffd5b610120610386565b60405161012d9190611a8c565b60405180910390f35b610150600480360381019061014b9190611b3d565b610416565b60405161015d9190611b95565b60405180910390f35b61016e610438565b60405161017b9190611c09565b60405180910390f35b61018c61045c565b6040516101999190611c31565b60405180910390f35b6101aa610462565b6040516101b79190611c31565b60405180910390f35b6101da60048036038101906101d59190611c4a565b61046b565b6040516101e79190611b95565b60405180910390f35b6101f8610499565b6040516102059190611cb5565b60405180910390f35b61022860048036038101906102239190611cce565b6104a1565b005b6102326107c8565b60405161023f9190611c09565b60405180910390f35b610262600480360381019061025d9190611d0c565b6107ec565b60405161026f9190611c31565b60405180910390f35b610280610831565b60405161028d9190611a8c565b60405180910390f35b6102b060048036038101906102ab9190611d37565b6108c1565b005b6102cc60048036038101906102c79190611cce565b610c89565b005b6102e860048036038101906102e39190611b3d565b610fbe565b6040516102f59190611b95565b60405180910390f35b61031860048036038101906103139190611d62565b610fe0565b6040516103259190611c31565b60405180910390f35b610336611062565b6040516103439190611c31565b60405180910390f35b61036660048036038101906103619190611cce565b61106e565b005b610370611395565b60405161037d9190611c31565b60405180910390f35b60606003805461039590611dcd565b80601f01602080910402602001604051908101604052809291908181526020018280546103c190611dcd565b801561040c5780601f106103e35761010080835404028352916020019161040c565b820191905f5260205f20905b8154815290600101906020018083116103ef57829003601f168201915b5050505050905090565b5f5f61042061139a565b905061042d8185856113a1565b600191505092915050565b7f000000000000000000000000000000000000000000000000000000000000000081565b6103e881565b5f600254905090565b5f5f61047561139a565b90506104828582856113b3565b61048d858585611446565b60019150509392505050565b5f6012905090565b5f82116104e3576040517f08c379a00000000000000000000000000000000000000000000000000000000081526004016104da90611e47565b60405180910390fd5b5f6103e86003846104f49190611e92565b6104fe9190611f00565b90505f818461050d9190611f30565b90505f670de0b6b3a764000084836105259190611e92565b61052f9190611f00565b9050807f000000000000000000000000000000000000000000000000000000000000000073ffffffffffffffffffffffffffffffffffffffff166370a08231306040518263ffffffff1660e01b815260040161058b9190611f72565b602060405180830381865afa1580156105a6573d5f5f3e3d5ffd5b505050506040513d601f19601f820116820180604052508101906105ca9190611f9f565b101561060b576040517f08c379a000000000000000000000000000000000000000000000000000000000815260040161060290612014565b60405180910390fd5b7f000000000000000000000000000000000000000000000000000000000000000073ffffffffffffffffffffffffffffffffffffffff166323b872dd3330886040518463ffffffff1660e01b815260040161066893929190612032565b6020604051808303815f875af1158015610684573d5f5f3e3d5ffd5b505050506040513d601f19601f820116820180604052508101906106a89190612091565b6106e7576040517f08c379a00000000000000000000000000000000000000000000000000000000081526004016106de90612106565b60405180910390fd5b7f000000000000000000000000000000000000000000000000000000000000000073ffffffffffffffffffffffffffffffffffffffff1663a9059cbb33836040518363ffffffff1660e01b8152600401610742929190612124565b6020604051808303815f875af115801561075e573d5f5f3e3d5ffd5b505050506040513d601f19601f820116820180604052508101906107829190612091565b6107c1576040517f08c379a00000000000000000000000000000000000000000000000000000000081526004016107b890612195565b60405180910390fd5b5050505050565b7f000000000000000000000000000000000000000000000000000000000000000081565b5f5f5f8373ffffffffffffffffffffffffffffffffffffffff1673ffffffffffffffffffffffffffffffffffffffff1681526020019081526020015f20549050919050565b60606004805461084090611dcd565b80601f016020809104026020016040519081016040528092919081815260200182805461086c90611dcd565b80156108b75780601f1061088e576101008083540402835291602001916108b7565b820191905f5260205f20905b81548152906001019060200180831161089a57829003601f168201915b5050505050905090565b5f8111610903576040517f08c379a00000000000000000000000000000000000000000000000000000000081526004016108fa906121fd565b60405180910390fd5b8061090d336107ec565b101561094e576040517f08c379a000000000000000000000000000000000000000000000000000000000815260040161094590612265565b60405180910390fd5b5f7f000000000000000000000000000000000000000000000000000000000000000073ffffffffffffffffffffffffffffffffffffffff166370a08231306040518263ffffffff1660e01b81526004016109a89190611f72565b602060405180830381865afa1580156109c3573d5f5f3e3d5ffd5b505050506040513d601f19601f820116820180604052508101906109e79190611f9f565b90505f7f000000000000000000000000000000000000000000000000000000000000000073ffffffffffffffffffffffffffffffffffffffff166370a08231306040518263ffffffff1660e01b8152600401610a439190611f72565b602060405180830381865afa158015610a5e573d5f5f3e3d5ffd5b505050506040513d601f19601f82011682018060405250810190610a829190611f9f565b90505f610a8d610462565b90505f818486610a9d9190611e92565b610aa79190611f00565b90505f828487610ab79190611e92565b610ac19190611f00565b9050610acd3387611536565b7f000000000000000000000000000000000000000000000000000000000000000073ffffffffffffffffffffffffffffffffffffffff1663a9059cbb33846040518363ffffffff1660e01b8152600401610b28929190612124565b6020604051808303815f875af1158015610b44573d5f5f3e3d5ffd5b505050506040513d601f19601f82011682018060405250810190610b689190612091565b610ba7576040517f08c379a0000000000000000000000000000000000000000000000000000000008152600401610b9e90612195565b60405180910390fd5b7f000000000000000000000000000000000000000000000000000000000000000073ffffffffffffffffffffffffffffffffffffffff1663a9059cbb33836040518363ffffffff1660e01b8152600401610c02929190612124565b6020604051808303815f875af1158015610c1e573d5f5f3e3d5ffd5b505050506040513d601f19601f82011682018060405250810190610c429190612091565b610c81576040517f08c379a0000000000000000000000000000000000000000000000000000000008152600401610c7890612106565b60405180910390fd5b505050505050565b5f82118015610c9757505f81115b610cd6576040517f08c379a0000000000000000000000000000000000000000000000000000000008152600401610ccd906122cd565b60405180910390fd5b7f000000000000000000000000000000000000000000000000000000000000000073ffffffffffffffffffffffffffffffffffffffff166323b872dd3330856040518463ffffffff1660e01b8152600401610d3393929190612032565b6020604051808303815f875af1158015610d4f573d5f5f3e3d5ffd5b505050506040513d601f19601f82011682018060405250810190610d739190612091565b610db2576040517f08c379a0000000000000000000000000000000000000000000000000000000008152600401610da990612195565b60405180910390fd5b7f000000000000000000000000000000000000000000000000000000000000000073ffffffffffffffffffffffffffffffffffffffff166323b872dd3330846040518463ffffffff1660e01b8152600401610e0f93929190612032565b6020604051808303815f875af1158015610e2b573d5f5f3e3d5ffd5b505050506040513d601f19601f82011682018060405250810190610e4f9190612091565b610e8e576040517f08c379a0000000000000000000000000000000000000000000000000000000008152600401610e8590612106565b60405180910390fd5b5f5f610e98610462565b03610ea557829050610f6d565b5f837f000000000000000000000000000000000000000000000000000000000000000073ffffffffffffffffffffffffffffffffffffffff166370a08231306040518263ffffffff1660e01b8152600401610f009190611f72565b602060405180830381865afa158015610f1b573d5f5f3e3d5ffd5b505050506040513d601f19601f82011682018060405250810190610f3f9190611f9f565b610f499190611f30565b905080610f54610462565b85610f5f9190611e92565b610f699190611f00565b9150505b5f8111610faf576040517f08c379a0000000000000000000000000000000000000000000000000000000008152600401610fa690612335565b60405180910390fd5b610fb933826115b5565b505050565b5f5f610fc861139a565b9050610fd5818585611446565b600191505092915050565b5f60015f8473ffffffffffffffffffffffffffffffffffffffff1673ffffffffffffffffffffffffffffffffffffffff1681526020019081526020015f205f8373ffffffffffffffffffffffffffffffffffffffff1673ffffffffffffffffffffffffffffffffffffffff1681526020019081526020015f2054905092915050565b670de0b6b3a764000081565b5f82116110b0576040517f08c379a00000000000000000000000000000000000000000000000000000000081526004016110a790611e47565b60405180910390fd5b5f6103e86003846110c19190611e92565b6110cb9190611f00565b90505f81846110da9190611f30565b90505f670de0b6b3a764000084836110f29190611e92565b6110fc9190611f00565b9050807f000000000000000000000000000000000000000000000000000000000000000073ffffffffffffffffffffffffffffffffffffffff166370a08231306040518263ffffffff1660e01b81526004016111589190611f72565b602060405180830381865afa158015611173573d5f5f3e3d5ffd5b505050506040513d601f19601f820116820180604052508101906111979190611f9f565b10156111d8576040517f08c379a00000000000000000000000000000000000000000000000000000000081526004016111cf9061239d565b60405180910390fd5b7f000000000000000000000000000000000000000000000000000000000000000073ffffffffffffffffffffffffffffffffffffffff166323b872dd3330886040518463ffffffff1660e01b815260040161123593929190612032565b6020604051808303815f875af1158015611251573d5f5f3e3d5ffd5b505050506040513d601f19601f820116820180604052508101906112759190612091565b6112b4576040517f08c379a00000000000000000000000000000000000000000000000000000000081526004016112ab90612195565b60405180910390fd5b7f000000000000000000000000000000000000000000000000000000000000000073ffffffffffffffffffffffffffffffffffffffff1663a9059cbb33836040518363ffffffff1660e01b815260040161130f929190612124565b6020604051808303815f875af115801561132b573d5f5f3e3d5ffd5b505050506040513d601f19601f8201168201806040525081019061134f9190612091565b61138e576040517f08c379a000000000000000000000000000000000000000000000000000000000815260040161138590612106565b60405180910390fd5b5050505050565b600381565b5f33905090565b6113ae8383836001611634565b505050565b5f6113be8484610fe0565b90507fffffffffffffffffffffffffffffffffffffffffffffffffffffffffffffffff8110156114405781811015611431578281836040517ffb8f41b2000000000000000000000000000000000000000000000000000000008152600401611428939291906123bb565b60405180910390fd5b61143f84848484035f611634565b5b50505050565b5f73ffffffffffffffffffffffffffffffffffffffff168373ffffffffffffffffffffffffffffffffffffffff16036114b6575f6040517f96c6fd1e0000000000000000000000000000000000000000000000000000000081526004016114ad9190611f72565b60405180910390fd5b5f73ffffffffffffffffffffffffffffffffffffffff168273ffffffffffffffffffffffffffffffffffffffff1603611526575f6040517fec442f0500000000000000000000000000000000000000000000000000000000815260040161151d9190611f72565b60405180910390fd5b611531838383611803565b505050565b5f73ffffffffffffffffffffffffffffffffffffffff168273ffffffffffffffffffffffffffffffffffffffff16036115a6575f6040517f96c6fd1e00000000000000000000000000000000000000000000000000000000815260040161159d9190611f72565b60405180910390fd5b6115b1825f83611803565b5050565b5f73ffffffffffffffffffffffffffffffffffffffff168273ffffffffffffffffffffffffffffffffffffffff1603611625575f6040517fec442f0500000000000000000000000000000000000000000000000000000000815260040161161c9190611f72565b60405180910390fd5b6116305f8383611803565b5050565b5f73ffffffffffffffffffffffffffffffffffffffff168473ffffffffffffffffffffffffffffffffffffffff16036116a4575f6040517fe602df0500000000000000000000000000000000000000000000000000000000815260040161169b9190611f72565b60405180910390fd5b5f73ffffffffffffffffffffffffffffffffffffffff168373ffffffffffffffffffffffffffffffffffffffff1603611714575f6040517f94280d6200000000000000000000000000000000000000000000000000000000815260040161170b9190611f72565b60405180910390fd5b8160015f8673ffffffffffffffffffffffffffffffffffffffff1673ffffffffffffffffffffffffffffffffffffffff1681526020019081526020015f205f8573ffffffffffffffffffffffffffffffffffffffff1673ffffffffffffffffffffffffffffffffffffffff1681526020019081526020015f208190555080156117fd578273ffffffffffffffffffffffffffffffffffffffff168473ffffffffffffffffffffffffffffffffffffffff167f8c5be1e5ebec7d5bd14f71427d1e84f3dd0314c0f7b2291e5b200ac8c7c3b925846040516117f49190611c31565b60405180910390a35b50505050565b5f73ffffffffffffffffffffffffffffffffffffffff168373ffffffffffffffffffffffffffffffffffffffff1603611853578060025f82825461184791906123f0565b92505081905550611921565b5f5f5f8573ffffffffffffffffffffffffffffffffffffffff1673ffffffffffffffffffffffffffffffffffffffff1681526020019081526020015f20549050818110156118dc578381836040517fe450d38c0000000000000000000000000000000000000000000000000000000081526004016118d3939291906123bb565b60405180910390fd5b8181035f5f8673ffffffffffffffffffffffffffffffffffffffff1673ffffffffffffffffffffffffffffffffffffffff1681526020019081526020015f2081905550505b5f73ffffffffffffffffffffffffffffffffffffffff168273ffffffffffffffffffffffffffffffffffffffff1603611968578060025f82825403925050819055506119b2565b805f5f8473ffffffffffffffffffffffffffffffffffffffff1673ffffffffffffffffffffffffffffffffffffffff1681526020019081526020015f205f82825401925050819055505b8173ffffffffffffffffffffffffffffffffffffffff168373ffffffffffffffffffffffffffffffffffffffff167fddf252ad1be2c89b69c2b068fc378daa952ba7f163c4a11628f55a4df523b3ef83604051611a0f9190611c31565b60405180910390a3505050565b5f81519050919050565b5f82825260208201905092915050565b8281835e5f83830152505050565b5f601f19601f8301169050919050565b5f611a5e82611a1c565b611a688185611a26565b9350611a78818560208601611a36565b611a8181611a44565b840191505092915050565b5f6020820190508181035f830152611aa48184611a54565b905092915050565b5f5ffd5b5f73ffffffffffffffffffffffffffffffffffffffff82169050919050565b5f611ad982611ab0565b9050919050565b611ae981611acf565b8114611af3575f5ffd5b50565b5f81359050611b0481611ae0565b92915050565b5f819050919050565b611b1c81611b0a565b8114611b26575f5ffd5b50565b5f81359050611b3781611b13565b92915050565b5f5f60408385031215611b5357611b52611aac565b5b5f611b6085828601611af6565b9250506020611b7185828601611b29565b9150509250929050565b5f8115159050919050565b611b8f81611b7b565b82525050565b5f602082019050611ba85f830184611b86565b92915050565b5f819050919050565b5f611bd1611bcc611bc784611ab0565b611bae565b611ab0565b9050919050565b5f611be282611bb7565b9050919050565b5f611bf382611bd8565b9050919050565b611c0381611be9565b82525050565b5f602082019050611c1c5f830184611bfa565b92915050565b611c2b81611b0a565b82525050565b5f602082019050611c445f830184611c22565b92915050565b5f5f5f60608486031215611c6157611c60611aac565b5b5f611c6e86828701611af6565b9350506020611c7f86828701611af6565b9250506040611c9086828701611b29565b9150509250925092565b5f60ff82169050919050565b611caf81611c9a565b82525050565b5f602082019050611cc85f830184611ca6565b92915050565b5f5f60408385031215611ce457611ce3611aac565b5b5f611cf185828601611b29565b9250506020611d0285828601611b29565b9150509250929050565b5f60208284031215611d2157611d20611aac565b5b5f611d2e84828501611af6565b91505092915050565b5f60208284031215611d4c57611d4b611aac565b5b5f611d5984828501611b29565b91505092915050565b5f5f60408385031215611d7857611d77611aac565b5b5f611d8585828601611af6565b9250506020611d9685828601611af6565b9150509250929050565b7f4e487b71000000000000000000000000000000000000000000000000000000005f52602260045260245ffd5b5f6002820490506001821680611de457607f821691505b602082108103611df757611df6611da0565b5b50919050565b7f496e76616c696420616d6f756e740000000000000000000000000000000000005f82015250565b5f611e31600e83611a26565b9150611e3c82611dfd565b602082019050919050565b5f6020820190508181035f830152611e5e81611e25565b9050919050565b7f4e487b71000000000000000000000000000000000000000000000000000000005f52601160045260245ffd5b5f611e9c82611b0a565b9150611ea783611b0a565b9250828202611eb581611b0a565b91508282048414831517611ecc57611ecb611e65565b5b5092915050565b7f4e487b71000000000000000000000000000000000000000000000000000000005f52601260045260245ffd5b5f611f0a82611b0a565b9150611f1583611b0a565b925082611f2557611f24611ed3565b5b828204905092915050565b5f611f3a82611b0a565b9150611f4583611b0a565b9250828203905081811115611f5d57611f5c611e65565b5b92915050565b611f6c81611acf565b82525050565b5f602082019050611f855f830184611f63565b92915050565b5f81519050611f9981611b13565b92915050565b5f60208284031215611fb457611fb3611aac565b5b5f611fc184828501611f8b565b91505092915050565b7f4e6f7420656e6f756768206c697175696469747920696e2041000000000000005f82015250565b5f611ffe601983611a26565b915061200982611fca565b602082019050919050565b5f6020820190508181035f83015261202b81611ff2565b9050919050565b5f6060820190506120455f830186611f63565b6120526020830185611f63565b61205f6040830184611c22565b949350505050565b61207081611b7b565b811461207a575f5ffd5b50565b5f8151905061208b81612067565b92915050565b5f602082840312156120a6576120a5611aac565b5b5f6120b38482850161207d565b91505092915050565b7f546f6b656e42207472616e73666572206661696c6564000000000000000000005f82015250565b5f6120f0601683611a26565b91506120fb826120bc565b602082019050919050565b5f6020820190508181035f83015261211d816120e4565b9050919050565b5f6040820190506121375f830185611f63565b6121446020830184611c22565b9392505050565b7f546f6b656e41207472616e73666572206661696c6564000000000000000000005f82015250565b5f61217f601683611a26565b915061218a8261214b565b602082019050919050565b5f6020820190508181035f8301526121ac81612173565b9050919050565b7f4d7573742072656d6f7665203e2030204c5020746f6b656e73000000000000005f82015250565b5f6121e7601983611a26565b91506121f2826121b3565b602082019050919050565b5f6020820190508181035f830152612214816121db565b9050919050565b7f496e73756666696369656e74204c502062616c616e63650000000000000000005f82015250565b5f61224f601783611a26565b915061225a8261221b565b602082019050919050565b5f6020820190508181035f83015261227c81612243565b9050919050565b7f4d7573742070726f7669646520626f746820746f6b656e7300000000000000005f82015250565b5f6122b7601883611a26565b91506122c282612283565b602082019050919050565b5f6020820190508181035f8301526122e4816122ab565b9050919050565b7f496e73756666696369656e74206c6971756964697479206d696e7465640000005f82015250565b5f61231f601d83611a26565b915061232a826122eb565b602082019050919050565b5f6020820190508181035f83015261234c81612313565b9050919050565b7f4e6f7420656e6f756768206c697175696469747920696e2042000000000000005f82015250565b5f612387601983611a26565b915061239282612353565b602082019050919050565b5f6020820190508181035f8301526123b48161237b565b9050919050565b5f6060820190506123ce5f830186611f63565b6123db6020830185611c22565b6123e86040830184611c22565b949350505050565b5f6123fa82611b0a565b915061240583611b0a565b925082820190508082111561241d5761241c611e65565b5b9291505056fea26469706673582212206809db416db1e9c0de58c9a602f4e4aa517007d2ef61c92ea60ab7e646d1a4f764736f6c634300081e0033","linkReferences":{}},"methodIdentifiers":{"DECIMALS()":"2e0f2625","EUR_USD()":"d5932652","FLOW_USD()":"5e3a20f4","GBP_USD()":"392015b3","PythAddress()":"c211648c","SCALE()":"eced5526","USDC_USD()":"269ae32d","USD_CHF()":"7b7e7aa7","USD_INR()":"9666be7c","USD_YEN()":"4dd290a1","addLiquidity(string,string,uint256,bytes[])":"d6305b7a","addressToName(address)":"e2a04b62","basketNFT()":"c93eb561","buyTokensFromFlow(string,bytes[])":"9f6476cf","executeBasket(string,uint256,string[],uint256[],uint256,string,bytes[])":"27f7e4be","fCHF_Address()":"2b6c86df","fEUR_Address()":"8477484a","fGBP_Address()":"79178b46","fINR_Address()":"703ad299","fUSD_Address()":"422830c9","fYEN_Address()":"a216ffd2","getNormalizedPrice(bytes32)":"60ca396f","nameToAddress(string)":"08d88aad","nameToId(string)":"f6d8f2cb","nftBaskets(uint256)":"ed343f54","redeemBasket(uint256,bytes[])":"e289c181","removeLiquidity(string,string,uint256)":"a8c9e831","sellTokensForFlow(string,uint256,bytes[])":"d9e30eaa","swapContracts(bytes32)":"9dc38a02","updatePrice(bytes[])":"2592c0bf"},"id":41}