{"abi":[{"type":"constructor","inputs":[{"name":"_fCHF_Address","type":"address","internalType":"address"},{"name":"_fEUR_Address","type":"address","internalType":"address"},{"name":"_fGBP_Address","type":"address","internalType":"address"},{"name":"_fINR_Address","type":"address","internalType":"address"},{"name":"_fUSD_Address","type":"address","internalType":"address"},{"name":"_fYEN_Address","type":"address","internalType":"address"},{"name":"_basketNFTAddress","type":"address","internalType":"address"}],"stateMutability":"nonpayable"},{"type":"function","name":"DECIMALS","inputs":[],"outputs":[{"name":"","type":"uint256","internalType":"uint256"}],"stateMutability":"view"},{"type":"function","name":"EUR_USD","inputs":[],"outputs":[{"name":"","type":"bytes32","internalType":"bytes32"}],"stateMutability":"view"},{"type":"function","name":"FLOW_USD","inputs":[],"outputs":[{"name":"","type":"bytes32","internalType":"bytes32"}],"stateMutability":"view"},{"type":"function","name":"GBP_USD","inputs":[],"outputs":[{"name":"","type":"bytes32","internalType":"bytes32"}],"stateMutability":"view"},{"type":"function","name":"PythAddress","inputs":[],"outputs":[{"name":"","type":"address","internalType":"address"}],"stateMutability":"view"},{"type":"function","name":"SCALE","inputs":[],"outputs":[{"name":"","type":"uint256","internalType":"uint256"}],"stateMutability":"view"},{"type":"function","name":"USDC_USD","inputs":[],"outputs":[{"name":"","type":"bytes32","internalType":"bytes32"}],"stateMutability":"view"},{"type":"function","name":"USD_CHF","inputs":[],"outputs":[{"name":"","type":"bytes32","internalType":"bytes32"}],"stateMutability":"view"},{"type":"function","name":"USD_INR","inputs":[],"outputs":[{"name":"","type":"bytes32","internalType":"bytes32"}],"stateMutability":"view"},{"type":"function","name":"USD_YEN","inputs":[],"outputs":[{"name":"","type":"bytes32","internalType":"bytes32"}],"stateMutability":"view"},{"type":"function","name":"addressToName","inputs":[{"name":"","type":"address","internalType":"address"}],"outputs":[{"name":"","type":"string","internalType":"string"}],"stateMutability":"view"},{"type":"function","name":"basketNFT","inputs":[],"outputs":[{"name":"","type":"address","internalType":"contract BasketJsonNFT"}],"stateMutability":"view"},{"type":"function","name":"buyTokensFromFlow","inputs":[{"name":"_tokenName","type":"string","internalType":"string"},{"name":"updateData","type":"bytes[]","internalType":"bytes[]"}],"outputs":[],"stateMutability":"payable"},{"type":"function","name":"executeBasket","inputs":[{"name":"_inputTokenName","type":"string","internalType":"string"},{"name":"_inputAmount","type":"uint256","internalType":"uint256"},{"name":"_outputTokenNames","type":"string[]","internalType":"string[]"},{"name":"_outputPercentages","type":"uint256[]","internalType":"uint256[]"},{"name":"_basket_lockout_period","type":"uint256","internalType":"uint256"},{"name":"_jsonMetadata","type":"string","internalType":"string"},{"name":"updateData","type":"bytes[]","internalType":"bytes[]"}],"outputs":[],"stateMutability":"payable"},{"type":"function","name":"fCHF_Address","inputs":[],"outputs":[{"name":"","type":"address","internalType":"address"}],"stateMutability":"view"},{"type":"function","name":"fEUR_Address","inputs":[],"outputs":[{"name":"","type":"address","internalType":"address"}],"stateMutability":"view"},{"type":"function","name":"fGBP_Address","inputs":[],"outputs":[{"name":"","type":"address","internalType":"address"}],"stateMutability":"view"},{"type":"function","name":"fINR_Address","inputs":[],"outputs":[{"name":"","type":"address","internalType":"address"}],"stateMutability":"view"},{"type":"function","name":"fUSD_Address","inputs":[],"outputs":[{"name":"","type":"address","internalType":"address"}],"stateMutability":"view"},{"type":"function","name":"fYEN_Address","inputs":[],"outputs":[{"name":"","type":"address","internalType":"address"}],"stateMutability":"view"},{"type":"function","name":"getNormalizedPrice","inputs":[{"name":"priceId","type":"bytes32","internalType":"bytes32"}],"outputs":[{"name":"","type":"uint256","internalType":"uint256"}],"stateMutability":"view"},{"type":"function","name":"nameToAddress","inputs":[{"name":"","type":"string","internalType":"string"}],"outputs":[{"name":"","type":"address","internalType":"address"}],"stateMutability":"view"},{"type":"function","name":"nameToId","inputs":[{"name":"","type":"string","internalType":"string"}],"outputs":[{"name":"","type":"bytes32","internalType":"bytes32"}],"stateMutability":"view"},{"type":"function","name":"nftBaskets","inputs":[{"name":"","type":"uint256","internalType":"uint256"}],"outputs":[{"name":"owner","type":"address","internalType":"address"},{"name":"inputToken","type":"string","internalType":"string"},{"name":"unlockTimestamp","type":"uint256","internalType":"uint256"}],"stateMutability":"view"},{"type":"function","name":"redeemBasket","inputs":[{"name":"_nftId","type":"uint256","internalType":"uint256"},{"name":"updateData","type":"bytes[]","internalType":"bytes[]"}],"outputs":[],"stateMutability":"payable"},{"type":"function","name":"sellTokensForFlow","inputs":[{"name":"_tokenName","type":"string","internalType":"string"},{"name":"tokenAmount","type":"uint256","internalType":"uint256"},{"name":"updateData","type":"bytes[]","internalType":"bytes[]"}],"outputs":[],"stateMutability":"payable"},{"type":"function","name":"swapContracts","inputs":[{"name":"","type":"bytes32","internalType":"bytes32"}],"outputs":[{"name":"","type":"address","internalType":"address"}],"stateMutability":"view"},{"type":"function","name":"updatePrice","inputs":[{"name":"updateData","type":"bytes[]","internalType":"bytes[]"}],"outputs":[],"stateMutability":"payable"},{"type":"event","name":"BasketCreated","inputs":[{"name":"user","type":"address","indexed":true,"internalType":"address"},{"name":"nftId","type":"uint256","indexed":true,"internalType":"uint256"},{"name":"tokens","type":"string[]","indexed":false,"internalType":"string[]"},{"name":"amounts","type":"uint256[]","indexed":false,"internalType":"uint256[]"}],"anonymous":false},{"type":"event","name":"BasketRedeemed","inputs":[{"name":"user","type":"address","indexed":true,"internalType":"address"},{"name":"nftId","type":"uint256","indexed":true,"internalType":"uint256"},{"name":"amountRedeemed","type":"uint256","indexed":false,"internalType":"uint256"}],"anonymous":false},{"type":"event","name":"LiquidityAdded","inputs":[{"name":"user","type":"address","indexed":true,"internalType":"address"},{"name":"swapContract","type":"address","indexed":true,"internalType":"address"},{"name":"lpTokensMinted","type":"uint256","indexed":false,"internalType":"uint256"}],"anonymous":false},{"type":"event","name":"LiquidityRemoved","inputs":[{"name":"user","type":"address","indexed":true,"internalType":"address"},{"name":"swapContract","type":"address","indexed":true,"internalType":"address"},{"name":"amountAReturned","type":"uint256","indexed":false,"internalType":"uint256"},{"name":"amountBReturned","type":"uint256","indexed":false,"internalType":"uint256"}],"anonymous":false},{"type":"event","name":"TokensBoughtWithFlow","inputs":[{"name":"user","type":"address","indexed":true,"internalType":"address"},{"name":"token","type":"address","indexed":true,"internalType":"address"},{"name":"flowAmount","type":"uint256","indexed":false,"internalType":"uint256"},{"name":"tokenAmount","type":"uint256","indexed":false,"internalType":"uint256"}],"anonymous":false},{"type":"event","name":"TokensSoldForFlow","inputs":[{"name":"user","type":"address","indexed":true,"internalType":"address"},{"name":"token","type":"address","indexed":true,"internalType":"address"},{"name":"tokenAmount","type":"uint256","indexed":false,"internalType":"uint256"},{"name":"flowAmount","type":"uint256","indexed":false,"internalType":"uint256"}],"anonymous":false}],"bytecode":{"object":"0x610140604052348015610010575f5ffd5b50604051617a2b380380617a2b83398181016040528101906100329190610dd5565b732880ab155794e7179c9ee2e38200202908c17b435f5f6101000a81548173ffffffffffffffffffffffffffffffffffffffff021916908373ffffffffffffffffffffffffffffffffffffffff1602179055508060015f6101000a81548173ffffffffffffffffffffffffffffffffffffffff021916908373ffffffffffffffffffffffffffffffffffffffff1602179055508673ffffffffffffffffffffffffffffffffffffffff1660808173ffffffffffffffffffffffffffffffffffffffff16815250508573ffffffffffffffffffffffffffffffffffffffff1660a08173ffffffffffffffffffffffffffffffffffffffff16815250508473ffffffffffffffffffffffffffffffffffffffff1660c08173ffffffffffffffffffffffffffffffffffffffff16815250508373ffffffffffffffffffffffffffffffffffffffff1660e08173ffffffffffffffffffffffffffffffffffffffff16815250508273ffffffffffffffffffffffffffffffffffffffff166101008173ffffffffffffffffffffffffffffffffffffffff16815250508173ffffffffffffffffffffffffffffffffffffffff166101208173ffffffffffffffffffffffffffffffffffffffff168152505086600460405161020e90610ec6565b90815260200160405180910390205f6101000a81548173ffffffffffffffffffffffffffffffffffffffff021916908373ffffffffffffffffffffffffffffffffffffffff1602179055506040518060400160405280600481526020017f664348460000000000000000000000000000000000000000000000000000000081525060055f8973ffffffffffffffffffffffffffffffffffffffff1673ffffffffffffffffffffffffffffffffffffffff1681526020019081526020015f2090816102d89190611117565b508560046040516102e890611230565b90815260200160405180910390205f6101000a81548173ffffffffffffffffffffffffffffffffffffffff021916908373ffffffffffffffffffffffffffffffffffffffff1602179055506040518060400160405280600481526020017f664555520000000000000000000000000000000000000000000000000000000081525060055f8873ffffffffffffffffffffffffffffffffffffffff1673ffffffffffffffffffffffffffffffffffffffff1681526020019081526020015f2090816103b29190611117565b508460046040516103c29061128e565b90815260200160405180910390205f6101000a81548173ffffffffffffffffffffffffffffffffffffffff021916908373ffffffffffffffffffffffffffffffffffffffff1602179055506040518060400160405280600481526020017f664742500000000000000000000000000000000000000000000000000000000081525060055f8773ffffffffffffffffffffffffffffffffffffffff1673ffffffffffffffffffffffffffffffffffffffff1681526020019081526020015f20908161048c9190611117565b5083600460405161049c906112ec565b90815260200160405180910390205f6101000a81548173ffffffffffffffffffffffffffffffffffffffff021916908373ffffffffffffffffffffffffffffffffffffffff1602179055506040518060400160405280600481526020017f66494e520000000000000000000000000000000000000000000000000000000081525060055f8673ffffffffffffffffffffffffffffffffffffffff1673ffffffffffffffffffffffffffffffffffffffff1681526020019081526020015f2090816105669190611117565b508260046040516105769061134a565b90815260200160405180910390205f6101000a81548173ffffffffffffffffffffffffffffffffffffffff021916908373ffffffffffffffffffffffffffffffffffffffff1602179055506040518060400160405280600481526020017f665553440000000000000000000000000000000000000000000000000000000081525060055f8573ffffffffffffffffffffffffffffffffffffffff1673ffffffffffffffffffffffffffffffffffffffff1681526020019081526020015f2090816106409190611117565b50816004604051610650906113a8565b90815260200160405180910390205f6101000a81548173ffffffffffffffffffffffffffffffffffffffff021916908373ffffffffffffffffffffffffffffffffffffffff1602179055506040518060400160405280600481526020017f6659454e0000000000000000000000000000000000000000000000000000000081525060055f8473ffffffffffffffffffffffffffffffffffffffff1673ffffffffffffffffffffffffffffffffffffffff1681526020019081526020015f20908161071a9190611117565b507f0b1e3297e69f162877b577b0d6a47a0d63b2392bc8499e6540da4187a63e28f85f1b600360405161074c90610ec6565b9081526020016040518091039020819055507fa995d00bb36a63cef7fd2c287dc105fc8f3d93779f062f09551b0af3e81ec30b5f1b600360405161078f90611230565b9081526020016040518091039020819055507f84c2dde9633d93d1bcad84e7dc41c9d56578b7ec52fabedc1f335d673df0a7c15f1b60036040516107d29061128e565b9081526020016040518091039020819055507f0ac0f9a2886fc2dd708bc66cc2cea359052ce89d324f45d95fadbc6c4fcf18095f1b6003604051610815906112ec565b9081526020016040518091039020819055507feaa020c61cc479712813461ce153894a96a6c00b21ed0cfc2798d1f9a9e9c94a5f1b60036040516108589061134a565b9081526020016040518091039020819055507fef2c98c804ba503c6a707e38be4dfbb16683775f195b091252bf24693042fd525f1b600360405161089b906113a8565b9081526020016040518091039020819055505f6040518060c001604052808973ffffffffffffffffffffffffffffffffffffffff1673ffffffffffffffffffffffffffffffffffffffff1681526020018873ffffffffffffffffffffffffffffffffffffffff1673ffffffffffffffffffffffffffffffffffffffff1681526020018773ffffffffffffffffffffffffffffffffffffffff1673ffffffffffffffffffffffffffffffffffffffff1681526020018673ffffffffffffffffffffffffffffffffffffffff1673ffffffffffffffffffffffffffffffffffffffff1681526020018573ffffffffffffffffffffffffffffffffffffffff1673ffffffffffffffffffffffffffffffffffffffff1681526020018473ffffffffffffffffffffffffffffffffffffffff1673ffffffffffffffffffffffffffffffffffffffff1681525090505f5f90505b6006811015610cc8575f600182610a0191906113e9565b90505b6006811015610cba575f610a4c848460068110610a2457610a2361141c565b5b6020020151858460068110610a3c57610a3b61141c565b5b6020020151610cd660201b60201c565b90505f848460068110610a6257610a6161141c565b5b6020020151858460068110610a7a57610a7961141c565b5b6020020151604051610a8b90610d6a565b610a96929190611458565b604051809103905ff080158015610aaf573d5f5f3e3d5ffd5b5090508060065f8481526020019081526020015f205f6101000a81548173ffffffffffffffffffffffffffffffffffffffff021916908373ffffffffffffffffffffffffffffffffffffffff1602179055508073ffffffffffffffffffffffffffffffffffffffff16639127cc69336040518263ffffffff1660e01b8152600401610b3a919061147f565b5f604051808303815f87803b158015610b51575f5ffd5b505af1158015610b63573d5f5f3e3d5ffd5b50505050848460068110610b7a57610b7961141c565b5b602002015173ffffffffffffffffffffffffffffffffffffffff1663a9059cbb826ec097ce7bc90715b34b9f10000000006040518363ffffffff1660e01b8152600401610bc89291906114d1565b6020604051808303815f875af1158015610be4573d5f5f3e3d5ffd5b505050506040513d601f19601f82011682018060405250810190610c08919061152d565b50848360068110610c1c57610c1b61141c565b5b602002015173ffffffffffffffffffffffffffffffffffffffff1663a9059cbb826ec097ce7bc90715b34b9f10000000006040518363ffffffff1660e01b8152600401610c6a9291906114d1565b6020604051808303815f875af1158015610c86573d5f5f3e3d5ffd5b505050506040513d601f19601f82011682018060405250810190610caa919061152d565b5050508080600101915050610a04565b5080806001019150506109ea565b5050505050505050506115c8565b5f8173ffffffffffffffffffffffffffffffffffffffff168373ffffffffffffffffffffffffffffffffffffffff1610610d38578183604051602001610d1d92919061159d565b60405160208183030381529060405280519060200120610d62565b8282604051602001610d4b92919061159d565b604051602081830303815290604052805190602001205b905092915050565b6116f88061633383390190565b5f5ffd5b5f73ffffffffffffffffffffffffffffffffffffffff82169050919050565b5f610da482610d7b565b9050919050565b610db481610d9a565b8114610dbe575f5ffd5b50565b5f81519050610dcf81610dab565b92915050565b5f5f5f5f5f5f5f60e0888a031215610df057610def610d77565b5b5f610dfd8a828b01610dc1565b9750506020610e0e8a828b01610dc1565b9650506040610e1f8a828b01610dc1565b9550506060610e308a828b01610dc1565b9450506080610e418a828b01610dc1565b93505060a0610e528a828b01610dc1565b92505060c0610e638a828b01610dc1565b91505092959891949750929550565b5f81905092915050565b7f66434846000000000000000000000000000000000000000000000000000000005f82015250565b5f610eb0600483610e72565b9150610ebb82610e7c565b600482019050919050565b5f610ed082610ea4565b9150819050919050565b5f81519050919050565b7f4e487b71000000000000000000000000000000000000000000000000000000005f52604160045260245ffd5b7f4e487b71000000000000000000000000000000000000000000000000000000005f52602260045260245ffd5b5f6002820490506001821680610f5557607f821691505b602082108103610f6857610f67610f11565b5b50919050565b5f819050815f5260205f209050919050565b5f6020601f8301049050919050565b5f82821b905092915050565b5f60088302610fca7fffffffffffffffffffffffffffffffffffffffffffffffffffffffffffffffff82610f8f565b610fd48683610f8f565b95508019841693508086168417925050509392505050565b5f819050919050565b5f819050919050565b5f61101861101361100e84610fec565b610ff5565b610fec565b9050919050565b5f819050919050565b61103183610ffe565b61104561103d8261101f565b848454610f9b565b825550505050565b5f5f905090565b61105c61104d565b611067818484611028565b505050565b5b8181101561108a5761107f5f82611054565b60018101905061106d565b5050565b601f8211156110cf576110a081610f6e565b6110a984610f80565b810160208510156110b8578190505b6110cc6110c485610f80565b83018261106c565b50505b505050565b5f82821c905092915050565b5f6110ef5f19846008026110d4565b1980831691505092915050565b5f61110783836110e0565b9150826002028217905092915050565b61112082610eda565b67ffffffffffffffff81111561113957611138610ee4565b5b6111438254610f3e565b61114e82828561108e565b5f60209050601f83116001811461117f575f841561116d578287015190505b61117785826110fc565b8655506111de565b601f19841661118d86610f6e565b5f5b828110156111b45784890151825560018201915060208501945060208101905061118f565b868310156111d157848901516111cd601f8916826110e0565b8355505b6001600288020188555050505b505050505050565b7f66455552000000000000000000000000000000000000000000000000000000005f82015250565b5f61121a600483610e72565b9150611225826111e6565b600482019050919050565b5f61123a8261120e565b9150819050919050565b7f66474250000000000000000000000000000000000000000000000000000000005f82015250565b5f611278600483610e72565b915061128382611244565b600482019050919050565b5f6112988261126c565b9150819050919050565b7f66494e52000000000000000000000000000000000000000000000000000000005f82015250565b5f6112d6600483610e72565b91506112e1826112a2565b600482019050919050565b5f6112f6826112ca565b9150819050919050565b7f66555344000000000000000000000000000000000000000000000000000000005f82015250565b5f611334600483610e72565b915061133f82611300565b600482019050919050565b5f61135482611328565b9150819050919050565b7f6659454e000000000000000000000000000000000000000000000000000000005f82015250565b5f611392600483610e72565b915061139d8261135e565b600482019050919050565b5f6113b282611386565b9150819050919050565b7f4e487b71000000000000000000000000000000000000000000000000000000005f52601160045260245ffd5b5f6113f382610fec565b91506113fe83610fec565b9250828201905080821115611416576114156113bc565b5b92915050565b7f4e487b71000000000000000000000000000000000000000000000000000000005f52603260045260245ffd5b61145281610d9a565b82525050565b5f60408201905061146b5f830185611449565b6114786020830184611449565b9392505050565b5f6020820190506114925f830184611449565b92915050565b5f819050919050565b5f6114bb6114b66114b184611498565b610ff5565b610fec565b9050919050565b6114cb816114a1565b82525050565b5f6040820190506114e45f830185611449565b6114f160208301846114c2565b9392505050565b5f8115159050919050565b61150c816114f8565b8114611516575f5ffd5b50565b5f8151905061152781611503565b92915050565b5f6020828403121561154257611541610d77565b5b5f61154f84828501611519565b91505092915050565b5f8160601b9050919050565b5f61156e82611558565b9050919050565b5f61157f82611564565b9050919050565b61159761159282610d9a565b611575565b82525050565b5f6115a88285611586565b6014820191506115b88284611586565b6014820191508190509392505050565b60805160a05160c05160e0516101005161012051614d2461160f5f395f61196001525f61103e01525f61139401525f6113b801525f61140201525f610fef0152614d245ff3fe6080604052600436106101b6575f3560e01c80638477484a116100eb578063d593265211610089578063e2a04b6211610063578063e2a04b621461059a578063eced5526146105d6578063ed343f5414610600578063f6d8f2cb1461063e576101b6565b8063d593265214610538578063d9e30eaa14610562578063e289c1811461057e576101b6565b80639f6476cf116100c55780639f6476cf1461049e578063a216ffd2146104ba578063c211648c146104e4578063c93eb5611461050e576101b6565b80638477484a1461040e5780639666be7c146104385780639dc38a0214610462576101b6565b8063422830c91161015857806360ca396f1161013257806360ca396f14610354578063703ad2991461039057806379178b46146103ba5780637b7e7aa7146103e4576101b6565b8063422830c9146102d65780634dd290a1146103005780635e3a20f41461032a576101b6565b806327f7e4be1161019457806327f7e4be1461023c5780632b6c86df146102585780632e0f262514610282578063392015b3146102ac576101b6565b806308d88aad146101ba5780632592c0bf146101f6578063269ae32d14610212575b5f5ffd5b3480156101c5575f5ffd5b506101e060048036038101906101db919061315e565b61067a565b6040516101ed91906131e4565b60405180910390f35b610210600480360381019061020b919061325a565b6106c2565b005b34801561021d575f5ffd5b50610226610889565b60405161023391906132bd565b60405180910390f35b610256600480360381019061025191906134a7565b6108af565b005b348015610263575f5ffd5b5061026c610fed565b60405161027991906131e4565b60405180910390f35b34801561028d575f5ffd5b50610296611011565b6040516102a391906135e3565b60405180910390f35b3480156102b7575f5ffd5b506102c0611016565b6040516102cd91906132bd565b60405180910390f35b3480156102e1575f5ffd5b506102ea61103c565b6040516102f791906131e4565b60405180910390f35b34801561030b575f5ffd5b50610314611060565b60405161032191906132bd565b60405180910390f35b348015610335575f5ffd5b5061033e611086565b60405161034b91906132bd565b60405180910390f35b34801561035f575f5ffd5b5061037a60048036038101906103759190613626565b6110ac565b60405161038791906135e3565b60405180910390f35b34801561039b575f5ffd5b506103a4611392565b6040516103b191906131e4565b60405180910390f35b3480156103c5575f5ffd5b506103ce6113b6565b6040516103db91906131e4565b60405180910390f35b3480156103ef575f5ffd5b506103f86113da565b60405161040591906132bd565b60405180910390f35b348015610419575f5ffd5b50610422611400565b60405161042f91906131e4565b60405180910390f35b348015610443575f5ffd5b5061044c611424565b60405161045991906132bd565b60405180910390f35b34801561046d575f5ffd5b5061048860048036038101906104839190613626565b61144a565b60405161049591906131e4565b60405180910390f35b6104b860048036038101906104b39190613651565b61147a565b005b3480156104c5575f5ffd5b506104ce61195e565b6040516104db91906131e4565b60405180910390f35b3480156104ef575f5ffd5b506104f8611982565b60405161050591906131e4565b60405180910390f35b348015610519575f5ffd5b5061052261199a565b60405161052f9190613725565b60405180910390f35b348015610543575f5ffd5b5061054c6119bf565b60405161055991906132bd565b60405180910390f35b61057c6004803603810190610577919061373e565b6119e5565b005b610598600480360381019061059391906137cb565b611ede565b005b3480156105a5575f5ffd5b506105c060048036038101906105bb9190613852565b612585565b6040516105cd91906138dd565b60405180910390f35b3480156105e1575f5ffd5b506105ea612620565b6040516105f791906135e3565b60405180910390f35b34801561060b575f5ffd5b50610626600480360381019061062191906138fd565b61262c565b60405161063593929190613928565b60405180910390f35b348015610649575f5ffd5b50610664600480360381019061065f919061315e565b6126f7565b60405161067191906132bd565b60405180910390f35b6004818051602081018201805184825260208301602085012081835280955050505050505f915054906101000a900473ffffffffffffffffffffffffffffffffffffffff1681565b5f5f5f9054906101000a900473ffffffffffffffffffffffffffffffffffffffff1673ffffffffffffffffffffffffffffffffffffffff1663d47eed4584846040518363ffffffff1660e01b815260040161071e929190613abc565b602060405180830381865afa158015610739573d5f5f3e3d5ffd5b505050506040513d601f19601f8201168201806040525081019061075d9190613af2565b9050803410156107a2576040517f08c379a000000000000000000000000000000000000000000000000000000000815260040161079990613b8d565b60405180910390fd5b5f5f9054906101000a900473ffffffffffffffffffffffffffffffffffffffff1673ffffffffffffffffffffffffffffffffffffffff1663ef9e5e288285856040518463ffffffff1660e01b81526004016107fe929190613abc565b5f604051808303818588803b158015610815575f5ffd5b505af1158015610827573d5f5f3e3d5ffd5b505050505080341115610884573373ffffffffffffffffffffffffffffffffffffffff166108fc823461085a9190613bd8565b90811502906040515f60405180830381858888f19350505050158015610882573d5f5f3e3d5ffd5b505b505050565b7feaa020c61cc479712813461ce153894a96a6c00b21ed0cfc2798d1f9a9e9c94a5f1b81565b84518651146108f3576040517f08c379a00000000000000000000000000000000000000000000000000000000081526004016108ea90613c55565b60405180910390fd5b5f5f5f90505b86518110156109375786818151811061091557610914613c73565b5b6020026020010151826109289190613ca0565b915080806001019150506108f9565b50612710811461097c576040517f08c379a000000000000000000000000000000000000000000000000000000000815260040161097390613d1d565b60405180910390fd5b5f5f5f9054906101000a900473ffffffffffffffffffffffffffffffffffffffff1673ffffffffffffffffffffffffffffffffffffffff1663d47eed4585856040518363ffffffff1660e01b81526004016109d8929190613abc565b602060405180830381865afa1580156109f3573d5f5f3e3d5ffd5b505050506040513d601f19601f82011682018060405250810190610a179190613af2565b905080341015610a5c576040517f08c379a0000000000000000000000000000000000000000000000000000000008152600401610a5390613d85565b60405180910390fd5b5f5f9054906101000a900473ffffffffffffffffffffffffffffffffffffffff1673ffffffffffffffffffffffffffffffffffffffff1663ef9e5e288286866040518463ffffffff1660e01b8152600401610ab8929190613abc565b5f604051808303818588803b158015610acf575f5ffd5b505af1158015610ae1573d5f5f3e3d5ffd5b505050505080341115610b3e573373ffffffffffffffffffffffffffffffffffffffff166108fc8234610b149190613bd8565b90811502906040515f60405180830381858888f19350505050158015610b3c573d5f5f3e3d5ffd5b505b5f60048b604051610b4f9190613ddd565b90815260200160405180910390205f9054906101000a900473ffffffffffffffffffffffffffffffffffffffff1690505f73ffffffffffffffffffffffffffffffffffffffff168173ffffffffffffffffffffffffffffffffffffffff1603610bed576040517f08c379a0000000000000000000000000000000000000000000000000000000008152600401610be490613e3d565b60405180910390fd5b8073ffffffffffffffffffffffffffffffffffffffff166323b872dd33308d6040518463ffffffff1660e01b8152600401610c2a93929190613e5b565b6020604051808303815f875af1158015610c46573d5f5f3e3d5ffd5b505050506040513d601f19601f82011682018060405250810190610c6a9190613ec5565b505f895167ffffffffffffffff811115610c8757610c8661303a565b5b604051908082528060200260200182016040528015610cb55781602001602082028036833780820191505090505b5090505f610ce060038e604051610ccc9190613ddd565b9081526020016040518091039020546110ac565b90505f5f90505b8b51811015610d79575f6127108c8381518110610d0757610d06613c73565b5b60200260200101518f610d1a9190613ef0565b610d249190613f5e565b9050610d4c858e8481518110610d3d57610d3c613c73565b5b60200260200101518386612724565b848381518110610d5f57610d5e613c73565b5b602002602001018181525050508080600101915050610ce7565b505f60015f9054906101000a900473ffffffffffffffffffffffffffffffffffffffff1673ffffffffffffffffffffffffffffffffffffffff166375794a3c6040518163ffffffff1660e01b8152600401602060405180830381865afa158015610de5573d5f5f3e3d5ffd5b505050506040513d601f19601f82011682018060405250810190610e099190613af2565b90506040518060a001604052803373ffffffffffffffffffffffffffffffffffffffff1681526020018f81526020018b42610e449190613ca0565b81526020018d81526020018481525060025f8381526020019081526020015f205f820151815f015f6101000a81548173ffffffffffffffffffffffffffffffffffffffff021916908373ffffffffffffffffffffffffffffffffffffffff1602179055506020820151816001019081610ebd9190614182565b50604082015181600201556060820151816003019080519060200190610ee4929190612eb8565b506080820151816004019080519060200190610f01929190612f0f565b5090505060015f9054906101000a900473ffffffffffffffffffffffffffffffffffffffff1673ffffffffffffffffffffffffffffffffffffffff1663fb37e8838a6040518263ffffffff1660e01b8152600401610f5f91906138dd565b5f604051808303815f87803b158015610f76575f5ffd5b505af1158015610f88573d5f5f3e3d5ffd5b50505050803373ffffffffffffffffffffffffffffffffffffffff167f5ad7b074f4912fa69ee9c4079c45e33c020dba9a720bc6f9fc0736432aee5fad8e86604051610fd592919061440b565b60405180910390a35050505050505050505050505050565b7f000000000000000000000000000000000000000000000000000000000000000081565b601281565b7f84c2dde9633d93d1bcad84e7dc41c9d56578b7ec52fabedc1f335d673df0a7c15f1b81565b7f000000000000000000000000000000000000000000000000000000000000000081565b7fef2c98c804ba503c6a707e38be4dfbb16683775f195b091252bf24693042fd525f1b81565b7f2fb245b9a84554a0f15aa123cbb5f64cd263b59e9a87d80148cbffab50c69f305f1b81565b5f5f5f5f9054906101000a900473ffffffffffffffffffffffffffffffffffffffff1673ffffffffffffffffffffffffffffffffffffffff166396834ad3846040518263ffffffff1660e01b815260040161110791906132bd565b608060405180830381865afa158015611122573d5f5f3e3d5ffd5b505050506040513d601f19601f820116820180604052508101906111469190614562565b90505f815f015160070b13611190576040517f08c379a0000000000000000000000000000000000000000000000000000000008152600401611187906145d7565b60405180910390fd5b5f815f015160070b90505f82604001516111a9906145f5565b60030b90507f2fb245b9a84554a0f15aa123cbb5f64cd263b59e9a87d80148cbffab50c69f305f1b8514806111ff57507f84c2dde9633d93d1bcad84e7dc41c9d56578b7ec52fabedc1f335d673df0a7c15f1b85145b8061122b57507fa995d00bb36a63cef7fd2c287dc105fc8f3d93779f062f09551b0af3e81ec30b5f1b85145b8061125757507feaa020c61cc479712813461ce153894a96a6c00b21ed0cfc2798d1f9a9e9c94a5f1b85145b1561129657816012600a61126b919061476a565b82600a611278919061476a565b6112829190613ef0565b61128c9190613f5e565b935050505061138d565b7f0b1e3297e69f162877b577b0d6a47a0d63b2392bc8499e6540da4187a63e28f85f1b8514806112e757507f0ac0f9a2886fc2dd708bc66cc2cea359052ce89d324f45d95fadbc6c4fcf18095f1b85145b8061131357507fef2c98c804ba503c6a707e38be4dfbb16683775f195b091252bf24693042fd525f1b85145b156113525780600a611325919061476a565b6012600a611333919061476a565b8361133e9190613ef0565b6113489190613f5e565b935050505061138d565b6040517f08c379a0000000000000000000000000000000000000000000000000000000008152600401611384906147fe565b60405180910390fd5b919050565b7f000000000000000000000000000000000000000000000000000000000000000081565b7f000000000000000000000000000000000000000000000000000000000000000081565b7f0b1e3297e69f162877b577b0d6a47a0d63b2392bc8499e6540da4187a63e28f85f1b81565b7f000000000000000000000000000000000000000000000000000000000000000081565b7f0ac0f9a2886fc2dd708bc66cc2cea359052ce89d324f45d95fadbc6c4fcf18095f1b81565b6006602052805f5260405f205f915054906101000a900473ffffffffffffffffffffffffffffffffffffffff1681565b5f8390505f5f5f9054906101000a900473ffffffffffffffffffffffffffffffffffffffff1673ffffffffffffffffffffffffffffffffffffffff1663d47eed4585856040518363ffffffff1660e01b81526004016114da929190613abc565b602060405180830381865afa1580156114f5573d5f5f3e3d5ffd5b505050506040513d601f19601f820116820180604052508101906115199190613af2565b905080341161155d576040517f08c379a00000000000000000000000000000000000000000000000000000000081526004016115549061488c565b60405180910390fd5b5f5f9054906101000a900473ffffffffffffffffffffffffffffffffffffffff1673ffffffffffffffffffffffffffffffffffffffff1663ef9e5e288286866040518463ffffffff1660e01b81526004016115b9929190613abc565b5f604051808303818588803b1580156115d0575f5ffd5b505af11580156115e2573d5f5f3e3d5ffd5b50505050505f81346115f49190613bd8565b90505f6003846040516116079190613ddd565b90815260200160405180910390205490505f5f1b810361165c576040517f08c379a0000000000000000000000000000000000000000000000000000000008152600401611653906148f4565b60405180910390fd5b5f60048560405161166d9190613ddd565b90815260200160405180910390205f9054906101000a900473ffffffffffffffffffffffffffffffffffffffff1690505f8173ffffffffffffffffffffffffffffffffffffffff166370a08231306040518263ffffffff1660e01b81526004016116d791906131e4565b602060405180830381865afa1580156116f2573d5f5f3e3d5ffd5b505050506040513d601f19601f820116820180604052508101906117169190613af2565b90505f6117447f2fb245b9a84554a0f15aa123cbb5f64cd263b59e9a87d80148cbffab50c69f305f1b6110ac565b90505f611750856110ac565b90505f816012600a611762919061476a565b8461176d9190613ef0565b6117779190613f5e565b90508473ffffffffffffffffffffffffffffffffffffffff16633610724e88836040518363ffffffff1660e01b81526004016117b391906135e3565b5f604051808303818588803b1580156117ca575f5ffd5b505af11580156117dc573d5f5f3e3d5ffd5b50505050505f8573ffffffffffffffffffffffffffffffffffffffff166370a08231306040518263ffffffff1660e01b815260040161181b91906131e4565b602060405180830381865afa158015611836573d5f5f3e3d5ffd5b505050506040513d601f19601f8201168201806040525081019061185a9190613af2565b90505f85826118699190613bd8565b90508673ffffffffffffffffffffffffffffffffffffffff1663a9059cbb33836040518363ffffffff1660e01b81526004016118a6929190614912565b6020604051808303815f875af11580156118c2573d5f5f3e3d5ffd5b505050506040513d601f19601f820116820180604052508101906118e69190613ec5565b508673ffffffffffffffffffffffffffffffffffffffff163373ffffffffffffffffffffffffffffffffffffffff167f3829ce9b8af96b65b723a35c5edf9b7d7e10bb8eff0ca4bee0f62703f6d52cee8b84604051611946929190614939565b60405180910390a35050505050505050505050505050565b7f000000000000000000000000000000000000000000000000000000000000000081565b732880ab155794e7179c9ee2e38200202908c17b4381565b60015f9054906101000a900473ffffffffffffffffffffffffffffffffffffffff1681565b7fa995d00bb36a63cef7fd2c287dc105fc8f3d93779f062f09551b0af3e81ec30b5f1b81565b5f8490505f5f5f9054906101000a900473ffffffffffffffffffffffffffffffffffffffff1673ffffffffffffffffffffffffffffffffffffffff1663d47eed4585856040518363ffffffff1660e01b8152600401611a45929190613abc565b602060405180830381865afa158015611a60573d5f5f3e3d5ffd5b505050506040513d601f19601f82011682018060405250810190611a849190613af2565b905080341015611ac9576040517f08c379a0000000000000000000000000000000000000000000000000000000008152600401611ac090613d85565b60405180910390fd5b5f5f9054906101000a900473ffffffffffffffffffffffffffffffffffffffff1673ffffffffffffffffffffffffffffffffffffffff1663ef9e5e288286866040518463ffffffff1660e01b8152600401611b25929190613abc565b5f604051808303818588803b158015611b3c575f5ffd5b505af1158015611b4e573d5f5f3e3d5ffd5b505050505080341115611bab573373ffffffffffffffffffffffffffffffffffffffff166108fc8234611b819190613bd8565b90811502906040515f60405180830381858888f19350505050158015611ba9573d5f5f3e3d5ffd5b505b5f600383604051611bbc9190613ddd565b90815260200160405180910390205490505f5f1b8103611c11576040517f08c379a0000000000000000000000000000000000000000000000000000000008152600401611c08906148f4565b60405180910390fd5b5f600484604051611c229190613ddd565b90815260200160405180910390205f9054906101000a900473ffffffffffffffffffffffffffffffffffffffff1690505f611c7e7f2fb245b9a84554a0f15aa123cbb5f64cd263b59e9a87d80148cbffab50c69f305f1b6110ac565b90505f611c8a846110ac565b90505f816012600a611c9c919061476a565b84611ca79190613ef0565b611cb19190613f5e565b90505f816012600a611cc3919061476a565b8c611cce9190613ef0565b611cd89190613f5e565b90508473ffffffffffffffffffffffffffffffffffffffff166323b872dd33308e6040518463ffffffff1660e01b8152600401611d1793929190613e5b565b6020604051808303815f875af1158015611d33573d5f5f3e3d5ffd5b505050506040513d601f19601f82011682018060405250810190611d579190613ec5565b508473ffffffffffffffffffffffffffffffffffffffff1663ed9772b68c846040518363ffffffff1660e01b8152600401611d93929190614939565b5f604051808303815f87803b158015611daa575f5ffd5b505af1158015611dbc573d5f5f3e3d5ffd5b505050505f3373ffffffffffffffffffffffffffffffffffffffff1682604051611de59061498d565b5f6040518083038185875af1925050503d805f8114611e1f576040519150601f19603f3d011682016040523d82523d5f602084013e611e24565b606091505b5050905080611e68576040517f08c379a0000000000000000000000000000000000000000000000000000000008152600401611e5f906149eb565b60405180910390fd5b8573ffffffffffffffffffffffffffffffffffffffff163373ffffffffffffffffffffffffffffffffffffffff167ff7c8601905f921b7b7b21b454fed87177c3c9d097cb38bf4ebcf270419604b038e85604051611ec7929190614939565b60405180910390a350505050505050505050505050565b3373ffffffffffffffffffffffffffffffffffffffff1660015f9054906101000a900473ffffffffffffffffffffffffffffffffffffffff1673ffffffffffffffffffffffffffffffffffffffff16636352211e856040518263ffffffff1660e01b8152600401611f4f91906135e3565b602060405180830381865afa158015611f6a573d5f5f3e3d5ffd5b505050506040513d601f19601f82011682018060405250810190611f8e9190614a1d565b73ffffffffffffffffffffffffffffffffffffffff1614611fe4576040517f08c379a0000000000000000000000000000000000000000000000000000000008152600401611fdb90614a92565b60405180910390fd5b5f60025f8581526020019081526020015f209050806002015442101561203f576040517f08c379a000000000000000000000000000000000000000000000000000000000815260040161203690614afa565b60405180910390fd5b5f5f5f9054906101000a900473ffffffffffffffffffffffffffffffffffffffff1673ffffffffffffffffffffffffffffffffffffffff1663d47eed4585856040518363ffffffff1660e01b815260040161209b929190613abc565b602060405180830381865afa1580156120b6573d5f5f3e3d5ffd5b505050506040513d601f19601f820116820180604052508101906120da9190613af2565b90508034101561211f576040517f08c379a000000000000000000000000000000000000000000000000000000000815260040161211690613d85565b60405180910390fd5b5f5f9054906101000a900473ffffffffffffffffffffffffffffffffffffffff1673ffffffffffffffffffffffffffffffffffffffff1663ef9e5e288286866040518463ffffffff1660e01b815260040161217b929190613abc565b5f604051808303818588803b158015612192575f5ffd5b505af11580156121a4573d5f5f3e3d5ffd5b505050505080341115612201573373ffffffffffffffffffffffffffffffffffffffff166108fc82346121d79190613bd8565b90811502906040515f60405180830381858888f193505050501580156121ff573d5f5f3e3d5ffd5b505b5f5f90505f83600101805461221590613fbb565b80601f016020809104026020016040519081016040528092919081815260200182805461224190613fbb565b801561228c5780601f106122635761010080835404028352916020019161228c565b820191905f5260205f20905b81548152906001019060200180831161226f57829003601f168201915b505050505090505f6004826040516122a49190613ddd565b90815260200160405180910390205f9054906101000a900473ffffffffffffffffffffffffffffffffffffffff1690505f6122fc6003846040516122e89190613ddd565b9081526020016040518091039020546110ac565b90505f5f90505b86600301805490508110156123ba575f600488600301838154811061232b5761232a613c73565b5b905f5260205f20016040516123409190614b98565b90815260200160405180910390205f9054906101000a900473ffffffffffffffffffffffffffffffffffffffff1690505f88600401838154811061238757612386613c73565b5b905f5260205f200154905061239e82868387612acf565b876123a99190613ca0565b965050508080600101915050612303565b5060015f9054906101000a900473ffffffffffffffffffffffffffffffffffffffff1673ffffffffffffffffffffffffffffffffffffffff166342966c688a6040518263ffffffff1660e01b815260040161241591906135e3565b5f604051808303815f87803b15801561242c575f5ffd5b505af115801561243e573d5f5f3e3d5ffd5b5050505060025f8a81526020019081526020015f205f5f82015f6101000a81549073ffffffffffffffffffffffffffffffffffffffff0219169055600182015f6124889190612f5a565b600282015f9055600382015f61249e9190612f97565b600482015f6124ad9190612fb5565b50508173ffffffffffffffffffffffffffffffffffffffff1663a9059cbb33866040518363ffffffff1660e01b81526004016124ea929190614912565b6020604051808303815f875af1158015612506573d5f5f3e3d5ffd5b505050506040513d601f19601f8201168201806040525081019061252a9190613ec5565b50883373ffffffffffffffffffffffffffffffffffffffff167fd3157cbbbe69a1cf19035ae6146be186023de9def859d12538cd8ed84642628d8660405161257291906135e3565b60405180910390a3505050505050505050565b6005602052805f5260405f205f9150905080546125a190613fbb565b80601f01602080910402602001604051908101604052809291908181526020018280546125cd90613fbb565b80156126185780601f106125ef57610100808354040283529160200191612618565b820191905f5260205f20905b8154815290600101906020018083116125fb57829003601f168201915b505050505081565b670de0b6b3a764000081565b6002602052805f5260405f205f91509050805f015f9054906101000a900473ffffffffffffffffffffffffffffffffffffffff169080600101805461267090613fbb565b80601f016020809104026020016040519081016040528092919081815260200182805461269c90613fbb565b80156126e75780601f106126be576101008083540402835291602001916126e7565b820191905f5260205f20905b8154815290600101906020018083116126ca57829003601f168201915b5050505050908060020154905083565b6003818051602081018201805184825260208301602085012081835280955050505050505f915090505481565b5f5f6004856040516127369190613ddd565b90815260200160405180910390205f9054906101000a900473ffffffffffffffffffffffffffffffffffffffff1690505f73ffffffffffffffffffffffffffffffffffffffff168173ffffffffffffffffffffffffffffffffffffffff16036127d4576040517f08c379a00000000000000000000000000000000000000000000000000000000081526004016127cb90614bf8565b60405180910390fd5b5f6127fc6003876040516127e89190613ddd565b9081526020016040518091039020546110ac565b90505f81670de0b6b3a7640000866128149190613ef0565b61281e9190613f5e565b90505f60065f61282e8b87612e24565b81526020019081526020015f205f9054906101000a900473ffffffffffffffffffffffffffffffffffffffff1690505f73ffffffffffffffffffffffffffffffffffffffff168173ffffffffffffffffffffffffffffffffffffffff16036128cb576040517f08c379a00000000000000000000000000000000000000000000000000000000081526004016128c290614c60565b60405180910390fd5b8873ffffffffffffffffffffffffffffffffffffffff1663095ea7b382896040518363ffffffff1660e01b8152600401612906929190614912565b6020604051808303815f875af1158015612922573d5f5f3e3d5ffd5b505050506040513d601f19601f820116820180604052508101906129469190613ec5565b508373ffffffffffffffffffffffffffffffffffffffff168973ffffffffffffffffffffffffffffffffffffffff1610156129e8578073ffffffffffffffffffffffffffffffffffffffff1663f0b456e988846040518363ffffffff1660e01b81526004016129b6929190614939565b5f604051808303815f87803b1580156129cd575f5ffd5b505af11580156129df573d5f5f3e3d5ffd5b50505050612a74565b5f82670de0b6b3a7640000806129fe9190613ef0565b612a089190613f5e565b90508173ffffffffffffffffffffffffffffffffffffffff16634242ec5289836040518363ffffffff1660e01b8152600401612a45929190614939565b5f604051808303815f87803b158015612a5c575f5ffd5b505af1158015612a6e573d5f5f3e3d5ffd5b50505050505b5f6103e8600389612a859190613ef0565b612a8f9190613f5e565b90505f8189612a9e9190613bd8565b9050670de0b6b3a76400008482612ab59190613ef0565b612abf9190613f5e565b9650505050505050949350505050565b5f5f60055f8773ffffffffffffffffffffffffffffffffffffffff1673ffffffffffffffffffffffffffffffffffffffff1681526020019081526020015f208054612b1990613fbb565b80601f0160208091040260200160405190810160405280929190818152602001828054612b4590613fbb565b8015612b905780601f10612b6757610100808354040283529160200191612b90565b820191905f5260205f20905b815481529060010190602001808311612b7357829003601f168201915b505050505090505f612bbf600383604051612bab9190613ddd565b9081526020016040518091039020546110ac565b90505f84670de0b6b3a764000083612bd79190613ef0565b612be19190613f5e565b90505f60065f612bf18b8b612e24565b81526020019081526020015f205f9054906101000a900473ffffffffffffffffffffffffffffffffffffffff1690508873ffffffffffffffffffffffffffffffffffffffff1663095ea7b382896040518363ffffffff1660e01b8152600401612c5b929190614912565b6020604051808303815f875af1158015612c77573d5f5f3e3d5ffd5b505050506040513d601f19601f82011682018060405250810190612c9b9190613ec5565b508773ffffffffffffffffffffffffffffffffffffffff168973ffffffffffffffffffffffffffffffffffffffff161015612d3d578073ffffffffffffffffffffffffffffffffffffffff1663f0b456e988846040518363ffffffff1660e01b8152600401612d0b929190614939565b5f604051808303815f87803b158015612d22575f5ffd5b505af1158015612d34573d5f5f3e3d5ffd5b50505050612dc9565b5f82670de0b6b3a764000080612d539190613ef0565b612d5d9190613f5e565b90508173ffffffffffffffffffffffffffffffffffffffff16634242ec5289836040518363ffffffff1660e01b8152600401612d9a929190614939565b5f604051808303815f87803b158015612db1575f5ffd5b505af1158015612dc3573d5f5f3e3d5ffd5b50505050505b5f6103e8600389612dda9190613ef0565b612de49190613f5e565b90505f8189612df39190613bd8565b9050670de0b6b3a76400008482612e0a9190613ef0565b612e149190613f5e565b9650505050505050949350505050565b5f8173ffffffffffffffffffffffffffffffffffffffff168373ffffffffffffffffffffffffffffffffffffffff1610612e86578183604051602001612e6b929190614cc3565b60405160208183030381529060405280519060200120612eb0565b8282604051602001612e99929190614cc3565b604051602081830303815290604052805190602001205b905092915050565b828054828255905f5260205f20908101928215612efe579160200282015b82811115612efd578251829081612eed9190614182565b5091602001919060010190612ed6565b5b509050612f0b9190612fd3565b5090565b828054828255905f5260205f20908101928215612f49579160200282015b82811115612f48578251825591602001919060010190612f2d565b5b509050612f569190612ff6565b5090565b508054612f6690613fbb565b5f825580601f10612f775750612f94565b601f0160209004905f5260205f2090810190612f939190612ff6565b5b50565b5080545f8255905f5260205f2090810190612fb29190612fd3565b50565b5080545f8255905f5260205f2090810190612fd09190612ff6565b50565b5b80821115612ff2575f8181612fe99190612f5a565b50600101612fd4565b5090565b5b8082111561300d575f815f905550600101612ff7565b5090565b5f604051905090565b5f5ffd5b5f5ffd5b5f5ffd5b5f5ffd5b5f601f19601f8301169050919050565b7f4e487b71000000000000000000000000000000000000000000000000000000005f52604160045260245ffd5b6130708261302a565b810181811067ffffffffffffffff8211171561308f5761308e61303a565b5b80604052505050565b5f6130a1613011565b90506130ad8282613067565b919050565b5f67ffffffffffffffff8211156130cc576130cb61303a565b5b6130d58261302a565b9050602081019050919050565b828183375f83830152505050565b5f6131026130fd846130b2565b613098565b90508281526020810184848401111561311e5761311d613026565b5b6131298482856130e2565b509392505050565b5f82601f83011261314557613144613022565b5b81356131558482602086016130f0565b91505092915050565b5f602082840312156131735761317261301a565b5b5f82013567ffffffffffffffff8111156131905761318f61301e565b5b61319c84828501613131565b91505092915050565b5f73ffffffffffffffffffffffffffffffffffffffff82169050919050565b5f6131ce826131a5565b9050919050565b6131de816131c4565b82525050565b5f6020820190506131f75f8301846131d5565b92915050565b5f5ffd5b5f5ffd5b5f5f83601f84011261321a57613219613022565b5b8235905067ffffffffffffffff811115613237576132366131fd565b5b60208301915083602082028301111561325357613252613201565b5b9250929050565b5f5f602083850312156132705761326f61301a565b5b5f83013567ffffffffffffffff81111561328d5761328c61301e565b5b61329985828601613205565b92509250509250929050565b5f819050919050565b6132b7816132a5565b82525050565b5f6020820190506132d05f8301846132ae565b92915050565b5f819050919050565b6132e8816132d6565b81146132f2575f5ffd5b50565b5f81359050613303816132df565b92915050565b5f67ffffffffffffffff8211156133235761332261303a565b5b602082029050602081019050919050565b5f61334661334184613309565b613098565b9050808382526020820190506020840283018581111561336957613368613201565b5b835b818110156133b057803567ffffffffffffffff81111561338e5761338d613022565b5b80860161339b8982613131565b8552602085019450505060208101905061336b565b5050509392505050565b5f82601f8301126133ce576133cd613022565b5b81356133de848260208601613334565b91505092915050565b5f67ffffffffffffffff8211156134015761340061303a565b5b602082029050602081019050919050565b5f61342461341f846133e7565b613098565b9050808382526020820190506020840283018581111561344757613446613201565b5b835b81811015613470578061345c88826132f5565b845260208401935050602081019050613449565b5050509392505050565b5f82601f83011261348e5761348d613022565b5b813561349e848260208601613412565b91505092915050565b5f5f5f5f5f5f5f5f60e0898b0312156134c3576134c261301a565b5b5f89013567ffffffffffffffff8111156134e0576134df61301e565b5b6134ec8b828c01613131565b98505060206134fd8b828c016132f5565b975050604089013567ffffffffffffffff81111561351e5761351d61301e565b5b61352a8b828c016133ba565b965050606089013567ffffffffffffffff81111561354b5761354a61301e565b5b6135578b828c0161347a565b95505060806135688b828c016132f5565b94505060a089013567ffffffffffffffff8111156135895761358861301e565b5b6135958b828c01613131565b93505060c089013567ffffffffffffffff8111156135b6576135b561301e565b5b6135c28b828c01613205565b92509250509295985092959890939650565b6135dd816132d6565b82525050565b5f6020820190506135f65f8301846135d4565b92915050565b613605816132a5565b811461360f575f5ffd5b50565b5f81359050613620816135fc565b92915050565b5f6020828403121561363b5761363a61301a565b5b5f61364884828501613612565b91505092915050565b5f5f5f604084860312156136685761366761301a565b5b5f84013567ffffffffffffffff8111156136855761368461301e565b5b61369186828701613131565b935050602084013567ffffffffffffffff8111156136b2576136b161301e565b5b6136be86828701613205565b92509250509250925092565b5f819050919050565b5f6136ed6136e86136e3846131a5565b6136ca565b6131a5565b9050919050565b5f6136fe826136d3565b9050919050565b5f61370f826136f4565b9050919050565b61371f81613705565b82525050565b5f6020820190506137385f830184613716565b92915050565b5f5f5f5f606085870312156137565761375561301a565b5b5f85013567ffffffffffffffff8111156137735761377261301e565b5b61377f87828801613131565b9450506020613790878288016132f5565b935050604085013567ffffffffffffffff8111156137b1576137b061301e565b5b6137bd87828801613205565b925092505092959194509250565b5f5f5f604084860312156137e2576137e161301a565b5b5f6137ef868287016132f5565b935050602084013567ffffffffffffffff8111156138105761380f61301e565b5b61381c86828701613205565b92509250509250925092565b613831816131c4565b811461383b575f5ffd5b50565b5f8135905061384c81613828565b92915050565b5f602082840312156138675761386661301a565b5b5f6138748482850161383e565b91505092915050565b5f81519050919050565b5f82825260208201905092915050565b8281835e5f83830152505050565b5f6138af8261387d565b6138b98185613887565b93506138c9818560208601613897565b6138d28161302a565b840191505092915050565b5f6020820190508181035f8301526138f581846138a5565b905092915050565b5f602082840312156139125761391161301a565b5b5f61391f848285016132f5565b91505092915050565b5f60608201905061393b5f8301866131d5565b818103602083015261394d81856138a5565b905061395c60408301846135d4565b949350505050565b5f82825260208201905092915050565b5f819050919050565b5f82825260208201905092915050565b5f613998838561397d565b93506139a58385846130e2565b6139ae8361302a565b840190509392505050565b5f6139c584848461398d565b90509392505050565b5f5ffd5b5f5ffd5b5f5ffd5b5f5f833560016020038436030381126139f6576139f56139d6565b5b83810192508235915060208301925067ffffffffffffffff821115613a1e57613a1d6139ce565b5b600182023603831315613a3457613a336139d2565b5b509250929050565b5f602082019050919050565b5f613a538385613964565b935083602084028501613a6584613974565b805f5b87811015613aaa578484038952613a7f82846139da565b613a8a8682846139b9565b9550613a9584613a3c565b935060208b019a505050600181019050613a68565b50829750879450505050509392505050565b5f6020820190508181035f830152613ad5818486613a48565b90509392505050565b5f81519050613aec816132df565b92915050565b5f60208284031215613b0757613b0661301a565b5b5f613b1484828501613ade565b91505092915050565b7f496e73756666696369656e74206665652070726f766964656420666f722050795f8201527f7468207570646174650000000000000000000000000000000000000000000000602082015250565b5f613b77602983613887565b9150613b8282613b1d565b604082019050919050565b5f6020820190508181035f830152613ba481613b6b565b9050919050565b7f4e487b71000000000000000000000000000000000000000000000000000000005f52601160045260245ffd5b5f613be2826132d6565b9150613bed836132d6565b9250828203905081811115613c0557613c04613bab565b5b92915050565b7f417272617973206d75737420686176652073616d65206c656e677468000000005f82015250565b5f613c3f601c83613887565b9150613c4a82613c0b565b602082019050919050565b5f6020820190508181035f830152613c6c81613c33565b9050919050565b7f4e487b71000000000000000000000000000000000000000000000000000000005f52603260045260245ffd5b5f613caa826132d6565b9150613cb5836132d6565b9250828201905080821115613ccd57613ccc613bab565b5b92915050565b7f50657263656e7461676573206d7573742073756d20746f2031303030300000005f82015250565b5f613d07601d83613887565b9150613d1282613cd3565b602082019050919050565b5f6020820190508181035f830152613d3481613cfb565b9050919050565b7f496e73756666696369656e742066656520666f722050797468207570646174655f82015250565b5f613d6f602083613887565b9150613d7a82613d3b565b602082019050919050565b5f6020820190508181035f830152613d9c81613d63565b9050919050565b5f81905092915050565b5f613db78261387d565b613dc18185613da3565b9350613dd1818560208601613897565b80840191505092915050565b5f613de88284613dad565b915081905092915050565b7f496e76616c696420696e70757420746f6b656e000000000000000000000000005f82015250565b5f613e27601383613887565b9150613e3282613df3565b602082019050919050565b5f6020820190508181035f830152613e5481613e1b565b9050919050565b5f606082019050613e6e5f8301866131d5565b613e7b60208301856131d5565b613e8860408301846135d4565b949350505050565b5f8115159050919050565b613ea481613e90565b8114613eae575f5ffd5b50565b5f81519050613ebf81613e9b565b92915050565b5f60208284031215613eda57613ed961301a565b5b5f613ee784828501613eb1565b91505092915050565b5f613efa826132d6565b9150613f05836132d6565b9250828202613f13816132d6565b91508282048414831517613f2a57613f29613bab565b5b5092915050565b7f4e487b71000000000000000000000000000000000000000000000000000000005f52601260045260245ffd5b5f613f68826132d6565b9150613f73836132d6565b925082613f8357613f82613f31565b5b828204905092915050565b7f4e487b71000000000000000000000000000000000000000000000000000000005f52602260045260245ffd5b5f6002820490506001821680613fd257607f821691505b602082108103613fe557613fe4613f8e565b5b50919050565b5f819050815f5260205f209050919050565b5f6020601f8301049050919050565b5f82821b905092915050565b5f600883026140477fffffffffffffffffffffffffffffffffffffffffffffffffffffffffffffffff8261400c565b614051868361400c565b95508019841693508086168417925050509392505050565b5f61408361407e614079846132d6565b6136ca565b6132d6565b9050919050565b5f819050919050565b61409c83614069565b6140b06140a88261408a565b848454614018565b825550505050565b5f5f905090565b6140c76140b8565b6140d2818484614093565b505050565b5b818110156140f5576140ea5f826140bf565b6001810190506140d8565b5050565b601f82111561413a5761410b81613feb565b61411484613ffd565b81016020851015614123578190505b61413761412f85613ffd565b8301826140d7565b50505b505050565b5f82821c905092915050565b5f61415a5f198460080261413f565b1980831691505092915050565b5f614172838361414b565b9150826002028217905092915050565b61418b8261387d565b67ffffffffffffffff8111156141a4576141a361303a565b5b6141ae8254613fbb565b6141b98282856140f9565b5f60209050601f8311600181146141ea575f84156141d8578287015190505b6141e28582614167565b865550614249565b601f1984166141f886613feb565b5f5b8281101561421f578489015182556001820191506020850194506020810190506141fa565b8683101561423c5784890151614238601f89168261414b565b8355505b6001600288020188555050505b505050505050565b5f81519050919050565b5f82825260208201905092915050565b5f819050602082019050919050565b5f82825260208201905092915050565b5f6142948261387d565b61429e818561427a565b93506142ae818560208601613897565b6142b78161302a565b840191505092915050565b5f6142cd838361428a565b905092915050565b5f602082019050919050565b5f6142eb82614251565b6142f5818561425b565b9350836020820285016143078561426b565b805f5b85811015614342578484038952815161432385826142c2565b945061432e836142d5565b925060208a0199505060018101905061430a565b50829750879550505050505092915050565b5f81519050919050565b5f82825260208201905092915050565b5f819050602082019050919050565b614386816132d6565b82525050565b5f614397838361437d565b60208301905092915050565b5f602082019050919050565b5f6143b982614354565b6143c3818561435e565b93506143ce8361436e565b805f5b838110156143fe5781516143e5888261438c565b97506143f0836143a3565b9250506001810190506143d1565b5085935050505092915050565b5f6040820190508181035f83015261442381856142e1565b9050818103602083015261443781846143af565b90509392505050565b5f5ffd5b5f8160070b9050919050565b61445981614444565b8114614463575f5ffd5b50565b5f8151905061447481614450565b92915050565b5f67ffffffffffffffff82169050919050565b6144968161447a565b81146144a0575f5ffd5b50565b5f815190506144b18161448d565b92915050565b5f8160030b9050919050565b6144cc816144b7565b81146144d6575f5ffd5b50565b5f815190506144e7816144c3565b92915050565b5f6080828403121561450257614501614440565b5b61450c6080613098565b90505f61451b84828501614466565b5f83015250602061452e848285016144a3565b6020830152506040614542848285016144d9565b604083015250606061455684828501613ade565b60608301525092915050565b5f608082840312156145775761457661301a565b5b5f614584848285016144ed565b91505092915050565b7f5079746820707269636520697320696e76616c696400000000000000000000005f82015250565b5f6145c1601583613887565b91506145cc8261458d565b602082019050919050565b5f6020820190508181035f8301526145ee816145b5565b9050919050565b5f6145ff826144b7565b91507fffffffffffffffffffffffffffffffffffffffffffffffffffffffff80000000820361463157614630613bab565b5b815f039050919050565b5f8160011c9050919050565b5f5f8291508390505b60018511156146905780860481111561466c5761466b613bab565b5b600185161561467b5780820291505b80810290506146898561463b565b9450614650565b94509492505050565b5f826146a85760019050614763565b816146b5575f9050614763565b81600181146146cb57600281146146d557614704565b6001915050614763565b60ff8411156146e7576146e6613bab565b5b8360020a9150848211156146fe576146fd613bab565b5b50614763565b5060208310610133831016604e8410600b84101617156147395782820a90508381111561473457614733613bab565b5b614763565b6147468484846001614647565b9250905081840481111561475d5761475c613bab565b5b81810290505b9392505050565b5f614774826132d6565b915061477f836132d6565b92506147ac7fffffffffffffffffffffffffffffffffffffffffffffffffffffffffffffffff8484614699565b905092915050565b7f50726963652066656564206e6f7420737570706f7274656400000000000000005f82015250565b5f6147e8601883613887565b91506147f3826147b4565b602082019050919050565b5f6020820190508181035f830152614815816147dc565b9050919050565b7f496e73756666696369656e74204554483a204d75737420636f766572205079745f8201527f682066656520616e6420746f6b656e20636f7374000000000000000000000000602082015250565b5f614876603483613887565b91506148818261481c565b604082019050919050565b5f6020820190508181035f8301526148a38161486a565b9050919050565b7f546f6b656e206e6f7420737570706f72746564000000000000000000000000005f82015250565b5f6148de601383613887565b91506148e9826148aa565b602082019050919050565b5f6020820190508181035f83015261490b816148d2565b9050919050565b5f6040820190506149255f8301856131d5565b61493260208301846135d4565b9392505050565b5f60408201905061494c5f8301856135d4565b61495960208301846135d4565b9392505050565b5f81905092915050565b50565b5f6149785f83614960565b91506149838261496a565b5f82019050919050565b5f6149978261496d565b9150819050919050565b7f5472616e73616374696f6e20756e7375636365737366756c00000000000000005f82015250565b5f6149d5601883613887565b91506149e0826149a1565b602082019050919050565b5f6020820190508181035f830152614a02816149c9565b9050919050565b5f81519050614a1781613828565b92915050565b5f60208284031215614a3257614a3161301a565b5b5f614a3f84828501614a09565b91505092915050565b7f4e6f7420746865206f776e6572206f6620746865204e465400000000000000005f82015250565b5f614a7c601883613887565b9150614a8782614a48565b602082019050919050565b5f6020820190508181035f830152614aa981614a70565b9050919050565b7f4c6f636b20706572696f6420686173206e6f7420656e646564000000000000005f82015250565b5f614ae4601983613887565b9150614aef82614ab0565b602082019050919050565b5f6020820190508181035f830152614b1181614ad8565b9050919050565b5f8154614b2481613fbb565b614b2e8186613da3565b9450600182165f8114614b485760018114614b5d57614b8f565b60ff1983168652811515820286019350614b8f565b614b6685613feb565b5f5b83811015614b8757815481890152600182019150602081019050614b68565b838801955050505b50505092915050565b5f614ba38284614b18565b915081905092915050565b7f496e76616c6964206f757470757420746f6b656e0000000000000000000000005f82015250565b5f614be2601483613887565b9150614bed82614bae565b602082019050919050565b5f6020820190508181035f830152614c0f81614bd6565b9050919050565b7f5377617020636f6e7472616374206e6f7420666f756e640000000000000000005f82015250565b5f614c4a601783613887565b9150614c5582614c16565b602082019050919050565b5f6020820190508181035f830152614c7781614c3e565b9050919050565b5f8160601b9050919050565b5f614c9482614c7e565b9050919050565b5f614ca582614c8a565b9050919050565b614cbd614cb8826131c4565b614c9b565b82525050565b5f614cce8285614cac565b601482019150614cde8284614cac565b601482019150819050939250505056fea26469706673582212207826cae5c424095013ad0600aada83e912ca11c8fa7c6bd9982a808b7f6e141e64736f6c634300081e003360c060405234801561000f575f5ffd5b506040516116f83803806116f883398181016040528101906100319190610240565b335f73ffffffffffffffffffffffffffffffffffffffff168173ffffffffffffffffffffffffffffffffffffffff16036100a2575f6040517f1e4fbdf7000000000000000000000000000000000000000000000000000000008152600401610099919061028d565b60405180910390fd5b6100b18161012160201b60201c565b508173ffffffffffffffffffffffffffffffffffffffff1660808173ffffffffffffffffffffffffffffffffffffffff16815250508073ffffffffffffffffffffffffffffffffffffffff1660a08173ffffffffffffffffffffffffffffffffffffffff168152505050506102a6565b5f5f5f9054906101000a900473ffffffffffffffffffffffffffffffffffffffff169050815f5f6101000a81548173ffffffffffffffffffffffffffffffffffffffff021916908373ffffffffffffffffffffffffffffffffffffffff1602179055508173ffffffffffffffffffffffffffffffffffffffff168173ffffffffffffffffffffffffffffffffffffffff167f8be0079c531659141344cd1fd0a4f28419497f9722a3daafe3b4186f6b6457e060405160405180910390a35050565b5f5ffd5b5f73ffffffffffffffffffffffffffffffffffffffff82169050919050565b5f61020f826101e6565b9050919050565b61021f81610205565b8114610229575f5ffd5b50565b5f8151905061023a81610216565b92915050565b5f5f60408385031215610256576102556101e2565b5b5f6102638582860161022c565b92505060206102748582860161022c565b9150509250929050565b61028781610205565b82525050565b5f6020820190506102a05f83018461027e565b92915050565b60805160a0516114076102f15f395f818161046401528181610621015281816108c60152610a7b01525f81816102040152818161038b01528181610540015261099f01526114075ff3fe608060405234801561000f575f5ffd5b50600436106100b2575f3560e01c80639127cc691161006f5780639127cc6914610154578063e927fc5c14610170578063eced55261461018e578063f0b456e9146101ac578063f2fde38b146101c8578063fe08b58c146101e4576100b2565b80630fc63d10146100b65780631605b17f146100d45780634242ec52146100f25780635f64b55b1461010e578063715018a61461012c5780638da5cb5b14610136575b5f5ffd5b6100be610202565b6040516100cb9190610dac565b60405180910390f35b6100dc610226565b6040516100e99190610ddd565b60405180910390f35b61010c60048036038101906101079190610e24565b61022c565b005b61011661061f565b6040516101239190610dac565b60405180910390f35b610134610643565b005b61013e610656565b60405161014b9190610e82565b60405180910390f35b61016e60048036038101906101699190610ec5565b61067d565b005b610178610736565b6040516101859190610e82565b60405180910390f35b61019661075b565b6040516101a39190610ddd565b60405180910390f35b6101c660048036038101906101c19190610e24565b610767565b005b6101e260048036038101906101dd9190610ec5565b610b5a565b005b6101ec610bde565b6040516101f99190610ddd565b60405180910390f35b7f000000000000000000000000000000000000000000000000000000000000000081565b6103e881565b610234610656565b73ffffffffffffffffffffffffffffffffffffffff163373ffffffffffffffffffffffffffffffffffffffff1614806102b9575060015f9054906101000a900473ffffffffffffffffffffffffffffffffffffffff1673ffffffffffffffffffffffffffffffffffffffff163373ffffffffffffffffffffffffffffffffffffffff16145b6102f8576040517f08c379a00000000000000000000000000000000000000000000000000000000081526004016102ef90610f4a565b60405180910390fd5b5f821161033a576040517f08c379a000000000000000000000000000000000000000000000000000000000815260040161033190610fb2565b60405180910390fd5b5f6103e860038461034b9190610ffd565b610355919061106b565b90505f8184610364919061109b565b90505f670de0b6b3a7640000848361037c9190610ffd565b610386919061106b565b9050807f000000000000000000000000000000000000000000000000000000000000000073ffffffffffffffffffffffffffffffffffffffff166370a08231306040518263ffffffff1660e01b81526004016103e29190610e82565b602060405180830381865afa1580156103fd573d5f5f3e3d5ffd5b505050506040513d601f19601f8201168201806040525081019061042191906110e2565b1015610462576040517f08c379a000000000000000000000000000000000000000000000000000000000815260040161045990611157565b60405180910390fd5b7f000000000000000000000000000000000000000000000000000000000000000073ffffffffffffffffffffffffffffffffffffffff166323b872dd3330886040518463ffffffff1660e01b81526004016104bf93929190611175565b6020604051808303815f875af11580156104db573d5f5f3e3d5ffd5b505050506040513d601f19601f820116820180604052508101906104ff91906111df565b61053e576040517f08c379a000000000000000000000000000000000000000000000000000000000815260040161053590611254565b60405180910390fd5b7f000000000000000000000000000000000000000000000000000000000000000073ffffffffffffffffffffffffffffffffffffffff1663a9059cbb33836040518363ffffffff1660e01b8152600401610599929190611272565b6020604051808303815f875af11580156105b5573d5f5f3e3d5ffd5b505050506040513d601f19601f820116820180604052508101906105d991906111df565b610618576040517f08c379a000000000000000000000000000000000000000000000000000000000815260040161060f906112e3565b60405180910390fd5b5050505050565b7f000000000000000000000000000000000000000000000000000000000000000081565b61064b610be3565b6106545f610c6a565b565b5f5f5f9054906101000a900473ffffffffffffffffffffffffffffffffffffffff16905090565b610685610be3565b5f73ffffffffffffffffffffffffffffffffffffffff168173ffffffffffffffffffffffffffffffffffffffff16036106f3576040517f08c379a00000000000000000000000000000000000000000000000000000000081526004016106ea9061134b565b60405180910390fd5b8060015f6101000a81548173ffffffffffffffffffffffffffffffffffffffff021916908373ffffffffffffffffffffffffffffffffffffffff16021790555050565b60015f9054906101000a900473ffffffffffffffffffffffffffffffffffffffff1681565b670de0b6b3a764000081565b61076f610656565b73ffffffffffffffffffffffffffffffffffffffff163373ffffffffffffffffffffffffffffffffffffffff1614806107f4575060015f9054906101000a900473ffffffffffffffffffffffffffffffffffffffff1673ffffffffffffffffffffffffffffffffffffffff163373ffffffffffffffffffffffffffffffffffffffff16145b610833576040517f08c379a000000000000000000000000000000000000000000000000000000000815260040161082a90610f4a565b60405180910390fd5b5f8211610875576040517f08c379a000000000000000000000000000000000000000000000000000000000815260040161086c90610fb2565b60405180910390fd5b5f6103e86003846108869190610ffd565b610890919061106b565b90505f818461089f919061109b565b90505f670de0b6b3a764000084836108b79190610ffd565b6108c1919061106b565b9050807f000000000000000000000000000000000000000000000000000000000000000073ffffffffffffffffffffffffffffffffffffffff166370a08231306040518263ffffffff1660e01b815260040161091d9190610e82565b602060405180830381865afa158015610938573d5f5f3e3d5ffd5b505050506040513d601f19601f8201168201806040525081019061095c91906110e2565b101561099d576040517f08c379a0000000000000000000000000000000000000000000000000000000008152600401610994906113b3565b60405180910390fd5b7f000000000000000000000000000000000000000000000000000000000000000073ffffffffffffffffffffffffffffffffffffffff166323b872dd3330886040518463ffffffff1660e01b81526004016109fa93929190611175565b6020604051808303815f875af1158015610a16573d5f5f3e3d5ffd5b505050506040513d601f19601f82011682018060405250810190610a3a91906111df565b610a79576040517f08c379a0000000000000000000000000000000000000000000000000000000008152600401610a70906112e3565b60405180910390fd5b7f000000000000000000000000000000000000000000000000000000000000000073ffffffffffffffffffffffffffffffffffffffff1663a9059cbb33836040518363ffffffff1660e01b8152600401610ad4929190611272565b6020604051808303815f875af1158015610af0573d5f5f3e3d5ffd5b505050506040513d601f19601f82011682018060405250810190610b1491906111df565b610b53576040517f08c379a0000000000000000000000000000000000000000000000000000000008152600401610b4a90611254565b60405180910390fd5b5050505050565b610b62610be3565b5f73ffffffffffffffffffffffffffffffffffffffff168173ffffffffffffffffffffffffffffffffffffffff1603610bd2575f6040517f1e4fbdf7000000000000000000000000000000000000000000000000000000008152600401610bc99190610e82565b60405180910390fd5b610bdb81610c6a565b50565b600381565b610beb610d2b565b73ffffffffffffffffffffffffffffffffffffffff16610c09610656565b73ffffffffffffffffffffffffffffffffffffffff1614610c6857610c2c610d2b565b6040517f118cdaa7000000000000000000000000000000000000000000000000000000008152600401610c5f9190610e82565b60405180910390fd5b565b5f5f5f9054906101000a900473ffffffffffffffffffffffffffffffffffffffff169050815f5f6101000a81548173ffffffffffffffffffffffffffffffffffffffff021916908373ffffffffffffffffffffffffffffffffffffffff1602179055508173ffffffffffffffffffffffffffffffffffffffff168173ffffffffffffffffffffffffffffffffffffffff167f8be0079c531659141344cd1fd0a4f28419497f9722a3daafe3b4186f6b6457e060405160405180910390a35050565b5f33905090565b5f73ffffffffffffffffffffffffffffffffffffffff82169050919050565b5f819050919050565b5f610d74610d6f610d6a84610d32565b610d51565b610d32565b9050919050565b5f610d8582610d5a565b9050919050565b5f610d9682610d7b565b9050919050565b610da681610d8c565b82525050565b5f602082019050610dbf5f830184610d9d565b92915050565b5f819050919050565b610dd781610dc5565b82525050565b5f602082019050610df05f830184610dce565b92915050565b5f5ffd5b610e0381610dc5565b8114610e0d575f5ffd5b50565b5f81359050610e1e81610dfa565b92915050565b5f5f60408385031215610e3a57610e39610df6565b5b5f610e4785828601610e10565b9250506020610e5885828601610e10565b9150509250929050565b5f610e6c82610d32565b9050919050565b610e7c81610e62565b82525050565b5f602082019050610e955f830184610e73565b92915050565b610ea481610e62565b8114610eae575f5ffd5b50565b5f81359050610ebf81610e9b565b92915050565b5f60208284031215610eda57610ed9610df6565b5b5f610ee784828501610eb1565b91505092915050565b5f82825260208201905092915050565b7f4e6f7420617574686f72697a65640000000000000000000000000000000000005f82015250565b5f610f34600e83610ef0565b9150610f3f82610f00565b602082019050919050565b5f6020820190508181035f830152610f6181610f28565b9050919050565b7f496e76616c696420616d6f756e740000000000000000000000000000000000005f82015250565b5f610f9c600e83610ef0565b9150610fa782610f68565b602082019050919050565b5f6020820190508181035f830152610fc981610f90565b9050919050565b7f4e487b71000000000000000000000000000000000000000000000000000000005f52601160045260245ffd5b5f61100782610dc5565b915061101283610dc5565b925082820261102081610dc5565b9150828204841483151761103757611036610fd0565b5b5092915050565b7f4e487b71000000000000000000000000000000000000000000000000000000005f52601260045260245ffd5b5f61107582610dc5565b915061108083610dc5565b9250826110905761108f61103e565b5b828204905092915050565b5f6110a582610dc5565b91506110b083610dc5565b92508282039050818111156110c8576110c7610fd0565b5b92915050565b5f815190506110dc81610dfa565b92915050565b5f602082840312156110f7576110f6610df6565b5b5f611104848285016110ce565b91505092915050565b7f4e6f7420656e6f756768206c697175696469747920696e2041000000000000005f82015250565b5f611141601983610ef0565b915061114c8261110d565b602082019050919050565b5f6020820190508181035f83015261116e81611135565b9050919050565b5f6060820190506111885f830186610e73565b6111956020830185610e73565b6111a26040830184610dce565b949350505050565b5f8115159050919050565b6111be816111aa565b81146111c8575f5ffd5b50565b5f815190506111d9816111b5565b92915050565b5f602082840312156111f4576111f3610df6565b5b5f611201848285016111cb565b91505092915050565b7f546f6b656e42207472616e73666572206661696c6564000000000000000000005f82015250565b5f61123e601683610ef0565b91506112498261120a565b602082019050919050565b5f6020820190508181035f83015261126b81611232565b9050919050565b5f6040820190506112855f830185610e73565b6112926020830184610dce565b9392505050565b7f546f6b656e41207472616e73666572206661696c6564000000000000000000005f82015250565b5f6112cd601683610ef0565b91506112d882611299565b602082019050919050565b5f6020820190508181035f8301526112fa816112c1565b9050919050565b7f496e76616c69642063726561746f7220616464726573730000000000000000005f82015250565b5f611335601783610ef0565b915061134082611301565b602082019050919050565b5f6020820190508181035f83015261136281611329565b9050919050565b7f4e6f7420656e6f756768206c697175696469747920696e2042000000000000005f82015250565b5f61139d601983610ef0565b91506113a882611369565b602082019050919050565b5f6020820190508181035f8301526113ca81611391565b905091905056fea264697066735822122076e86ee31fed3c52b7dd23eac0c70932700890da6eab6076389d52228edd378864736f6c634300081e0033","linkReferences":{}},"methodIdentifiers":{"DECIMALS()":"2e0f2625","EUR_USD()":"d5932652","FLOW_USD()":"5e3a20f4","GBP_USD()":"392015b3","PythAddress()":"c211648c","SCALE()":"eced5526","USDC_USD()":"269ae32d","USD_CHF()":"7b7e7aa7","USD_INR()":"9666be7c","USD_YEN()":"4dd290a1","addressToName(address)":"e2a04b62","basketNFT()":"c93eb561","buyTokensFromFlow(string,bytes[])":"9f6476cf","executeBasket(string,uint256,string[],uint256[],uint256,string,bytes[])":"27f7e4be","fCHF_Address()":"2b6c86df","fEUR_Address()":"8477484a","fGBP_Address()":"79178b46","fINR_Address()":"703ad299","fUSD_Address()":"422830c9","fYEN_Address()":"a216ffd2","getNormalizedPrice(bytes32)":"60ca396f","nameToAddress(string)":"08d88aad","nameToId(string)":"f6d8f2cb","nftBaskets(uint256)":"ed343f54","redeemBasket(uint256,bytes[])":"e289c181","sellTokensForFlow(string,uint256,bytes[])":"d9e30eaa","swapContracts(bytes32)":"9dc38a02","updatePrice(bytes[])":"2592c0bf"},"id":42}