{"abi":[{"type":"constructor","inputs":[{"name":"_lzEndpoint","type":"address","internalType":"address"},{"name":"_owner","type":"address","internalType":"address"}],"stateMutability":"nonpayable"},{"type":"function","name":"_entropyCallback","inputs":[{"name":"sequence","type":"uint64","internalType":"uint64"},{"name":"provider","type":"address","internalType":"address"},{"name":"randomNumber","type":"bytes32","internalType":"bytes32"}],"outputs":[],"stateMutability":"nonpayable"},{"type":"function","name":"allowInitializePath","inputs":[{"name":"origin","type":"tuple","internalType":"struct Origin","components":[{"name":"srcEid","type":"uint32","internalType":"uint32"},{"name":"sender","type":"bytes32","internalType":"bytes32"},{"name":"nonce","type":"uint64","internalType":"uint64"}]}],"outputs":[{"name":"","type":"bool","internalType":"bool"}],"stateMutability":"view"},{"type":"function","name":"endpoint","inputs":[],"outputs":[{"name":"","type":"address","internalType":"contract ILayerZeroEndpointV2"}],"stateMutability":"view"},{"type":"function","name":"entropy","inputs":[],"outputs":[{"name":"","type":"address","internalType":"contract IEntropyV2"}],"stateMutability":"view"},{"type":"function","name":"entropyContract","inputs":[],"outputs":[{"name":"","type":"address","internalType":"address"}],"stateMutability":"view"},{"type":"function","name":"isComposeMsgSender","inputs":[{"name":"","type":"tuple","internalType":"struct Origin","components":[{"name":"srcEid","type":"uint32","internalType":"uint32"},{"name":"sender","type":"bytes32","internalType":"bytes32"},{"name":"nonce","type":"uint64","internalType":"uint64"}]},{"name":"","type":"bytes","internalType":"bytes"},{"name":"_sender","type":"address","internalType":"address"}],"outputs":[{"name":"","type":"bool","internalType":"bool"}],"stateMutability":"view"},{"type":"function","name":"lzReceive","inputs":[{"name":"_origin","type":"tuple","internalType":"struct Origin","components":[{"name":"srcEid","type":"uint32","internalType":"uint32"},{"name":"sender","type":"bytes32","internalType":"bytes32"},{"name":"nonce","type":"uint64","internalType":"uint64"}]},{"name":"_guid","type":"bytes32","internalType":"bytes32"},{"name":"_message","type":"bytes","internalType":"bytes"},{"name":"_executor","type":"address","internalType":"address"},{"name":"_extraData","type":"bytes","internalType":"bytes"}],"outputs":[],"stateMutability":"payable"},{"type":"function","name":"nextNonce","inputs":[{"name":"","type":"uint32","internalType":"uint32"},{"name":"","type":"bytes32","internalType":"bytes32"}],"outputs":[{"name":"nonce","type":"uint64","internalType":"uint64"}],"stateMutability":"view"},{"type":"function","name":"oAppVersion","inputs":[],"outputs":[{"name":"senderVersion","type":"uint64","internalType":"uint64"},{"name":"receiverVersion","type":"uint64","internalType":"uint64"}],"stateMutability":"pure"},{"type":"function","name":"owner","inputs":[],"outputs":[{"name":"","type":"address","internalType":"address"}],"stateMutability":"view"},{"type":"function","name":"peers","inputs":[{"name":"eid","type":"uint32","internalType":"uint32"}],"outputs":[{"name":"peer","type":"bytes32","internalType":"bytes32"}],"stateMutability":"view"},{"type":"function","name":"pendingRequests","inputs":[{"name":"","type":"uint64","internalType":"uint64"}],"outputs":[{"name":"originalRequester","type":"address","internalType":"address"},{"name":"destinationEid","type":"uint32","internalType":"uint32"},{"name":"lzFee","type":"tuple","internalType":"struct MessagingFee","components":[{"name":"nativeFee","type":"uint256","internalType":"uint256"},{"name":"lzTokenFee","type":"uint256","internalType":"uint256"}]}],"stateMutability":"view"},{"type":"function","name":"quoteFee","inputs":[{"name":"_destinationEid","type":"uint32","internalType":"uint32"}],"outputs":[{"name":"totalFee","type":"uint256","internalType":"uint256"}],"stateMutability":"view"},{"type":"function","name":"renounceOwnership","inputs":[],"outputs":[],"stateMutability":"nonpayable"},{"type":"function","name":"requestRandomNumber","inputs":[{"name":"_destinationEid","type":"uint32","internalType":"uint32"}],"outputs":[],"stateMutability":"payable"},{"type":"function","name":"setDelegate","inputs":[{"name":"_delegate","type":"address","internalType":"address"}],"outputs":[],"stateMutability":"nonpayable"},{"type":"function","name":"setPeer","inputs":[{"name":"_eid","type":"uint32","internalType":"uint32"},{"name":"_peer","type":"bytes32","internalType":"bytes32"}],"outputs":[],"stateMutability":"nonpayable"},{"type":"function","name":"transferOwnership","inputs":[{"name":"newOwner","type":"address","internalType":"address"}],"outputs":[],"stateMutability":"nonpayable"},{"type":"event","name":"OwnershipTransferred","inputs":[{"name":"previousOwner","type":"address","indexed":true,"internalType":"address"},{"name":"newOwner","type":"address","indexed":true,"internalType":"address"}],"anonymous":false},{"type":"event","name":"PeerSet","inputs":[{"name":"eid","type":"uint32","indexed":false,"internalType":"uint32"},{"name":"peer","type":"bytes32","indexed":false,"internalType":"bytes32"}],"anonymous":false},{"type":"event","name":"RandomNumberRequested","inputs":[{"name":"pythSequenceNumber","type":"uint64","indexed":true,"internalType":"uint64"},{"name":"requester","type":"address","indexed":true,"internalType":"address"},{"name":"destinationEid","type":"uint32","indexed":false,"internalType":"uint32"}],"anonymous":false},{"type":"event","name":"RandomNumberSent","inputs":[{"name":"pythSequenceNumber","type":"uint64","indexed":true,"internalType":"uint64"},{"name":"randomNumber","type":"bytes32","indexed":false,"internalType":"bytes32"}],"anonymous":false},{"type":"error","name":"InvalidDelegate","inputs":[]},{"type":"error","name":"InvalidEndpointCall","inputs":[]},{"type":"error","name":"InvalidOptionType","inputs":[{"name":"optionType","type":"uint16","internalType":"uint16"}]},{"type":"error","name":"LzTokenUnavailable","inputs":[]},{"type":"error","name":"NoPeer","inputs":[{"name":"eid","type":"uint32","internalType":"uint32"}]},{"type":"error","name":"NotEnoughNative","inputs":[{"name":"msgValue","type":"uint256","internalType":"uint256"}]},{"type":"error","name":"OnlyEndpoint","inputs":[{"name":"addr","type":"address","internalType":"address"}]},{"type":"error","name":"OnlyPeer","inputs":[{"name":"eid","type":"uint32","internalType":"uint32"},{"name":"sender","type":"bytes32","internalType":"bytes32"}]},{"type":"error","name":"OwnableInvalidOwner","inputs":[{"name":"owner","type":"address","internalType":"address"}]},{"type":"error","name":"OwnableUnauthorizedAccount","inputs":[{"name":"account","type":"address","internalType":"address"}]},{"type":"error","name":"SafeCastOverflowedUintDowncast","inputs":[{"name":"bits","type":"uint8","internalType":"uint8"},{"name":"value","type":"uint256","internalType":"uint256"}]},{"type":"error","name":"SafeERC20FailedOperation","inputs":[{"name":"token","type":"address","internalType":"address"}]}],"bytecode":{"object":"0x60a060405234801561000f575f5ffd5b50604051612d85380380612d85833981810160405281019061003191906102e1565b81818181845f73ffffffffffffffffffffffffffffffffffffffff168173ffffffffffffffffffffffffffffffffffffffff16036100a6575f6040517f1e4fbdf700000000000000000000000000000000000000000000000000000000815260040161009d919061032e565b60405180910390fd5b6100b5816101c260201b60201c565b508173ffffffffffffffffffffffffffffffffffffffff1660808173ffffffffffffffffffffffffffffffffffffffff16815250505f73ffffffffffffffffffffffffffffffffffffffff168173ffffffffffffffffffffffffffffffffffffffff160361014f576040517fb586360400000000000000000000000000000000000000000000000000000000815260040160405180910390fd5b60805173ffffffffffffffffffffffffffffffffffffffff1663ca5eb5e1826040518263ffffffff1660e01b815260040161018a919061032e565b5f604051808303815f87803b1580156101a1575f5ffd5b505af11580156101b3573d5f5f3e3d5ffd5b50505050505050505050610347565b5f5f5f9054906101000a900473ffffffffffffffffffffffffffffffffffffffff169050815f5f6101000a81548173ffffffffffffffffffffffffffffffffffffffff021916908373ffffffffffffffffffffffffffffffffffffffff1602179055508173ffffffffffffffffffffffffffffffffffffffff168173ffffffffffffffffffffffffffffffffffffffff167f8be0079c531659141344cd1fd0a4f28419497f9722a3daafe3b4186f6b6457e060405160405180910390a35050565b5f5ffd5b5f73ffffffffffffffffffffffffffffffffffffffff82169050919050565b5f6102b082610287565b9050919050565b6102c0816102a6565b81146102ca575f5ffd5b50565b5f815190506102db816102b7565b92915050565b5f5f604083850312156102f7576102f6610283565b5b5f610304858286016102cd565b9250506020610315858286016102cd565b9150509250929050565b610328816102a6565b82525050565b5f6020820190506103415f83018461031f565b92915050565b6080516129fc6103895f395f81816104500152818161068d01528181610c8c0152818161131401528181611425015281816116e301526117db01526129fc5ff3fe608060405260043610610108575f3560e01c806382413eac11610094578063c9caa0c311610063578063c9caa0c314610345578063ca5eb5e114610381578063f2fde38b146103a9578063f91b59c7146103d1578063ff7bd03d146103fb57610108565b806382413eac146102875780638da5cb5b146102c3578063b5f3abb0146102ed578063bb0b6a531461030957610108565b806352a5f1f8116100db57806352a5f1f8146101a55780635e280f11146101cd57806365b07d58146101f7578063715018a6146102355780637d25a05e1461024b57610108565b806313137d651461010c57806317442b70146101285780633400288b1461015357806347ce07cc1461017b575b5f5ffd5b61012660048036038101906101219190611b00565b610437565b005b348015610133575f5ffd5b5061013c610557565b60405161014a929190611bd9565b60405180910390f35b34801561015e575f5ffd5b5061017960048036038101906101749190611c39565b610565565b005b348015610186575f5ffd5b5061018f61057b565b60405161019c9190611cd2565b60405180910390f35b3480156101b0575f5ffd5b506101cb60048036038101906101c69190611d15565b610593565b005b3480156101d8575f5ffd5b506101e161068b565b6040516101ee9190611d85565b60405180910390f35b348015610202575f5ffd5b5061021d60048036038101906102189190611d9e565b6106af565b60405161022c93929190611e2c565b60405180910390f35b348015610240575f5ffd5b50610249610720565b005b348015610256575f5ffd5b50610271600480360381019061026c9190611c39565b610733565b60405161027e9190611e61565b60405180910390f35b348015610292575f5ffd5b506102ad60048036038101906102a89190611e7a565b61073d565b6040516102ba9190611f05565b60405180910390f35b3480156102ce575f5ffd5b506102d7610777565b6040516102e49190611f1e565b60405180910390f35b61030760048036038101906103029190611f37565b61079e565b005b348015610314575f5ffd5b5061032f600480360381019061032a9190611f37565b610b3f565b60405161033c9190611f71565b60405180910390f35b348015610350575f5ffd5b5061036b60048036038101906103669190611f37565b610b54565b6040516103789190611f99565b60405180910390f35b34801561038c575f5ffd5b506103a760048036038101906103a29190611fb2565b610c82565b005b3480156103b4575f5ffd5b506103cf60048036038101906103ca9190611fb2565b610d13565b005b3480156103dc575f5ffd5b506103e5610d97565b6040516103f29190611f1e565b60405180910390f35b348015610406575f5ffd5b50610421600480360381019061041c9190611fdd565b610daf565b60405161042e9190611f05565b60405180910390f35b3373ffffffffffffffffffffffffffffffffffffffff167f000000000000000000000000000000000000000000000000000000000000000073ffffffffffffffffffffffffffffffffffffffff16146104c757336040517f91ac5e4f0000000000000000000000000000000000000000000000000000000081526004016104be9190611f1e565b60405180910390fd5b86602001356104e6885f0160208101906104e19190611f37565b610dec565b1461053f57865f0160208101906104fd9190611f37565b87602001356040517fc26bebcc000000000000000000000000000000000000000000000000000000008152600401610536929190612008565b60405180910390fd5b61054e87878787878787610e5d565b50505050505050565b5f5f60016002915091509091565b61056d610e66565b6105778282610eed565b5050565b7341c9e39574f40ad34c79f1c99b66a45efb830d4c81565b5f61059c610f4c565b90505f73ffffffffffffffffffffffffffffffffffffffff168173ffffffffffffffffffffffffffffffffffffffff160361060c576040517f08c379a000000000000000000000000000000000000000000000000000000000815260040161060390612089565b60405180910390fd5b8073ffffffffffffffffffffffffffffffffffffffff163373ffffffffffffffffffffffffffffffffffffffff161461067a576040517f08c379a000000000000000000000000000000000000000000000000000000000815260040161067190612117565b60405180910390fd5b610685848484610f67565b50505050565b7f000000000000000000000000000000000000000000000000000000000000000081565b6002602052805f5260405f205f91509050805f015f9054906101000a900473ffffffffffffffffffffffffffffffffffffffff1690805f0160149054906101000a900463ffffffff1690806001016040518060400160405290815f8201548152602001600182015481525050905083565b610728610e66565b6107315f611189565b565b5f5f905092915050565b5f3073ffffffffffffffffffffffffffffffffffffffff168273ffffffffffffffffffffffffffffffffffffffff16149050949350505050565b5f5f5f9054906101000a900473ffffffffffffffffffffffffffffffffffffffff16905090565b5f7341c9e39574f40ad34c79f1c99b66a45efb830d4c73ffffffffffffffffffffffffffffffffffffffff16638204b67a6040518163ffffffff1660e01b8152600401602060405180830381865afa1580156107fc573d5f5f3e3d5ffd5b505050506040513d601f19601f82011682018060405250810190610820919061217a565b90505f61084262030d405f61083361124a565b6112729092919063ffffffff16565b90505f61089e84602067ffffffffffffffff811115610864576108636121a5565b5b6040519080825280601f01601f1916602001820160405280156108965781602001600182028036833780820191505090505b50845f61130a565b90505f815f0151846fffffffffffffffffffffffffffffffff166108c291906121ff565b905080341015610907576040517f08c379a00000000000000000000000000000000000000000000000000000000081526004016108fe9061227c565b60405180910390fd5b5f7341c9e39574f40ad34c79f1c99b66a45efb830d4c73ffffffffffffffffffffffffffffffffffffffff16637b43155d866fffffffffffffffffffffffffffffffff166040518263ffffffff1660e01b815260040160206040518083038185885af1158015610979573d5f5f3e3d5ffd5b50505050506040513d601f19601f8201168201806040525081019061099e91906122ae565b905060405180606001604052803373ffffffffffffffffffffffffffffffffffffffff1681526020018763ffffffff1681526020018481525060025f8367ffffffffffffffff1667ffffffffffffffff1681526020019081526020015f205f820151815f015f6101000a81548173ffffffffffffffffffffffffffffffffffffffff021916908373ffffffffffffffffffffffffffffffffffffffff1602179055506020820151815f0160146101000a81548163ffffffff021916908363ffffffff1602179055506040820151816001015f820151815f01556020820151816001015550509050503373ffffffffffffffffffffffffffffffffffffffff168167ffffffffffffffff167f410c9b3f76ba0fc360f537d85040b8e5dab262108d9385e6b308dd1a3f38b77788604051610ad791906122d9565b60405180910390a381341115610b37573373ffffffffffffffffffffffffffffffffffffffff166108fc8334610b0d91906122f2565b90811502906040515f60405180830381858888f19350505050158015610b35573d5f5f3e3d5ffd5b505b505050505050565b6001602052805f5260405f205f915090505481565b5f5f7341c9e39574f40ad34c79f1c99b66a45efb830d4c73ffffffffffffffffffffffffffffffffffffffff16638204b67a6040518163ffffffff1660e01b8152600401602060405180830381865afa158015610bb3573d5f5f3e3d5ffd5b505050506040513d601f19601f82011682018060405250810190610bd7919061217a565b90505f610bf962030d405f610bea61124a565b6112729092919063ffffffff16565b90505f610c5585602067ffffffffffffffff811115610c1b57610c1a6121a5565b5b6040519080825280601f01601f191660200182016040528015610c4d5781602001600182028036833780820191505090505b50845f61130a565b9050805f0151836fffffffffffffffffffffffffffffffff16610c7891906121ff565b9350505050919050565b610c8a610e66565b7f000000000000000000000000000000000000000000000000000000000000000073ffffffffffffffffffffffffffffffffffffffff1663ca5eb5e1826040518263ffffffff1660e01b8152600401610ce39190611f1e565b5f604051808303815f87803b158015610cfa575f5ffd5b505af1158015610d0c573d5f5f3e3d5ffd5b5050505050565b610d1b610e66565b5f73ffffffffffffffffffffffffffffffffffffffff168173ffffffffffffffffffffffffffffffffffffffff1603610d8b575f6040517f1e4fbdf7000000000000000000000000000000000000000000000000000000008152600401610d829190611f1e565b60405180910390fd5b610d9481611189565b50565b7341c9e39574f40ad34c79f1c99b66a45efb830d4c81565b5f816020013560015f845f016020810190610dca9190611f37565b63ffffffff1663ffffffff1681526020019081526020015f2054149050919050565b5f5f60015f8463ffffffff1663ffffffff1681526020019081526020015f205490505f5f1b8103610e5457826040517ff6ff4fb7000000000000000000000000000000000000000000000000000000008152600401610e4b91906122d9565b60405180910390fd5b80915050919050565b50505050505050565b610e6e6113eb565b73ffffffffffffffffffffffffffffffffffffffff16610e8c610777565b73ffffffffffffffffffffffffffffffffffffffff1614610eeb57610eaf6113eb565b6040517f118cdaa7000000000000000000000000000000000000000000000000000000008152600401610ee29190611f1e565b60405180910390fd5b565b8060015f8463ffffffff1663ffffffff1681526020019081526020015f20819055507f238399d427b947898edb290f5ff0f9109849b1c3ba196a42e35f00c50a54b98b8282604051610f40929190612008565b60405180910390a15050565b5f7341c9e39574f40ad34c79f1c99b66a45efb830d4c905090565b5f60025f8567ffffffffffffffff1667ffffffffffffffff1681526020019081526020015f2090505f73ffffffffffffffffffffffffffffffffffffffff16815f015f9054906101000a900473ffffffffffffffffffffffffffffffffffffffff1673ffffffffffffffffffffffffffffffffffffffff160361101f576040517f08c379a000000000000000000000000000000000000000000000000000000000815260040161101690612395565b60405180910390fd5b5f826040516020016110319190611f71565b60405160208183030381529060405290505f61106262030d405f61105361124a565b6112729092919063ffffffff16565b90506110c7835f0160149054906101000a900463ffffffff168383866001016040518060400160405290815f8201548152602001600182015481525050875f015f9054906101000a900473ffffffffffffffffffffffffffffffffffffffff166113f2565b508567ffffffffffffffff167f14f836e3c39708d5f81c344ea6d24c8bd2a2654b1fc672dfd94ee98bd2467b06856040516111029190611f71565b60405180910390a260025f8767ffffffffffffffff1667ffffffffffffffff1681526020019081526020015f205f5f82015f6101000a81549073ffffffffffffffffffffffffffffffffffffffff02191690555f820160146101000a81549063ffffffff0219169055600182015f5f82015f9055600182015f905550505050505050505050565b5f5f5f9054906101000a900473ffffffffffffffffffffffffffffffffffffffff169050815f5f6101000a81548173ffffffffffffffffffffffffffffffffffffffff021916908373ffffffffffffffffffffffffffffffffffffffff1602179055508173ffffffffffffffffffffffffffffffffffffffff168173ffffffffffffffffffffffffffffffffffffffff167f8be0079c531659141344cd1fd0a4f28419497f9722a3daafe3b4186f6b6457e060405160405180910390a35050565b6060600360405160200161125e91906123f4565b604051602081830303815290604052905090565b606083600361ffff1661128e5f8361150890919063ffffffff16565b61ffff16146112e6576112aa5f8261150890919063ffffffff16565b6040517f3a51740d0000000000000000000000000000000000000000000000000000000081526004016112dd919061241d565b60405180910390fd5b5f6112f1858561156d565b90506112ff866001836115d8565b925050509392505050565b611312611998565b7f000000000000000000000000000000000000000000000000000000000000000073ffffffffffffffffffffffffffffffffffffffff1663ddc28c586040518060a001604052808863ffffffff16815260200161136e89610dec565b8152602001878152602001868152602001851515815250306040518363ffffffff1660e01b81526004016113a392919061254d565b6040805180830381865afa1580156113bd573d5f5f3e3d5ffd5b505050506040513d601f19601f820116820180604052508101906113e19190612641565b9050949350505050565b5f33905090565b6113fa6119b0565b5f611407845f0151611693565b90505f846020015111156114235761142284602001516116e0565b5b7f000000000000000000000000000000000000000000000000000000000000000073ffffffffffffffffffffffffffffffffffffffff16632637a450826040518060a001604052808b63ffffffff1681526020016114808c610dec565b81526020018a81526020018981526020015f8960200151111515815250866040518463ffffffff1660e01b81526004016114bb92919061254d565b60806040518083038185885af11580156114d7573d5f5f3e3d5ffd5b50505050506040513d601f19601f820116820180604052508101906114fc91906126e1565b91505095945050505050565b5f60028261151691906121ff565b83511015611559576040517f08c379a000000000000000000000000000000000000000000000000000000000815260040161155090612756565b60405180910390fd5b5f8260028501015190508091505092915050565b60605f826fffffffffffffffffffffffffffffffff16146115af57828260405160200161159b9291906127a8565b6040516020818303038152906040526115d0565b826040516020016115c091906127d3565b6040516020818303038152906040525b905092915050565b606083600361ffff166115f45f8361150890919063ffffffff16565b61ffff161461164c576116105f8261150890919063ffffffff16565b6040517f3a51740d000000000000000000000000000000000000000000000000000000008152600401611643919061241d565b60405180910390fd5b8460018061165a8651611826565b61166491906127ed565b868660405160200161167a95949392919061289c565b6040516020818303038152906040529150509392505050565b5f8134146116d857346040517f9f7041200000000000000000000000000000000000000000000000000000000081526004016116cf9190611f99565b60405180910390fd5b819050919050565b5f7f000000000000000000000000000000000000000000000000000000000000000073ffffffffffffffffffffffffffffffffffffffff1663e4fe1d946040518163ffffffff1660e01b8152600401602060405180830381865afa15801561174a573d5f5f3e3d5ffd5b505050506040513d601f19601f8201168201806040525081019061176e9190612906565b90505f73ffffffffffffffffffffffffffffffffffffffff168173ffffffffffffffffffffffffffffffffffffffff16036117d5576040517f5373352a00000000000000000000000000000000000000000000000000000000815260040160405180910390fd5b611822337f0000000000000000000000000000000000000000000000000000000000000000848473ffffffffffffffffffffffffffffffffffffffff1661187b909392919063ffffffff16565b5050565b5f61ffff8016821115611873576010826040517f6dfcc65000000000000000000000000000000000000000000000000000000000815260040161186a92919061296a565b60405180910390fd5b819050919050565b6118f7848573ffffffffffffffffffffffffffffffffffffffff166323b872dd8686866040516024016118b093929190612991565b604051602081830303815290604052915060e01b6020820180517bffffffffffffffffffffffffffffffffffffffffffffffffffffffff83818316178352505050506118fd565b50505050565b5f5f60205f8451602086015f885af18061191c576040513d5f823e3d81fd5b3d92505f519150505f8214611935576001811415611950565b5f8473ffffffffffffffffffffffffffffffffffffffff163b145b1561199257836040517f5274afe70000000000000000000000000000000000000000000000000000000081526004016119899190611f1e565b60405180910390fd5b50505050565b60405180604001604052805f81526020015f81525090565b60405180606001604052805f81526020015f67ffffffffffffffff1681526020016119d9611998565b81525090565b5f604051905090565b5f5ffd5b5f5ffd5b5f5ffd5b5f60608284031215611a0957611a086119f0565b5b81905092915050565b5f819050919050565b611a2481611a12565b8114611a2e575f5ffd5b50565b5f81359050611a3f81611a1b565b92915050565b5f5ffd5b5f5ffd5b5f5ffd5b5f5f83601f840112611a6657611a65611a45565b5b8235905067ffffffffffffffff811115611a8357611a82611a49565b5b602083019150836001820283011115611a9f57611a9e611a4d565b5b9250929050565b5f73ffffffffffffffffffffffffffffffffffffffff82169050919050565b5f611acf82611aa6565b9050919050565b611adf81611ac5565b8114611ae9575f5ffd5b50565b5f81359050611afa81611ad6565b92915050565b5f5f5f5f5f5f5f60e0888a031215611b1b57611b1a6119e8565b5b5f611b288a828b016119f4565b9750506060611b398a828b01611a31565b965050608088013567ffffffffffffffff811115611b5a57611b596119ec565b5b611b668a828b01611a51565b955095505060a0611b798a828b01611aec565b93505060c088013567ffffffffffffffff811115611b9a57611b996119ec565b5b611ba68a828b01611a51565b925092505092959891949750929550565b5f67ffffffffffffffff82169050919050565b611bd381611bb7565b82525050565b5f604082019050611bec5f830185611bca565b611bf96020830184611bca565b9392505050565b5f63ffffffff82169050919050565b611c1881611c00565b8114611c22575f5ffd5b50565b5f81359050611c3381611c0f565b92915050565b5f5f60408385031215611c4f57611c4e6119e8565b5b5f611c5c85828601611c25565b9250506020611c6d85828601611a31565b9150509250929050565b5f819050919050565b5f611c9a611c95611c9084611aa6565b611c77565b611aa6565b9050919050565b5f611cab82611c80565b9050919050565b5f611cbc82611ca1565b9050919050565b611ccc81611cb2565b82525050565b5f602082019050611ce55f830184611cc3565b92915050565b611cf481611bb7565b8114611cfe575f5ffd5b50565b5f81359050611d0f81611ceb565b92915050565b5f5f5f60608486031215611d2c57611d2b6119e8565b5b5f611d3986828701611d01565b9350506020611d4a86828701611aec565b9250506040611d5b86828701611a31565b9150509250925092565b5f611d6f82611ca1565b9050919050565b611d7f81611d65565b82525050565b5f602082019050611d985f830184611d76565b92915050565b5f60208284031215611db357611db26119e8565b5b5f611dc084828501611d01565b91505092915050565b611dd281611ac5565b82525050565b611de181611c00565b82525050565b5f819050919050565b611df981611de7565b82525050565b604082015f820151611e135f850182611df0565b506020820151611e266020850182611df0565b50505050565b5f608082019050611e3f5f830186611dc9565b611e4c6020830185611dd8565b611e596040830184611dff565b949350505050565b5f602082019050611e745f830184611bca565b92915050565b5f5f5f5f60a08587031215611e9257611e916119e8565b5b5f611e9f878288016119f4565b945050606085013567ffffffffffffffff811115611ec057611ebf6119ec565b5b611ecc87828801611a51565b93509350506080611edf87828801611aec565b91505092959194509250565b5f8115159050919050565b611eff81611eeb565b82525050565b5f602082019050611f185f830184611ef6565b92915050565b5f602082019050611f315f830184611dc9565b92915050565b5f60208284031215611f4c57611f4b6119e8565b5b5f611f5984828501611c25565b91505092915050565b611f6b81611a12565b82525050565b5f602082019050611f845f830184611f62565b92915050565b611f9381611de7565b82525050565b5f602082019050611fac5f830184611f8a565b92915050565b5f60208284031215611fc757611fc66119e8565b5b5f611fd484828501611aec565b91505092915050565b5f60608284031215611ff257611ff16119e8565b5b5f611fff848285016119f4565b91505092915050565b5f60408201905061201b5f830185611dd8565b6120286020830184611f62565b9392505050565b5f82825260208201905092915050565b7f456e74726f70792061646472657373206e6f74207365740000000000000000005f82015250565b5f61207360178361202f565b915061207e8261203f565b602082019050919050565b5f6020820190508181035f8301526120a081612067565b9050919050565b7f4f6e6c7920456e74726f70792063616e2063616c6c20746869732066756e63745f8201527f696f6e0000000000000000000000000000000000000000000000000000000000602082015250565b5f61210160238361202f565b915061210c826120a7565b604082019050919050565b5f6020820190508181035f83015261212e816120f5565b9050919050565b5f6fffffffffffffffffffffffffffffffff82169050919050565b61215981612135565b8114612163575f5ffd5b50565b5f8151905061217481612150565b92915050565b5f6020828403121561218f5761218e6119e8565b5b5f61219c84828501612166565b91505092915050565b7f4e487b71000000000000000000000000000000000000000000000000000000005f52604160045260245ffd5b7f4e487b71000000000000000000000000000000000000000000000000000000005f52601160045260245ffd5b5f61220982611de7565b915061221483611de7565b925082820190508082111561222c5761222b6121d2565b5b92915050565b7f526e6753656e6465723a20496e73756666696369656e74206665652e000000005f82015250565b5f612266601c8361202f565b915061227182612232565b602082019050919050565b5f6020820190508181035f8301526122938161225a565b9050919050565b5f815190506122a881611ceb565b92915050565b5f602082840312156122c3576122c26119e8565b5b5f6122d08482850161229a565b91505092915050565b5f6020820190506122ec5f830184611dd8565b92915050565b5f6122fc82611de7565b915061230783611de7565b925082820390508181111561231f5761231e6121d2565b5b92915050565b7f526e6753656e6465723a20496e76616c69642073657175656e6365206e756d625f8201527f65722e0000000000000000000000000000000000000000000000000000000000602082015250565b5f61237f60238361202f565b915061238a82612325565b604082019050919050565b5f6020820190508181035f8301526123ac81612373565b9050919050565b5f61ffff82169050919050565b5f8160f01b9050919050565b5f6123d6826123c0565b9050919050565b6123ee6123e9826123b3565b6123cc565b82525050565b5f6123ff82846123dd565b60028201915081905092915050565b612417816123b3565b82525050565b5f6020820190506124305f83018461240e565b92915050565b61243f81611c00565b82525050565b61244e81611a12565b82525050565b5f81519050919050565b5f82825260208201905092915050565b8281835e5f83830152505050565b5f601f19601f8301169050919050565b5f61249682612454565b6124a0818561245e565b93506124b081856020860161246e565b6124b98161247c565b840191505092915050565b6124cd81611eeb565b82525050565b5f60a083015f8301516124e85f860182612436565b5060208301516124fb6020860182612445565b5060408301518482036040860152612513828261248c565b9150506060830151848203606086015261252d828261248c565b915050608083015161254260808601826124c4565b508091505092915050565b5f6040820190508181035f83015261256581856124d3565b90506125746020830184611dc9565b9392505050565b5f5ffd5b6125888261247c565b810181811067ffffffffffffffff821117156125a7576125a66121a5565b5b80604052505050565b5f6125b96119df565b90506125c5828261257f565b919050565b6125d381611de7565b81146125dd575f5ffd5b50565b5f815190506125ee816125ca565b92915050565b5f604082840312156126095761260861257b565b5b61261360406125b0565b90505f612622848285016125e0565b5f830152506020612635848285016125e0565b60208301525092915050565b5f60408284031215612656576126556119e8565b5b5f612663848285016125f4565b91505092915050565b5f8151905061267a81611a1b565b92915050565b5f608082840312156126955761269461257b565b5b61269f60606125b0565b90505f6126ae8482850161266c565b5f8301525060206126c18482850161229a565b60208301525060406126d5848285016125f4565b60408301525092915050565b5f608082840312156126f6576126f56119e8565b5b5f61270384828501612680565b91505092915050565b7f746f55696e7431365f6f75744f66426f756e64730000000000000000000000005f82015250565b5f61274060148361202f565b915061274b8261270c565b602082019050919050565b5f6020820190508181035f83015261276d81612734565b9050919050565b5f8160801b9050919050565b5f61278a82612774565b9050919050565b6127a261279d82612135565b612780565b82525050565b5f6127b38285612791565b6010820191506127c38284612791565b6010820191508190509392505050565b5f6127de8284612791565b60108201915081905092915050565b5f6127f7826123b3565b9150612802836123b3565b9250828201905061ffff81111561281c5761281b6121d2565b5b92915050565b5f81905092915050565b5f61283682612454565b6128408185612822565b935061285081856020860161246e565b80840191505092915050565b5f60ff82169050919050565b5f8160f81b9050919050565b5f61287e82612868565b9050919050565b6128966128918261285c565b612874565b82525050565b5f6128a7828861282c565b91506128b38287612885565b6001820191506128c382866123dd565b6002820191506128d38285612885565b6001820191506128e3828461282c565b91508190509695505050505050565b5f8151905061290081611ad6565b92915050565b5f6020828403121561291b5761291a6119e8565b5b5f612928848285016128f2565b91505092915050565b5f819050919050565b5f61295461294f61294a84612931565b611c77565b61285c565b9050919050565b6129648161293a565b82525050565b5f60408201905061297d5f83018561295b565b61298a6020830184611f8a565b9392505050565b5f6060820190506129a45f830186611dc9565b6129b16020830185611dc9565b6129be6040830184611f8a565b94935050505056fea26469706673582212206c2b07c559a90559a2d7e880b85f072df7f1b57e4894a7ac656a01d58d3eb47064736f6c634300081e0033","linkReferences":{}},"methodIdentifiers":{"_entropyCallback(uint64,address,bytes32)":"52a5f1f8","allowInitializePath((uint32,bytes32,uint64))":"ff7bd03d","endpoint()":"5e280f11","entropy()":"47ce07cc","entropyContract()":"f91b59c7","isComposeMsgSender((uint32,bytes32,uint64),bytes,address)":"82413eac","lzReceive((uint32,bytes32,uint64),bytes32,bytes,address,bytes)":"13137d65","nextNonce(uint32,bytes32)":"7d25a05e","oAppVersion()":"17442b70","owner()":"8da5cb5b","peers(uint32)":"bb0b6a53","pendingRequests(uint64)":"65b07d58","quoteFee(uint32)":"c9caa0c3","renounceOwnership()":"715018a6","requestRandomNumber(uint32)":"b5f3abb0","setDelegate(address)":"ca5eb5e1","setPeer(uint32,bytes32)":"3400288b","transferOwnership(address)":"f2fde38b"},"id":35}