{"abi":[{"type":"constructor","inputs":[{"name":"_lzEndpoint","type":"address","internalType":"address"},{"name":"_owner","type":"address","internalType":"address"}],"stateMutability":"nonpayable"},{"type":"receive","stateMutability":"payable"},{"type":"function","name":"_entropyCallback","inputs":[{"name":"sequence","type":"uint64","internalType":"uint64"},{"name":"provider","type":"address","internalType":"address"},{"name":"randomNumber","type":"bytes32","internalType":"bytes32"}],"outputs":[],"stateMutability":"nonpayable"},{"type":"function","name":"allowInitializePath","inputs":[{"name":"origin","type":"tuple","internalType":"struct Origin","components":[{"name":"srcEid","type":"uint32","internalType":"uint32"},{"name":"sender","type":"bytes32","internalType":"bytes32"},{"name":"nonce","type":"uint64","internalType":"uint64"}]}],"outputs":[{"name":"","type":"bool","internalType":"bool"}],"stateMutability":"view"},{"type":"function","name":"endpoint","inputs":[],"outputs":[{"name":"","type":"address","internalType":"contract ILayerZeroEndpointV2"}],"stateMutability":"view"},{"type":"function","name":"entropy","inputs":[],"outputs":[{"name":"","type":"address","internalType":"contract IEntropyV2"}],"stateMutability":"view"},{"type":"function","name":"isComposeMsgSender","inputs":[{"name":"","type":"tuple","internalType":"struct Origin","components":[{"name":"srcEid","type":"uint32","internalType":"uint32"},{"name":"sender","type":"bytes32","internalType":"bytes32"},{"name":"nonce","type":"uint64","internalType":"uint64"}]},{"name":"","type":"bytes","internalType":"bytes"},{"name":"_sender","type":"address","internalType":"address"}],"outputs":[{"name":"","type":"bool","internalType":"bool"}],"stateMutability":"view"},{"type":"function","name":"lzReceive","inputs":[{"name":"_origin","type":"tuple","internalType":"struct Origin","components":[{"name":"srcEid","type":"uint32","internalType":"uint32"},{"name":"sender","type":"bytes32","internalType":"bytes32"},{"name":"nonce","type":"uint64","internalType":"uint64"}]},{"name":"_guid","type":"bytes32","internalType":"bytes32"},{"name":"_message","type":"bytes","internalType":"bytes"},{"name":"_executor","type":"address","internalType":"address"},{"name":"_extraData","type":"bytes","internalType":"bytes"}],"outputs":[],"stateMutability":"payable"},{"type":"function","name":"nextNonce","inputs":[{"name":"","type":"uint32","internalType":"uint32"},{"name":"","type":"bytes32","internalType":"bytes32"}],"outputs":[{"name":"nonce","type":"uint64","internalType":"uint64"}],"stateMutability":"view"},{"type":"function","name":"oAppVersion","inputs":[],"outputs":[{"name":"senderVersion","type":"uint64","internalType":"uint64"},{"name":"receiverVersion","type":"uint64","internalType":"uint64"}],"stateMutability":"pure"},{"type":"function","name":"owner","inputs":[],"outputs":[{"name":"","type":"address","internalType":"address"}],"stateMutability":"view"},{"type":"function","name":"peers","inputs":[{"name":"eid","type":"uint32","internalType":"uint32"}],"outputs":[{"name":"peer","type":"bytes32","internalType":"bytes32"}],"stateMutability":"view"},{"type":"function","name":"pythCallbacks","inputs":[{"name":"","type":"uint64","internalType":"uint64"}],"outputs":[{"name":"originEid","type":"uint32","internalType":"uint32"},{"name":"originAddress","type":"bytes32","internalType":"bytes32"}],"stateMutability":"view"},{"type":"function","name":"renounceOwnership","inputs":[],"outputs":[],"stateMutability":"nonpayable"},{"type":"function","name":"setDelegate","inputs":[{"name":"_delegate","type":"address","internalType":"address"}],"outputs":[],"stateMutability":"nonpayable"},{"type":"function","name":"setPeer","inputs":[{"name":"_eid","type":"uint32","internalType":"uint32"},{"name":"_peer","type":"bytes32","internalType":"bytes32"}],"outputs":[],"stateMutability":"nonpayable"},{"type":"function","name":"transferOwnership","inputs":[{"name":"newOwner","type":"address","internalType":"address"}],"outputs":[],"stateMutability":"nonpayable"},{"type":"function","name":"withdraw","inputs":[{"name":"_to","type":"address","internalType":"address payable"}],"outputs":[],"stateMutability":"nonpayable"},{"type":"event","name":"OwnershipTransferred","inputs":[{"name":"previousOwner","type":"address","indexed":true,"internalType":"address"},{"name":"newOwner","type":"address","indexed":true,"internalType":"address"}],"anonymous":false},{"type":"event","name":"PeerSet","inputs":[{"name":"eid","type":"uint32","indexed":false,"internalType":"uint32"},{"name":"peer","type":"bytes32","indexed":false,"internalType":"bytes32"}],"anonymous":false},{"type":"event","name":"RandomNumberRequestReceived","inputs":[{"name":"pythSequenceNumber","type":"uint64","indexed":true,"internalType":"uint64"},{"name":"originEid","type":"uint32","indexed":false,"internalType":"uint32"},{"name":"originAddress","type":"bytes32","indexed":false,"internalType":"bytes32"}],"anonymous":false},{"type":"event","name":"RandomNumberSent","inputs":[{"name":"pythSequenceNumber","type":"uint64","indexed":true,"internalType":"uint64"},{"name":"randomNumber","type":"bytes32","indexed":false,"internalType":"bytes32"},{"name":"destinationEid","type":"uint32","indexed":false,"internalType":"uint32"}],"anonymous":false},{"type":"error","name":"InvalidDelegate","inputs":[]},{"type":"error","name":"InvalidEndpointCall","inputs":[]},{"type":"error","name":"InvalidOptionType","inputs":[{"name":"optionType","type":"uint16","internalType":"uint16"}]},{"type":"error","name":"LzTokenUnavailable","inputs":[]},{"type":"error","name":"NoPeer","inputs":[{"name":"eid","type":"uint32","internalType":"uint32"}]},{"type":"error","name":"NotEnoughNative","inputs":[{"name":"msgValue","type":"uint256","internalType":"uint256"}]},{"type":"error","name":"OnlyEndpoint","inputs":[{"name":"addr","type":"address","internalType":"address"}]},{"type":"error","name":"OnlyPeer","inputs":[{"name":"eid","type":"uint32","internalType":"uint32"},{"name":"sender","type":"bytes32","internalType":"bytes32"}]},{"type":"error","name":"OwnableInvalidOwner","inputs":[{"name":"owner","type":"address","internalType":"address"}]},{"type":"error","name":"OwnableUnauthorizedAccount","inputs":[{"name":"account","type":"address","internalType":"address"}]},{"type":"error","name":"SafeCastOverflowedUintDowncast","inputs":[{"name":"bits","type":"uint8","internalType":"uint8"},{"name":"value","type":"uint256","internalType":"uint256"}]},{"type":"error","name":"SafeERC20FailedOperation","inputs":[{"name":"token","type":"address","internalType":"address"}]}],"bytecode":{"object":"0x60a060405234801561000f575f5ffd5b50604051612cb6380380612cb6833981810160405281019061003191906102e1565b81818181845f73ffffffffffffffffffffffffffffffffffffffff168173ffffffffffffffffffffffffffffffffffffffff16036100a6575f6040517f1e4fbdf700000000000000000000000000000000000000000000000000000000815260040161009d919061032e565b60405180910390fd5b6100b5816101c260201b60201c565b508173ffffffffffffffffffffffffffffffffffffffff1660808173ffffffffffffffffffffffffffffffffffffffff16815250505f73ffffffffffffffffffffffffffffffffffffffff168173ffffffffffffffffffffffffffffffffffffffff160361014f576040517fb586360400000000000000000000000000000000000000000000000000000000815260040160405180910390fd5b60805173ffffffffffffffffffffffffffffffffffffffff1663ca5eb5e1826040518263ffffffff1660e01b815260040161018a919061032e565b5f604051808303815f87803b1580156101a1575f5ffd5b505af11580156101b3573d5f5f3e3d5ffd5b50505050505050505050610347565b5f5f5f9054906101000a900473ffffffffffffffffffffffffffffffffffffffff169050815f5f6101000a81548173ffffffffffffffffffffffffffffffffffffffff021916908373ffffffffffffffffffffffffffffffffffffffff1602179055508173ffffffffffffffffffffffffffffffffffffffff168173ffffffffffffffffffffffffffffffffffffffff167f8be0079c531659141344cd1fd0a4f28419497f9722a3daafe3b4186f6b6457e060405160405180910390a35050565b5f5ffd5b5f73ffffffffffffffffffffffffffffffffffffffff82169050919050565b5f6102b082610287565b9050919050565b6102c0816102a6565b81146102ca575f5ffd5b50565b5f815190506102db816102b7565b92915050565b5f5f604083850312156102f7576102f6610283565b5b5f610304858286016102cd565b9250506020610315858286016102cd565b9150509250929050565b610328816102a6565b82525050565b5f6020820190506103415f83018461031f565b92915050565b60805161292d6103895f395f81816103ea015281816107200152818161080e015281816110a8015281816111b2015281816114700152611568015261292d5ff3fe6080604052600436106100f6575f3560e01c8063715018a611610089578063bb0b6a5311610058578063bb0b6a5314610309578063ca5eb5e114610345578063f2fde38b1461036d578063ff7bd03d14610395576100fd565b8063715018a6146102515780637d25a05e1461026757806382413eac146102a35780638da5cb5b146102df576100fd565b806351cff8d9116100c557806351cff8d91461019a57806352a5f1f8146101c25780635e280f11146101ea5780636f8b5a6214610214576100fd565b806313137d651461010157806317442b701461011d5780633400288b1461014857806347ce07cc14610170576100fd565b366100fd57005b5f5ffd5b61011b6004803603810190610116919061188d565b6103d1565b005b348015610128575f5ffd5b506101316104f1565b60405161013f929190611966565b60405180910390f35b348015610153575f5ffd5b5061016e600480360381019061016991906119c6565b6104ff565b005b34801561017b575f5ffd5b50610184610515565b6040516101919190611a5f565b60405180910390f35b3480156101a5575f5ffd5b506101c060048036038101906101bb9190611ab3565b61052b565b005b3480156101cd575f5ffd5b506101e860048036038101906101e39190611b08565b610626565b005b3480156101f5575f5ffd5b506101fe61071e565b60405161020b9190611b78565b60405180910390f35b34801561021f575f5ffd5b5061023a60048036038101906102359190611b91565b610742565b604051610248929190611bda565b60405180910390f35b34801561025c575f5ffd5b50610265610771565b005b348015610272575f5ffd5b5061028d600480360381019061028891906119c6565b610784565b60405161029a9190611c01565b60405180910390f35b3480156102ae575f5ffd5b506102c960048036038101906102c49190611c1a565b61078e565b6040516102d69190611ca5565b60405180910390f35b3480156102ea575f5ffd5b506102f36107c8565b6040516103009190611ccd565b60405180910390f35b348015610314575f5ffd5b5061032f600480360381019061032a9190611ce6565b6107ef565b60405161033c9190611d11565b60405180910390f35b348015610350575f5ffd5b5061036b60048036038101906103669190611d2a565b610804565b005b348015610378575f5ffd5b50610393600480360381019061038e9190611d2a565b610895565b005b3480156103a0575f5ffd5b506103bb60048036038101906103b69190611d55565b610919565b6040516103c89190611ca5565b60405180910390f35b3373ffffffffffffffffffffffffffffffffffffffff167f000000000000000000000000000000000000000000000000000000000000000073ffffffffffffffffffffffffffffffffffffffff161461046157336040517f91ac5e4f0000000000000000000000000000000000000000000000000000000081526004016104589190611ccd565b60405180910390fd5b8660200135610480885f01602081019061047b9190611ce6565b610956565b146104d957865f0160208101906104979190611ce6565b87602001356040517fc26bebcc0000000000000000000000000000000000000000000000000000000081526004016104d0929190611bda565b60405180910390fd5b6104e8878787878787876109c7565b50505050505050565b5f5f60016002915091509091565b610507610c1f565b6105118282610ca6565b5050565b7141c9e3f40ad34c79f1c99b66a45efb830d4c81565b610533610c1f565b5f4790505f8111610579576040517f08c379a000000000000000000000000000000000000000000000000000000000815260040161057090611dda565b60405180910390fd5b5f8273ffffffffffffffffffffffffffffffffffffffff168260405161059e90611e25565b5f6040518083038185875af1925050503d805f81146105d8576040519150601f19603f3d011682016040523d82523d5f602084013e6105dd565b606091505b5050905080610621576040517f08c379a000000000000000000000000000000000000000000000000000000000815260040161061890611e83565b60405180910390fd5b505050565b5f61062f610d05565b90505f73ffffffffffffffffffffffffffffffffffffffff168173ffffffffffffffffffffffffffffffffffffffff160361069f576040517f08c379a000000000000000000000000000000000000000000000000000000000815260040161069690611eeb565b60405180910390fd5b8073ffffffffffffffffffffffffffffffffffffffff163373ffffffffffffffffffffffffffffffffffffffff161461070d576040517f08c379a000000000000000000000000000000000000000000000000000000000815260040161070490611f79565b60405180910390fd5b610718848484610d1e565b50505050565b7f000000000000000000000000000000000000000000000000000000000000000081565b6002602052805f5260405f205f91509050805f015f9054906101000a900463ffffffff16908060010154905082565b610779610c1f565b6107825f610f16565b565b5f5f905092915050565b5f3073ffffffffffffffffffffffffffffffffffffffff168273ffffffffffffffffffffffffffffffffffffffff16149050949350505050565b5f5f5f9054906101000a900473ffffffffffffffffffffffffffffffffffffffff16905090565b6001602052805f5260405f205f915090505481565b61080c610c1f565b7f000000000000000000000000000000000000000000000000000000000000000073ffffffffffffffffffffffffffffffffffffffff1663ca5eb5e1826040518263ffffffff1660e01b81526004016108659190611ccd565b5f604051808303815f87803b15801561087c575f5ffd5b505af115801561088e573d5f5f3e3d5ffd5b5050505050565b61089d610c1f565b5f73ffffffffffffffffffffffffffffffffffffffff168173ffffffffffffffffffffffffffffffffffffffff160361090d575f6040517f1e4fbdf70000000000000000000000000000000000000000000000000000000081526004016109049190611ccd565b60405180910390fd5b61091681610f16565b50565b5f816020013560015f845f0160208101906109349190611ce6565b63ffffffff1663ffffffff1681526020019081526020015f2054149050919050565b5f5f60015f8463ffffffff1663ffffffff1681526020019081526020015f205490505f5f1b81036109be57826040517ff6ff4fb70000000000000000000000000000000000000000000000000000000081526004016109b59190611f97565b60405180910390fd5b80915050919050565b5f7141c9e3f40ad34c79f1c99b66a45efb830d4c73ffffffffffffffffffffffffffffffffffffffff16638204b67a6040518163ffffffff1660e01b8152600401602060405180830381865afa158015610a23573d5f5f3e3d5ffd5b505050506040513d601f19601f82011682018060405250810190610a479190611ff5565b9050806fffffffffffffffffffffffffffffffff16471015610a9e576040517f08c379a0000000000000000000000000000000000000000000000000000000008152600401610a9590612090565b60405180910390fd5b5f7141c9e3f40ad34c79f1c99b66a45efb830d4c73ffffffffffffffffffffffffffffffffffffffff16637b43155d836fffffffffffffffffffffffffffffffff166040518263ffffffff1660e01b815260040160206040518083038185885af1158015610b0e573d5f5f3e3d5ffd5b50505050506040513d601f19601f82011682018060405250810190610b3391906120c2565b905060405180604001604052808a5f016020810190610b529190611ce6565b63ffffffff1681526020018a6020013581525060025f8367ffffffffffffffff1667ffffffffffffffff1681526020019081526020015f205f820151815f015f6101000a81548163ffffffff021916908363ffffffff160217905550602082015181600101559050508067ffffffffffffffff167f27435e6700067b4acd17a075351eb3035ab617be9ef252ffefa1b918dc138dad8a5f016020810190610bf99190611ce6565b8b60200135604051610c0c929190611bda565b60405180910390a2505050505050505050565b610c27610fd7565b73ffffffffffffffffffffffffffffffffffffffff16610c456107c8565b73ffffffffffffffffffffffffffffffffffffffff1614610ca457610c68610fd7565b6040517f118cdaa7000000000000000000000000000000000000000000000000000000008152600401610c9b9190611ccd565b60405180910390fd5b565b8060015f8463ffffffff1663ffffffff1681526020019081526020015f20819055507f238399d427b947898edb290f5ff0f9109849b1c3ba196a42e35f00c50a54b98b8282604051610cf9929190611bda565b60405180910390a15050565b5f7141c9e3f40ad34c79f1c99b66a45efb830d4c905090565b5f60025f8567ffffffffffffffff1667ffffffffffffffff1681526020019081526020015f2090505f815f015f9054906101000a900463ffffffff1663ffffffff1603610da0576040517f08c379a0000000000000000000000000000000000000000000000000000000008152600401610d979061215d565b60405180910390fd5b5f82604051602001610db29190611d11565b60405160208183030381529060405290505f610de362030d405f610dd4610fde565b6110069092919063ffffffff16565b90505f610e04845f015f9054906101000a900463ffffffff1684845f61109e565b9050805f0151471015610e4c576040517f08c379a0000000000000000000000000000000000000000000000000000000008152600401610e43906121eb565b60405180910390fd5b610e72845f015f9054906101000a900463ffffffff16848484610e6d6107c8565b61117f565b508667ffffffffffffffff167f8151b8231987662af9e7b6def8ee1e8f0e43e919a32646b94a8d524a1a96f61986865f015f9054906101000a900463ffffffff16604051610ec1929190612209565b60405180910390a260025f8867ffffffffffffffff1667ffffffffffffffff1681526020019081526020015f205f5f82015f6101000a81549063ffffffff0219169055600182015f9055505050505050505050565b5f5f5f9054906101000a900473ffffffffffffffffffffffffffffffffffffffff169050815f5f6101000a81548173ffffffffffffffffffffffffffffffffffffffff021916908373ffffffffffffffffffffffffffffffffffffffff1602179055508173ffffffffffffffffffffffffffffffffffffffff168173ffffffffffffffffffffffffffffffffffffffff167f8be0079c531659141344cd1fd0a4f28419497f9722a3daafe3b4186f6b6457e060405160405180910390a35050565b5f33905090565b60606003604051602001610ff29190612271565b604051602081830303815290604052905090565b606083600361ffff166110225f8361129590919063ffffffff16565b61ffff161461107a5761103e5f8261129590919063ffffffff16565b6040517f3a51740d000000000000000000000000000000000000000000000000000000008152600401611071919061229a565b60405180910390fd5b5f61108585856112fa565b905061109386600183611365565b925050509392505050565b6110a6611725565b7f000000000000000000000000000000000000000000000000000000000000000073ffffffffffffffffffffffffffffffffffffffff1663ddc28c586040518060a001604052808863ffffffff16815260200161110289610956565b8152602001878152602001868152602001851515815250306040518363ffffffff1660e01b81526004016111379291906123ca565b6040805180830381865afa158015611151573d5f5f3e3d5ffd5b505050506040513d601f19601f8201168201806040525081019061117591906124f4565b9050949350505050565b61118761173d565b5f611194845f0151611420565b90505f846020015111156111b0576111af846020015161146d565b5b7f000000000000000000000000000000000000000000000000000000000000000073ffffffffffffffffffffffffffffffffffffffff16632637a450826040518060a001604052808b63ffffffff16815260200161120d8c610956565b81526020018a81526020018981526020015f8960200151111515815250866040518463ffffffff1660e01b81526004016112489291906123ca565b60806040518083038185885af1158015611264573d5f5f3e3d5ffd5b50505050506040513d601f19601f820116820180604052508101906112899190612594565b91505095945050505050565b5f6002826112a391906125ec565b835110156112e6576040517f08c379a00000000000000000000000000000000000000000000000000000000081526004016112dd90612669565b60405180910390fd5b5f8260028501015190508091505092915050565b60605f826fffffffffffffffffffffffffffffffff161461133c5782826040516020016113289291906126bb565b60405160208183030381529060405261135d565b8260405160200161134d91906126e6565b6040516020818303038152906040525b905092915050565b606083600361ffff166113815f8361129590919063ffffffff16565b61ffff16146113d95761139d5f8261129590919063ffffffff16565b6040517f3a51740d0000000000000000000000000000000000000000000000000000000081526004016113d0919061229a565b60405180910390fd5b846001806113e786516115b3565b6113f19190612700565b86866040516020016114079594939291906127a5565b6040516020818303038152906040529150509392505050565b5f81341461146557346040517f9f70412000000000000000000000000000000000000000000000000000000000815260040161145c919061280a565b60405180910390fd5b819050919050565b5f7f000000000000000000000000000000000000000000000000000000000000000073ffffffffffffffffffffffffffffffffffffffff1663e4fe1d946040518163ffffffff1660e01b8152600401602060405180830381865afa1580156114d7573d5f5f3e3d5ffd5b505050506040513d601f19601f820116820180604052508101906114fb9190612837565b90505f73ffffffffffffffffffffffffffffffffffffffff168173ffffffffffffffffffffffffffffffffffffffff1603611562576040517f5373352a00000000000000000000000000000000000000000000000000000000815260040160405180910390fd5b6115af337f0000000000000000000000000000000000000000000000000000000000000000848473ffffffffffffffffffffffffffffffffffffffff16611608909392919063ffffffff16565b5050565b5f61ffff8016821115611600576010826040517f6dfcc6500000000000000000000000000000000000000000000000000000000081526004016115f792919061289b565b60405180910390fd5b819050919050565b611684848573ffffffffffffffffffffffffffffffffffffffff166323b872dd86868660405160240161163d939291906128c2565b604051602081830303815290604052915060e01b6020820180517bffffffffffffffffffffffffffffffffffffffffffffffffffffffff838183161783525050505061168a565b50505050565b5f5f60205f8451602086015f885af1806116a9576040513d5f823e3d81fd5b3d92505f519150505f82146116c25760018114156116dd565b5f8473ffffffffffffffffffffffffffffffffffffffff163b145b1561171f57836040517f5274afe70000000000000000000000000000000000000000000000000000000081526004016117169190611ccd565b60405180910390fd5b50505050565b60405180604001604052805f81526020015f81525090565b60405180606001604052805f81526020015f67ffffffffffffffff168152602001611766611725565b81525090565b5f604051905090565b5f5ffd5b5f5ffd5b5f5ffd5b5f606082840312156117965761179561177d565b5b81905092915050565b5f819050919050565b6117b18161179f565b81146117bb575f5ffd5b50565b5f813590506117cc816117a8565b92915050565b5f5ffd5b5f5ffd5b5f5ffd5b5f5f83601f8401126117f3576117f26117d2565b5b8235905067ffffffffffffffff8111156118105761180f6117d6565b5b60208301915083600182028301111561182c5761182b6117da565b5b9250929050565b5f73ffffffffffffffffffffffffffffffffffffffff82169050919050565b5f61185c82611833565b9050919050565b61186c81611852565b8114611876575f5ffd5b50565b5f8135905061188781611863565b92915050565b5f5f5f5f5f5f5f60e0888a0312156118a8576118a7611775565b5b5f6118b58a828b01611781565b97505060606118c68a828b016117be565b965050608088013567ffffffffffffffff8111156118e7576118e6611779565b5b6118f38a828b016117de565b955095505060a06119068a828b01611879565b93505060c088013567ffffffffffffffff81111561192757611926611779565b5b6119338a828b016117de565b925092505092959891949750929550565b5f67ffffffffffffffff82169050919050565b61196081611944565b82525050565b5f6040820190506119795f830185611957565b6119866020830184611957565b9392505050565b5f63ffffffff82169050919050565b6119a58161198d565b81146119af575f5ffd5b50565b5f813590506119c08161199c565b92915050565b5f5f604083850312156119dc576119db611775565b5b5f6119e9858286016119b2565b92505060206119fa858286016117be565b9150509250929050565b5f819050919050565b5f611a27611a22611a1d84611833565b611a04565b611833565b9050919050565b5f611a3882611a0d565b9050919050565b5f611a4982611a2e565b9050919050565b611a5981611a3f565b82525050565b5f602082019050611a725f830184611a50565b92915050565b5f611a8282611833565b9050919050565b611a9281611a78565b8114611a9c575f5ffd5b50565b5f81359050611aad81611a89565b92915050565b5f60208284031215611ac857611ac7611775565b5b5f611ad584828501611a9f565b91505092915050565b611ae781611944565b8114611af1575f5ffd5b50565b5f81359050611b0281611ade565b92915050565b5f5f5f60608486031215611b1f57611b1e611775565b5b5f611b2c86828701611af4565b9350506020611b3d86828701611879565b9250506040611b4e868287016117be565b9150509250925092565b5f611b6282611a2e565b9050919050565b611b7281611b58565b82525050565b5f602082019050611b8b5f830184611b69565b92915050565b5f60208284031215611ba657611ba5611775565b5b5f611bb384828501611af4565b91505092915050565b611bc58161198d565b82525050565b611bd48161179f565b82525050565b5f604082019050611bed5f830185611bbc565b611bfa6020830184611bcb565b9392505050565b5f602082019050611c145f830184611957565b92915050565b5f5f5f5f60a08587031215611c3257611c31611775565b5b5f611c3f87828801611781565b945050606085013567ffffffffffffffff811115611c6057611c5f611779565b5b611c6c878288016117de565b93509350506080611c7f87828801611879565b91505092959194509250565b5f8115159050919050565b611c9f81611c8b565b82525050565b5f602082019050611cb85f830184611c96565b92915050565b611cc781611852565b82525050565b5f602082019050611ce05f830184611cbe565b92915050565b5f60208284031215611cfb57611cfa611775565b5b5f611d08848285016119b2565b91505092915050565b5f602082019050611d245f830184611bcb565b92915050565b5f60208284031215611d3f57611d3e611775565b5b5f611d4c84828501611879565b91505092915050565b5f60608284031215611d6a57611d69611775565b5b5f611d7784828501611781565b91505092915050565b5f82825260208201905092915050565b7f4e6f2062616c616e636520746f207769746864726177000000000000000000005f82015250565b5f611dc4601683611d80565b9150611dcf82611d90565b602082019050919050565b5f6020820190508181035f830152611df181611db8565b9050919050565b5f81905092915050565b50565b5f611e105f83611df8565b9150611e1b82611e02565b5f82019050919050565b5f611e2f82611e05565b9150819050919050565b7f5769746864726177616c206661696c65640000000000000000000000000000005f82015250565b5f611e6d601183611d80565b9150611e7882611e39565b602082019050919050565b5f6020820190508181035f830152611e9a81611e61565b9050919050565b7f456e74726f70792061646472657373206e6f74207365740000000000000000005f82015250565b5f611ed5601783611d80565b9150611ee082611ea1565b602082019050919050565b5f6020820190508181035f830152611f0281611ec9565b9050919050565b7f4f6e6c7920456e74726f70792063616e2063616c6c20746869732066756e63745f8201527f696f6e0000000000000000000000000000000000000000000000000000000000602082015250565b5f611f63602383611d80565b9150611f6e82611f09565b604082019050919050565b5f6020820190508181035f830152611f9081611f57565b9050919050565b5f602082019050611faa5f830184611bbc565b92915050565b5f6fffffffffffffffffffffffffffffffff82169050919050565b611fd481611fb0565b8114611fde575f5ffd5b50565b5f81519050611fef81611fcb565b92915050565b5f6020828403121561200a57612009611775565b5b5f61201784828501611fe1565b91505092915050565b7f526e6753656e646572426173653a20496e73756666696369656e742062616c615f8201527f6e636520666f722050797468206665652e000000000000000000000000000000602082015250565b5f61207a603183611d80565b915061208582612020565b604082019050919050565b5f6020820190508181035f8301526120a78161206e565b9050919050565b5f815190506120bc81611ade565b92915050565b5f602082840312156120d7576120d6611775565b5b5f6120e4848285016120ae565b91505092915050565b7f526e6753656e646572426173653a20496e76616c69642073657175656e6365205f8201527f6e756d62657220666f722063616c6c6261636b2e000000000000000000000000602082015250565b5f612147603483611d80565b9150612152826120ed565b604082019050919050565b5f6020820190508181035f8301526121748161213b565b9050919050565b7f526e6753656e646572426173653a20496e73756666696369656e742062616c615f8201527f6e636520666f72204c5a2072657475726e206665652e00000000000000000000602082015250565b5f6121d5603683611d80565b91506121e08261217b565b604082019050919050565b5f6020820190508181035f830152612202816121c9565b9050919050565b5f60408201905061221c5f830185611bcb565b6122296020830184611bbc565b9392505050565b5f61ffff82169050919050565b5f8160f01b9050919050565b5f6122538261223d565b9050919050565b61226b61226682612230565b612249565b82525050565b5f61227c828461225a565b60028201915081905092915050565b61229481612230565b82525050565b5f6020820190506122ad5f83018461228b565b92915050565b6122bc8161198d565b82525050565b6122cb8161179f565b82525050565b5f81519050919050565b5f82825260208201905092915050565b8281835e5f83830152505050565b5f601f19601f8301169050919050565b5f612313826122d1565b61231d81856122db565b935061232d8185602086016122eb565b612336816122f9565b840191505092915050565b61234a81611c8b565b82525050565b5f60a083015f8301516123655f8601826122b3565b50602083015161237860208601826122c2565b50604083015184820360408601526123908282612309565b915050606083015184820360608601526123aa8282612309565b91505060808301516123bf6080860182612341565b508091505092915050565b5f6040820190508181035f8301526123e28185612350565b90506123f16020830184611cbe565b9392505050565b5f5ffd5b7f4e487b71000000000000000000000000000000000000000000000000000000005f52604160045260245ffd5b612432826122f9565b810181811067ffffffffffffffff82111715612451576124506123fc565b5b80604052505050565b5f61246361176c565b905061246f8282612429565b919050565b5f819050919050565b61248681612474565b8114612490575f5ffd5b50565b5f815190506124a18161247d565b92915050565b5f604082840312156124bc576124bb6123f8565b5b6124c6604061245a565b90505f6124d584828501612493565b5f8301525060206124e884828501612493565b60208301525092915050565b5f6040828403121561250957612508611775565b5b5f612516848285016124a7565b91505092915050565b5f8151905061252d816117a8565b92915050565b5f60808284031215612548576125476123f8565b5b612552606061245a565b90505f6125618482850161251f565b5f830152506020612574848285016120ae565b6020830152506040612588848285016124a7565b60408301525092915050565b5f608082840312156125a9576125a8611775565b5b5f6125b684828501612533565b91505092915050565b7f4e487b71000000000000000000000000000000000000000000000000000000005f52601160045260245ffd5b5f6125f682612474565b915061260183612474565b9250828201905080821115612619576126186125bf565b5b92915050565b7f746f55696e7431365f6f75744f66426f756e64730000000000000000000000005f82015250565b5f612653601483611d80565b915061265e8261261f565b602082019050919050565b5f6020820190508181035f83015261268081612647565b9050919050565b5f8160801b9050919050565b5f61269d82612687565b9050919050565b6126b56126b082611fb0565b612693565b82525050565b5f6126c682856126a4565b6010820191506126d682846126a4565b6010820191508190509392505050565b5f6126f182846126a4565b60108201915081905092915050565b5f61270a82612230565b915061271583612230565b9250828201905061ffff81111561272f5761272e6125bf565b5b92915050565b5f61273f826122d1565b6127498185611df8565b93506127598185602086016122eb565b80840191505092915050565b5f60ff82169050919050565b5f8160f81b9050919050565b5f61278782612771565b9050919050565b61279f61279a82612765565b61277d565b82525050565b5f6127b08288612735565b91506127bc828761278e565b6001820191506127cc828661225a565b6002820191506127dc828561278e565b6001820191506127ec8284612735565b91508190509695505050505050565b61280481612474565b82525050565b5f60208201905061281d5f8301846127fb565b92915050565b5f8151905061283181611863565b92915050565b5f6020828403121561284c5761284b611775565b5b5f61285984828501612823565b91505092915050565b5f819050919050565b5f61288561288061287b84612862565b611a04565b612765565b9050919050565b6128958161286b565b82525050565b5f6040820190506128ae5f83018561288c565b6128bb60208301846127fb565b9392505050565b5f6060820190506128d55f830186611cbe565b6128e26020830185611cbe565b6128ef60408301846127fb565b94935050505056fea2646970667358221220fb76de7b672b34403c5b44e806ac3360c496a065e3dd15ad3b768043edc120d964736f6c634300081e0033","linkReferences":{}},"methodIdentifiers":{"_entropyCallback(uint64,address,bytes32)":"52a5f1f8","allowInitializePath((uint32,bytes32,uint64))":"ff7bd03d","endpoint()":"5e280f11","entropy()":"47ce07cc","isComposeMsgSender((uint32,bytes32,uint64),bytes,address)":"82413eac","lzReceive((uint32,bytes32,uint64),bytes32,bytes,address,bytes)":"13137d65","nextNonce(uint32,bytes32)":"7d25a05e","oAppVersion()":"17442b70","owner()":"8da5cb5b","peers(uint32)":"bb0b6a53","pythCallbacks(uint64)":"6f8b5a62","renounceOwnership()":"715018a6","setDelegate(address)":"ca5eb5e1","setPeer(uint32,bytes32)":"3400288b","transferOwnership(address)":"f2fde38b","withdraw(address)":"51cff8d9"},"id":33}