{"abi":[{"type":"constructor","inputs":[],"stateMutability":"nonpayable"},{"type":"receive","stateMutability":"payable"},{"type":"function","name":"allowance","inputs":[{"name":"owner","type":"address","internalType":"address"},{"name":"spender","type":"address","internalType":"address"}],"outputs":[{"name":"","type":"uint256","internalType":"uint256"}],"stateMutability":"view"},{"type":"function","name":"appContract","inputs":[],"outputs":[{"name":"","type":"address","internalType":"address"}],"stateMutability":"view"},{"type":"function","name":"approve","inputs":[{"name":"spender","type":"address","internalType":"address"},{"name":"value","type":"uint256","internalType":"uint256"}],"outputs":[{"name":"","type":"bool","internalType":"bool"}],"stateMutability":"nonpayable"},{"type":"function","name":"balanceOf","inputs":[{"name":"account","type":"address","internalType":"address"}],"outputs":[{"name":"","type":"uint256","internalType":"uint256"}],"stateMutability":"view"},{"type":"function","name":"buyTokens","inputs":[{"name":"rate","type":"uint256","internalType":"uint256"}],"outputs":[],"stateMutability":"payable"},{"type":"function","name":"decimals","inputs":[],"outputs":[{"name":"","type":"uint8","internalType":"uint8"}],"stateMutability":"view"},{"type":"function","name":"name","inputs":[],"outputs":[{"name":"","type":"string","internalType":"string"}],"stateMutability":"view"},{"type":"function","name":"owner","inputs":[],"outputs":[{"name":"","type":"address","internalType":"address"}],"stateMutability":"view"},{"type":"function","name":"renounceOwnership","inputs":[],"outputs":[],"stateMutability":"nonpayable"},{"type":"function","name":"sellTokens","inputs":[{"name":"tokenAmount","type":"uint256","internalType":"uint256"},{"name":"rate","type":"uint256","internalType":"uint256"}],"outputs":[],"stateMutability":"nonpayable"},{"type":"function","name":"setAppContract","inputs":[{"name":"_appContract","type":"address","internalType":"address"}],"outputs":[],"stateMutability":"nonpayable"},{"type":"function","name":"symbol","inputs":[],"outputs":[{"name":"","type":"string","internalType":"string"}],"stateMutability":"view"},{"type":"function","name":"totalSupply","inputs":[],"outputs":[{"name":"","type":"uint256","internalType":"uint256"}],"stateMutability":"view"},{"type":"function","name":"transfer","inputs":[{"name":"to","type":"address","internalType":"address"},{"name":"value","type":"uint256","internalType":"uint256"}],"outputs":[{"name":"","type":"bool","internalType":"bool"}],"stateMutability":"nonpayable"},{"type":"function","name":"transferFrom","inputs":[{"name":"from","type":"address","internalType":"address"},{"name":"to","type":"address","internalType":"address"},{"name":"value","type":"uint256","internalType":"uint256"}],"outputs":[{"name":"","type":"bool","internalType":"bool"}],"stateMutability":"nonpayable"},{"type":"function","name":"transferOwnership","inputs":[{"name":"newOwner","type":"address","internalType":"address"}],"outputs":[],"stateMutability":"nonpayable"},{"type":"function","name":"transferToApp","inputs":[{"name":"appAddress","type":"address","internalType":"address"},{"name":"amount","type":"uint256","internalType":"uint256"}],"outputs":[],"stateMutability":"nonpayable"},{"type":"event","name":"Approval","inputs":[{"name":"owner","type":"address","indexed":true,"internalType":"address"},{"name":"spender","type":"address","indexed":true,"internalType":"address"},{"name":"value","type":"uint256","indexed":false,"internalType":"uint256"}],"anonymous":false},{"type":"event","name":"OwnershipTransferred","inputs":[{"name":"previousOwner","type":"address","indexed":true,"internalType":"address"},{"name":"newOwner","type":"address","indexed":true,"internalType":"address"}],"anonymous":false},{"type":"event","name":"Transfer","inputs":[{"name":"from","type":"address","indexed":true,"internalType":"address"},{"name":"to","type":"address","indexed":true,"internalType":"address"},{"name":"value","type":"uint256","indexed":false,"internalType":"uint256"}],"anonymous":false},{"type":"error","name":"ERC20InsufficientAllowance","inputs":[{"name":"spender","type":"address","internalType":"address"},{"name":"allowance","type":"uint256","internalType":"uint256"},{"name":"needed","type":"uint256","internalType":"uint256"}]},{"type":"error","name":"ERC20InsufficientBalance","inputs":[{"name":"sender","type":"address","internalType":"address"},{"name":"balance","type":"uint256","internalType":"uint256"},{"name":"needed","type":"uint256","internalType":"uint256"}]},{"type":"error","name":"ERC20InvalidApprover","inputs":[{"name":"approver","type":"address","internalType":"address"}]},{"type":"error","name":"ERC20InvalidReceiver","inputs":[{"name":"receiver","type":"address","internalType":"address"}]},{"type":"error","name":"ERC20InvalidSender","inputs":[{"name":"sender","type":"address","internalType":"address"}]},{"type":"error","name":"ERC20InvalidSpender","inputs":[{"name":"spender","type":"address","internalType":"address"}]},{"type":"error","name":"OwnableInvalidOwner","inputs":[{"name":"owner","type":"address","internalType":"address"}]},{"type":"error","name":"OwnableUnauthorizedAccount","inputs":[{"name":"account","type":"address","internalType":"address"}]}],"bytecode":{"object":"0x608060405234801561000f575f5ffd5b50336040518060400160405280600781526020017f666c6f77434846000000000000000000000000000000000000000000000000008152506040518060400160405280600481526020017f6643484600000000000000000000000000000000000000000000000000000000815250816003908161008c9190610706565b50806004908161009c9190610706565b5050505f73ffffffffffffffffffffffffffffffffffffffff168173ffffffffffffffffffffffffffffffffffffffff160361010f575f6040517f1e4fbdf70000000000000000000000000000000000000000000000000000000081526004016101069190610814565b60405180910390fd5b61011e8161016060201b60201c565b5061015b3061013161022360201b60201c565b600a61013d9190610995565b678ac7230489e8000061015091906109df565b61022b60201b60201c565b610ab0565b5f60055f9054906101000a900473ffffffffffffffffffffffffffffffffffffffff1690508160055f6101000a81548173ffffffffffffffffffffffffffffffffffffffff021916908373ffffffffffffffffffffffffffffffffffffffff1602179055508173ffffffffffffffffffffffffffffffffffffffff168173ffffffffffffffffffffffffffffffffffffffff167f8be0079c531659141344cd1fd0a4f28419497f9722a3daafe3b4186f6b6457e060405160405180910390a35050565b5f6012905090565b5f73ffffffffffffffffffffffffffffffffffffffff168273ffffffffffffffffffffffffffffffffffffffff160361029b575f6040517fec442f050000000000000000000000000000000000000000000000000000000081526004016102929190610814565b60405180910390fd5b6102ac5f83836102b060201b60201c565b5050565b5f73ffffffffffffffffffffffffffffffffffffffff168373ffffffffffffffffffffffffffffffffffffffff1603610300578060025f8282546102f49190610a20565b925050819055506103ce565b5f5f5f8573ffffffffffffffffffffffffffffffffffffffff1673ffffffffffffffffffffffffffffffffffffffff1681526020019081526020015f2054905081811015610389578381836040517fe450d38c00000000000000000000000000000000000000000000000000000000815260040161038093929190610a62565b60405180910390fd5b8181035f5f8673ffffffffffffffffffffffffffffffffffffffff1673ffffffffffffffffffffffffffffffffffffffff1681526020019081526020015f2081905550505b5f73ffffffffffffffffffffffffffffffffffffffff168273ffffffffffffffffffffffffffffffffffffffff1603610415578060025f828254039250508190555061045f565b805f5f8473ffffffffffffffffffffffffffffffffffffffff1673ffffffffffffffffffffffffffffffffffffffff1681526020019081526020015f205f82825401925050819055505b8173ffffffffffffffffffffffffffffffffffffffff168373ffffffffffffffffffffffffffffffffffffffff167fddf252ad1be2c89b69c2b068fc378daa952ba7f163c4a11628f55a4df523b3ef836040516104bc9190610a97565b60405180910390a3505050565b5f81519050919050565b7f4e487b71000000000000000000000000000000000000000000000000000000005f52604160045260245ffd5b7f4e487b71000000000000000000000000000000000000000000000000000000005f52602260045260245ffd5b5f600282049050600182168061054457607f821691505b60208210810361055757610556610500565b5b50919050565b5f819050815f5260205f209050919050565b5f6020601f8301049050919050565b5f82821b905092915050565b5f600883026105b97fffffffffffffffffffffffffffffffffffffffffffffffffffffffffffffffff8261057e565b6105c3868361057e565b95508019841693508086168417925050509392505050565b5f819050919050565b5f819050919050565b5f6106076106026105fd846105db565b6105e4565b6105db565b9050919050565b5f819050919050565b610620836105ed565b61063461062c8261060e565b84845461058a565b825550505050565b5f5f905090565b61064b61063c565b610656818484610617565b505050565b5b818110156106795761066e5f82610643565b60018101905061065c565b5050565b601f8211156106be5761068f8161055d565b6106988461056f565b810160208510156106a7578190505b6106bb6106b38561056f565b83018261065b565b50505b505050565b5f82821c905092915050565b5f6106de5f19846008026106c3565b1980831691505092915050565b5f6106f683836106cf565b9150826002028217905092915050565b61070f826104c9565b67ffffffffffffffff811115610728576107276104d3565b5b610732825461052d565b61073d82828561067d565b5f60209050601f83116001811461076e575f841561075c578287015190505b61076685826106eb565b8655506107cd565b601f19841661077c8661055d565b5f5b828110156107a35784890151825560018201915060208501945060208101905061077e565b868310156107c057848901516107bc601f8916826106cf565b8355505b6001600288020188555050505b505050505050565b5f73ffffffffffffffffffffffffffffffffffffffff82169050919050565b5f6107fe826107d5565b9050919050565b61080e816107f4565b82525050565b5f6020820190506108275f830184610805565b92915050565b7f4e487b71000000000000000000000000000000000000000000000000000000005f52601160045260245ffd5b5f8160011c9050919050565b5f5f8291508390505b60018511156108af5780860481111561088b5761088a61082d565b5b600185161561089a5780820291505b80810290506108a88561085a565b945061086f565b94509492505050565b5f826108c75760019050610982565b816108d4575f9050610982565b81600181146108ea57600281146108f457610923565b6001915050610982565b60ff8411156109065761090561082d565b5b8360020a91508482111561091d5761091c61082d565b5b50610982565b5060208310610133831016604e8410600b84101617156109585782820a9050838111156109535761095261082d565b5b610982565b6109658484846001610866565b9250905081840481111561097c5761097b61082d565b5b81810290505b9392505050565b5f60ff82169050919050565b5f61099f826105db565b91506109aa83610989565b92506109d77fffffffffffffffffffffffffffffffffffffffffffffffffffffffffffffffff84846108b8565b905092915050565b5f6109e9826105db565b91506109f4836105db565b9250828202610a02816105db565b91508282048414831517610a1957610a1861082d565b5b5092915050565b5f610a2a826105db565b9150610a35836105db565b9250828201905080821115610a4d57610a4c61082d565b5b92915050565b610a5c816105db565b82525050565b5f606082019050610a755f830186610805565b610a826020830185610a53565b610a8f6040830184610a53565b949350505050565b5f602082019050610aaa5f830184610a53565b92915050565b611bd880610abd5f395ff3fe608060405260043610610101575f3560e01c8063715018a611610094578063a9059cbb11610063578063a9059cbb14610314578063dd62ed3e14610350578063debe86ed1461038c578063ed9772b6146103b6578063f2fde38b146103de57610108565b8063715018a6146102825780638da5cb5b1461029857806395d89b41146102c2578063a23ea588146102ec57610108565b8063313ce567116100d0578063313ce567146101d85780633610724e146102025780636d8ea4be1461021e57806370a082311461024657610108565b806306fdde031461010c578063095ea7b31461013657806318160ddd1461017257806323b872dd1461019c57610108565b3661010857005b5f5ffd5b348015610117575f5ffd5b50610120610406565b60405161012d919061140a565b60405180910390f35b348015610141575f5ffd5b5061015c600480360381019061015791906114bb565b610496565b6040516101699190611513565b60405180910390f35b34801561017d575f5ffd5b506101866104b8565b604051610193919061153b565b60405180910390f35b3480156101a7575f5ffd5b506101c260048036038101906101bd9190611554565b6104c1565b6040516101cf9190611513565b60405180910390f35b3480156101e3575f5ffd5b506101ec6104ef565b6040516101f991906115bf565b60405180910390f35b61021c600480360381019061021791906115d8565b6104f7565b005b348015610229575f5ffd5b50610244600480360381019061023f91906114bb565b61066e565b005b348015610251575f5ffd5b5061026c60048036038101906102679190611603565b610802565b604051610279919061153b565b60405180910390f35b34801561028d575f5ffd5b50610296610847565b005b3480156102a3575f5ffd5b506102ac61085a565b6040516102b9919061163d565b60405180910390f35b3480156102cd575f5ffd5b506102d6610882565b6040516102e3919061140a565b60405180910390f35b3480156102f7575f5ffd5b50610312600480360381019061030d9190611603565b610912565b005b34801561031f575f5ffd5b5061033a600480360381019061033591906114bb565b6109cb565b6040516103479190611513565b60405180910390f35b34801561035b575f5ffd5b5061037660048036038101906103719190611656565b6109ed565b604051610383919061153b565b60405180910390f35b348015610397575f5ffd5b506103a0610a6f565b6040516103ad919061163d565b60405180910390f35b3480156103c1575f5ffd5b506103dc60048036038101906103d79190611694565b610a94565b005b3480156103e9575f5ffd5b5061040460048036038101906103ff9190611603565b610c48565b005b606060038054610415906116ff565b80601f0160208091040260200160405190810160405280929190818152602001828054610441906116ff565b801561048c5780601f106104635761010080835404028352916020019161048c565b820191905f5260205f20905b81548152906001019060200180831161046f57829003601f168201915b5050505050905090565b5f5f6104a0610ccc565b90506104ad818585610cd3565b600191505092915050565b5f600254905090565b5f5f6104cb610ccc565b90506104d8858285610ce5565b6104e3858585610d78565b60019150509392505050565b5f6012905090565b6104ff61085a565b73ffffffffffffffffffffffffffffffffffffffff163373ffffffffffffffffffffffffffffffffffffffff161480610584575060065f9054906101000a900473ffffffffffffffffffffffffffffffffffffffff1673ffffffffffffffffffffffffffffffffffffffff163373ffffffffffffffffffffffffffffffffffffffff16145b6105c3576040517f08c379a00000000000000000000000000000000000000000000000000000000081526004016105ba90611779565b60405180910390fd5b5f3411610605576040517f08c379a00000000000000000000000000000000000000000000000000000000081526004016105fc906117e1565b60405180910390fd5b5f8134610612919061182c565b90508061061e30610802565b101561065f576040517f08c379a0000000000000000000000000000000000000000000000000000000008152600401610656906118b7565b60405180910390fd5b61066a303383610d78565b5050565b61067661085a565b73ffffffffffffffffffffffffffffffffffffffff163373ffffffffffffffffffffffffffffffffffffffff1614806106fb575060065f9054906101000a900473ffffffffffffffffffffffffffffffffffffffff1673ffffffffffffffffffffffffffffffffffffffff163373ffffffffffffffffffffffffffffffffffffffff16145b61073a576040517f08c379a000000000000000000000000000000000000000000000000000000000815260040161073190611779565b60405180910390fd5b5f73ffffffffffffffffffffffffffffffffffffffff168273ffffffffffffffffffffffffffffffffffffffff16036107a8576040517f08c379a000000000000000000000000000000000000000000000000000000000815260040161079f9061191f565b60405180910390fd5b806107b230610802565b10156107f3576040517f08c379a00000000000000000000000000000000000000000000000000000000081526004016107ea90611987565b60405180910390fd5b6107fe308383610d78565b5050565b5f5f5f8373ffffffffffffffffffffffffffffffffffffffff1673ffffffffffffffffffffffffffffffffffffffff1681526020019081526020015f20549050919050565b61084f610e68565b6108585f610eef565b565b5f60055f9054906101000a900473ffffffffffffffffffffffffffffffffffffffff16905090565b606060048054610891906116ff565b80601f01602080910402602001604051908101604052809291908181526020018280546108bd906116ff565b80156109085780601f106108df57610100808354040283529160200191610908565b820191905f5260205f20905b8154815290600101906020018083116108eb57829003601f168201915b5050505050905090565b61091a610e68565b5f73ffffffffffffffffffffffffffffffffffffffff168173ffffffffffffffffffffffffffffffffffffffff1603610988576040517f08c379a000000000000000000000000000000000000000000000000000000000815260040161097f906119ef565b60405180910390fd5b8060065f6101000a81548173ffffffffffffffffffffffffffffffffffffffff021916908373ffffffffffffffffffffffffffffffffffffffff16021790555050565b5f5f6109d5610ccc565b90506109e2818585610d78565b600191505092915050565b5f60015f8473ffffffffffffffffffffffffffffffffffffffff1673ffffffffffffffffffffffffffffffffffffffff1681526020019081526020015f205f8373ffffffffffffffffffffffffffffffffffffffff1673ffffffffffffffffffffffffffffffffffffffff1681526020019081526020015f2054905092915050565b60065f9054906101000a900473ffffffffffffffffffffffffffffffffffffffff1681565b610a9c61085a565b73ffffffffffffffffffffffffffffffffffffffff163373ffffffffffffffffffffffffffffffffffffffff161480610b21575060065f9054906101000a900473ffffffffffffffffffffffffffffffffffffffff1673ffffffffffffffffffffffffffffffffffffffff163373ffffffffffffffffffffffffffffffffffffffff16145b610b60576040517f08c379a0000000000000000000000000000000000000000000000000000000008152600401610b5790611779565b60405180910390fd5b5f8211610ba2576040517f08c379a0000000000000000000000000000000000000000000000000000000008152600401610b9990611a57565b60405180910390fd5b5f8183610baf9190611aa2565b905080471015610bf4576040517f08c379a0000000000000000000000000000000000000000000000000000000008152600401610beb90611b1c565b60405180910390fd5b610bff333085610d78565b3373ffffffffffffffffffffffffffffffffffffffff166108fc8290811502906040515f60405180830381858888f19350505050158015610c42573d5f5f3e3d5ffd5b50505050565b610c50610e68565b5f73ffffffffffffffffffffffffffffffffffffffff168173ffffffffffffffffffffffffffffffffffffffff1603610cc0575f6040517f1e4fbdf7000000000000000000000000000000000000000000000000000000008152600401610cb7919061163d565b60405180910390fd5b610cc981610eef565b50565b5f33905090565b610ce08383836001610fb2565b505050565b5f610cf084846109ed565b90507fffffffffffffffffffffffffffffffffffffffffffffffffffffffffffffffff811015610d725781811015610d63578281836040517ffb8f41b2000000000000000000000000000000000000000000000000000000008152600401610d5a93929190611b3a565b60405180910390fd5b610d7184848484035f610fb2565b5b50505050565b5f73ffffffffffffffffffffffffffffffffffffffff168373ffffffffffffffffffffffffffffffffffffffff1603610de8575f6040517f96c6fd1e000000000000000000000000000000000000000000000000000000008152600401610ddf919061163d565b60405180910390fd5b5f73ffffffffffffffffffffffffffffffffffffffff168273ffffffffffffffffffffffffffffffffffffffff1603610e58575f6040517fec442f05000000000000000000000000000000000000000000000000000000008152600401610e4f919061163d565b60405180910390fd5b610e63838383611181565b505050565b610e70610ccc565b73ffffffffffffffffffffffffffffffffffffffff16610e8e61085a565b73ffffffffffffffffffffffffffffffffffffffff1614610eed57610eb1610ccc565b6040517f118cdaa7000000000000000000000000000000000000000000000000000000008152600401610ee4919061163d565b60405180910390fd5b565b5f60055f9054906101000a900473ffffffffffffffffffffffffffffffffffffffff1690508160055f6101000a81548173ffffffffffffffffffffffffffffffffffffffff021916908373ffffffffffffffffffffffffffffffffffffffff1602179055508173ffffffffffffffffffffffffffffffffffffffff168173ffffffffffffffffffffffffffffffffffffffff167f8be0079c531659141344cd1fd0a4f28419497f9722a3daafe3b4186f6b6457e060405160405180910390a35050565b5f73ffffffffffffffffffffffffffffffffffffffff168473ffffffffffffffffffffffffffffffffffffffff1603611022575f6040517fe602df05000000000000000000000000000000000000000000000000000000008152600401611019919061163d565b60405180910390fd5b5f73ffffffffffffffffffffffffffffffffffffffff168373ffffffffffffffffffffffffffffffffffffffff1603611092575f6040517f94280d62000000000000000000000000000000000000000000000000000000008152600401611089919061163d565b60405180910390fd5b8160015f8673ffffffffffffffffffffffffffffffffffffffff1673ffffffffffffffffffffffffffffffffffffffff1681526020019081526020015f205f8573ffffffffffffffffffffffffffffffffffffffff1673ffffffffffffffffffffffffffffffffffffffff1681526020019081526020015f2081905550801561117b578273ffffffffffffffffffffffffffffffffffffffff168473ffffffffffffffffffffffffffffffffffffffff167f8c5be1e5ebec7d5bd14f71427d1e84f3dd0314c0f7b2291e5b200ac8c7c3b92584604051611172919061153b565b60405180910390a35b50505050565b5f73ffffffffffffffffffffffffffffffffffffffff168373ffffffffffffffffffffffffffffffffffffffff16036111d1578060025f8282546111c59190611b6f565b9250508190555061129f565b5f5f5f8573ffffffffffffffffffffffffffffffffffffffff1673ffffffffffffffffffffffffffffffffffffffff1681526020019081526020015f205490508181101561125a578381836040517fe450d38c00000000000000000000000000000000000000000000000000000000815260040161125193929190611b3a565b60405180910390fd5b8181035f5f8673ffffffffffffffffffffffffffffffffffffffff1673ffffffffffffffffffffffffffffffffffffffff1681526020019081526020015f2081905550505b5f73ffffffffffffffffffffffffffffffffffffffff168273ffffffffffffffffffffffffffffffffffffffff16036112e6578060025f8282540392505081905550611330565b805f5f8473ffffffffffffffffffffffffffffffffffffffff1673ffffffffffffffffffffffffffffffffffffffff1681526020019081526020015f205f82825401925050819055505b8173ffffffffffffffffffffffffffffffffffffffff168373ffffffffffffffffffffffffffffffffffffffff167fddf252ad1be2c89b69c2b068fc378daa952ba7f163c4a11628f55a4df523b3ef8360405161138d919061153b565b60405180910390a3505050565b5f81519050919050565b5f82825260208201905092915050565b8281835e5f83830152505050565b5f601f19601f8301169050919050565b5f6113dc8261139a565b6113e681856113a4565b93506113f68185602086016113b4565b6113ff816113c2565b840191505092915050565b5f6020820190508181035f83015261142281846113d2565b905092915050565b5f5ffd5b5f73ffffffffffffffffffffffffffffffffffffffff82169050919050565b5f6114578261142e565b9050919050565b6114678161144d565b8114611471575f5ffd5b50565b5f813590506114828161145e565b92915050565b5f819050919050565b61149a81611488565b81146114a4575f5ffd5b50565b5f813590506114b581611491565b92915050565b5f5f604083850312156114d1576114d061142a565b5b5f6114de85828601611474565b92505060206114ef858286016114a7565b9150509250929050565b5f8115159050919050565b61150d816114f9565b82525050565b5f6020820190506115265f830184611504565b92915050565b61153581611488565b82525050565b5f60208201905061154e5f83018461152c565b92915050565b5f5f5f6060848603121561156b5761156a61142a565b5b5f61157886828701611474565b935050602061158986828701611474565b925050604061159a868287016114a7565b9150509250925092565b5f60ff82169050919050565b6115b9816115a4565b82525050565b5f6020820190506115d25f8301846115b0565b92915050565b5f602082840312156115ed576115ec61142a565b5b5f6115fa848285016114a7565b91505092915050565b5f602082840312156116185761161761142a565b5b5f61162584828501611474565b91505092915050565b6116378161144d565b82525050565b5f6020820190506116505f83018461162e565b92915050565b5f5f6040838503121561166c5761166b61142a565b5b5f61167985828601611474565b925050602061168a85828601611474565b9150509250929050565b5f5f604083850312156116aa576116a961142a565b5b5f6116b7858286016114a7565b92505060206116c8858286016114a7565b9150509250929050565b7f4e487b71000000000000000000000000000000000000000000000000000000005f52602260045260245ffd5b5f600282049050600182168061171657607f821691505b602082108103611729576117286116d2565b5b50919050565b7f4e6f7420617574686f72697a65640000000000000000000000000000000000005f82015250565b5f611763600e836113a4565b915061176e8261172f565b602082019050919050565b5f6020820190508181035f83015261179081611757565b9050919050565b7f53656e642045544820746f2062757920664348460000000000000000000000005f82015250565b5f6117cb6014836113a4565b91506117d682611797565b602082019050919050565b5f6020820190508181035f8301526117f8816117bf565b9050919050565b7f4e487b71000000000000000000000000000000000000000000000000000000005f52601160045260245ffd5b5f61183682611488565b915061184183611488565b925082820261184f81611488565b91508282048414831517611866576118656117ff565b5b5092915050565b7f4e6f7420656e6f756768206643484620696e20636f6e747261637400000000005f82015250565b5f6118a1601b836113a4565b91506118ac8261186d565b602082019050919050565b5f6020820190508181035f8301526118ce81611895565b9050919050565b7f496e76616c6964206170702061646472657373000000000000000000000000005f82015250565b5f6119096013836113a4565b9150611914826118d5565b602082019050919050565b5f6020820190508181035f830152611936816118fd565b9050919050565b7f496e73756666696369656e742062616c616e63650000000000000000000000005f82015250565b5f6119716014836113a4565b915061197c8261193d565b602082019050919050565b5f6020820190508181035f83015261199e81611965565b9050919050565b7f496e76616c69642041707020636f6e74726163740000000000000000000000005f82015250565b5f6119d96014836113a4565b91506119e4826119a5565b602082019050919050565b5f6020820190508181035f830152611a06816119cd565b9050919050565b7f4d7573742073656c6c203e203020746f6b656e730000000000000000000000005f82015250565b5f611a416014836113a4565b9150611a4c82611a0d565b602082019050919050565b5f6020820190508181035f830152611a6e81611a35565b9050919050565b7f4e487b71000000000000000000000000000000000000000000000000000000005f52601260045260245ffd5b5f611aac82611488565b9150611ab783611488565b925082611ac757611ac6611a75565b5b828204905092915050565b7f4e6f7420656e6f75676820455448206c697175696469747900000000000000005f82015250565b5f611b066018836113a4565b9150611b1182611ad2565b602082019050919050565b5f6020820190508181035f830152611b3381611afa565b9050919050565b5f606082019050611b4d5f83018661162e565b611b5a602083018561152c565b611b67604083018461152c565b949350505050565b5f611b7982611488565b9150611b8483611488565b9250828201905080821115611b9c57611b9b6117ff565b5b9291505056fea264697066735822122064b1e0ac5ce6e7270afc7d2936848624481b3e93295a5fddd72bd4f2a48bc86c64736f6c634300081e0033","linkReferences":{}},"methodIdentifiers":{"allowance(address,address)":"dd62ed3e","appContract()":"debe86ed","approve(address,uint256)":"095ea7b3","balanceOf(address)":"70a08231","buyTokens(uint256)":"3610724e","decimals()":"313ce567","name()":"06fdde03","owner()":"8da5cb5b","renounceOwnership()":"715018a6","sellTokens(uint256,uint256)":"ed9772b6","setAppContract(address)":"a23ea588","symbol()":"95d89b41","totalSupply()":"18160ddd","transfer(address,uint256)":"a9059cbb","transferFrom(address,address,uint256)":"23b872dd","transferOwnership(address)":"f2fde38b","transferToApp(address,uint256)":"6d8ea4be"},"id":45}