{
    "abi": [
        {
            "type": "constructor",
            "inputs": [
                {
                    "name": "_fCHF_Address",
                    "type": "address",
                    "internalType": "address"
                },
                {
                    "name": "_fEUR_Address",
                    "type": "address",
                    "internalType": "address"
                },
                {
                    "name": "_fGBP_Address",
                    "type": "address",
                    "internalType": "address"
                },
                {
                    "name": "_fINR_Address",
                    "type": "address",
                    "internalType": "address"
                },
                {
                    "name": "_fUSD_Address",
                    "type": "address",
                    "internalType": "address"
                },
                {
                    "name": "_fYEN_Address",
                    "type": "address",
                    "internalType": "address"
                },
                {
                    "name": "_basketNFTAddress",
                    "type": "address",
                    "internalType": "address"
                }
            ],
            "stateMutability": "nonpayable"
        },
        {
            "type": "function",
            "name": "DECIMALS",
            "inputs": [],
            "outputs": [
                {
                    "name": "",
                    "type": "uint256",
                    "internalType": "uint256"
                }
            ],
            "stateMutability": "view"
        },
        {
            "type": "function",
            "name": "EUR_USD",
            "inputs": [],
            "outputs": [
                {
                    "name": "",
                    "type": "bytes32",
                    "internalType": "bytes32"
                }
            ],
            "stateMutability": "view"
        },
        {
            "type": "function",
            "name": "FLOW_USD",
            "inputs": [],
            "outputs": [
                {
                    "name": "",
                    "type": "bytes32",
                    "internalType": "bytes32"
                }
            ],
            "stateMutability": "view"
        },
        {
            "type": "function",
            "name": "GBP_USD",
            "inputs": [],
            "outputs": [
                {
                    "name": "",
                    "type": "bytes32",
                    "internalType": "bytes32"
                }
            ],
            "stateMutability": "view"
        },
        {
            "type": "function",
            "name": "PythAddress",
            "inputs": [],
            "outputs": [
                {
                    "name": "",
                    "type": "address",
                    "internalType": "address"
                }
            ],
            "stateMutability": "view"
        },
        {
            "type": "function",
            "name": "SCALE",
            "inputs": [],
            "outputs": [
                {
                    "name": "",
                    "type": "uint256",
                    "internalType": "uint256"
                }
            ],
            "stateMutability": "view"
        },
        {
            "type": "function",
            "name": "USDC_USD",
            "inputs": [],
            "outputs": [
                {
                    "name": "",
                    "type": "bytes32",
                    "internalType": "bytes32"
                }
            ],
            "stateMutability": "view"
        },
        {
            "type": "function",
            "name": "USD_CHF",
            "inputs": [],
            "outputs": [
                {
                    "name": "",
                    "type": "bytes32",
                    "internalType": "bytes32"
                }
            ],
            "stateMutability": "view"
        },
        {
            "type": "function",
            "name": "USD_INR",
            "inputs": [],
            "outputs": [
                {
                    "name": "",
                    "type": "bytes32",
                    "internalType": "bytes32"
                }
            ],
            "stateMutability": "view"
        },
        {
            "type": "function",
            "name": "USD_YEN",
            "inputs": [],
            "outputs": [
                {
                    "name": "",
                    "type": "bytes32",
                    "internalType": "bytes32"
                }
            ],
            "stateMutability": "view"
        },
        {
            "type": "function",
            "name": "addLiquidity",
            "inputs": [
                {
                    "name": "_tokenNameA",
                    "type": "string",
                    "internalType": "string"
                },
                {
                    "name": "_tokenNameB",
                    "type": "string",
                    "internalType": "string"
                },
                {
                    "name": "amountA",
                    "type": "uint256",
                    "internalType": "uint256"
                },
                {
                    "name": "updateData",
                    "type": "bytes[]",
                    "internalType": "bytes[]"
                }
            ],
            "outputs": [],
            "stateMutability": "payable"
        },
        {
            "type": "function",
            "name": "addressToName",
            "inputs": [
                {
                    "name": "",
                    "type": "address",
                    "internalType": "address"
                }
            ],
            "outputs": [
                {
                    "name": "",
                    "type": "string",
                    "internalType": "string"
                }
            ],
            "stateMutability": "view"
        },
        {
            "type": "function",
            "name": "basketNFT",
            "inputs": [],
            "outputs": [
                {
                    "name": "",
                    "type": "address",
                    "internalType": "contract BasketJsonNFT"
                }
            ],
            "stateMutability": "view"
        },
        {
            "type": "function",
            "name": "buyTokensFromFlow",
            "inputs": [
                {
                    "name": "_tokenName",
                    "type": "string",
                    "internalType": "string"
                },
                {
                    "name": "updateData",
                    "type": "bytes[]",
                    "internalType": "bytes[]"
                }
            ],
            "outputs": [],
            "stateMutability": "payable"
        },
        {
            "type": "function",
            "name": "executeBasket",
            "inputs": [
                {
                    "name": "_inputTokenName",
                    "type": "string",
                    "internalType": "string"
                },
                {
                    "name": "_inputAmount",
                    "type": "uint256",
                    "internalType": "uint256"
                },
                {
                    "name": "_outputTokenNames",
                    "type": "string[]",
                    "internalType": "string[]"
                },
                {
                    "name": "_outputPercentages",
                    "type": "uint256[]",
                    "internalType": "uint256[]"
                },
                {
                    "name": "_basket_lockout_period",
                    "type": "uint256",
                    "internalType": "uint256"
                },
                {
                    "name": "_jsonMetadata",
                    "type": "string",
                    "internalType": "string"
                },
                {
                    "name": "updateData",
                    "type": "bytes[]",
                    "internalType": "bytes[]"
                }
            ],
            "outputs": [],
            "stateMutability": "payable"
        },
        {
            "type": "function",
            "name": "fCHF_Address",
            "inputs": [],
            "outputs": [
                {
                    "name": "",
                    "type": "address",
                    "internalType": "address"
                }
            ],
            "stateMutability": "view"
        },
        {
            "type": "function",
            "name": "fEUR_Address",
            "inputs": [],
            "outputs": [
                {
                    "name": "",
                    "type": "address",
                    "internalType": "address"
                }
            ],
            "stateMutability": "view"
        },
        {
            "type": "function",
            "name": "fGBP_Address",
            "inputs": [],
            "outputs": [
                {
                    "name": "",
                    "type": "address",
                    "internalType": "address"
                }
            ],
            "stateMutability": "view"
        },
        {
            "type": "function",
            "name": "fINR_Address",
            "inputs": [],
            "outputs": [
                {
                    "name": "",
                    "type": "address",
                    "internalType": "address"
                }
            ],
            "stateMutability": "view"
        },
        {
            "type": "function",
            "name": "fUSD_Address",
            "inputs": [],
            "outputs": [
                {
                    "name": "",
                    "type": "address",
                    "internalType": "address"
                }
            ],
            "stateMutability": "view"
        },
        {
            "type": "function",
            "name": "fYEN_Address",
            "inputs": [],
            "outputs": [
                {
                    "name": "",
                    "type": "address",
                    "internalType": "address"
                }
            ],
            "stateMutability": "view"
        },
        {
            "type": "function",
            "name": "getNormalizedPrice",
            "inputs": [
                {
                    "name": "priceId",
                    "type": "bytes32",
                    "internalType": "bytes32"
                }
            ],
            "outputs": [
                {
                    "name": "",
                    "type": "uint256",
                    "internalType": "uint256"
                }
            ],
            "stateMutability": "view"
        },
        {
            "type": "function",
            "name": "nameToAddress",
            "inputs": [
                {
                    "name": "",
                    "type": "string",
                    "internalType": "string"
                }
            ],
            "outputs": [
                {
                    "name": "",
                    "type": "address",
                    "internalType": "address"
                }
            ],
            "stateMutability": "view"
        },
        {
            "type": "function",
            "name": "nameToId",
            "inputs": [
                {
                    "name": "",
                    "type": "string",
                    "internalType": "string"
                }
            ],
            "outputs": [
                {
                    "name": "",
                    "type": "bytes32",
                    "internalType": "bytes32"
                }
            ],
            "stateMutability": "view"
        },
        {
            "type": "function",
            "name": "nftBaskets",
            "inputs": [
                {
                    "name": "",
                    "type": "uint256",
                    "internalType": "uint256"
                }
            ],
            "outputs": [
                {
                    "name": "owner",
                    "type": "address",
                    "internalType": "address"
                },
                {
                    "name": "inputToken",
                    "type": "string",
                    "internalType": "string"
                },
                {
                    "name": "unlockTimestamp",
                    "type": "uint256",
                    "internalType": "uint256"
                }
            ],
            "stateMutability": "view"
        },
        {
            "type": "function",
            "name": "redeemBasket",
            "inputs": [
                {
                    "name": "_nftId",
                    "type": "uint256",
                    "internalType": "uint256"
                },
                {
                    "name": "updateData",
                    "type": "bytes[]",
                    "internalType": "bytes[]"
                }
            ],
            "outputs": [],
            "stateMutability": "payable"
        },
        {
            "type": "function",
            "name": "removeLiquidity",
            "inputs": [
                {
                    "name": "_tokenNameA",
                    "type": "string",
                    "internalType": "string"
                },
                {
                    "name": "_tokenNameB",
                    "type": "string",
                    "internalType": "string"
                },
                {
                    "name": "lpTokenAmount",
                    "type": "uint256",
                    "internalType": "uint256"
                }
            ],
            "outputs": [],
            "stateMutability": "nonpayable"
        },
        {
            "type": "function",
            "name": "sellTokensForFlow",
            "inputs": [
                {
                    "name": "_tokenName",
                    "type": "string",
                    "internalType": "string"
                },
                {
                    "name": "tokenAmount",
                    "type": "uint256",
                    "internalType": "uint256"
                },
                {
                    "name": "updateData",
                    "type": "bytes[]",
                    "internalType": "bytes[]"
                }
            ],
            "outputs": [],
            "stateMutability": "payable"
        },
        {
            "type": "function",
            "name": "swapContracts",
            "inputs": [
                {
                    "name": "",
                    "type": "bytes32",
                    "internalType": "bytes32"
                }
            ],
            "outputs": [
                {
                    "name": "",
                    "type": "address",
                    "internalType": "address"
                }
            ],
            "stateMutability": "view"
        },
        {
            "type": "function",
            "name": "updatePrice",
            "inputs": [
                {
                    "name": "updateData",
                    "type": "bytes[]",
                    "internalType": "bytes[]"
                }
            ],
            "outputs": [],
            "stateMutability": "payable"
        },
        {
            "type": "event",
            "name": "BasketCreated",
            "inputs": [
                {
                    "name": "user",
                    "type": "address",
                    "indexed": true,
                    "internalType": "address"
                },
                {
                    "name": "nftId",
                    "type": "uint256",
                    "indexed": true,
                    "internalType": "uint256"
                },
                {
                    "name": "tokens",
                    "type": "string[]",
                    "indexed": false,
                    "internalType": "string[]"
                },
                {
                    "name": "amounts",
                    "type": "uint256[]",
                    "indexed": false,
                    "internalType": "uint256[]"
                }
            ],
            "anonymous": false
        },
        {
            "type": "event",
            "name": "BasketRedeemed",
            "inputs": [
                {
                    "name": "user",
                    "type": "address",
                    "indexed": true,
                    "internalType": "address"
                },
                {
                    "name": "nftId",
                    "type": "uint256",
                    "indexed": true,
                    "internalType": "uint256"
                },
                {
                    "name": "amountRedeemed",
                    "type": "uint256",
                    "indexed": false,
                    "internalType": "uint256"
                }
            ],
            "anonymous": false
        },
        {
            "type": "event",
            "name": "LiquidityAdded",
            "inputs": [
                {
                    "name": "user",
                    "type": "address",
                    "indexed": true,
                    "internalType": "address"
                },
                {
                    "name": "swapContract",
                    "type": "address",
                    "indexed": true,
                    "internalType": "address"
                },
                {
                    "name": "lpTokensMinted",
                    "type": "uint256",
                    "indexed": false,
                    "internalType": "uint256"
                }
            ],
            "anonymous": false
        },
        {
            "type": "event",
            "name": "LiquidityRemoved",
            "inputs": [
                {
                    "name": "user",
                    "type": "address",
                    "indexed": true,
                    "internalType": "address"
                },
                {
                    "name": "swapContract",
                    "type": "address",
                    "indexed": true,
                    "internalType": "address"
                },
                {
                    "name": "amountAReturned",
                    "type": "uint256",
                    "indexed": false,
                    "internalType": "uint256"
                },
                {
                    "name": "amountBReturned",
                    "type": "uint256",
                    "indexed": false,
                    "internalType": "uint256"
                }
            ],
            "anonymous": false
        },
        {
            "type": "event",
            "name": "TokensBoughtWithFlow",
            "inputs": [
                {
                    "name": "user",
                    "type": "address",
                    "indexed": true,
                    "internalType": "address"
                },
                {
                    "name": "token",
                    "type": "address",
                    "indexed": true,
                    "internalType": "address"
                },
                {
                    "name": "flowAmount",
                    "type": "uint256",
                    "indexed": false,
                    "internalType": "uint256"
                },
                {
                    "name": "tokenAmount",
                    "type": "uint256",
                    "indexed": false,
                    "internalType": "uint256"
                }
            ],
            "anonymous": false
        },
        {
            "type": "event",
            "name": "TokensSoldForFlow",
            "inputs": [
                {
                    "name": "user",
                    "type": "address",
                    "indexed": true,
                    "internalType": "address"
                },
                {
                    "name": "token",
                    "type": "address",
                    "indexed": true,
                    "internalType": "address"
                },
                {
                    "name": "tokenAmount",
                    "type": "uint256",
                    "indexed": false,
                    "internalType": "uint256"
                },
                {
                    "name": "flowAmount",
                    "type": "uint256",
                    "indexed": false,
                    "internalType": "uint256"
                }
            ],
            "anonymous": false
        }
    ],
    "bytecode": {
        "object": "0x610140604052348015610010575f5ffd5b50604051619a2f380380619a2f83398181016040528101906100329190610c2b565b732880ab155794e7179c9ee2e38200202908c17b435f5f6101000a81548173ffffffffffffffffffffffffffffffffffffffff021916908373ffffffffffffffffffffffffffffffffffffffff1602179055508060015f6101000a81548173ffffffffffffffffffffffffffffffffffffffff021916908373ffffffffffffffffffffffffffffffffffffffff1602179055508673ffffffffffffffffffffffffffffffffffffffff1660808173ffffffffffffffffffffffffffffffffffffffff16815250508573ffffffffffffffffffffffffffffffffffffffff1660a08173ffffffffffffffffffffffffffffffffffffffff16815250508473ffffffffffffffffffffffffffffffffffffffff1660c08173ffffffffffffffffffffffffffffffffffffffff16815250508373ffffffffffffffffffffffffffffffffffffffff1660e08173ffffffffffffffffffffffffffffffffffffffff16815250508273ffffffffffffffffffffffffffffffffffffffff166101008173ffffffffffffffffffffffffffffffffffffffff16815250508173ffffffffffffffffffffffffffffffffffffffff166101208173ffffffffffffffffffffffffffffffffffffffff168152505086600460405161020e90610d1c565b90815260200160405180910390205f6101000a81548173ffffffffffffffffffffffffffffffffffffffff021916908373ffffffffffffffffffffffffffffffffffffffff1602179055506040518060400160405280600481526020017f664348460000000000000000000000000000000000000000000000000000000081525060055f8973ffffffffffffffffffffffffffffffffffffffff1673ffffffffffffffffffffffffffffffffffffffff1681526020019081526020015f2090816102d89190610f6d565b508560046040516102e890611086565b90815260200160405180910390205f6101000a81548173ffffffffffffffffffffffffffffffffffffffff021916908373ffffffffffffffffffffffffffffffffffffffff1602179055506040518060400160405280600481526020017f664555520000000000000000000000000000000000000000000000000000000081525060055f8873ffffffffffffffffffffffffffffffffffffffff1673ffffffffffffffffffffffffffffffffffffffff1681526020019081526020015f2090816103b29190610f6d565b508460046040516103c2906110e4565b90815260200160405180910390205f6101000a81548173ffffffffffffffffffffffffffffffffffffffff021916908373ffffffffffffffffffffffffffffffffffffffff1602179055506040518060400160405280600481526020017f664742500000000000000000000000000000000000000000000000000000000081525060055f8773ffffffffffffffffffffffffffffffffffffffff1673ffffffffffffffffffffffffffffffffffffffff1681526020019081526020015f20908161048c9190610f6d565b5083600460405161049c90611142565b90815260200160405180910390205f6101000a81548173ffffffffffffffffffffffffffffffffffffffff021916908373ffffffffffffffffffffffffffffffffffffffff1602179055506040518060400160405280600481526020017f66494e520000000000000000000000000000000000000000000000000000000081525060055f8673ffffffffffffffffffffffffffffffffffffffff1673ffffffffffffffffffffffffffffffffffffffff1681526020019081526020015f2090816105669190610f6d565b50826004604051610576906111a0565b90815260200160405180910390205f6101000a81548173ffffffffffffffffffffffffffffffffffffffff021916908373ffffffffffffffffffffffffffffffffffffffff1602179055506040518060400160405280600481526020017f665553440000000000000000000000000000000000000000000000000000000081525060055f8573ffffffffffffffffffffffffffffffffffffffff1673ffffffffffffffffffffffffffffffffffffffff1681526020019081526020015f2090816106409190610f6d565b50816004604051610650906111fe565b90815260200160405180910390205f6101000a81548173ffffffffffffffffffffffffffffffffffffffff021916908373ffffffffffffffffffffffffffffffffffffffff1602179055506040518060400160405280600481526020017f6659454e0000000000000000000000000000000000000000000000000000000081525060055f8473ffffffffffffffffffffffffffffffffffffffff1673ffffffffffffffffffffffffffffffffffffffff1681526020019081526020015f20908161071a9190610f6d565b507f0b1e3297e69f162877b577b0d6a47a0d63b2392bc8499e6540da4187a63e28f85f1b600360405161074c90610d1c565b9081526020016040518091039020819055507fa995d00bb36a63cef7fd2c287dc105fc8f3d93779f062f09551b0af3e81ec30b5f1b600360405161078f90611086565b9081526020016040518091039020819055507f84c2dde9633d93d1bcad84e7dc41c9d56578b7ec52fabedc1f335d673df0a7c15f1b60036040516107d2906110e4565b9081526020016040518091039020819055507f0ac0f9a2886fc2dd708bc66cc2cea359052ce89d324f45d95fadbc6c4fcf18095f1b600360405161081590611142565b9081526020016040518091039020819055507fec7a2621453a2ef63a771f280145c3866de464b126380614532a8a183533d0a95f1b6003604051610858906111a0565b9081526020016040518091039020819055507fef2c98c804ba503c6a707e38be4dfbb16683775f195b091252bf24693042fd525f1b600360405161089b906111fe565b9081526020016040518091039020819055505f6040518060c001604052808973ffffffffffffffffffffffffffffffffffffffff1673ffffffffffffffffffffffffffffffffffffffff1681526020018873ffffffffffffffffffffffffffffffffffffffff1673ffffffffffffffffffffffffffffffffffffffff1681526020018773ffffffffffffffffffffffffffffffffffffffff1673ffffffffffffffffffffffffffffffffffffffff1681526020018673ffffffffffffffffffffffffffffffffffffffff1673ffffffffffffffffffffffffffffffffffffffff1681526020018573ffffffffffffffffffffffffffffffffffffffff1673ffffffffffffffffffffffffffffffffffffffff1681526020018473ffffffffffffffffffffffffffffffffffffffff1673ffffffffffffffffffffffffffffffffffffffff1681525090505f5f90505b6006811015610b1e575f600182610a01919061123f565b90505b6006811015610b10575f610a4c848460068110610a2457610a23611272565b5b6020020151858460068110610a3c57610a3b611272565b5b6020020151610b2c60201b60201c565b90505f848460068110610a6257610a61611272565b5b6020020151858460068110610a7a57610a79611272565b5b6020020151604051610a8b90610bc0565b610a969291906112ae565b604051809103905ff080158015610aaf573d5f5f3e3d5ffd5b5090508060065f8481526020019081526020015f205f6101000a81548173ffffffffffffffffffffffffffffffffffffffff021916908373ffffffffffffffffffffffffffffffffffffffff16021790555050508080600101915050610a04565b5080806001019150506109ea565b505050505050505050611345565b5f8173ffffffffffffffffffffffffffffffffffffffff168373ffffffffffffffffffffffffffffffffffffffff1610610b8e578183604051602001610b7392919061131a565b60405160208183030381529060405280519060200120610bb8565b8282604051602001610ba192919061131a565b604051602081830303815290604052805190602001205b905092915050565b6129ab8061708483390190565b5f5ffd5b5f73ffffffffffffffffffffffffffffffffffffffff82169050919050565b5f610bfa82610bd1565b9050919050565b610c0a81610bf0565b8114610c14575f5ffd5b50565b5f81519050610c2581610c01565b92915050565b5f5f5f5f5f5f5f60e0888a031215610c4657610c45610bcd565b5b5f610c538a828b01610c17565b9750506020610c648a828b01610c17565b9650506040610c758a828b01610c17565b9550506060610c868a828b01610c17565b9450506080610c978a828b01610c17565b93505060a0610ca88a828b01610c17565b92505060c0610cb98a828b01610c17565b91505092959891949750929550565b5f81905092915050565b7f66434846000000000000000000000000000000000000000000000000000000005f82015250565b5f610d06600483610cc8565b9150610d1182610cd2565b600482019050919050565b5f610d2682610cfa565b9150819050919050565b5f81519050919050565b7f4e487b71000000000000000000000000000000000000000000000000000000005f52604160045260245ffd5b7f4e487b71000000000000000000000000000000000000000000000000000000005f52602260045260245ffd5b5f6002820490506001821680610dab57607f821691505b602082108103610dbe57610dbd610d67565b5b50919050565b5f819050815f5260205f209050919050565b5f6020601f8301049050919050565b5f82821b905092915050565b5f60088302610e207fffffffffffffffffffffffffffffffffffffffffffffffffffffffffffffffff82610de5565b610e2a8683610de5565b95508019841693508086168417925050509392505050565b5f819050919050565b5f819050919050565b5f610e6e610e69610e6484610e42565b610e4b565b610e42565b9050919050565b5f819050919050565b610e8783610e54565b610e9b610e9382610e75565b848454610df1565b825550505050565b5f5f905090565b610eb2610ea3565b610ebd818484610e7e565b505050565b5b81811015610ee057610ed55f82610eaa565b600181019050610ec3565b5050565b601f821115610f2557610ef681610dc4565b610eff84610dd6565b81016020851015610f0e578190505b610f22610f1a85610dd6565b830182610ec2565b50505b505050565b5f82821c905092915050565b5f610f455f1984600802610f2a565b1980831691505092915050565b5f610f5d8383610f36565b9150826002028217905092915050565b610f7682610d30565b67ffffffffffffffff811115610f8f57610f8e610d3a565b5b610f998254610d94565b610fa4828285610ee4565b5f60209050601f831160018114610fd5575f8415610fc3578287015190505b610fcd8582610f52565b865550611034565b601f198416610fe386610dc4565b5f5b8281101561100a57848901518255600182019150602085019450602081019050610fe5565b868310156110275784890151611023601f891682610f36565b8355505b6001600288020188555050505b505050505050565b7f66455552000000000000000000000000000000000000000000000000000000005f82015250565b5f611070600483610cc8565b915061107b8261103c565b600482019050919050565b5f61109082611064565b9150819050919050565b7f66474250000000000000000000000000000000000000000000000000000000005f82015250565b5f6110ce600483610cc8565b91506110d98261109a565b600482019050919050565b5f6110ee826110c2565b9150819050919050565b7f66494e52000000000000000000000000000000000000000000000000000000005f82015250565b5f61112c600483610cc8565b9150611137826110f8565b600482019050919050565b5f61114c82611120565b9150819050919050565b7f66555344000000000000000000000000000000000000000000000000000000005f82015250565b5f61118a600483610cc8565b915061119582611156565b600482019050919050565b5f6111aa8261117e565b9150819050919050565b7f6659454e000000000000000000000000000000000000000000000000000000005f82015250565b5f6111e8600483610cc8565b91506111f3826111b4565b600482019050919050565b5f611208826111dc565b9150819050919050565b7f4e487b71000000000000000000000000000000000000000000000000000000005f52601160045260245ffd5b5f61124982610e42565b915061125483610e42565b925082820190508082111561126c5761126b611212565b5b92915050565b7f4e487b71000000000000000000000000000000000000000000000000000000005f52603260045260245ffd5b6112a881610bf0565b82525050565b5f6040820190506112c15f83018561129f565b6112ce602083018461129f565b9392505050565b5f8160601b9050919050565b5f6112eb826112d5565b9050919050565b5f6112fc826112e1565b9050919050565b61131461130f82610bf0565b6112f2565b82525050565b5f6113258285611303565b6014820191506113358284611303565b6014820191508190509392505050565b60805160a05160c05160e0516101005161012051615cf861138c5f395f61184601525f61109801525f6113ee01525f61141201525f61145c01525f6110490152615cf85ff3fe6080604052600436106101cc575f3560e01c80639666be7c116100f6578063d593265211610094578063e2a04b6211610063578063e2a04b62146105f4578063eced552614610630578063ed343f541461065a578063f6d8f2cb14610698576101cc565b8063d593265214610576578063d6305b7a146105a0578063d9e30eaa146105bc578063e289c181146105d8576101cc565b8063a216ffd2116100d0578063a216ffd2146104d0578063a8c9e831146104fa578063c211648c14610522578063c93eb5611461054c576101cc565b80639666be7c1461044e5780639dc38a02146104785780639f6476cf146104b4576101cc565b8063422830c91161016e578063703ad2991161013d578063703ad299146103a657806379178b46146103d05780637b7e7aa7146103fa5780638477484a14610424576101cc565b8063422830c9146102ec5780634dd290a1146103165780635e3a20f41461034057806360ca396f1461036a576101cc565b806327f7e4be116101aa57806327f7e4be146102525780632b6c86df1461026e5780632e0f262514610298578063392015b3146102c2576101cc565b806308d88aad146101d05780632592c0bf1461020c578063269ae32d14610228575b5f5ffd5b3480156101db575f5ffd5b506101f660048036038101906101f19190613e90565b6106d4565b6040516102039190613f16565b60405180910390f35b61022660048036038101906102219190613f8c565b61071c565b005b348015610233575f5ffd5b5061023c6108e3565b6040516102499190613fef565b60405180910390f35b61026c600480360381019061026791906141d9565b610909565b005b348015610279575f5ffd5b50610282611047565b60405161028f9190613f16565b60405180910390f35b3480156102a3575f5ffd5b506102ac61106b565b6040516102b99190614315565b60405180910390f35b3480156102cd575f5ffd5b506102d6611070565b6040516102e39190613fef565b60405180910390f35b3480156102f7575f5ffd5b50610300611096565b60405161030d9190613f16565b60405180910390f35b348015610321575f5ffd5b5061032a6110ba565b6040516103379190613fef565b60405180910390f35b34801561034b575f5ffd5b506103546110e0565b6040516103619190613fef565b60405180910390f35b348015610375575f5ffd5b50610390600480360381019061038b9190614358565b611106565b60405161039d9190614315565b60405180910390f35b3480156103b1575f5ffd5b506103ba6113ec565b6040516103c79190613f16565b60405180910390f35b3480156103db575f5ffd5b506103e4611410565b6040516103f19190613f16565b60405180910390f35b348015610405575f5ffd5b5061040e611434565b60405161041b9190613fef565b60405180910390f35b34801561042f575f5ffd5b5061043861145a565b6040516104459190613f16565b60405180910390f35b348015610459575f5ffd5b5061046261147e565b60405161046f9190613fef565b60405180910390f35b348015610483575f5ffd5b5061049e60048036038101906104999190614358565b6114a4565b6040516104ab9190613f16565b60405180910390f35b6104ce60048036038101906104c99190614383565b6114d4565b005b3480156104db575f5ffd5b506104e4611844565b6040516104f19190613f16565b60405180910390f35b348015610505575f5ffd5b50610520600480360381019061051b91906143fc565b611868565b005b34801561052d575f5ffd5b50610536611df0565b6040516105439190613f16565b60405180910390f35b348015610557575f5ffd5b50610560611e08565b60405161056d91906144df565b60405180910390f35b348015610581575f5ffd5b5061058a611e2d565b6040516105979190613fef565b60405180910390f35b6105ba60048036038101906105b591906144f8565b611e53565b005b6105d660048036038101906105d191906145b4565b612717565b005b6105f260048036038101906105ed9190614641565b612c10565b005b3480156105ff575f5ffd5b5061061a600480360381019061061591906146c8565b6132b7565b6040516106279190614753565b60405180910390f35b34801561063b575f5ffd5b50610644613352565b6040516106519190614315565b60405180910390f35b348015610665575f5ffd5b50610680600480360381019061067b9190614773565b61335e565b60405161068f9392919061479e565b60405180910390f35b3480156106a3575f5ffd5b506106be60048036038101906106b99190613e90565b613429565b6040516106cb9190613fef565b60405180910390f35b6004818051602081018201805184825260208301602085012081835280955050505050505f915054906101000a900473ffffffffffffffffffffffffffffffffffffffff1681565b5f5f5f9054906101000a900473ffffffffffffffffffffffffffffffffffffffff1673ffffffffffffffffffffffffffffffffffffffff1663d47eed4584846040518363ffffffff1660e01b8152600401610778929190614932565b602060405180830381865afa158015610793573d5f5f3e3d5ffd5b505050506040513d601f19601f820116820180604052508101906107b79190614968565b9050803410156107fc576040517f08c379a00000000000000000000000000000000000000000000000000000000081526004016107f390614a03565b60405180910390fd5b5f5f9054906101000a900473ffffffffffffffffffffffffffffffffffffffff1673ffffffffffffffffffffffffffffffffffffffff1663ef9e5e288285856040518463ffffffff1660e01b8152600401610858929190614932565b5f604051808303818588803b15801561086f575f5ffd5b505af1158015610881573d5f5f3e3d5ffd5b5050505050803411156108de573373ffffffffffffffffffffffffffffffffffffffff166108fc82346108b49190614a4e565b90811502906040515f60405180830381858888f193505050501580156108dc573d5f5f3e3d5ffd5b505b505050565b7fec7a2621453a2ef63a771f280145c3866de464b126380614532a8a183533d0a95f1b81565b845186511461094d576040517f08c379a000000000000000000000000000000000000000000000000000000000815260040161094490614acb565b60405180910390fd5b5f5f5f90505b86518110156109915786818151811061096f5761096e614ae9565b5b6020026020010151826109829190614b16565b91508080600101915050610953565b5061271081146109d6576040517f08c379a00000000000000000000000000000000000000000000000000000000081526004016109cd90614b93565b60405180910390fd5b5f5f5f9054906101000a900473ffffffffffffffffffffffffffffffffffffffff1673ffffffffffffffffffffffffffffffffffffffff1663d47eed4585856040518363ffffffff1660e01b8152600401610a32929190614932565b602060405180830381865afa158015610a4d573d5f5f3e3d5ffd5b505050506040513d601f19601f82011682018060405250810190610a719190614968565b905080341015610ab6576040517f08c379a0000000000000000000000000000000000000000000000000000000008152600401610aad90614bfb565b60405180910390fd5b5f5f9054906101000a900473ffffffffffffffffffffffffffffffffffffffff1673ffffffffffffffffffffffffffffffffffffffff1663ef9e5e288286866040518463ffffffff1660e01b8152600401610b12929190614932565b5f604051808303818588803b158015610b29575f5ffd5b505af1158015610b3b573d5f5f3e3d5ffd5b505050505080341115610b98573373ffffffffffffffffffffffffffffffffffffffff166108fc8234610b6e9190614a4e565b90811502906040515f60405180830381858888f19350505050158015610b96573d5f5f3e3d5ffd5b505b5f60048b604051610ba99190614c53565b90815260200160405180910390205f9054906101000a900473ffffffffffffffffffffffffffffffffffffffff1690505f73ffffffffffffffffffffffffffffffffffffffff168173ffffffffffffffffffffffffffffffffffffffff1603610c47576040517f08c379a0000000000000000000000000000000000000000000000000000000008152600401610c3e90614cb3565b60405180910390fd5b8073ffffffffffffffffffffffffffffffffffffffff166323b872dd33308d6040518463ffffffff1660e01b8152600401610c8493929190614cd1565b6020604051808303815f875af1158015610ca0573d5f5f3e3d5ffd5b505050506040513d601f19601f82011682018060405250810190610cc49190614d3b565b505f895167ffffffffffffffff811115610ce157610ce0613d6c565b5b604051908082528060200260200182016040528015610d0f5781602001602082028036833780820191505090505b5090505f610d3a60038e604051610d269190614c53565b908152602001604051809103902054611106565b90505f5f90505b8b51811015610dd3575f6127108c8381518110610d6157610d60614ae9565b5b60200260200101518f610d749190614d66565b610d7e9190614dd4565b9050610da6858e8481518110610d9757610d96614ae9565b5b60200260200101518386613456565b848381518110610db957610db8614ae9565b5b602002602001018181525050508080600101915050610d41565b505f60015f9054906101000a900473ffffffffffffffffffffffffffffffffffffffff1673ffffffffffffffffffffffffffffffffffffffff166375794a3c6040518163ffffffff1660e01b8152600401602060405180830381865afa158015610e3f573d5f5f3e3d5ffd5b505050506040513d601f19601f82011682018060405250810190610e639190614968565b90506040518060a001604052803373ffffffffffffffffffffffffffffffffffffffff1681526020018f81526020018b42610e9e9190614b16565b81526020018d81526020018481525060025f8381526020019081526020015f205f820151815f015f6101000a81548173ffffffffffffffffffffffffffffffffffffffff021916908373ffffffffffffffffffffffffffffffffffffffff1602179055506020820151816001019081610f179190614ff8565b50604082015181600201556060820151816003019080519060200190610f3e929190613bea565b506080820151816004019080519060200190610f5b929190613c41565b5090505060015f9054906101000a900473ffffffffffffffffffffffffffffffffffffffff1673ffffffffffffffffffffffffffffffffffffffff1663fb37e8838a6040518263ffffffff1660e01b8152600401610fb99190614753565b5f604051808303815f87803b158015610fd0575f5ffd5b505af1158015610fe2573d5f5f3e3d5ffd5b50505050803373ffffffffffffffffffffffffffffffffffffffff167f5ad7b074f4912fa69ee9c4079c45e33c020dba9a720bc6f9fc0736432aee5fad8e8660405161102f929190615281565b60405180910390a35050505050505050505050505050565b7f000000000000000000000000000000000000000000000000000000000000000081565b601281565b7f84c2dde9633d93d1bcad84e7dc41c9d56578b7ec52fabedc1f335d673df0a7c15f1b81565b7f000000000000000000000000000000000000000000000000000000000000000081565b7fef2c98c804ba503c6a707e38be4dfbb16683775f195b091252bf24693042fd525f1b81565b7f2fb245b9a84554a0f15aa123cbb5f64cd263b59e9a87d80148cbffab50c69f305f1b81565b5f5f5f5f9054906101000a900473ffffffffffffffffffffffffffffffffffffffff1673ffffffffffffffffffffffffffffffffffffffff166396834ad3846040518263ffffffff1660e01b81526004016111619190613fef565b608060405180830381865afa15801561117c573d5f5f3e3d5ffd5b505050506040513d601f19601f820116820180604052508101906111a091906153d8565b90505f815f015160070b136111ea576040517f08c379a00000000000000000000000000000000000000000000000000000000081526004016111e19061544d565b60405180910390fd5b5f815f015160070b90505f82604001516112039061546b565b60030b90507f2fb245b9a84554a0f15aa123cbb5f64cd263b59e9a87d80148cbffab50c69f305f1b85148061125957507f84c2dde9633d93d1bcad84e7dc41c9d56578b7ec52fabedc1f335d673df0a7c15f1b85145b8061128557507fa995d00bb36a63cef7fd2c287dc105fc8f3d93779f062f09551b0af3e81ec30b5f1b85145b806112b157507fec7a2621453a2ef63a771f280145c3866de464b126380614532a8a183533d0a95f1b85145b156112f057816012600a6112c591906155e0565b82600a6112d291906155e0565b6112dc9190614d66565b6112e69190614dd4565b93505050506113e7565b7f0b1e3297e69f162877b577b0d6a47a0d63b2392bc8499e6540da4187a63e28f85f1b85148061134157507f0ac0f9a2886fc2dd708bc66cc2cea359052ce89d324f45d95fadbc6c4fcf18095f1b85145b8061136d57507fef2c98c804ba503c6a707e38be4dfbb16683775f195b091252bf24693042fd525f1b85145b156113ac5780600a61137f91906155e0565b6012600a61138d91906155e0565b836113989190614d66565b6113a29190614dd4565b93505050506113e7565b6040517f08c379a00000000000000000000000000000000000000000000000000000000081526004016113de90615674565b60405180910390fd5b919050565b7f000000000000000000000000000000000000000000000000000000000000000081565b7f000000000000000000000000000000000000000000000000000000000000000081565b7f0b1e3297e69f162877b577b0d6a47a0d63b2392bc8499e6540da4187a63e28f85f1b81565b7f000000000000000000000000000000000000000000000000000000000000000081565b7f0ac0f9a2886fc2dd708bc66cc2cea359052ce89d324f45d95fadbc6c4fcf18095f1b81565b6006602052805f5260405f205f915054906101000a900473ffffffffffffffffffffffffffffffffffffffff1681565b5f8390505f5f5f9054906101000a900473ffffffffffffffffffffffffffffffffffffffff1673ffffffffffffffffffffffffffffffffffffffff1663d47eed4585856040518363ffffffff1660e01b8152600401611534929190614932565b602060405180830381865afa15801561154f573d5f5f3e3d5ffd5b505050506040513d601f19601f820116820180604052508101906115739190614968565b90508034116115b7576040517f08c379a00000000000000000000000000000000000000000000000000000000081526004016115ae90615702565b60405180910390fd5b5f5f9054906101000a900473ffffffffffffffffffffffffffffffffffffffff1673ffffffffffffffffffffffffffffffffffffffff1663ef9e5e288286866040518463ffffffff1660e01b8152600401611613929190614932565b5f604051808303818588803b15801561162a575f5ffd5b505af115801561163c573d5f5f3e3d5ffd5b50505050505f813461164e9190614a4e565b90505f6003846040516116619190614c53565b90815260200160405180910390205490505f5f1b81036116b6576040517f08c379a00000000000000000000000000000000000000000000000000000000081526004016116ad9061576a565b60405180910390fd5b5f6004856040516116c79190614c53565b90815260200160405180910390205f9054906101000a900473ffffffffffffffffffffffffffffffffffffffff1690505f6117237f2fb245b9a84554a0f15aa123cbb5f64cd263b59e9a87d80148cbffab50c69f305f1b611106565b90505f61172f84611106565b90505f816012600a61174191906155e0565b8461174c9190614d66565b6117569190614dd4565b90508373ffffffffffffffffffffffffffffffffffffffff16633610724e87836040518363ffffffff1660e01b81526004016117929190614315565b5f604051808303818588803b1580156117a9575f5ffd5b505af11580156117bb573d5f5f3e3d5ffd5b50505050505f81876117cd9190614d66565b90508473ffffffffffffffffffffffffffffffffffffffff163373ffffffffffffffffffffffffffffffffffffffff167f3829ce9b8af96b65b723a35c5edf9b7d7e10bb8eff0ca4bee0f62703f6d52cee898460405161182e929190615788565b60405180910390a3505050505050505050505050565b7f000000000000000000000000000000000000000000000000000000000000000081565b5f6004846040516118799190614c53565b90815260200160405180910390205f9054906101000a900473ffffffffffffffffffffffffffffffffffffffff1690505f6004846040516118ba9190614c53565b90815260200160405180910390205f9054906101000a900473ffffffffffffffffffffffffffffffffffffffff1690505f60065f6118f88585613801565b81526020019081526020015f205f9054906101000a900473ffffffffffffffffffffffffffffffffffffffff1690505f73ffffffffffffffffffffffffffffffffffffffff168173ffffffffffffffffffffffffffffffffffffffff1603611995576040517f08c379a000000000000000000000000000000000000000000000000000000000815260040161198c9061581f565b60405180910390fd5b8073ffffffffffffffffffffffffffffffffffffffff166323b872dd3330876040518463ffffffff1660e01b81526004016119d293929190614cd1565b6020604051808303815f875af11580156119ee573d5f5f3e3d5ffd5b505050506040513d601f19601f82011682018060405250810190611a129190614d3b565b505f8373ffffffffffffffffffffffffffffffffffffffff166370a08231306040518263ffffffff1660e01b8152600401611a4d9190613f16565b602060405180830381865afa158015611a68573d5f5f3e3d5ffd5b505050506040513d601f19601f82011682018060405250810190611a8c9190614968565b90505f8373ffffffffffffffffffffffffffffffffffffffff166370a08231306040518263ffffffff1660e01b8152600401611ac89190613f16565b602060405180830381865afa158015611ae3573d5f5f3e3d5ffd5b505050506040513d601f19601f82011682018060405250810190611b079190614968565b90508273ffffffffffffffffffffffffffffffffffffffff16639c8f9f23876040518263ffffffff1660e01b8152600401611b429190614315565b5f604051808303815f87803b158015611b59575f5ffd5b505af1158015611b6b573d5f5f3e3d5ffd5b505050505f8573ffffffffffffffffffffffffffffffffffffffff166370a08231306040518263ffffffff1660e01b8152600401611ba99190613f16565b602060405180830381865afa158015611bc4573d5f5f3e3d5ffd5b505050506040513d601f19601f82011682018060405250810190611be89190614968565b90505f8573ffffffffffffffffffffffffffffffffffffffff166370a08231306040518263ffffffff1660e01b8152600401611c249190613f16565b602060405180830381865afa158015611c3f573d5f5f3e3d5ffd5b505050506040513d601f19601f82011682018060405250810190611c639190614968565b90505f8483611c729190614a4e565b90505f8483611c819190614a4e565b90508873ffffffffffffffffffffffffffffffffffffffff1663a9059cbb33846040518363ffffffff1660e01b8152600401611cbe92919061583d565b6020604051808303815f875af1158015611cda573d5f5f3e3d5ffd5b505050506040513d601f19601f82011682018060405250810190611cfe9190614d3b565b508773ffffffffffffffffffffffffffffffffffffffff1663a9059cbb33836040518363ffffffff1660e01b8152600401611d3a92919061583d565b6020604051808303815f875af1158015611d56573d5f5f3e3d5ffd5b505050506040513d601f19601f82011682018060405250810190611d7a9190614d3b565b508673ffffffffffffffffffffffffffffffffffffffff163373ffffffffffffffffffffffffffffffffffffffff167f3b5c196aff80bb96c03b41c96906b66827014de931d1b36e0ede6ee8caeb4bf98484604051611dda929190615788565b60405180910390a3505050505050505050505050565b732880ab155794e7179c9ee2e38200202908c17b4381565b60015f9054906101000a900473ffffffffffffffffffffffffffffffffffffffff1681565b7fa995d00bb36a63cef7fd2c287dc105fc8f3d93779f062f09551b0af3e81ec30b5f1b81565b5f5f5f9054906101000a900473ffffffffffffffffffffffffffffffffffffffff1673ffffffffffffffffffffffffffffffffffffffff1663d47eed4584846040518363ffffffff1660e01b8152600401611eaf929190614932565b602060405180830381865afa158015611eca573d5f5f3e3d5ffd5b505050506040513d601f19601f82011682018060405250810190611eee9190614968565b905080341015611f33576040517f08c379a0000000000000000000000000000000000000000000000000000000008152600401611f2a90614bfb565b60405180910390fd5b5f5f9054906101000a900473ffffffffffffffffffffffffffffffffffffffff1673ffffffffffffffffffffffffffffffffffffffff1663ef9e5e288285856040518463ffffffff1660e01b8152600401611f8f929190614932565b5f604051808303818588803b158015611fa6575f5ffd5b505af1158015611fb8573d5f5f3e3d5ffd5b505050505080341115612015573373ffffffffffffffffffffffffffffffffffffffff166108fc8234611feb9190614a4e565b90811502906040515f60405180830381858888f19350505050158015612013573d5f5f3e3d5ffd5b505b5f6004876040516120269190614c53565b90815260200160405180910390205f9054906101000a900473ffffffffffffffffffffffffffffffffffffffff1690505f6004876040516120679190614c53565b90815260200160405180910390205f9054906101000a900473ffffffffffffffffffffffffffffffffffffffff1690505f73ffffffffffffffffffffffffffffffffffffffff168273ffffffffffffffffffffffffffffffffffffffff16141580156120ff57505f73ffffffffffffffffffffffffffffffffffffffff168173ffffffffffffffffffffffffffffffffffffffff1614155b61213e576040517f08c379a0000000000000000000000000000000000000000000000000000000008152600401612135906158ae565b60405180910390fd5b5f61216660038a6040516121529190614c53565b908152602001604051809103902054611106565b90505f61219060038a60405161217c9190614c53565b908152602001604051809103902054611106565b90505f81670de0b6b3a7640000846121a89190614d66565b6121b29190614dd4565b90505f670de0b6b3a7640000828b6121ca9190614d66565b6121d49190614dd4565b90505f60065f6121e48989613801565b81526020019081526020015f205f9054906101000a900473ffffffffffffffffffffffffffffffffffffffff1690505f73ffffffffffffffffffffffffffffffffffffffff168173ffffffffffffffffffffffffffffffffffffffff1603612281576040517f08c379a00000000000000000000000000000000000000000000000000000000081526004016122789061581f565b60405180910390fd5b8673ffffffffffffffffffffffffffffffffffffffff166323b872dd33308e6040518463ffffffff1660e01b81526004016122be93929190614cd1565b6020604051808303815f875af11580156122da573d5f5f3e3d5ffd5b505050506040513d601f19601f820116820180604052508101906122fe9190614d3b565b508573ffffffffffffffffffffffffffffffffffffffff166323b872dd3330856040518463ffffffff1660e01b815260040161233c93929190614cd1565b6020604051808303815f875af1158015612358573d5f5f3e3d5ffd5b505050506040513d601f19601f8201168201806040525081019061237c9190614d3b565b508673ffffffffffffffffffffffffffffffffffffffff1663095ea7b3828d6040518363ffffffff1660e01b81526004016123b892919061583d565b6020604051808303815f875af11580156123d4573d5f5f3e3d5ffd5b505050506040513d601f19601f820116820180604052508101906123f89190614d3b565b508573ffffffffffffffffffffffffffffffffffffffff1663095ea7b382846040518363ffffffff1660e01b815260040161243492919061583d565b6020604051808303815f875af1158015612450573d5f5f3e3d5ffd5b505050506040513d601f19601f820116820180604052508101906124749190614d3b565b505f8173ffffffffffffffffffffffffffffffffffffffff166370a08231306040518263ffffffff1660e01b81526004016124af9190613f16565b602060405180830381865afa1580156124ca573d5f5f3e3d5ffd5b505050506040513d601f19601f820116820180604052508101906124ee9190614968565b90508173ffffffffffffffffffffffffffffffffffffffff16639cd441da8d856040518363ffffffff1660e01b815260040161252b929190615788565b5f604051808303815f87803b158015612542575f5ffd5b505af1158015612554573d5f5f3e3d5ffd5b505050505f8273ffffffffffffffffffffffffffffffffffffffff166370a08231306040518263ffffffff1660e01b81526004016125929190613f16565b602060405180830381865afa1580156125ad573d5f5f3e3d5ffd5b505050506040513d601f19601f820116820180604052508101906125d19190614968565b90505f82826125e09190614a4e565b90505f8111612624576040517f08c379a000000000000000000000000000000000000000000000000000000000815260040161261b90615916565b60405180910390fd5b8373ffffffffffffffffffffffffffffffffffffffff1663a9059cbb33836040518363ffffffff1660e01b815260040161265f92919061583d565b6020604051808303815f875af115801561267b573d5f5f3e3d5ffd5b505050506040513d601f19601f8201168201806040525081019061269f9190614d3b565b508373ffffffffffffffffffffffffffffffffffffffff163373ffffffffffffffffffffffffffffffffffffffff167f9d278c56ba6dc86a12eefe6b43112bd6e06648eb4ec0b950ee2d783d40e2acb4836040516126fd9190614315565b60405180910390a350505050505050505050505050505050565b5f8490505f5f5f9054906101000a900473ffffffffffffffffffffffffffffffffffffffff1673ffffffffffffffffffffffffffffffffffffffff1663d47eed4585856040518363ffffffff1660e01b8152600401612777929190614932565b602060405180830381865afa158015612792573d5f5f3e3d5ffd5b505050506040513d601f19601f820116820180604052508101906127b69190614968565b9050803410156127fb576040517f08c379a00000000000000000000000000000000000000000000000000000000081526004016127f290614bfb565b60405180910390fd5b5f5f9054906101000a900473ffffffffffffffffffffffffffffffffffffffff1673ffffffffffffffffffffffffffffffffffffffff1663ef9e5e288286866040518463ffffffff1660e01b8152600401612857929190614932565b5f604051808303818588803b15801561286e575f5ffd5b505af1158015612880573d5f5f3e3d5ffd5b5050505050803411156128dd573373ffffffffffffffffffffffffffffffffffffffff166108fc82346128b39190614a4e565b90811502906040515f60405180830381858888f193505050501580156128db573d5f5f3e3d5ffd5b505b5f6003836040516128ee9190614c53565b90815260200160405180910390205490505f5f1b8103612943576040517f08c379a000000000000000000000000000000000000000000000000000000000815260040161293a9061576a565b60405180910390fd5b5f6004846040516129549190614c53565b90815260200160405180910390205f9054906101000a900473ffffffffffffffffffffffffffffffffffffffff1690505f6129b07f2fb245b9a84554a0f15aa123cbb5f64cd263b59e9a87d80148cbffab50c69f305f1b611106565b90505f6129bc84611106565b90505f816012600a6129ce91906155e0565b846129d99190614d66565b6129e39190614dd4565b90505f816012600a6129f591906155e0565b8c612a009190614d66565b612a0a9190614dd4565b90508473ffffffffffffffffffffffffffffffffffffffff166323b872dd33308e6040518463ffffffff1660e01b8152600401612a4993929190614cd1565b6020604051808303815f875af1158015612a65573d5f5f3e3d5ffd5b505050506040513d601f19601f82011682018060405250810190612a899190614d3b565b508473ffffffffffffffffffffffffffffffffffffffff1663ed9772b68c846040518363ffffffff1660e01b8152600401612ac5929190615788565b5f604051808303815f87803b158015612adc575f5ffd5b505af1158015612aee573d5f5f3e3d5ffd5b505050505f3373ffffffffffffffffffffffffffffffffffffffff1682604051612b1790615961565b5f6040518083038185875af1925050503d805f8114612b51576040519150601f19603f3d011682016040523d82523d5f602084013e612b56565b606091505b5050905080612b9a576040517f08c379a0000000000000000000000000000000000000000000000000000000008152600401612b91906159bf565b60405180910390fd5b8573ffffffffffffffffffffffffffffffffffffffff163373ffffffffffffffffffffffffffffffffffffffff167ff7c8601905f921b7b7b21b454fed87177c3c9d097cb38bf4ebcf270419604b038e85604051612bf9929190615788565b60405180910390a350505050505050505050505050565b3373ffffffffffffffffffffffffffffffffffffffff1660015f9054906101000a900473ffffffffffffffffffffffffffffffffffffffff1673ffffffffffffffffffffffffffffffffffffffff16636352211e856040518263ffffffff1660e01b8152600401612c819190614315565b602060405180830381865afa158015612c9c573d5f5f3e3d5ffd5b505050506040513d601f19601f82011682018060405250810190612cc091906159f1565b73ffffffffffffffffffffffffffffffffffffffff1614612d16576040517f08c379a0000000000000000000000000000000000000000000000000000000008152600401612d0d90615a66565b60405180910390fd5b5f60025f8581526020019081526020015f2090508060020154421015612d71576040517f08c379a0000000000000000000000000000000000000000000000000000000008152600401612d6890615ace565b60405180910390fd5b5f5f5f9054906101000a900473ffffffffffffffffffffffffffffffffffffffff1673ffffffffffffffffffffffffffffffffffffffff1663d47eed4585856040518363ffffffff1660e01b8152600401612dcd929190614932565b602060405180830381865afa158015612de8573d5f5f3e3d5ffd5b505050506040513d601f19601f82011682018060405250810190612e0c9190614968565b905080341015612e51576040517f08c379a0000000000000000000000000000000000000000000000000000000008152600401612e4890614bfb565b60405180910390fd5b5f5f9054906101000a900473ffffffffffffffffffffffffffffffffffffffff1673ffffffffffffffffffffffffffffffffffffffff1663ef9e5e288286866040518463ffffffff1660e01b8152600401612ead929190614932565b5f604051808303818588803b158015612ec4575f5ffd5b505af1158015612ed6573d5f5f3e3d5ffd5b505050505080341115612f33573373ffffffffffffffffffffffffffffffffffffffff166108fc8234612f099190614a4e565b90811502906040515f60405180830381858888f19350505050158015612f31573d5f5f3e3d5ffd5b505b5f5f90505f836001018054612f4790614e31565b80601f0160208091040260200160405190810160405280929190818152602001828054612f7390614e31565b8015612fbe5780601f10612f9557610100808354040283529160200191612fbe565b820191905f5260205f20905b815481529060010190602001808311612fa157829003601f168201915b505050505090505f600482604051612fd69190614c53565b90815260200160405180910390205f9054906101000a900473ffffffffffffffffffffffffffffffffffffffff1690505f61302e60038460405161301a9190614c53565b908152602001604051809103902054611106565b90505f5f90505b86600301805490508110156130ec575f600488600301838154811061305d5761305c614ae9565b5b905f5260205f20016040516130729190615b6c565b90815260200160405180910390205f9054906101000a900473ffffffffffffffffffffffffffffffffffffffff1690505f8860040183815481106130b9576130b8614ae9565b5b905f5260205f20015490506130d082868387613895565b876130db9190614b16565b965050508080600101915050613035565b5060015f9054906101000a900473ffffffffffffffffffffffffffffffffffffffff1673ffffffffffffffffffffffffffffffffffffffff166342966c688a6040518263ffffffff1660e01b81526004016131479190614315565b5f604051808303815f87803b15801561315e575f5ffd5b505af1158015613170573d5f5f3e3d5ffd5b5050505060025f8a81526020019081526020015f205f5f82015f6101000a81549073ffffffffffffffffffffffffffffffffffffffff0219169055600182015f6131ba9190613c8c565b600282015f9055600382015f6131d09190613cc9565b600482015f6131df9190613ce7565b50508173ffffffffffffffffffffffffffffffffffffffff1663a9059cbb33866040518363ffffffff1660e01b815260040161321c92919061583d565b6020604051808303815f875af1158015613238573d5f5f3e3d5ffd5b505050506040513d601f19601f8201168201806040525081019061325c9190614d3b565b50883373ffffffffffffffffffffffffffffffffffffffff167fd3157cbbbe69a1cf19035ae6146be186023de9def859d12538cd8ed84642628d866040516132a49190614315565b60405180910390a3505050505050505050565b6005602052805f5260405f205f9150905080546132d390614e31565b80601f01602080910402602001604051908101604052809291908181526020018280546132ff90614e31565b801561334a5780601f106133215761010080835404028352916020019161334a565b820191905f5260205f20905b81548152906001019060200180831161332d57829003601f168201915b505050505081565b670de0b6b3a764000081565b6002602052805f5260405f205f91509050805f015f9054906101000a900473ffffffffffffffffffffffffffffffffffffffff16908060010180546133a290614e31565b80601f01602080910402602001604051908101604052809291908181526020018280546133ce90614e31565b80156134195780601f106133f057610100808354040283529160200191613419565b820191905f5260205f20905b8154815290600101906020018083116133fc57829003601f168201915b5050505050908060020154905083565b6003818051602081018201805184825260208301602085012081835280955050505050505f915090505481565b5f5f6004856040516134689190614c53565b90815260200160405180910390205f9054906101000a900473ffffffffffffffffffffffffffffffffffffffff1690505f73ffffffffffffffffffffffffffffffffffffffff168173ffffffffffffffffffffffffffffffffffffffff1603613506576040517f08c379a00000000000000000000000000000000000000000000000000000000081526004016134fd90615bcc565b60405180910390fd5b5f61352e60038760405161351a9190614c53565b908152602001604051809103902054611106565b90505f81670de0b6b3a7640000866135469190614d66565b6135509190614dd4565b90505f60065f6135608b87613801565b81526020019081526020015f205f9054906101000a900473ffffffffffffffffffffffffffffffffffffffff1690505f73ffffffffffffffffffffffffffffffffffffffff168173ffffffffffffffffffffffffffffffffffffffff16036135fd576040517f08c379a00000000000000000000000000000000000000000000000000000000081526004016135f490615c34565b60405180910390fd5b8873ffffffffffffffffffffffffffffffffffffffff1663095ea7b382896040518363ffffffff1660e01b815260040161363892919061583d565b6020604051808303815f875af1158015613654573d5f5f3e3d5ffd5b505050506040513d601f19601f820116820180604052508101906136789190614d3b565b508373ffffffffffffffffffffffffffffffffffffffff168973ffffffffffffffffffffffffffffffffffffffff16101561371a578073ffffffffffffffffffffffffffffffffffffffff1663f0b456e988846040518363ffffffff1660e01b81526004016136e8929190615788565b5f604051808303815f87803b1580156136ff575f5ffd5b505af1158015613711573d5f5f3e3d5ffd5b505050506137a6565b5f82670de0b6b3a7640000806137309190614d66565b61373a9190614dd4565b90508173ffffffffffffffffffffffffffffffffffffffff16634242ec5289836040518363ffffffff1660e01b8152600401613777929190615788565b5f604051808303815f87803b15801561378e575f5ffd5b505af11580156137a0573d5f5f3e3d5ffd5b50505050505b5f6103e86003896137b79190614d66565b6137c19190614dd4565b90505f81896137d09190614a4e565b9050670de0b6b3a764000084826137e79190614d66565b6137f19190614dd4565b9650505050505050949350505050565b5f8173ffffffffffffffffffffffffffffffffffffffff168373ffffffffffffffffffffffffffffffffffffffff1610613863578183604051602001613848929190615c97565b6040516020818303038152906040528051906020012061388d565b8282604051602001613876929190615c97565b604051602081830303815290604052805190602001205b905092915050565b5f5f60055f8773ffffffffffffffffffffffffffffffffffffffff1673ffffffffffffffffffffffffffffffffffffffff1681526020019081526020015f2080546138df90614e31565b80601f016020809104026020016040519081016040528092919081815260200182805461390b90614e31565b80156139565780601f1061392d57610100808354040283529160200191613956565b820191905f5260205f20905b81548152906001019060200180831161393957829003601f168201915b505050505090505f6139856003836040516139719190614c53565b908152602001604051809103902054611106565b90505f84670de0b6b3a76400008361399d9190614d66565b6139a79190614dd4565b90505f60065f6139b78b8b613801565b81526020019081526020015f205f9054906101000a900473ffffffffffffffffffffffffffffffffffffffff1690508873ffffffffffffffffffffffffffffffffffffffff1663095ea7b382896040518363ffffffff1660e01b8152600401613a2192919061583d565b6020604051808303815f875af1158015613a3d573d5f5f3e3d5ffd5b505050506040513d601f19601f82011682018060405250810190613a619190614d3b565b508773ffffffffffffffffffffffffffffffffffffffff168973ffffffffffffffffffffffffffffffffffffffff161015613b03578073ffffffffffffffffffffffffffffffffffffffff1663f0b456e988846040518363ffffffff1660e01b8152600401613ad1929190615788565b5f604051808303815f87803b158015613ae8575f5ffd5b505af1158015613afa573d5f5f3e3d5ffd5b50505050613b8f565b5f82670de0b6b3a764000080613b199190614d66565b613b239190614dd4565b90508173ffffffffffffffffffffffffffffffffffffffff16634242ec5289836040518363ffffffff1660e01b8152600401613b60929190615788565b5f604051808303815f87803b158015613b77575f5ffd5b505af1158015613b89573d5f5f3e3d5ffd5b50505050505b5f6103e8600389613ba09190614d66565b613baa9190614dd4565b90505f8189613bb99190614a4e565b9050670de0b6b3a76400008482613bd09190614d66565b613bda9190614dd4565b9650505050505050949350505050565b828054828255905f5260205f20908101928215613c30579160200282015b82811115613c2f578251829081613c1f9190614ff8565b5091602001919060010190613c08565b5b509050613c3d9190613d05565b5090565b828054828255905f5260205f20908101928215613c7b579160200282015b82811115613c7a578251825591602001919060010190613c5f565b5b509050613c889190613d28565b5090565b508054613c9890614e31565b5f825580601f10613ca95750613cc6565b601f0160209004905f5260205f2090810190613cc59190613d28565b5b50565b5080545f8255905f5260205f2090810190613ce49190613d05565b50565b5080545f8255905f5260205f2090810190613d029190613d28565b50565b5b80821115613d24575f8181613d1b9190613c8c565b50600101613d06565b5090565b5b80821115613d3f575f815f905550600101613d29565b5090565b5f604051905090565b5f5ffd5b5f5ffd5b5f5ffd5b5f5ffd5b5f601f19601f8301169050919050565b7f4e487b71000000000000000000000000000000000000000000000000000000005f52604160045260245ffd5b613da282613d5c565b810181811067ffffffffffffffff82111715613dc157613dc0613d6c565b5b80604052505050565b5f613dd3613d43565b9050613ddf8282613d99565b919050565b5f67ffffffffffffffff821115613dfe57613dfd613d6c565b5b613e0782613d5c565b9050602081019050919050565b828183375f83830152505050565b5f613e34613e2f84613de4565b613dca565b905082815260208101848484011115613e5057613e4f613d58565b5b613e5b848285613e14565b509392505050565b5f82601f830112613e7757613e76613d54565b5b8135613e87848260208601613e22565b91505092915050565b5f60208284031215613ea557613ea4613d4c565b5b5f82013567ffffffffffffffff811115613ec257613ec1613d50565b5b613ece84828501613e63565b91505092915050565b5f73ffffffffffffffffffffffffffffffffffffffff82169050919050565b5f613f0082613ed7565b9050919050565b613f1081613ef6565b82525050565b5f602082019050613f295f830184613f07565b92915050565b5f5ffd5b5f5ffd5b5f5f83601f840112613f4c57613f4b613d54565b5b8235905067ffffffffffffffff811115613f6957613f68613f2f565b5b602083019150836020820283011115613f8557613f84613f33565b5b9250929050565b5f5f60208385031215613fa257613fa1613d4c565b5b5f83013567ffffffffffffffff811115613fbf57613fbe613d50565b5b613fcb85828601613f37565b92509250509250929050565b5f819050919050565b613fe981613fd7565b82525050565b5f6020820190506140025f830184613fe0565b92915050565b5f819050919050565b61401a81614008565b8114614024575f5ffd5b50565b5f8135905061403581614011565b92915050565b5f67ffffffffffffffff82111561405557614054613d6c565b5b602082029050602081019050919050565b5f6140786140738461403b565b613dca565b9050808382526020820190506020840283018581111561409b5761409a613f33565b5b835b818110156140e257803567ffffffffffffffff8111156140c0576140bf613d54565b5b8086016140cd8982613e63565b8552602085019450505060208101905061409d565b5050509392505050565b5f82601f830112614100576140ff613d54565b5b8135614110848260208601614066565b91505092915050565b5f67ffffffffffffffff82111561413357614132613d6c565b5b602082029050602081019050919050565b5f61415661415184614119565b613dca565b9050808382526020820190506020840283018581111561417957614178613f33565b5b835b818110156141a2578061418e8882614027565b84526020840193505060208101905061417b565b5050509392505050565b5f82601f8301126141c0576141bf613d54565b5b81356141d0848260208601614144565b91505092915050565b5f5f5f5f5f5f5f5f60e0898b0312156141f5576141f4613d4c565b5b5f89013567ffffffffffffffff81111561421257614211613d50565b5b61421e8b828c01613e63565b985050602061422f8b828c01614027565b975050604089013567ffffffffffffffff8111156142505761424f613d50565b5b61425c8b828c016140ec565b965050606089013567ffffffffffffffff81111561427d5761427c613d50565b5b6142898b828c016141ac565b955050608061429a8b828c01614027565b94505060a089013567ffffffffffffffff8111156142bb576142ba613d50565b5b6142c78b828c01613e63565b93505060c089013567ffffffffffffffff8111156142e8576142e7613d50565b5b6142f48b828c01613f37565b92509250509295985092959890939650565b61430f81614008565b82525050565b5f6020820190506143285f830184614306565b92915050565b61433781613fd7565b8114614341575f5ffd5b50565b5f813590506143528161432e565b92915050565b5f6020828403121561436d5761436c613d4c565b5b5f61437a84828501614344565b91505092915050565b5f5f5f6040848603121561439a57614399613d4c565b5b5f84013567ffffffffffffffff8111156143b7576143b6613d50565b5b6143c386828701613e63565b935050602084013567ffffffffffffffff8111156143e4576143e3613d50565b5b6143f086828701613f37565b92509250509250925092565b5f5f5f6060848603121561441357614412613d4c565b5b5f84013567ffffffffffffffff8111156144305761442f613d50565b5b61443c86828701613e63565b935050602084013567ffffffffffffffff81111561445d5761445c613d50565b5b61446986828701613e63565b925050604061447a86828701614027565b9150509250925092565b5f819050919050565b5f6144a76144a261449d84613ed7565b614484565b613ed7565b9050919050565b5f6144b88261448d565b9050919050565b5f6144c9826144ae565b9050919050565b6144d9816144bf565b82525050565b5f6020820190506144f25f8301846144d0565b92915050565b5f5f5f5f5f6080868803121561451157614510613d4c565b5b5f86013567ffffffffffffffff81111561452e5761452d613d50565b5b61453a88828901613e63565b955050602086013567ffffffffffffffff81111561455b5761455a613d50565b5b61456788828901613e63565b945050604061457888828901614027565b935050606086013567ffffffffffffffff81111561459957614598613d50565b5b6145a588828901613f37565b92509250509295509295909350565b5f5f5f5f606085870312156145cc576145cb613d4c565b5b5f85013567ffffffffffffffff8111156145e9576145e8613d50565b5b6145f587828801613e63565b945050602061460687828801614027565b935050604085013567ffffffffffffffff81111561462757614626613d50565b5b61463387828801613f37565b925092505092959194509250565b5f5f5f6040848603121561465857614657613d4c565b5b5f61466586828701614027565b935050602084013567ffffffffffffffff81111561468657614685613d50565b5b61469286828701613f37565b92509250509250925092565b6146a781613ef6565b81146146b1575f5ffd5b50565b5f813590506146c28161469e565b92915050565b5f602082840312156146dd576146dc613d4c565b5b5f6146ea848285016146b4565b91505092915050565b5f81519050919050565b5f82825260208201905092915050565b8281835e5f83830152505050565b5f614725826146f3565b61472f81856146fd565b935061473f81856020860161470d565b61474881613d5c565b840191505092915050565b5f6020820190508181035f83015261476b818461471b565b905092915050565b5f6020828403121561478857614787613d4c565b5b5f61479584828501614027565b91505092915050565b5f6060820190506147b15f830186613f07565b81810360208301526147c3818561471b565b90506147d26040830184614306565b949350505050565b5f82825260208201905092915050565b5f819050919050565b5f82825260208201905092915050565b5f61480e83856147f3565b935061481b838584613e14565b61482483613d5c565b840190509392505050565b5f61483b848484614803565b90509392505050565b5f5ffd5b5f5ffd5b5f5ffd5b5f5f8335600160200384360303811261486c5761486b61484c565b5b83810192508235915060208301925067ffffffffffffffff82111561489457614893614844565b5b6001820236038313156148aa576148a9614848565b5b509250929050565b5f602082019050919050565b5f6148c983856147da565b9350836020840285016148db846147ea565b805f5b878110156149205784840389526148f58284614850565b61490086828461482f565b955061490b846148b2565b935060208b019a5050506001810190506148de565b50829750879450505050509392505050565b5f6020820190508181035f83015261494b8184866148be565b90509392505050565b5f8151905061496281614011565b92915050565b5f6020828403121561497d5761497c613d4c565b5b5f61498a84828501614954565b91505092915050565b7f496e73756666696369656e74206665652070726f766964656420666f722050795f8201527f7468207570646174650000000000000000000000000000000000000000000000602082015250565b5f6149ed6029836146fd565b91506149f882614993565b604082019050919050565b5f6020820190508181035f830152614a1a816149e1565b9050919050565b7f4e487b71000000000000000000000000000000000000000000000000000000005f52601160045260245ffd5b5f614a5882614008565b9150614a6383614008565b9250828203905081811115614a7b57614a7a614a21565b5b92915050565b7f417272617973206d75737420686176652073616d65206c656e677468000000005f82015250565b5f614ab5601c836146fd565b9150614ac082614a81565b602082019050919050565b5f6020820190508181035f830152614ae281614aa9565b9050919050565b7f4e487b71000000000000000000000000000000000000000000000000000000005f52603260045260245ffd5b5f614b2082614008565b9150614b2b83614008565b9250828201905080821115614b4357614b42614a21565b5b92915050565b7f50657263656e7461676573206d7573742073756d20746f2031303030300000005f82015250565b5f614b7d601d836146fd565b9150614b8882614b49565b602082019050919050565b5f6020820190508181035f830152614baa81614b71565b9050919050565b7f496e73756666696369656e742066656520666f722050797468207570646174655f82015250565b5f614be56020836146fd565b9150614bf082614bb1565b602082019050919050565b5f6020820190508181035f830152614c1281614bd9565b9050919050565b5f81905092915050565b5f614c2d826146f3565b614c378185614c19565b9350614c4781856020860161470d565b80840191505092915050565b5f614c5e8284614c23565b915081905092915050565b7f496e76616c696420696e70757420746f6b656e000000000000000000000000005f82015250565b5f614c9d6013836146fd565b9150614ca882614c69565b602082019050919050565b5f6020820190508181035f830152614cca81614c91565b9050919050565b5f606082019050614ce45f830186613f07565b614cf16020830185613f07565b614cfe6040830184614306565b949350505050565b5f8115159050919050565b614d1a81614d06565b8114614d24575f5ffd5b50565b5f81519050614d3581614d11565b92915050565b5f60208284031215614d5057614d4f613d4c565b5b5f614d5d84828501614d27565b91505092915050565b5f614d7082614008565b9150614d7b83614008565b9250828202614d8981614008565b91508282048414831517614da057614d9f614a21565b5b5092915050565b7f4e487b71000000000000000000000000000000000000000000000000000000005f52601260045260245ffd5b5f614dde82614008565b9150614de983614008565b925082614df957614df8614da7565b5b828204905092915050565b7f4e487b71000000000000000000000000000000000000000000000000000000005f52602260045260245ffd5b5f6002820490506001821680614e4857607f821691505b602082108103614e5b57614e5a614e04565b5b50919050565b5f819050815f5260205f209050919050565b5f6020601f8301049050919050565b5f82821b905092915050565b5f60088302614ebd7fffffffffffffffffffffffffffffffffffffffffffffffffffffffffffffffff82614e82565b614ec78683614e82565b95508019841693508086168417925050509392505050565b5f614ef9614ef4614eef84614008565b614484565b614008565b9050919050565b5f819050919050565b614f1283614edf565b614f26614f1e82614f00565b848454614e8e565b825550505050565b5f5f905090565b614f3d614f2e565b614f48818484614f09565b505050565b5b81811015614f6b57614f605f82614f35565b600181019050614f4e565b5050565b601f821115614fb057614f8181614e61565b614f8a84614e73565b81016020851015614f99578190505b614fad614fa585614e73565b830182614f4d565b50505b505050565b5f82821c905092915050565b5f614fd05f1984600802614fb5565b1980831691505092915050565b5f614fe88383614fc1565b9150826002028217905092915050565b615001826146f3565b67ffffffffffffffff81111561501a57615019613d6c565b5b6150248254614e31565b61502f828285614f6f565b5f60209050601f831160018114615060575f841561504e578287015190505b6150588582614fdd565b8655506150bf565b601f19841661506e86614e61565b5f5b8281101561509557848901518255600182019150602085019450602081019050615070565b868310156150b257848901516150ae601f891682614fc1565b8355505b6001600288020188555050505b505050505050565b5f81519050919050565b5f82825260208201905092915050565b5f819050602082019050919050565b5f82825260208201905092915050565b5f61510a826146f3565b61511481856150f0565b935061512481856020860161470d565b61512d81613d5c565b840191505092915050565b5f6151438383615100565b905092915050565b5f602082019050919050565b5f615161826150c7565b61516b81856150d1565b93508360208202850161517d856150e1565b805f5b858110156151b857848403895281516151998582615138565b94506151a48361514b565b925060208a01995050600181019050615180565b50829750879550505050505092915050565b5f81519050919050565b5f82825260208201905092915050565b5f819050602082019050919050565b6151fc81614008565b82525050565b5f61520d83836151f3565b60208301905092915050565b5f602082019050919050565b5f61522f826151ca565b61523981856151d4565b9350615244836151e4565b805f5b8381101561527457815161525b8882615202565b975061526683615219565b925050600181019050615247565b5085935050505092915050565b5f6040820190508181035f8301526152998185615157565b905081810360208301526152ad8184615225565b90509392505050565b5f5ffd5b5f8160070b9050919050565b6152cf816152ba565b81146152d9575f5ffd5b50565b5f815190506152ea816152c6565b92915050565b5f67ffffffffffffffff82169050919050565b61530c816152f0565b8114615316575f5ffd5b50565b5f8151905061532781615303565b92915050565b5f8160030b9050919050565b6153428161532d565b811461534c575f5ffd5b50565b5f8151905061535d81615339565b92915050565b5f60808284031215615378576153776152b6565b5b6153826080613dca565b90505f615391848285016152dc565b5f8301525060206153a484828501615319565b60208301525060406153b88482850161534f565b60408301525060606153cc84828501614954565b60608301525092915050565b5f608082840312156153ed576153ec613d4c565b5b5f6153fa84828501615363565b91505092915050565b7f5079746820707269636520697320696e76616c696400000000000000000000005f82015250565b5f6154376015836146fd565b915061544282615403565b602082019050919050565b5f6020820190508181035f8301526154648161542b565b9050919050565b5f6154758261532d565b91507fffffffffffffffffffffffffffffffffffffffffffffffffffffffff8000000082036154a7576154a6614a21565b5b815f039050919050565b5f8160011c9050919050565b5f5f8291508390505b6001851115615506578086048111156154e2576154e1614a21565b5b60018516156154f15780820291505b80810290506154ff856154b1565b94506154c6565b94509492505050565b5f8261551e57600190506155d9565b8161552b575f90506155d9565b8160018114615541576002811461554b5761557a565b60019150506155d9565b60ff84111561555d5761555c614a21565b5b8360020a91508482111561557457615573614a21565b5b506155d9565b5060208310610133831016604e8410600b84101617156155af5782820a9050838111156155aa576155a9614a21565b5b6155d9565b6155bc84848460016154bd565b925090508184048111156155d3576155d2614a21565b5b81810290505b9392505050565b5f6155ea82614008565b91506155f583614008565b92506156227fffffffffffffffffffffffffffffffffffffffffffffffffffffffffffffffff848461550f565b905092915050565b7f50726963652066656564206e6f7420737570706f7274656400000000000000005f82015250565b5f61565e6018836146fd565b91506156698261562a565b602082019050919050565b5f6020820190508181035f83015261568b81615652565b9050919050565b7f496e73756666696369656e74204554483a204d75737420636f766572205079745f8201527f682066656520616e6420746f6b656e20636f7374000000000000000000000000602082015250565b5f6156ec6034836146fd565b91506156f782615692565b604082019050919050565b5f6020820190508181035f830152615719816156e0565b9050919050565b7f546f6b656e206e6f7420737570706f72746564000000000000000000000000005f82015250565b5f6157546013836146fd565b915061575f82615720565b602082019050919050565b5f6020820190508181035f83015261578181615748565b9050919050565b5f60408201905061579b5f830185614306565b6157a86020830184614306565b9392505050565b7f5377617020636f6e747261637420666f7220746869732070616972206e6f74205f8201527f666f756e64000000000000000000000000000000000000000000000000000000602082015250565b5f6158096025836146fd565b9150615814826157af565b604082019050919050565b5f6020820190508181035f830152615836816157fd565b9050919050565b5f6040820190506158505f830185613f07565b61585d6020830184614306565b9392505050565b7f496e76616c696420746f6b656e206e616d6500000000000000000000000000005f82015250565b5f6158986012836146fd565b91506158a382615864565b602082019050919050565b5f6020820190508181035f8301526158c58161588c565b9050919050565b7f4e6f206c697175696469747920746f6b656e73206d696e7465640000000000005f82015250565b5f615900601a836146fd565b915061590b826158cc565b602082019050919050565b5f6020820190508181035f83015261592d816158f4565b9050919050565b5f81905092915050565b50565b5f61594c5f83615934565b91506159578261593e565b5f82019050919050565b5f61596b82615941565b9150819050919050565b7f5472616e73616374696f6e20756e7375636365737366756c00000000000000005f82015250565b5f6159a96018836146fd565b91506159b482615975565b602082019050919050565b5f6020820190508181035f8301526159d68161599d565b9050919050565b5f815190506159eb8161469e565b92915050565b5f60208284031215615a0657615a05613d4c565b5b5f615a13848285016159dd565b91505092915050565b7f4e6f7420746865206f776e6572206f6620746865204e465400000000000000005f82015250565b5f615a506018836146fd565b9150615a5b82615a1c565b602082019050919050565b5f6020820190508181035f830152615a7d81615a44565b9050919050565b7f4c6f636b20706572696f6420686173206e6f7420656e646564000000000000005f82015250565b5f615ab86019836146fd565b9150615ac382615a84565b602082019050919050565b5f6020820190508181035f830152615ae581615aac565b9050919050565b5f8154615af881614e31565b615b028186614c19565b9450600182165f8114615b1c5760018114615b3157615b63565b60ff1983168652811515820286019350615b63565b615b3a85614e61565b5f5b83811015615b5b57815481890152600182019150602081019050615b3c565b838801955050505b50505092915050565b5f615b778284615aec565b915081905092915050565b7f496e76616c6964206f757470757420746f6b656e0000000000000000000000005f82015250565b5f615bb66014836146fd565b9150615bc182615b82565b602082019050919050565b5f6020820190508181035f830152615be381615baa565b9050919050565b7f5377617020636f6e7472616374206e6f7420666f756e640000000000000000005f82015250565b5f615c1e6017836146fd565b9150615c2982615bea565b602082019050919050565b5f6020820190508181035f830152615c4b81615c12565b9050919050565b5f8160601b9050919050565b5f615c6882615c52565b9050919050565b5f615c7982615c5e565b9050919050565b615c91615c8c82613ef6565b615c6f565b82525050565b5f615ca28285615c80565b601482019150615cb28284615c80565b601482019150819050939250505056fea2646970667358221220f126d50dd194e76ad1270d503200f10238aaf34f48657da89985d91537cad68b64736f6c634300081e003360c060405234801561000f575f5ffd5b506040516129ab3803806129ab8339818101604052810190610031919061018c565b6040518060400160405280600b81526020017f4669617453776170204c500000000000000000000000000000000000000000008152506040518060400160405280600481526020017f46534c500000000000000000000000000000000000000000000000000000000081525081600390816100ac9190610407565b5080600490816100bc9190610407565b5050508173ffffffffffffffffffffffffffffffffffffffff1660808173ffffffffffffffffffffffffffffffffffffffff16815250508073ffffffffffffffffffffffffffffffffffffffff1660a08173ffffffffffffffffffffffffffffffffffffffff168152505050506104d6565b5f5ffd5b5f73ffffffffffffffffffffffffffffffffffffffff82169050919050565b5f61015b82610132565b9050919050565b61016b81610151565b8114610175575f5ffd5b50565b5f8151905061018681610162565b92915050565b5f5f604083850312156101a2576101a161012e565b5b5f6101af85828601610178565b92505060206101c085828601610178565b9150509250929050565b5f81519050919050565b7f4e487b71000000000000000000000000000000000000000000000000000000005f52604160045260245ffd5b7f4e487b71000000000000000000000000000000000000000000000000000000005f52602260045260245ffd5b5f600282049050600182168061024557607f821691505b60208210810361025857610257610201565b5b50919050565b5f819050815f5260205f209050919050565b5f6020601f8301049050919050565b5f82821b905092915050565b5f600883026102ba7fffffffffffffffffffffffffffffffffffffffffffffffffffffffffffffffff8261027f565b6102c4868361027f565b95508019841693508086168417925050509392505050565b5f819050919050565b5f819050919050565b5f6103086103036102fe846102dc565b6102e5565b6102dc565b9050919050565b5f819050919050565b610321836102ee565b61033561032d8261030f565b84845461028b565b825550505050565b5f5f905090565b61034c61033d565b610357818484610318565b505050565b5b8181101561037a5761036f5f82610344565b60018101905061035d565b5050565b601f8211156103bf576103908161025e565b61039984610270565b810160208510156103a8578190505b6103bc6103b485610270565b83018261035c565b50505b505050565b5f82821c905092915050565b5f6103df5f19846008026103c4565b1980831691505092915050565b5f6103f783836103d0565b9150826002028217905092915050565b610410826101ca565b67ffffffffffffffff811115610429576104286101d4565b5b610433825461022e565b61043e82828561037e565b5f60209050601f83116001811461046f575f841561045d578287015190505b61046785826103ec565b8655506104ce565b601f19841661047d8661025e565b5f5b828110156104a45784890151825560018201915060208501945060208101905061047f565b868310156104c157848901516104bd601f8916826103d0565b8355505b6001600288020188555050505b505050505050565b60805160a0516124596105525f395f818161060d015281816107ca015281816109ec01528181610ba901528181610db40152818161110101526112b601525f818161043a01528181610534015281816106e90152818161095101528181610acf01528181610cd801528181610ea901526111da01526124595ff3fe608060405234801561000f575f5ffd5b5060043610610114575f3560e01c806370a08231116100a0578063a9059cbb1161006f578063a9059cbb146102ce578063dd62ed3e146102fe578063eced55261461032e578063f0b456e91461034c578063fe08b58c1461036857610114565b806370a082311461024857806395d89b41146102785780639c8f9f23146102965780639cd441da146102b257610114565b806318160ddd116100e757806318160ddd146101a257806323b872dd146101c0578063313ce567146101f05780634242ec521461020e5780635f64b55b1461022a57610114565b806306fdde0314610118578063095ea7b3146101365780630fc63d10146101665780631605b17f14610184575b5f5ffd5b610120610386565b60405161012d9190611a8c565b60405180910390f35b610150600480360381019061014b9190611b3d565b610416565b60405161015d9190611b95565b60405180910390f35b61016e610438565b60405161017b9190611c09565b60405180910390f35b61018c61045c565b6040516101999190611c31565b60405180910390f35b6101aa610462565b6040516101b79190611c31565b60405180910390f35b6101da60048036038101906101d59190611c4a565b61046b565b6040516101e79190611b95565b60405180910390f35b6101f8610499565b6040516102059190611cb5565b60405180910390f35b61022860048036038101906102239190611cce565b6104a1565b005b6102326107c8565b60405161023f9190611c09565b60405180910390f35b610262600480360381019061025d9190611d0c565b6107ec565b60405161026f9190611c31565b60405180910390f35b610280610831565b60405161028d9190611a8c565b60405180910390f35b6102b060048036038101906102ab9190611d37565b6108c1565b005b6102cc60048036038101906102c79190611cce565b610c89565b005b6102e860048036038101906102e39190611b3d565b610fbe565b6040516102f59190611b95565b60405180910390f35b61031860048036038101906103139190611d62565b610fe0565b6040516103259190611c31565b60405180910390f35b610336611062565b6040516103439190611c31565b60405180910390f35b61036660048036038101906103619190611cce565b61106e565b005b610370611395565b60405161037d9190611c31565b60405180910390f35b60606003805461039590611dcd565b80601f01602080910402602001604051908101604052809291908181526020018280546103c190611dcd565b801561040c5780601f106103e35761010080835404028352916020019161040c565b820191905f5260205f20905b8154815290600101906020018083116103ef57829003601f168201915b5050505050905090565b5f5f61042061139a565b905061042d8185856113a1565b600191505092915050565b7f000000000000000000000000000000000000000000000000000000000000000081565b6103e881565b5f600254905090565b5f5f61047561139a565b90506104828582856113b3565b61048d858585611446565b60019150509392505050565b5f6012905090565b5f82116104e3576040517f08c379a00000000000000000000000000000000000000000000000000000000081526004016104da90611e47565b60405180910390fd5b5f6103e86003846104f49190611e92565b6104fe9190611f00565b90505f818461050d9190611f30565b90505f670de0b6b3a764000084836105259190611e92565b61052f9190611f00565b9050807f000000000000000000000000000000000000000000000000000000000000000073ffffffffffffffffffffffffffffffffffffffff166370a08231306040518263ffffffff1660e01b815260040161058b9190611f72565b602060405180830381865afa1580156105a6573d5f5f3e3d5ffd5b505050506040513d601f19601f820116820180604052508101906105ca9190611f9f565b101561060b576040517f08c379a000000000000000000000000000000000000000000000000000000000815260040161060290612014565b60405180910390fd5b7f000000000000000000000000000000000000000000000000000000000000000073ffffffffffffffffffffffffffffffffffffffff166323b872dd3330886040518463ffffffff1660e01b815260040161066893929190612032565b6020604051808303815f875af1158015610684573d5f5f3e3d5ffd5b505050506040513d601f19601f820116820180604052508101906106a89190612091565b6106e7576040517f08c379a00000000000000000000000000000000000000000000000000000000081526004016106de90612106565b60405180910390fd5b7f000000000000000000000000000000000000000000000000000000000000000073ffffffffffffffffffffffffffffffffffffffff1663a9059cbb33836040518363ffffffff1660e01b8152600401610742929190612124565b6020604051808303815f875af115801561075e573d5f5f3e3d5ffd5b505050506040513d601f19601f820116820180604052508101906107829190612091565b6107c1576040517f08c379a00000000000000000000000000000000000000000000000000000000081526004016107b890612195565b60405180910390fd5b5050505050565b7f000000000000000000000000000000000000000000000000000000000000000081565b5f5f5f8373ffffffffffffffffffffffffffffffffffffffff1673ffffffffffffffffffffffffffffffffffffffff1681526020019081526020015f20549050919050565b60606004805461084090611dcd565b80601f016020809104026020016040519081016040528092919081815260200182805461086c90611dcd565b80156108b75780601f1061088e576101008083540402835291602001916108b7565b820191905f5260205f20905b81548152906001019060200180831161089a57829003601f168201915b5050505050905090565b5f8111610903576040517f08c379a00000000000000000000000000000000000000000000000000000000081526004016108fa906121fd565b60405180910390fd5b8061090d336107ec565b101561094e576040517f08c379a000000000000000000000000000000000000000000000000000000000815260040161094590612265565b60405180910390fd5b5f7f000000000000000000000000000000000000000000000000000000000000000073ffffffffffffffffffffffffffffffffffffffff166370a08231306040518263ffffffff1660e01b81526004016109a89190611f72565b602060405180830381865afa1580156109c3573d5f5f3e3d5ffd5b505050506040513d601f19601f820116820180604052508101906109e79190611f9f565b90505f7f000000000000000000000000000000000000000000000000000000000000000073ffffffffffffffffffffffffffffffffffffffff166370a08231306040518263ffffffff1660e01b8152600401610a439190611f72565b602060405180830381865afa158015610a5e573d5f5f3e3d5ffd5b505050506040513d601f19601f82011682018060405250810190610a829190611f9f565b90505f610a8d610462565b90505f818486610a9d9190611e92565b610aa79190611f00565b90505f828487610ab79190611e92565b610ac19190611f00565b9050610acd3387611536565b7f000000000000000000000000000000000000000000000000000000000000000073ffffffffffffffffffffffffffffffffffffffff1663a9059cbb33846040518363ffffffff1660e01b8152600401610b28929190612124565b6020604051808303815f875af1158015610b44573d5f5f3e3d5ffd5b505050506040513d601f19601f82011682018060405250810190610b689190612091565b610ba7576040517f08c379a0000000000000000000000000000000000000000000000000000000008152600401610b9e90612195565b60405180910390fd5b7f000000000000000000000000000000000000000000000000000000000000000073ffffffffffffffffffffffffffffffffffffffff1663a9059cbb33836040518363ffffffff1660e01b8152600401610c02929190612124565b6020604051808303815f875af1158015610c1e573d5f5f3e3d5ffd5b505050506040513d601f19601f82011682018060405250810190610c429190612091565b610c81576040517f08c379a0000000000000000000000000000000000000000000000000000000008152600401610c7890612106565b60405180910390fd5b505050505050565b5f82118015610c9757505f81115b610cd6576040517f08c379a0000000000000000000000000000000000000000000000000000000008152600401610ccd906122cd565b60405180910390fd5b7f000000000000000000000000000000000000000000000000000000000000000073ffffffffffffffffffffffffffffffffffffffff166323b872dd3330856040518463ffffffff1660e01b8152600401610d3393929190612032565b6020604051808303815f875af1158015610d4f573d5f5f3e3d5ffd5b505050506040513d601f19601f82011682018060405250810190610d739190612091565b610db2576040517f08c379a0000000000000000000000000000000000000000000000000000000008152600401610da990612195565b60405180910390fd5b7f000000000000000000000000000000000000000000000000000000000000000073ffffffffffffffffffffffffffffffffffffffff166323b872dd3330846040518463ffffffff1660e01b8152600401610e0f93929190612032565b6020604051808303815f875af1158015610e2b573d5f5f3e3d5ffd5b505050506040513d601f19601f82011682018060405250810190610e4f9190612091565b610e8e576040517f08c379a0000000000000000000000000000000000000000000000000000000008152600401610e8590612106565b60405180910390fd5b5f5f610e98610462565b03610ea557829050610f6d565b5f837f000000000000000000000000000000000000000000000000000000000000000073ffffffffffffffffffffffffffffffffffffffff166370a08231306040518263ffffffff1660e01b8152600401610f009190611f72565b602060405180830381865afa158015610f1b573d5f5f3e3d5ffd5b505050506040513d601f19601f82011682018060405250810190610f3f9190611f9f565b610f499190611f30565b905080610f54610462565b85610f5f9190611e92565b610f699190611f00565b9150505b5f8111610faf576040517f08c379a0000000000000000000000000000000000000000000000000000000008152600401610fa690612335565b60405180910390fd5b610fb933826115b5565b505050565b5f5f610fc861139a565b9050610fd5818585611446565b600191505092915050565b5f60015f8473ffffffffffffffffffffffffffffffffffffffff1673ffffffffffffffffffffffffffffffffffffffff1681526020019081526020015f205f8373ffffffffffffffffffffffffffffffffffffffff1673ffffffffffffffffffffffffffffffffffffffff1681526020019081526020015f2054905092915050565b670de0b6b3a764000081565b5f82116110b0576040517f08c379a00000000000000000000000000000000000000000000000000000000081526004016110a790611e47565b60405180910390fd5b5f6103e86003846110c19190611e92565b6110cb9190611f00565b90505f81846110da9190611f30565b90505f670de0b6b3a764000084836110f29190611e92565b6110fc9190611f00565b9050807f000000000000000000000000000000000000000000000000000000000000000073ffffffffffffffffffffffffffffffffffffffff166370a08231306040518263ffffffff1660e01b81526004016111589190611f72565b602060405180830381865afa158015611173573d5f5f3e3d5ffd5b505050506040513d601f19601f820116820180604052508101906111979190611f9f565b10156111d8576040517f08c379a00000000000000000000000000000000000000000000000000000000081526004016111cf9061239d565b60405180910390fd5b7f000000000000000000000000000000000000000000000000000000000000000073ffffffffffffffffffffffffffffffffffffffff166323b872dd3330886040518463ffffffff1660e01b815260040161123593929190612032565b6020604051808303815f875af1158015611251573d5f5f3e3d5ffd5b505050506040513d601f19601f820116820180604052508101906112759190612091565b6112b4576040517f08c379a00000000000000000000000000000000000000000000000000000000081526004016112ab90612195565b60405180910390fd5b7f000000000000000000000000000000000000000000000000000000000000000073ffffffffffffffffffffffffffffffffffffffff1663a9059cbb33836040518363ffffffff1660e01b815260040161130f929190612124565b6020604051808303815f875af115801561132b573d5f5f3e3d5ffd5b505050506040513d601f19601f8201168201806040525081019061134f9190612091565b61138e576040517f08c379a000000000000000000000000000000000000000000000000000000000815260040161138590612106565b60405180910390fd5b5050505050565b600381565b5f33905090565b6113ae8383836001611634565b505050565b5f6113be8484610fe0565b90507fffffffffffffffffffffffffffffffffffffffffffffffffffffffffffffffff8110156114405781811015611431578281836040517ffb8f41b2000000000000000000000000000000000000000000000000000000008152600401611428939291906123bb565b60405180910390fd5b61143f84848484035f611634565b5b50505050565b5f73ffffffffffffffffffffffffffffffffffffffff168373ffffffffffffffffffffffffffffffffffffffff16036114b6575f6040517f96c6fd1e0000000000000000000000000000000000000000000000000000000081526004016114ad9190611f72565b60405180910390fd5b5f73ffffffffffffffffffffffffffffffffffffffff168273ffffffffffffffffffffffffffffffffffffffff1603611526575f6040517fec442f0500000000000000000000000000000000000000000000000000000000815260040161151d9190611f72565b60405180910390fd5b611531838383611803565b505050565b5f73ffffffffffffffffffffffffffffffffffffffff168273ffffffffffffffffffffffffffffffffffffffff16036115a6575f6040517f96c6fd1e00000000000000000000000000000000000000000000000000000000815260040161159d9190611f72565b60405180910390fd5b6115b1825f83611803565b5050565b5f73ffffffffffffffffffffffffffffffffffffffff168273ffffffffffffffffffffffffffffffffffffffff1603611625575f6040517fec442f0500000000000000000000000000000000000000000000000000000000815260040161161c9190611f72565b60405180910390fd5b6116305f8383611803565b5050565b5f73ffffffffffffffffffffffffffffffffffffffff168473ffffffffffffffffffffffffffffffffffffffff16036116a4575f6040517fe602df0500000000000000000000000000000000000000000000000000000000815260040161169b9190611f72565b60405180910390fd5b5f73ffffffffffffffffffffffffffffffffffffffff168373ffffffffffffffffffffffffffffffffffffffff1603611714575f6040517f94280d6200000000000000000000000000000000000000000000000000000000815260040161170b9190611f72565b60405180910390fd5b8160015f8673ffffffffffffffffffffffffffffffffffffffff1673ffffffffffffffffffffffffffffffffffffffff1681526020019081526020015f205f8573ffffffffffffffffffffffffffffffffffffffff1673ffffffffffffffffffffffffffffffffffffffff1681526020019081526020015f208190555080156117fd578273ffffffffffffffffffffffffffffffffffffffff168473ffffffffffffffffffffffffffffffffffffffff167f8c5be1e5ebec7d5bd14f71427d1e84f3dd0314c0f7b2291e5b200ac8c7c3b925846040516117f49190611c31565b60405180910390a35b50505050565b5f73ffffffffffffffffffffffffffffffffffffffff168373ffffffffffffffffffffffffffffffffffffffff1603611853578060025f82825461184791906123f0565b92505081905550611921565b5f5f5f8573ffffffffffffffffffffffffffffffffffffffff1673ffffffffffffffffffffffffffffffffffffffff1681526020019081526020015f20549050818110156118dc578381836040517fe450d38c0000000000000000000000000000000000000000000000000000000081526004016118d3939291906123bb565b60405180910390fd5b8181035f5f8673ffffffffffffffffffffffffffffffffffffffff1673ffffffffffffffffffffffffffffffffffffffff1681526020019081526020015f2081905550505b5f73ffffffffffffffffffffffffffffffffffffffff168273ffffffffffffffffffffffffffffffffffffffff1603611968578060025f82825403925050819055506119b2565b805f5f8473ffffffffffffffffffffffffffffffffffffffff1673ffffffffffffffffffffffffffffffffffffffff1681526020019081526020015f205f82825401925050819055505b8173ffffffffffffffffffffffffffffffffffffffff168373ffffffffffffffffffffffffffffffffffffffff167fddf252ad1be2c89b69c2b068fc378daa952ba7f163c4a11628f55a4df523b3ef83604051611a0f9190611c31565b60405180910390a3505050565b5f81519050919050565b5f82825260208201905092915050565b8281835e5f83830152505050565b5f601f19601f8301169050919050565b5f611a5e82611a1c565b611a688185611a26565b9350611a78818560208601611a36565b611a8181611a44565b840191505092915050565b5f6020820190508181035f830152611aa48184611a54565b905092915050565b5f5ffd5b5f73ffffffffffffffffffffffffffffffffffffffff82169050919050565b5f611ad982611ab0565b9050919050565b611ae981611acf565b8114611af3575f5ffd5b50565b5f81359050611b0481611ae0565b92915050565b5f819050919050565b611b1c81611b0a565b8114611b26575f5ffd5b50565b5f81359050611b3781611b13565b92915050565b5f5f60408385031215611b5357611b52611aac565b5b5f611b6085828601611af6565b9250506020611b7185828601611b29565b9150509250929050565b5f8115159050919050565b611b8f81611b7b565b82525050565b5f602082019050611ba85f830184611b86565b92915050565b5f819050919050565b5f611bd1611bcc611bc784611ab0565b611bae565b611ab0565b9050919050565b5f611be282611bb7565b9050919050565b5f611bf382611bd8565b9050919050565b611c0381611be9565b82525050565b5f602082019050611c1c5f830184611bfa565b92915050565b611c2b81611b0a565b82525050565b5f602082019050611c445f830184611c22565b92915050565b5f5f5f60608486031215611c6157611c60611aac565b5b5f611c6e86828701611af6565b9350506020611c7f86828701611af6565b9250506040611c9086828701611b29565b9150509250925092565b5f60ff82169050919050565b611caf81611c9a565b82525050565b5f602082019050611cc85f830184611ca6565b92915050565b5f5f60408385031215611ce457611ce3611aac565b5b5f611cf185828601611b29565b9250506020611d0285828601611b29565b9150509250929050565b5f60208284031215611d2157611d20611aac565b5b5f611d2e84828501611af6565b91505092915050565b5f60208284031215611d4c57611d4b611aac565b5b5f611d5984828501611b29565b91505092915050565b5f5f60408385031215611d7857611d77611aac565b5b5f611d8585828601611af6565b9250506020611d9685828601611af6565b9150509250929050565b7f4e487b71000000000000000000000000000000000000000000000000000000005f52602260045260245ffd5b5f6002820490506001821680611de457607f821691505b602082108103611df757611df6611da0565b5b50919050565b7f496e76616c696420616d6f756e740000000000000000000000000000000000005f82015250565b5f611e31600e83611a26565b9150611e3c82611dfd565b602082019050919050565b5f6020820190508181035f830152611e5e81611e25565b9050919050565b7f4e487b71000000000000000000000000000000000000000000000000000000005f52601160045260245ffd5b5f611e9c82611b0a565b9150611ea783611b0a565b9250828202611eb581611b0a565b91508282048414831517611ecc57611ecb611e65565b5b5092915050565b7f4e487b71000000000000000000000000000000000000000000000000000000005f52601260045260245ffd5b5f611f0a82611b0a565b9150611f1583611b0a565b925082611f2557611f24611ed3565b5b828204905092915050565b5f611f3a82611b0a565b9150611f4583611b0a565b9250828203905081811115611f5d57611f5c611e65565b5b92915050565b611f6c81611acf565b82525050565b5f602082019050611f855f830184611f63565b92915050565b5f81519050611f9981611b13565b92915050565b5f60208284031215611fb457611fb3611aac565b5b5f611fc184828501611f8b565b91505092915050565b7f4e6f7420656e6f756768206c697175696469747920696e2041000000000000005f82015250565b5f611ffe601983611a26565b915061200982611fca565b602082019050919050565b5f6020820190508181035f83015261202b81611ff2565b9050919050565b5f6060820190506120455f830186611f63565b6120526020830185611f63565b61205f6040830184611c22565b949350505050565b61207081611b7b565b811461207a575f5ffd5b50565b5f8151905061208b81612067565b92915050565b5f602082840312156120a6576120a5611aac565b5b5f6120b38482850161207d565b91505092915050565b7f546f6b656e42207472616e73666572206661696c6564000000000000000000005f82015250565b5f6120f0601683611a26565b91506120fb826120bc565b602082019050919050565b5f6020820190508181035f83015261211d816120e4565b9050919050565b5f6040820190506121375f830185611f63565b6121446020830184611c22565b9392505050565b7f546f6b656e41207472616e73666572206661696c6564000000000000000000005f82015250565b5f61217f601683611a26565b915061218a8261214b565b602082019050919050565b5f6020820190508181035f8301526121ac81612173565b9050919050565b7f4d7573742072656d6f7665203e2030204c5020746f6b656e73000000000000005f82015250565b5f6121e7601983611a26565b91506121f2826121b3565b602082019050919050565b5f6020820190508181035f830152612214816121db565b9050919050565b7f496e73756666696369656e74204c502062616c616e63650000000000000000005f82015250565b5f61224f601783611a26565b915061225a8261221b565b602082019050919050565b5f6020820190508181035f83015261227c81612243565b9050919050565b7f4d7573742070726f7669646520626f746820746f6b656e7300000000000000005f82015250565b5f6122b7601883611a26565b91506122c282612283565b602082019050919050565b5f6020820190508181035f8301526122e4816122ab565b9050919050565b7f496e73756666696369656e74206c6971756964697479206d696e7465640000005f82015250565b5f61231f601d83611a26565b915061232a826122eb565b602082019050919050565b5f6020820190508181035f83015261234c81612313565b9050919050565b7f4e6f7420656e6f756768206c697175696469747920696e2042000000000000005f82015250565b5f612387601983611a26565b915061239282612353565b602082019050919050565b5f6020820190508181035f8301526123b48161237b565b9050919050565b5f6060820190506123ce5f830186611f63565b6123db6020830185611c22565b6123e86040830184611c22565b949350505050565b5f6123fa82611b0a565b915061240583611b0a565b925082820190508082111561241d5761241c611e65565b5b9291505056fea26469706673582212201b4b499fc6dab534de4049e977f629a2e453690446ebdedd7c3e58393491776664736f6c634300081e0033",
        "linkReferences": {}
    },
    "methodIdentifiers": {
        "DECIMALS()": "2e0f2625",
        "EUR_USD()": "d5932652",
        "FLOW_USD()": "5e3a20f4",
        "GBP_USD()": "392015b3",
        "PythAddress()": "c211648c",
        "SCALE()": "eced5526",
        "USDC_USD()": "269ae32d",
        "USD_CHF()": "7b7e7aa7",
        "USD_INR()": "9666be7c",
        "USD_YEN()": "4dd290a1",
        "addLiquidity(string,string,uint256,bytes[])": "d6305b7a",
        "addressToName(address)": "e2a04b62",
        "basketNFT()": "c93eb561",
        "buyTokensFromFlow(string,bytes[])": "9f6476cf",
        "executeBasket(string,uint256,string[],uint256[],uint256,string,bytes[])": "27f7e4be",
        "fCHF_Address()": "2b6c86df",
        "fEUR_Address()": "8477484a",
        "fGBP_Address()": "79178b46",
        "fINR_Address()": "703ad299",
        "fUSD_Address()": "422830c9",
        "fYEN_Address()": "a216ffd2",
        "getNormalizedPrice(bytes32)": "60ca396f",
        "nameToAddress(string)": "08d88aad",
        "nameToId(string)": "f6d8f2cb",
        "nftBaskets(uint256)": "ed343f54",
        "redeemBasket(uint256,bytes[])": "e289c181",
        "removeLiquidity(string,string,uint256)": "a8c9e831",
        "sellTokensForFlow(string,uint256,bytes[])": "d9e30eaa",
        "swapContracts(bytes32)": "9dc38a02",
        "updatePrice(bytes[])": "2592c0bf"
    },
    "id": 41
}