{"abi":[{"type":"constructor","inputs":[],"stateMutability":"nonpayable"},{"type":"function","name":"approve","inputs":[{"name":"to","type":"address","internalType":"address"},{"name":"tokenId","type":"uint256","internalType":"uint256"}],"outputs":[],"stateMutability":"nonpayable"},{"type":"function","name":"balanceOf","inputs":[{"name":"owner","type":"address","internalType":"address"}],"outputs":[{"name":"","type":"uint256","internalType":"uint256"}],"stateMutability":"view"},{"type":"function","name":"burn","inputs":[{"name":"tokenId","type":"uint256","internalType":"uint256"}],"outputs":[],"stateMutability":"nonpayable"},{"type":"function","name":"getApproved","inputs":[{"name":"tokenId","type":"uint256","internalType":"uint256"}],"outputs":[{"name":"","type":"address","internalType":"address"}],"stateMutability":"view"},{"type":"function","name":"isApprovedForAll","inputs":[{"name":"owner","type":"address","internalType":"address"},{"name":"operator","type":"address","internalType":"address"}],"outputs":[{"name":"","type":"bool","internalType":"bool"}],"stateMutability":"view"},{"type":"function","name":"mintNFT","inputs":[{"name":"jsonMetadata","type":"string","internalType":"string"}],"outputs":[],"stateMutability":"nonpayable"},{"type":"function","name":"name","inputs":[],"outputs":[{"name":"","type":"string","internalType":"string"}],"stateMutability":"view"},{"type":"function","name":"nextTokenId","inputs":[],"outputs":[{"name":"","type":"uint256","internalType":"uint256"}],"stateMutability":"view"},{"type":"function","name":"ownerOf","inputs":[{"name":"tokenId","type":"uint256","internalType":"uint256"}],"outputs":[{"name":"","type":"address","internalType":"address"}],"stateMutability":"view"},{"type":"function","name":"safeTransferFrom","inputs":[{"name":"from","type":"address","internalType":"address"},{"name":"to","type":"address","internalType":"address"},{"name":"tokenId","type":"uint256","internalType":"uint256"}],"outputs":[],"stateMutability":"nonpayable"},{"type":"function","name":"safeTransferFrom","inputs":[{"name":"from","type":"address","internalType":"address"},{"name":"to","type":"address","internalType":"address"},{"name":"tokenId","type":"uint256","internalType":"uint256"},{"name":"data","type":"bytes","internalType":"bytes"}],"outputs":[],"stateMutability":"nonpayable"},{"type":"function","name":"setApprovalForAll","inputs":[{"name":"operator","type":"address","internalType":"address"},{"name":"approved","type":"bool","internalType":"bool"}],"outputs":[],"stateMutability":"nonpayable"},{"type":"function","name":"supportsInterface","inputs":[{"name":"interfaceId","type":"bytes4","internalType":"bytes4"}],"outputs":[{"name":"","type":"bool","internalType":"bool"}],"stateMutability":"view"},{"type":"function","name":"symbol","inputs":[],"outputs":[{"name":"","type":"string","internalType":"string"}],"stateMutability":"view"},{"type":"function","name":"tokenURI","inputs":[{"name":"tokenId","type":"uint256","internalType":"uint256"}],"outputs":[{"name":"","type":"string","internalType":"string"}],"stateMutability":"view"},{"type":"function","name":"transferFrom","inputs":[{"name":"from","type":"address","internalType":"address"},{"name":"to","type":"address","internalType":"address"},{"name":"tokenId","type":"uint256","internalType":"uint256"}],"outputs":[],"stateMutability":"nonpayable"},{"type":"event","name":"Approval","inputs":[{"name":"owner","type":"address","indexed":true,"internalType":"address"},{"name":"approved","type":"address","indexed":true,"internalType":"address"},{"name":"tokenId","type":"uint256","indexed":true,"internalType":"uint256"}],"anonymous":false},{"type":"event","name":"ApprovalForAll","inputs":[{"name":"owner","type":"address","indexed":true,"internalType":"address"},{"name":"operator","type":"address","indexed":true,"internalType":"address"},{"name":"approved","type":"bool","indexed":false,"internalType":"bool"}],"anonymous":false},{"type":"event","name":"BatchMetadataUpdate","inputs":[{"name":"_fromTokenId","type":"uint256","indexed":false,"internalType":"uint256"},{"name":"_toTokenId","type":"uint256","indexed":false,"internalType":"uint256"}],"anonymous":false},{"type":"event","name":"MetadataUpdate","inputs":[{"name":"_tokenId","type":"uint256","indexed":false,"internalType":"uint256"}],"anonymous":false},{"type":"event","name":"Transfer","inputs":[{"name":"from","type":"address","indexed":true,"internalType":"address"},{"name":"to","type":"address","indexed":true,"internalType":"address"},{"name":"tokenId","type":"uint256","indexed":true,"internalType":"uint256"}],"anonymous":false},{"type":"error","name":"ERC721IncorrectOwner","inputs":[{"name":"sender","type":"address","internalType":"address"},{"name":"tokenId","type":"uint256","internalType":"uint256"},{"name":"owner","type":"address","internalType":"address"}]},{"type":"error","name":"ERC721InsufficientApproval","inputs":[{"name":"operator","type":"address","internalType":"address"},{"name":"tokenId","type":"uint256","internalType":"uint256"}]},{"type":"error","name":"ERC721InvalidApprover","inputs":[{"name":"approver","type":"address","internalType":"address"}]},{"type":"error","name":"ERC721InvalidOperator","inputs":[{"name":"operator","type":"address","internalType":"address"}]},{"type":"error","name":"ERC721InvalidOwner","inputs":[{"name":"owner","type":"address","internalType":"address"}]},{"type":"error","name":"ERC721InvalidReceiver","inputs":[{"name":"receiver","type":"address","internalType":"address"}]},{"type":"error","name":"ERC721InvalidSender","inputs":[{"name":"sender","type":"address","internalType":"address"}]},{"type":"error","name":"ERC721NonexistentToken","inputs":[{"name":"tokenId","type":"uint256","internalType":"uint256"}]}],"bytecode":{"object":"0x608060405234801561000f575f5ffd5b506040518060400160405280600d81526020017f4261736b65744a736f6e4e4654000000000000000000000000000000000000008152506040518060400160405280600581526020017f424a4e4654000000000000000000000000000000000000000000000000000000815250815f908161008a91906102df565b50806001908161009a91906102df565b5050506103ae565b5f81519050919050565b7f4e487b71000000000000000000000000000000000000000000000000000000005f52604160045260245ffd5b7f4e487b71000000000000000000000000000000000000000000000000000000005f52602260045260245ffd5b5f600282049050600182168061011d57607f821691505b6020821081036101305761012f6100d9565b5b50919050565b5f819050815f5260205f209050919050565b5f6020601f8301049050919050565b5f82821b905092915050565b5f600883026101927fffffffffffffffffffffffffffffffffffffffffffffffffffffffffffffffff82610157565b61019c8683610157565b95508019841693508086168417925050509392505050565b5f819050919050565b5f819050919050565b5f6101e06101db6101d6846101b4565b6101bd565b6101b4565b9050919050565b5f819050919050565b6101f9836101c6565b61020d610205826101e7565b848454610163565b825550505050565b5f5f905090565b610224610215565b61022f8184846101f0565b505050565b5b81811015610252576102475f8261021c565b600181019050610235565b5050565b601f8211156102975761026881610136565b61027184610148565b81016020851015610280578190505b61029461028c85610148565b830182610234565b50505b505050565b5f82821c905092915050565b5f6102b75f198460080261029c565b1980831691505092915050565b5f6102cf83836102a8565b9150826002028217905092915050565b6102e8826100a2565b67ffffffffffffffff811115610301576103006100ac565b5b61030b8254610106565b610316828285610256565b5f60209050601f831160018114610347575f8415610335578287015190505b61033f85826102c4565b8655506103a6565b601f19841661035586610136565b5f5b8281101561037c57848901518255600182019150602085019450602081019050610357565b868310156103995784890151610395601f8916826102a8565b8355505b6001600288020188555050505b505050505050565b612381806103bb5f395ff3fe608060405234801561000f575f5ffd5b50600436106100fe575f3560e01c806370a0823111610095578063b88d4fde11610064578063b88d4fde146102a8578063c87b56dd146102c4578063e985e9c5146102f4578063fb37e88314610324576100fe565b806370a082311461022057806375794a3c1461025057806395d89b411461026e578063a22cb4651461028c576100fe565b806323b872dd116100d157806323b872dd1461019c57806342842e0e146101b857806342966c68146101d45780636352211e146101f0576100fe565b806301ffc9a71461010257806306fdde0314610132578063081812fc14610150578063095ea7b314610180575b5f5ffd5b61011c60048036038101906101179190611864565b610340565b60405161012991906118a9565b60405180910390f35b61013a610351565b6040516101479190611932565b60405180910390f35b61016a60048036038101906101659190611985565b6103e0565b60405161017791906119ef565b60405180910390f35b61019a60048036038101906101959190611a32565b6103fb565b005b6101b660048036038101906101b19190611a70565b610411565b005b6101d260048036038101906101cd9190611a70565b610510565b005b6101ee60048036038101906101e99190611985565b61052f565b005b61020a60048036038101906102059190611985565b610545565b60405161021791906119ef565b60405180910390f35b61023a60048036038101906102359190611ac0565b610556565b6040516102479190611afa565b60405180910390f35b61025861060c565b6040516102659190611afa565b60405180910390f35b610276610612565b6040516102839190611932565b60405180910390f35b6102a660048036038101906102a19190611b3d565b6106a2565b005b6102c260048036038101906102bd9190611ca7565b6106b8565b005b6102de60048036038101906102d99190611985565b6106dd565b6040516102eb9190611932565b60405180910390f35b61030e60048036038101906103099190611d27565b6106ef565b60405161031b91906118a9565b60405180910390f35b61033e60048036038101906103399190611e03565b61077d565b005b5f61034a826107b2565b9050919050565b60605f805461035f90611e77565b80601f016020809104026020016040519081016040528092919081815260200182805461038b90611e77565b80156103d65780601f106103ad576101008083540402835291602001916103d6565b820191905f5260205f20905b8154815290600101906020018083116103b957829003601f168201915b5050505050905090565b5f6103ea82610812565b506103f482610898565b9050919050565b61040d82826104086108d1565b6108d8565b5050565b5f73ffffffffffffffffffffffffffffffffffffffff168273ffffffffffffffffffffffffffffffffffffffff1603610481575f6040517f64a0ae9200000000000000000000000000000000000000000000000000000000815260040161047891906119ef565b60405180910390fd5b5f610494838361048f6108d1565b6108ea565b90508373ffffffffffffffffffffffffffffffffffffffff168173ffffffffffffffffffffffffffffffffffffffff161461050a578382826040517f64283d7b00000000000000000000000000000000000000000000000000000000815260040161050193929190611ea7565b60405180910390fd5b50505050565b61052a83838360405180602001604052805f8152506106b8565b505050565b6105415f8261053c6108d1565b6108ea565b5050565b5f61054f82610812565b9050919050565b5f5f73ffffffffffffffffffffffffffffffffffffffff168273ffffffffffffffffffffffffffffffffffffffff16036105c7575f6040517f89c62b640000000000000000000000000000000000000000000000000000000081526004016105be91906119ef565b60405180910390fd5b60035f8373ffffffffffffffffffffffffffffffffffffffff1673ffffffffffffffffffffffffffffffffffffffff1681526020019081526020015f20549050919050565b60075481565b60606001805461062190611e77565b80601f016020809104026020016040519081016040528092919081815260200182805461064d90611e77565b80156106985780601f1061066f57610100808354040283529160200191610698565b820191905f5260205f20905b81548152906001019060200180831161067b57829003601f168201915b5050505050905090565b6106b46106ad6108d1565b8383610af5565b5050565b6106c3848484610411565b6106d76106ce6108d1565b85858585610c5e565b50505050565b60606106e882610e0a565b9050919050565b5f60055f8473ffffffffffffffffffffffffffffffffffffffff1673ffffffffffffffffffffffffffffffffffffffff1681526020019081526020015f205f8373ffffffffffffffffffffffffffffffffffffffff1673ffffffffffffffffffffffffffffffffffffffff1681526020019081526020015f205f9054906101000a900460ff16905092915050565b5f600754905060075f81548092919061079590611f09565b91905055506107a43382610f15565b6107ae8183610f32565b5050565b5f634906490660e01b7bffffffffffffffffffffffffffffffffffffffffffffffffffffffff1916827bffffffffffffffffffffffffffffffffffffffffffffffffffffffff1916148061080b575061080a82610f8c565b5b9050919050565b5f5f61081d8361106d565b90505f73ffffffffffffffffffffffffffffffffffffffff168173ffffffffffffffffffffffffffffffffffffffff160361088f57826040517f7e2732890000000000000000000000000000000000000000000000000000000081526004016108869190611afa565b60405180910390fd5b80915050919050565b5f60045f8381526020019081526020015f205f9054906101000a900473ffffffffffffffffffffffffffffffffffffffff169050919050565b5f33905090565b6108e583838360016110a6565b505050565b5f5f6108f58461106d565b90505f73ffffffffffffffffffffffffffffffffffffffff168373ffffffffffffffffffffffffffffffffffffffff161461093657610935818486611265565b5b5f73ffffffffffffffffffffffffffffffffffffffff168173ffffffffffffffffffffffffffffffffffffffff16146109c1576109755f855f5f6110a6565b600160035f8373ffffffffffffffffffffffffffffffffffffffff1673ffffffffffffffffffffffffffffffffffffffff1681526020019081526020015f205f82825403925050819055505b5f73ffffffffffffffffffffffffffffffffffffffff168573ffffffffffffffffffffffffffffffffffffffff1614610a4057600160035f8773ffffffffffffffffffffffffffffffffffffffff1673ffffffffffffffffffffffffffffffffffffffff1681526020019081526020015f205f82825401925050819055505b8460025f8681526020019081526020015f205f6101000a81548173ffffffffffffffffffffffffffffffffffffffff021916908373ffffffffffffffffffffffffffffffffffffffff160217905550838573ffffffffffffffffffffffffffffffffffffffff168273ffffffffffffffffffffffffffffffffffffffff167fddf252ad1be2c89b69c2b068fc378daa952ba7f163c4a11628f55a4df523b3ef60405160405180910390a4809150509392505050565b5f73ffffffffffffffffffffffffffffffffffffffff168273ffffffffffffffffffffffffffffffffffffffff1603610b6557816040517f5b08ba18000000000000000000000000000000000000000000000000000000008152600401610b5c91906119ef565b60405180910390fd5b8060055f8573ffffffffffffffffffffffffffffffffffffffff1673ffffffffffffffffffffffffffffffffffffffff1681526020019081526020015f205f8473ffffffffffffffffffffffffffffffffffffffff1673ffffffffffffffffffffffffffffffffffffffff1681526020019081526020015f205f6101000a81548160ff0219169083151502179055508173ffffffffffffffffffffffffffffffffffffffff168373ffffffffffffffffffffffffffffffffffffffff167f17307eab39ab6107e8899845ad3d59bd9653f200f220920489ca2b5937696c3183604051610c5191906118a9565b60405180910390a3505050565b5f8373ffffffffffffffffffffffffffffffffffffffff163b1115610e03578273ffffffffffffffffffffffffffffffffffffffff1663150b7a02868685856040518563ffffffff1660e01b8152600401610cbc9493929190611fa2565b6020604051808303815f875af1925050508015610cf757506040513d601f19601f82011682018060405250810190610cf49190612000565b60015b610d78573d805f8114610d25576040519150601f19603f3d011682016040523d82523d5f602084013e610d2a565b606091505b505f815103610d7057836040517f64a0ae92000000000000000000000000000000000000000000000000000000008152600401610d6791906119ef565b60405180910390fd5b805160208201fd5b63150b7a0260e01b7bffffffffffffffffffffffffffffffffffffffffffffffffffffffff1916817bffffffffffffffffffffffffffffffffffffffffffffffffffffffff191614610e0157836040517f64a0ae92000000000000000000000000000000000000000000000000000000008152600401610df891906119ef565b60405180910390fd5b505b5050505050565b6060610e1582610812565b505f60065f8481526020019081526020015f208054610e3390611e77565b80601f0160208091040260200160405190810160405280929190818152602001828054610e5f90611e77565b8015610eaa5780601f10610e8157610100808354040283529160200191610eaa565b820191905f5260205f20905b815481529060010190602001808311610e8d57829003601f168201915b505050505090505f610eba611328565b90505f815103610ece578192505050610f10565b5f82511115610f02578082604051602001610eea929190612065565b60405160208183030381529060405292505050610f10565b610f0b8461133e565b925050505b919050565b610f2e828260405180602001604052805f8152506113a4565b5050565b8060065f8481526020019081526020015f209081610f509190612228565b507ff8e1a15aba9398e019f0b49df1a4fde98ee17ae345cb5f6b5e2c27f5033e8ce782604051610f809190611afa565b60405180910390a15050565b5f7f80ac58cd000000000000000000000000000000000000000000000000000000007bffffffffffffffffffffffffffffffffffffffffffffffffffffffff1916827bffffffffffffffffffffffffffffffffffffffffffffffffffffffff1916148061105657507f5b5e139f000000000000000000000000000000000000000000000000000000007bffffffffffffffffffffffffffffffffffffffffffffffffffffffff1916827bffffffffffffffffffffffffffffffffffffffffffffffffffffffff1916145b806110665750611065826113c7565b5b9050919050565b5f60025f8381526020019081526020015f205f9054906101000a900473ffffffffffffffffffffffffffffffffffffffff169050919050565b80806110de57505f73ffffffffffffffffffffffffffffffffffffffff168273ffffffffffffffffffffffffffffffffffffffff1614155b15611210575f6110ed84610812565b90505f73ffffffffffffffffffffffffffffffffffffffff168373ffffffffffffffffffffffffffffffffffffffff161415801561115757508273ffffffffffffffffffffffffffffffffffffffff168173ffffffffffffffffffffffffffffffffffffffff1614155b801561116a575061116881846106ef565b155b156111ac57826040517fa9fbf51f0000000000000000000000000000000000000000000000000000000081526004016111a391906119ef565b60405180910390fd5b811561120e57838573ffffffffffffffffffffffffffffffffffffffff168273ffffffffffffffffffffffffffffffffffffffff167f8c5be1e5ebec7d5bd14f71427d1e84f3dd0314c0f7b2291e5b200ac8c7c3b92560405160405180910390a45b505b8360045f8581526020019081526020015f205f6101000a81548173ffffffffffffffffffffffffffffffffffffffff021916908373ffffffffffffffffffffffffffffffffffffffff16021790555050505050565b611270838383611430565b611323575f73ffffffffffffffffffffffffffffffffffffffff168373ffffffffffffffffffffffffffffffffffffffff16036112e457806040517f7e2732890000000000000000000000000000000000000000000000000000000081526004016112db9190611afa565b60405180910390fd5b81816040517f177e802f00000000000000000000000000000000000000000000000000000000815260040161131a9291906122f7565b60405180910390fd5b505050565b606060405180602001604052805f815250905090565b606061134982610812565b505f611353611328565b90505f8151116113715760405180602001604052805f81525061139c565b8061137b846114f0565b60405160200161138c929190612065565b6040516020818303038152906040525b915050919050565b6113ae83836115ba565b6113c26113b96108d1565b5f858585610c5e565b505050565b5f7f01ffc9a7000000000000000000000000000000000000000000000000000000007bffffffffffffffffffffffffffffffffffffffffffffffffffffffff1916827bffffffffffffffffffffffffffffffffffffffffffffffffffffffff1916149050919050565b5f5f73ffffffffffffffffffffffffffffffffffffffff168373ffffffffffffffffffffffffffffffffffffffff16141580156114e757508273ffffffffffffffffffffffffffffffffffffffff168473ffffffffffffffffffffffffffffffffffffffff1614806114a857506114a784846106ef565b5b806114e657508273ffffffffffffffffffffffffffffffffffffffff166114ce83610898565b73ffffffffffffffffffffffffffffffffffffffff16145b5b90509392505050565b60605f60016114fe846116ad565b0190505f8167ffffffffffffffff81111561151c5761151b611b83565b5b6040519080825280601f01601f19166020018201604052801561154e5781602001600182028036833780820191505090505b5090505f82602083010190505b6001156115af578080600190039150507f3031323334353637383961626364656600000000000000000000000000000000600a86061a8153600a85816115a4576115a361231e565b5b0494505f850361155b575b819350505050919050565b5f73ffffffffffffffffffffffffffffffffffffffff168273ffffffffffffffffffffffffffffffffffffffff160361162a575f6040517f64a0ae9200000000000000000000000000000000000000000000000000000000815260040161162191906119ef565b60405180910390fd5b5f61163683835f6108ea565b90505f73ffffffffffffffffffffffffffffffffffffffff168173ffffffffffffffffffffffffffffffffffffffff16146116a8575f6040517f73c6ac6e00000000000000000000000000000000000000000000000000000000815260040161169f91906119ef565b60405180910390fd5b505050565b5f5f5f90507a184f03e93ff9f4daa797ed6e38ed64bf6a1f0100000000000000008310611709577a184f03e93ff9f4daa797ed6e38ed64bf6a1f01000000000000000083816116ff576116fe61231e565b5b0492506040810190505b6d04ee2d6d415b85acef81000000008310611746576d04ee2d6d415b85acef8100000000838161173c5761173b61231e565b5b0492506020810190505b662386f26fc10000831061177557662386f26fc10000838161176b5761176a61231e565b5b0492506010810190505b6305f5e100831061179e576305f5e10083816117945761179361231e565b5b0492506008810190505b61271083106117c35761271083816117b9576117b861231e565b5b0492506004810190505b606483106117e657606483816117dc576117db61231e565b5b0492506002810190505b600a83106117f5576001810190505b80915050919050565b5f604051905090565b5f5ffd5b5f5ffd5b5f7fffffffff0000000000000000000000000000000000000000000000000000000082169050919050565b6118438161180f565b811461184d575f5ffd5b50565b5f8135905061185e8161183a565b92915050565b5f6020828403121561187957611878611807565b5b5f61188684828501611850565b91505092915050565b5f8115159050919050565b6118a38161188f565b82525050565b5f6020820190506118bc5f83018461189a565b92915050565b5f81519050919050565b5f82825260208201905092915050565b8281835e5f83830152505050565b5f601f19601f8301169050919050565b5f611904826118c2565b61190e81856118cc565b935061191e8185602086016118dc565b611927816118ea565b840191505092915050565b5f6020820190508181035f83015261194a81846118fa565b905092915050565b5f819050919050565b61196481611952565b811461196e575f5ffd5b50565b5f8135905061197f8161195b565b92915050565b5f6020828403121561199a57611999611807565b5b5f6119a784828501611971565b91505092915050565b5f73ffffffffffffffffffffffffffffffffffffffff82169050919050565b5f6119d9826119b0565b9050919050565b6119e9816119cf565b82525050565b5f602082019050611a025f8301846119e0565b92915050565b611a11816119cf565b8114611a1b575f5ffd5b50565b5f81359050611a2c81611a08565b92915050565b5f5f60408385031215611a4857611a47611807565b5b5f611a5585828601611a1e565b9250506020611a6685828601611971565b9150509250929050565b5f5f5f60608486031215611a8757611a86611807565b5b5f611a9486828701611a1e565b9350506020611aa586828701611a1e565b9250506040611ab686828701611971565b9150509250925092565b5f60208284031215611ad557611ad4611807565b5b5f611ae284828501611a1e565b91505092915050565b611af481611952565b82525050565b5f602082019050611b0d5f830184611aeb565b92915050565b611b1c8161188f565b8114611b26575f5ffd5b50565b5f81359050611b3781611b13565b92915050565b5f5f60408385031215611b5357611b52611807565b5b5f611b6085828601611a1e565b9250506020611b7185828601611b29565b9150509250929050565b5f5ffd5b5f5ffd5b7f4e487b71000000000000000000000000000000000000000000000000000000005f52604160045260245ffd5b611bb9826118ea565b810181811067ffffffffffffffff82111715611bd857611bd7611b83565b5b80604052505050565b5f611bea6117fe565b9050611bf68282611bb0565b919050565b5f67ffffffffffffffff821115611c1557611c14611b83565b5b611c1e826118ea565b9050602081019050919050565b828183375f83830152505050565b5f611c4b611c4684611bfb565b611be1565b905082815260208101848484011115611c6757611c66611b7f565b5b611c72848285611c2b565b509392505050565b5f82601f830112611c8e57611c8d611b7b565b5b8135611c9e848260208601611c39565b91505092915050565b5f5f5f5f60808587031215611cbf57611cbe611807565b5b5f611ccc87828801611a1e565b9450506020611cdd87828801611a1e565b9350506040611cee87828801611971565b925050606085013567ffffffffffffffff811115611d0f57611d0e61180b565b5b611d1b87828801611c7a565b91505092959194509250565b5f5f60408385031215611d3d57611d3c611807565b5b5f611d4a85828601611a1e565b9250506020611d5b85828601611a1e565b9150509250929050565b5f67ffffffffffffffff821115611d7f57611d7e611b83565b5b611d88826118ea565b9050602081019050919050565b5f611da7611da284611d65565b611be1565b905082815260208101848484011115611dc357611dc2611b7f565b5b611dce848285611c2b565b509392505050565b5f82601f830112611dea57611de9611b7b565b5b8135611dfa848260208601611d95565b91505092915050565b5f60208284031215611e1857611e17611807565b5b5f82013567ffffffffffffffff811115611e3557611e3461180b565b5b611e4184828501611dd6565b91505092915050565b7f4e487b71000000000000000000000000000000000000000000000000000000005f52602260045260245ffd5b5f6002820490506001821680611e8e57607f821691505b602082108103611ea157611ea0611e4a565b5b50919050565b5f606082019050611eba5f8301866119e0565b611ec76020830185611aeb565b611ed460408301846119e0565b949350505050565b7f4e487b71000000000000000000000000000000000000000000000000000000005f52601160045260245ffd5b5f611f1382611952565b91507fffffffffffffffffffffffffffffffffffffffffffffffffffffffffffffffff8203611f4557611f44611edc565b5b600182019050919050565b5f81519050919050565b5f82825260208201905092915050565b5f611f7482611f50565b611f7e8185611f5a565b9350611f8e8185602086016118dc565b611f97816118ea565b840191505092915050565b5f608082019050611fb55f8301876119e0565b611fc260208301866119e0565b611fcf6040830185611aeb565b8181036060830152611fe18184611f6a565b905095945050505050565b5f81519050611ffa8161183a565b92915050565b5f6020828403121561201557612014611807565b5b5f61202284828501611fec565b91505092915050565b5f81905092915050565b5f61203f826118c2565b612049818561202b565b93506120598185602086016118dc565b80840191505092915050565b5f6120708285612035565b915061207c8284612035565b91508190509392505050565b5f819050815f5260205f209050919050565b5f6020601f8301049050919050565b5f82821b905092915050565b5f600883026120e47fffffffffffffffffffffffffffffffffffffffffffffffffffffffffffffffff826120a9565b6120ee86836120a9565b95508019841693508086168417925050509392505050565b5f819050919050565b5f61212961212461211f84611952565b612106565b611952565b9050919050565b5f819050919050565b6121428361210f565b61215661214e82612130565b8484546120b5565b825550505050565b5f5f905090565b61216d61215e565b612178818484612139565b505050565b5b8181101561219b576121905f82612165565b60018101905061217e565b5050565b601f8211156121e0576121b181612088565b6121ba8461209a565b810160208510156121c9578190505b6121dd6121d58561209a565b83018261217d565b50505b505050565b5f82821c905092915050565b5f6122005f19846008026121e5565b1980831691505092915050565b5f61221883836121f1565b9150826002028217905092915050565b612231826118c2565b67ffffffffffffffff81111561224a57612249611b83565b5b6122548254611e77565b61225f82828561219f565b5f60209050601f831160018114612290575f841561227e578287015190505b612288858261220d565b8655506122ef565b601f19841661229e86612088565b5f5b828110156122c5578489015182556001820191506020850194506020810190506122a0565b868310156122e257848901516122de601f8916826121f1565b8355505b6001600288020188555050505b505050505050565b5f60408201905061230a5f8301856119e0565b6123176020830184611aeb565b9392505050565b7f4e487b71000000000000000000000000000000000000000000000000000000005f52601260045260245ffdfea26469706673582212202e926731f0a550a4a2e30591b0a21de439094bccea56191e454cccb97ec948cf64736f6c634300081e0033","linkReferences":{}},"methodIdentifiers":{"approve(address,uint256)":"095ea7b3","balanceOf(address)":"70a08231","burn(uint256)":"42966c68","getApproved(uint256)":"081812fc","isApprovedForAll(address,address)":"e985e9c5","mintNFT(string)":"fb37e883","name()":"06fdde03","nextTokenId()":"75794a3c","ownerOf(uint256)":"6352211e","safeTransferFrom(address,address,uint256)":"42842e0e","safeTransferFrom(address,address,uint256,bytes)":"b88d4fde","setApprovalForAll(address,bool)":"a22cb465","supportsInterface(bytes4)":"01ffc9a7","symbol()":"95d89b41","tokenURI(uint256)":"c87b56dd","transferFrom(address,address,uint256)":"23b872dd"},"id":43}