{"abi":[{"type":"constructor","inputs":[{"name":"_tokenA","type":"address","internalType":"address"},{"name":"_tokenB","type":"address","internalType":"address"}],"stateMutability":"nonpayable"},{"type":"function","name":"FEE_DEN","inputs":[],"outputs":[{"name":"","type":"uint256","internalType":"uint256"}],"stateMutability":"view"},{"type":"function","name":"FEE_NUM","inputs":[],"outputs":[{"name":"","type":"uint256","internalType":"uint256"}],"stateMutability":"view"},{"type":"function","name":"SCALE","inputs":[],"outputs":[{"name":"","type":"uint256","internalType":"uint256"}],"stateMutability":"view"},{"type":"function","name":"creatorAddress","inputs":[],"outputs":[{"name":"","type":"address","internalType":"address"}],"stateMutability":"view"},{"type":"function","name":"owner","inputs":[],"outputs":[{"name":"","type":"address","internalType":"address"}],"stateMutability":"view"},{"type":"function","name":"renounceOwnership","inputs":[],"outputs":[],"stateMutability":"nonpayable"},{"type":"function","name":"setCreatorAddress","inputs":[{"name":"_creatorAddress","type":"address","internalType":"address"}],"outputs":[],"stateMutability":"nonpayable"},{"type":"function","name":"swapAtoB","inputs":[{"name":"amountA","type":"uint256","internalType":"uint256"},{"name":"rateAtoB","type":"uint256","internalType":"uint256"}],"outputs":[],"stateMutability":"nonpayable"},{"type":"function","name":"swapBtoA","inputs":[{"name":"amountB","type":"uint256","internalType":"uint256"},{"name":"rateBtoA","type":"uint256","internalType":"uint256"}],"outputs":[],"stateMutability":"nonpayable"},{"type":"function","name":"tokenA","inputs":[],"outputs":[{"name":"","type":"address","internalType":"contract IERC20"}],"stateMutability":"view"},{"type":"function","name":"tokenB","inputs":[],"outputs":[{"name":"","type":"address","internalType":"contract IERC20"}],"stateMutability":"view"},{"type":"function","name":"transferOwnership","inputs":[{"name":"newOwner","type":"address","internalType":"address"}],"outputs":[],"stateMutability":"nonpayable"},{"type":"event","name":"OwnershipTransferred","inputs":[{"name":"previousOwner","type":"address","indexed":true,"internalType":"address"},{"name":"newOwner","type":"address","indexed":true,"internalType":"address"}],"anonymous":false},{"type":"error","name":"OwnableInvalidOwner","inputs":[{"name":"owner","type":"address","internalType":"address"}]},{"type":"error","name":"OwnableUnauthorizedAccount","inputs":[{"name":"account","type":"address","internalType":"address"}]}],"bytecode":{"object":"0x60c060405234801561000f575f5ffd5b506040516116f83803806116f883398181016040528101906100319190610240565b335f73ffffffffffffffffffffffffffffffffffffffff168173ffffffffffffffffffffffffffffffffffffffff16036100a2575f6040517f1e4fbdf7000000000000000000000000000000000000000000000000000000008152600401610099919061028d565b60405180910390fd5b6100b18161012160201b60201c565b508173ffffffffffffffffffffffffffffffffffffffff1660808173ffffffffffffffffffffffffffffffffffffffff16815250508073ffffffffffffffffffffffffffffffffffffffff1660a08173ffffffffffffffffffffffffffffffffffffffff168152505050506102a6565b5f5f5f9054906101000a900473ffffffffffffffffffffffffffffffffffffffff169050815f5f6101000a81548173ffffffffffffffffffffffffffffffffffffffff021916908373ffffffffffffffffffffffffffffffffffffffff1602179055508173ffffffffffffffffffffffffffffffffffffffff168173ffffffffffffffffffffffffffffffffffffffff167f8be0079c531659141344cd1fd0a4f28419497f9722a3daafe3b4186f6b6457e060405160405180910390a35050565b5f5ffd5b5f73ffffffffffffffffffffffffffffffffffffffff82169050919050565b5f61020f826101e6565b9050919050565b61021f81610205565b8114610229575f5ffd5b50565b5f8151905061023a81610216565b92915050565b5f5f60408385031215610256576102556101e2565b5b5f6102638582860161022c565b92505060206102748582860161022c565b9150509250929050565b61028781610205565b82525050565b5f6020820190506102a05f83018461027e565b92915050565b60805160a0516114076102f15f395f818161046401528181610621015281816108c60152610a7b01525f81816102040152818161038b01528181610540015261099f01526114075ff3fe608060405234801561000f575f5ffd5b50600436106100b2575f3560e01c80639127cc691161006f5780639127cc6914610154578063e927fc5c14610170578063eced55261461018e578063f0b456e9146101ac578063f2fde38b146101c8578063fe08b58c146101e4576100b2565b80630fc63d10146100b65780631605b17f146100d45780634242ec52146100f25780635f64b55b1461010e578063715018a61461012c5780638da5cb5b14610136575b5f5ffd5b6100be610202565b6040516100cb9190610dac565b60405180910390f35b6100dc610226565b6040516100e99190610ddd565b60405180910390f35b61010c60048036038101906101079190610e24565b61022c565b005b61011661061f565b6040516101239190610dac565b60405180910390f35b610134610643565b005b61013e610656565b60405161014b9190610e82565b60405180910390f35b61016e60048036038101906101699190610ec5565b61067d565b005b610178610736565b6040516101859190610e82565b60405180910390f35b61019661075b565b6040516101a39190610ddd565b60405180910390f35b6101c660048036038101906101c19190610e24565b610767565b005b6101e260048036038101906101dd9190610ec5565b610b5a565b005b6101ec610bde565b6040516101f99190610ddd565b60405180910390f35b7f000000000000000000000000000000000000000000000000000000000000000081565b6103e881565b610234610656565b73ffffffffffffffffffffffffffffffffffffffff163373ffffffffffffffffffffffffffffffffffffffff1614806102b9575060015f9054906101000a900473ffffffffffffffffffffffffffffffffffffffff1673ffffffffffffffffffffffffffffffffffffffff163373ffffffffffffffffffffffffffffffffffffffff16145b6102f8576040517f08c379a00000000000000000000000000000000000000000000000000000000081526004016102ef90610f4a565b60405180910390fd5b5f821161033a576040517f08c379a000000000000000000000000000000000000000000000000000000000815260040161033190610fb2565b60405180910390fd5b5f6103e860038461034b9190610ffd565b610355919061106b565b90505f8184610364919061109b565b90505f670de0b6b3a7640000848361037c9190610ffd565b610386919061106b565b9050807f000000000000000000000000000000000000000000000000000000000000000073ffffffffffffffffffffffffffffffffffffffff166370a08231306040518263ffffffff1660e01b81526004016103e29190610e82565b602060405180830381865afa1580156103fd573d5f5f3e3d5ffd5b505050506040513d601f19601f8201168201806040525081019061042191906110e2565b1015610462576040517f08c379a000000000000000000000000000000000000000000000000000000000815260040161045990611157565b60405180910390fd5b7f000000000000000000000000000000000000000000000000000000000000000073ffffffffffffffffffffffffffffffffffffffff166323b872dd3330886040518463ffffffff1660e01b81526004016104bf93929190611175565b6020604051808303815f875af11580156104db573d5f5f3e3d5ffd5b505050506040513d601f19601f820116820180604052508101906104ff91906111df565b61053e576040517f08c379a000000000000000000000000000000000000000000000000000000000815260040161053590611254565b60405180910390fd5b7f000000000000000000000000000000000000000000000000000000000000000073ffffffffffffffffffffffffffffffffffffffff1663a9059cbb33836040518363ffffffff1660e01b8152600401610599929190611272565b6020604051808303815f875af11580156105b5573d5f5f3e3d5ffd5b505050506040513d601f19601f820116820180604052508101906105d991906111df565b610618576040517f08c379a000000000000000000000000000000000000000000000000000000000815260040161060f906112e3565b60405180910390fd5b5050505050565b7f000000000000000000000000000000000000000000000000000000000000000081565b61064b610be3565b6106545f610c6a565b565b5f5f5f9054906101000a900473ffffffffffffffffffffffffffffffffffffffff16905090565b610685610be3565b5f73ffffffffffffffffffffffffffffffffffffffff168173ffffffffffffffffffffffffffffffffffffffff16036106f3576040517f08c379a00000000000000000000000000000000000000000000000000000000081526004016106ea9061134b565b60405180910390fd5b8060015f6101000a81548173ffffffffffffffffffffffffffffffffffffffff021916908373ffffffffffffffffffffffffffffffffffffffff16021790555050565b60015f9054906101000a900473ffffffffffffffffffffffffffffffffffffffff1681565b670de0b6b3a764000081565b61076f610656565b73ffffffffffffffffffffffffffffffffffffffff163373ffffffffffffffffffffffffffffffffffffffff1614806107f4575060015f9054906101000a900473ffffffffffffffffffffffffffffffffffffffff1673ffffffffffffffffffffffffffffffffffffffff163373ffffffffffffffffffffffffffffffffffffffff16145b610833576040517f08c379a000000000000000000000000000000000000000000000000000000000815260040161082a90610f4a565b60405180910390fd5b5f8211610875576040517f08c379a000000000000000000000000000000000000000000000000000000000815260040161086c90610fb2565b60405180910390fd5b5f6103e86003846108869190610ffd565b610890919061106b565b90505f818461089f919061109b565b90505f670de0b6b3a764000084836108b79190610ffd565b6108c1919061106b565b9050807f000000000000000000000000000000000000000000000000000000000000000073ffffffffffffffffffffffffffffffffffffffff166370a08231306040518263ffffffff1660e01b815260040161091d9190610e82565b602060405180830381865afa158015610938573d5f5f3e3d5ffd5b505050506040513d601f19601f8201168201806040525081019061095c91906110e2565b101561099d576040517f08c379a0000000000000000000000000000000000000000000000000000000008152600401610994906113b3565b60405180910390fd5b7f000000000000000000000000000000000000000000000000000000000000000073ffffffffffffffffffffffffffffffffffffffff166323b872dd3330886040518463ffffffff1660e01b81526004016109fa93929190611175565b6020604051808303815f875af1158015610a16573d5f5f3e3d5ffd5b505050506040513d601f19601f82011682018060405250810190610a3a91906111df565b610a79576040517f08c379a0000000000000000000000000000000000000000000000000000000008152600401610a70906112e3565b60405180910390fd5b7f000000000000000000000000000000000000000000000000000000000000000073ffffffffffffffffffffffffffffffffffffffff1663a9059cbb33836040518363ffffffff1660e01b8152600401610ad4929190611272565b6020604051808303815f875af1158015610af0573d5f5f3e3d5ffd5b505050506040513d601f19601f82011682018060405250810190610b1491906111df565b610b53576040517f08c379a0000000000000000000000000000000000000000000000000000000008152600401610b4a90611254565b60405180910390fd5b5050505050565b610b62610be3565b5f73ffffffffffffffffffffffffffffffffffffffff168173ffffffffffffffffffffffffffffffffffffffff1603610bd2575f6040517f1e4fbdf7000000000000000000000000000000000000000000000000000000008152600401610bc99190610e82565b60405180910390fd5b610bdb81610c6a565b50565b600381565b610beb610d2b565b73ffffffffffffffffffffffffffffffffffffffff16610c09610656565b73ffffffffffffffffffffffffffffffffffffffff1614610c6857610c2c610d2b565b6040517f118cdaa7000000000000000000000000000000000000000000000000000000008152600401610c5f9190610e82565b60405180910390fd5b565b5f5f5f9054906101000a900473ffffffffffffffffffffffffffffffffffffffff169050815f5f6101000a81548173ffffffffffffffffffffffffffffffffffffffff021916908373ffffffffffffffffffffffffffffffffffffffff1602179055508173ffffffffffffffffffffffffffffffffffffffff168173ffffffffffffffffffffffffffffffffffffffff167f8be0079c531659141344cd1fd0a4f28419497f9722a3daafe3b4186f6b6457e060405160405180910390a35050565b5f33905090565b5f73ffffffffffffffffffffffffffffffffffffffff82169050919050565b5f819050919050565b5f610d74610d6f610d6a84610d32565b610d51565b610d32565b9050919050565b5f610d8582610d5a565b9050919050565b5f610d9682610d7b565b9050919050565b610da681610d8c565b82525050565b5f602082019050610dbf5f830184610d9d565b92915050565b5f819050919050565b610dd781610dc5565b82525050565b5f602082019050610df05f830184610dce565b92915050565b5f5ffd5b610e0381610dc5565b8114610e0d575f5ffd5b50565b5f81359050610e1e81610dfa565b92915050565b5f5f60408385031215610e3a57610e39610df6565b5b5f610e4785828601610e10565b9250506020610e5885828601610e10565b9150509250929050565b5f610e6c82610d32565b9050919050565b610e7c81610e62565b82525050565b5f602082019050610e955f830184610e73565b92915050565b610ea481610e62565b8114610eae575f5ffd5b50565b5f81359050610ebf81610e9b565b92915050565b5f60208284031215610eda57610ed9610df6565b5b5f610ee784828501610eb1565b91505092915050565b5f82825260208201905092915050565b7f4e6f7420617574686f72697a65640000000000000000000000000000000000005f82015250565b5f610f34600e83610ef0565b9150610f3f82610f00565b602082019050919050565b5f6020820190508181035f830152610f6181610f28565b9050919050565b7f496e76616c696420616d6f756e740000000000000000000000000000000000005f82015250565b5f610f9c600e83610ef0565b9150610fa782610f68565b602082019050919050565b5f6020820190508181035f830152610fc981610f90565b9050919050565b7f4e487b71000000000000000000000000000000000000000000000000000000005f52601160045260245ffd5b5f61100782610dc5565b915061101283610dc5565b925082820261102081610dc5565b9150828204841483151761103757611036610fd0565b5b5092915050565b7f4e487b71000000000000000000000000000000000000000000000000000000005f52601260045260245ffd5b5f61107582610dc5565b915061108083610dc5565b9250826110905761108f61103e565b5b828204905092915050565b5f6110a582610dc5565b91506110b083610dc5565b92508282039050818111156110c8576110c7610fd0565b5b92915050565b5f815190506110dc81610dfa565b92915050565b5f602082840312156110f7576110f6610df6565b5b5f611104848285016110ce565b91505092915050565b7f4e6f7420656e6f756768206c697175696469747920696e2041000000000000005f82015250565b5f611141601983610ef0565b915061114c8261110d565b602082019050919050565b5f6020820190508181035f83015261116e81611135565b9050919050565b5f6060820190506111885f830186610e73565b6111956020830185610e73565b6111a26040830184610dce565b949350505050565b5f8115159050919050565b6111be816111aa565b81146111c8575f5ffd5b50565b5f815190506111d9816111b5565b92915050565b5f602082840312156111f4576111f3610df6565b5b5f611201848285016111cb565b91505092915050565b7f546f6b656e42207472616e73666572206661696c6564000000000000000000005f82015250565b5f61123e601683610ef0565b91506112498261120a565b602082019050919050565b5f6020820190508181035f83015261126b81611232565b9050919050565b5f6040820190506112855f830185610e73565b6112926020830184610dce565b9392505050565b7f546f6b656e41207472616e73666572206661696c6564000000000000000000005f82015250565b5f6112cd601683610ef0565b91506112d882611299565b602082019050919050565b5f6020820190508181035f8301526112fa816112c1565b9050919050565b7f496e76616c69642063726561746f7220616464726573730000000000000000005f82015250565b5f611335601783610ef0565b915061134082611301565b602082019050919050565b5f6020820190508181035f83015261136281611329565b9050919050565b7f4e6f7420656e6f756768206c697175696469747920696e2042000000000000005f82015250565b5f61139d601983610ef0565b91506113a882611369565b602082019050919050565b5f6020820190508181035f8301526113ca81611391565b905091905056fea264697066735822122076e86ee31fed3c52b7dd23eac0c70932700890da6eab6076389d52228edd378864736f6c634300081e0033","linkReferences":{}},"methodIdentifiers":{"FEE_DEN()":"1605b17f","FEE_NUM()":"fe08b58c","SCALE()":"eced5526","creatorAddress()":"e927fc5c","owner()":"8da5cb5b","renounceOwnership()":"715018a6","setCreatorAddress(address)":"9127cc69","swapAtoB(uint256,uint256)":"f0b456e9","swapBtoA(uint256,uint256)":"4242ec52","tokenA()":"0fc63d10","tokenB()":"5f64b55b","transferOwnership(address)":"f2fde38b"},"id":44}