{"abi":[{"type":"constructor","inputs":[],"stateMutability":"nonpayable"},{"type":"receive","stateMutability":"payable"},{"type":"function","name":"SCALE","inputs":[],"outputs":[{"name":"","type":"uint256","internalType":"uint256"}],"stateMutability":"view"},{"type":"function","name":"allowance","inputs":[{"name":"owner","type":"address","internalType":"address"},{"name":"spender","type":"address","internalType":"address"}],"outputs":[{"name":"","type":"uint256","internalType":"uint256"}],"stateMutability":"view"},{"type":"function","name":"appContract","inputs":[],"outputs":[{"name":"","type":"address","internalType":"address"}],"stateMutability":"view"},{"type":"function","name":"approve","inputs":[{"name":"spender","type":"address","internalType":"address"},{"name":"value","type":"uint256","internalType":"uint256"}],"outputs":[{"name":"","type":"bool","internalType":"bool"}],"stateMutability":"nonpayable"},{"type":"function","name":"balanceOf","inputs":[{"name":"account","type":"address","internalType":"address"}],"outputs":[{"name":"","type":"uint256","internalType":"uint256"}],"stateMutability":"view"},{"type":"function","name":"buyTokens","inputs":[{"name":"rate","type":"uint256","internalType":"uint256"}],"outputs":[],"stateMutability":"payable"},{"type":"function","name":"decimals","inputs":[],"outputs":[{"name":"","type":"uint8","internalType":"uint8"}],"stateMutability":"view"},{"type":"function","name":"name","inputs":[],"outputs":[{"name":"","type":"string","internalType":"string"}],"stateMutability":"view"},{"type":"function","name":"owner","inputs":[],"outputs":[{"name":"","type":"address","internalType":"address"}],"stateMutability":"view"},{"type":"function","name":"renounceOwnership","inputs":[],"outputs":[],"stateMutability":"nonpayable"},{"type":"function","name":"sellTokens","inputs":[{"name":"tokenAmount","type":"uint256","internalType":"uint256"},{"name":"rate","type":"uint256","internalType":"uint256"}],"outputs":[],"stateMutability":"nonpayable"},{"type":"function","name":"setAppContract","inputs":[{"name":"_appContract","type":"address","internalType":"address"}],"outputs":[],"stateMutability":"nonpayable"},{"type":"function","name":"symbol","inputs":[],"outputs":[{"name":"","type":"string","internalType":"string"}],"stateMutability":"view"},{"type":"function","name":"totalSupply","inputs":[],"outputs":[{"name":"","type":"uint256","internalType":"uint256"}],"stateMutability":"view"},{"type":"function","name":"transfer","inputs":[{"name":"to","type":"address","internalType":"address"},{"name":"value","type":"uint256","internalType":"uint256"}],"outputs":[{"name":"","type":"bool","internalType":"bool"}],"stateMutability":"nonpayable"},{"type":"function","name":"transferFrom","inputs":[{"name":"from","type":"address","internalType":"address"},{"name":"to","type":"address","internalType":"address"},{"name":"value","type":"uint256","internalType":"uint256"}],"outputs":[{"name":"","type":"bool","internalType":"bool"}],"stateMutability":"nonpayable"},{"type":"function","name":"transferOwnership","inputs":[{"name":"newOwner","type":"address","internalType":"address"}],"outputs":[],"stateMutability":"nonpayable"},{"type":"function","name":"transferToApp","inputs":[{"name":"appAddress","type":"address","internalType":"address"},{"name":"amount","type":"uint256","internalType":"uint256"}],"outputs":[],"stateMutability":"nonpayable"},{"type":"event","name":"Approval","inputs":[{"name":"owner","type":"address","indexed":true,"internalType":"address"},{"name":"spender","type":"address","indexed":true,"internalType":"address"},{"name":"value","type":"uint256","indexed":false,"internalType":"uint256"}],"anonymous":false},{"type":"event","name":"OwnershipTransferred","inputs":[{"name":"previousOwner","type":"address","indexed":true,"internalType":"address"},{"name":"newOwner","type":"address","indexed":true,"internalType":"address"}],"anonymous":false},{"type":"event","name":"Transfer","inputs":[{"name":"from","type":"address","indexed":true,"internalType":"address"},{"name":"to","type":"address","indexed":true,"internalType":"address"},{"name":"value","type":"uint256","indexed":false,"internalType":"uint256"}],"anonymous":false},{"type":"error","name":"ERC20InsufficientAllowance","inputs":[{"name":"spender","type":"address","internalType":"address"},{"name":"allowance","type":"uint256","internalType":"uint256"},{"name":"needed","type":"uint256","internalType":"uint256"}]},{"type":"error","name":"ERC20InsufficientBalance","inputs":[{"name":"sender","type":"address","internalType":"address"},{"name":"balance","type":"uint256","internalType":"uint256"},{"name":"needed","type":"uint256","internalType":"uint256"}]},{"type":"error","name":"ERC20InvalidApprover","inputs":[{"name":"approver","type":"address","internalType":"address"}]},{"type":"error","name":"ERC20InvalidReceiver","inputs":[{"name":"receiver","type":"address","internalType":"address"}]},{"type":"error","name":"ERC20InvalidSender","inputs":[{"name":"sender","type":"address","internalType":"address"}]},{"type":"error","name":"ERC20InvalidSpender","inputs":[{"name":"spender","type":"address","internalType":"address"}]},{"type":"error","name":"OwnableInvalidOwner","inputs":[{"name":"owner","type":"address","internalType":"address"}]},{"type":"error","name":"OwnableUnauthorizedAccount","inputs":[{"name":"account","type":"address","internalType":"address"}]}],"bytecode":{"object":"0x608060405234801561000f575f5ffd5b50336040518060400160405280600781526020017f666c6f7759454e000000000000000000000000000000000000000000000000008152506040518060400160405280600481526020017f6659454e00000000000000000000000000000000000000000000000000000000815250816003908161008c9190610706565b50806004908161009c9190610706565b5050505f73ffffffffffffffffffffffffffffffffffffffff168173ffffffffffffffffffffffffffffffffffffffff160361010f575f6040517f1e4fbdf70000000000000000000000000000000000000000000000000000000081526004016101069190610814565b60405180910390fd5b61011e8161016060201b60201c565b5061015b3061013161022360201b60201c565b600a61013d9190610995565b678ac7230489e8000061015091906109df565b61022b60201b60201c565b610ab0565b5f60055f9054906101000a900473ffffffffffffffffffffffffffffffffffffffff1690508160055f6101000a81548173ffffffffffffffffffffffffffffffffffffffff021916908373ffffffffffffffffffffffffffffffffffffffff1602179055508173ffffffffffffffffffffffffffffffffffffffff168173ffffffffffffffffffffffffffffffffffffffff167f8be0079c531659141344cd1fd0a4f28419497f9722a3daafe3b4186f6b6457e060405160405180910390a35050565b5f6012905090565b5f73ffffffffffffffffffffffffffffffffffffffff168273ffffffffffffffffffffffffffffffffffffffff160361029b575f6040517fec442f050000000000000000000000000000000000000000000000000000000081526004016102929190610814565b60405180910390fd5b6102ac5f83836102b060201b60201c565b5050565b5f73ffffffffffffffffffffffffffffffffffffffff168373ffffffffffffffffffffffffffffffffffffffff1603610300578060025f8282546102f49190610a20565b925050819055506103ce565b5f5f5f8573ffffffffffffffffffffffffffffffffffffffff1673ffffffffffffffffffffffffffffffffffffffff1681526020019081526020015f2054905081811015610389578381836040517fe450d38c00000000000000000000000000000000000000000000000000000000815260040161038093929190610a62565b60405180910390fd5b8181035f5f8673ffffffffffffffffffffffffffffffffffffffff1673ffffffffffffffffffffffffffffffffffffffff1681526020019081526020015f2081905550505b5f73ffffffffffffffffffffffffffffffffffffffff168273ffffffffffffffffffffffffffffffffffffffff1603610415578060025f828254039250508190555061045f565b805f5f8473ffffffffffffffffffffffffffffffffffffffff1673ffffffffffffffffffffffffffffffffffffffff1681526020019081526020015f205f82825401925050819055505b8173ffffffffffffffffffffffffffffffffffffffff168373ffffffffffffffffffffffffffffffffffffffff167fddf252ad1be2c89b69c2b068fc378daa952ba7f163c4a11628f55a4df523b3ef836040516104bc9190610a97565b60405180910390a3505050565b5f81519050919050565b7f4e487b71000000000000000000000000000000000000000000000000000000005f52604160045260245ffd5b7f4e487b71000000000000000000000000000000000000000000000000000000005f52602260045260245ffd5b5f600282049050600182168061054457607f821691505b60208210810361055757610556610500565b5b50919050565b5f819050815f5260205f209050919050565b5f6020601f8301049050919050565b5f82821b905092915050565b5f600883026105b97fffffffffffffffffffffffffffffffffffffffffffffffffffffffffffffffff8261057e565b6105c3868361057e565b95508019841693508086168417925050509392505050565b5f819050919050565b5f819050919050565b5f6106076106026105fd846105db565b6105e4565b6105db565b9050919050565b5f819050919050565b610620836105ed565b61063461062c8261060e565b84845461058a565b825550505050565b5f5f905090565b61064b61063c565b610656818484610617565b505050565b5b818110156106795761066e5f82610643565b60018101905061065c565b5050565b601f8211156106be5761068f8161055d565b6106988461056f565b810160208510156106a7578190505b6106bb6106b38561056f565b83018261065b565b50505b505050565b5f82821c905092915050565b5f6106de5f19846008026106c3565b1980831691505092915050565b5f6106f683836106cf565b9150826002028217905092915050565b61070f826104c9565b67ffffffffffffffff811115610728576107276104d3565b5b610732825461052d565b61073d82828561067d565b5f60209050601f83116001811461076e575f841561075c578287015190505b61076685826106eb565b8655506107cd565b601f19841661077c8661055d565b5f5b828110156107a35784890151825560018201915060208501945060208101905061077e565b868310156107c057848901516107bc601f8916826106cf565b8355505b6001600288020188555050505b505050505050565b5f73ffffffffffffffffffffffffffffffffffffffff82169050919050565b5f6107fe826107d5565b9050919050565b61080e816107f4565b82525050565b5f6020820190506108275f830184610805565b92915050565b7f4e487b71000000000000000000000000000000000000000000000000000000005f52601160045260245ffd5b5f8160011c9050919050565b5f5f8291508390505b60018511156108af5780860481111561088b5761088a61082d565b5b600185161561089a5780820291505b80810290506108a88561085a565b945061086f565b94509492505050565b5f826108c75760019050610982565b816108d4575f9050610982565b81600181146108ea57600281146108f457610923565b6001915050610982565b60ff8411156109065761090561082d565b5b8360020a91508482111561091d5761091c61082d565b5b50610982565b5060208310610133831016604e8410600b84101617156109585782820a9050838111156109535761095261082d565b5b610982565b6109658484846001610866565b9250905081840481111561097c5761097b61082d565b5b81810290505b9392505050565b5f60ff82169050919050565b5f61099f826105db565b91506109aa83610989565b92506109d77fffffffffffffffffffffffffffffffffffffffffffffffffffffffffffffffff84846108b8565b905092915050565b5f6109e9826105db565b91506109f4836105db565b9250828202610a02816105db565b91508282048414831517610a1957610a1861082d565b5b5092915050565b5f610a2a826105db565b9150610a35836105db565b9250828201905080821115610a4d57610a4c61082d565b5b92915050565b610a5c816105db565b82525050565b5f606082019050610a755f830186610805565b610a826020830185610a53565b610a8f6040830184610a53565b949350505050565b5f602082019050610aaa5f830184610a53565b92915050565b611c3f80610abd5f395ff3fe60806040526004361061010c575f3560e01c80638da5cb5b11610094578063dd62ed3e11610063578063dd62ed3e1461035b578063debe86ed14610397578063eced5526146103c1578063ed9772b6146103eb578063f2fde38b1461041357610113565b80638da5cb5b146102a357806395d89b41146102cd578063a23ea588146102f7578063a9059cbb1461031f57610113565b8063313ce567116100db578063313ce567146101e35780633610724e1461020d5780636d8ea4be1461022957806370a0823114610251578063715018a61461028d57610113565b806306fdde0314610117578063095ea7b31461014157806318160ddd1461017d57806323b872dd146101a757610113565b3661011357005b5f5ffd5b348015610122575f5ffd5b5061012b61043b565b6040516101389190611471565b60405180910390f35b34801561014c575f5ffd5b5061016760048036038101906101629190611522565b6104cb565b604051610174919061157a565b60405180910390f35b348015610188575f5ffd5b506101916104ed565b60405161019e91906115a2565b60405180910390f35b3480156101b2575f5ffd5b506101cd60048036038101906101c891906115bb565b6104f6565b6040516101da919061157a565b60405180910390f35b3480156101ee575f5ffd5b506101f7610524565b6040516102049190611626565b60405180910390f35b6102276004803603810190610222919061163f565b61052c565b005b348015610234575f5ffd5b5061024f600480360381019061024a9190611522565b6106b6565b005b34801561025c575f5ffd5b506102776004803603810190610272919061166a565b61084a565b60405161028491906115a2565b60405180910390f35b348015610298575f5ffd5b506102a161088f565b005b3480156102ae575f5ffd5b506102b76108a2565b6040516102c491906116a4565b60405180910390f35b3480156102d8575f5ffd5b506102e16108ca565b6040516102ee9190611471565b60405180910390f35b348015610302575f5ffd5b5061031d6004803603810190610318919061166a565b61095a565b005b34801561032a575f5ffd5b5061034560048036038101906103409190611522565b610a13565b604051610352919061157a565b60405180910390f35b348015610366575f5ffd5b50610381600480360381019061037c91906116bd565b610a35565b60405161038e91906115a2565b60405180910390f35b3480156103a2575f5ffd5b506103ab610ab7565b6040516103b891906116a4565b60405180910390f35b3480156103cc575f5ffd5b506103d5610adc565b6040516103e291906115a2565b60405180910390f35b3480156103f6575f5ffd5b50610411600480360381019061040c91906116fb565b610ae8565b005b34801561041e575f5ffd5b506104396004803603810190610434919061166a565b610caf565b005b60606003805461044a90611766565b80601f016020809104026020016040519081016040528092919081815260200182805461047690611766565b80156104c15780601f10610498576101008083540402835291602001916104c1565b820191905f5260205f20905b8154815290600101906020018083116104a457829003601f168201915b5050505050905090565b5f5f6104d5610d33565b90506104e2818585610d3a565b600191505092915050565b5f600254905090565b5f5f610500610d33565b905061050d858285610d4c565b610518858585610ddf565b60019150509392505050565b5f6012905090565b6105346108a2565b73ffffffffffffffffffffffffffffffffffffffff163373ffffffffffffffffffffffffffffffffffffffff1614806105b9575060065f9054906101000a900473ffffffffffffffffffffffffffffffffffffffff1673ffffffffffffffffffffffffffffffffffffffff163373ffffffffffffffffffffffffffffffffffffffff16145b6105f8576040517f08c379a00000000000000000000000000000000000000000000000000000000081526004016105ef906117e0565b60405180910390fd5b5f341161063a576040517f08c379a000000000000000000000000000000000000000000000000000000000815260040161063190611848565b60405180910390fd5b5f670de0b6b3a764000082346106509190611893565b61065a9190611901565b9050806106663061084a565b10156106a7576040517f08c379a000000000000000000000000000000000000000000000000000000000815260040161069e9061197b565b60405180910390fd5b6106b2303383610ddf565b5050565b6106be6108a2565b73ffffffffffffffffffffffffffffffffffffffff163373ffffffffffffffffffffffffffffffffffffffff161480610743575060065f9054906101000a900473ffffffffffffffffffffffffffffffffffffffff1673ffffffffffffffffffffffffffffffffffffffff163373ffffffffffffffffffffffffffffffffffffffff16145b610782576040517f08c379a0000000000000000000000000000000000000000000000000000000008152600401610779906117e0565b60405180910390fd5b5f73ffffffffffffffffffffffffffffffffffffffff168273ffffffffffffffffffffffffffffffffffffffff16036107f0576040517f08c379a00000000000000000000000000000000000000000000000000000000081526004016107e7906119e3565b60405180910390fd5b806107fa3061084a565b101561083b576040517f08c379a000000000000000000000000000000000000000000000000000000000815260040161083290611a4b565b60405180910390fd5b610846308383610ddf565b5050565b5f5f5f8373ffffffffffffffffffffffffffffffffffffffff1673ffffffffffffffffffffffffffffffffffffffff1681526020019081526020015f20549050919050565b610897610ecf565b6108a05f610f56565b565b5f60055f9054906101000a900473ffffffffffffffffffffffffffffffffffffffff16905090565b6060600480546108d990611766565b80601f016020809104026020016040519081016040528092919081815260200182805461090590611766565b80156109505780601f1061092757610100808354040283529160200191610950565b820191905f5260205f20905b81548152906001019060200180831161093357829003601f168201915b5050505050905090565b610962610ecf565b5f73ffffffffffffffffffffffffffffffffffffffff168173ffffffffffffffffffffffffffffffffffffffff16036109d0576040517f08c379a00000000000000000000000000000000000000000000000000000000081526004016109c790611ab3565b60405180910390fd5b8060065f6101000a81548173ffffffffffffffffffffffffffffffffffffffff021916908373ffffffffffffffffffffffffffffffffffffffff16021790555050565b5f5f610a1d610d33565b9050610a2a818585610ddf565b600191505092915050565b5f60015f8473ffffffffffffffffffffffffffffffffffffffff1673ffffffffffffffffffffffffffffffffffffffff1681526020019081526020015f205f8373ffffffffffffffffffffffffffffffffffffffff1673ffffffffffffffffffffffffffffffffffffffff1681526020019081526020015f2054905092915050565b60065f9054906101000a900473ffffffffffffffffffffffffffffffffffffffff1681565b670de0b6b3a764000081565b610af06108a2565b73ffffffffffffffffffffffffffffffffffffffff163373ffffffffffffffffffffffffffffffffffffffff161480610b75575060065f9054906101000a900473ffffffffffffffffffffffffffffffffffffffff1673ffffffffffffffffffffffffffffffffffffffff163373ffffffffffffffffffffffffffffffffffffffff16145b610bb4576040517f08c379a0000000000000000000000000000000000000000000000000000000008152600401610bab906117e0565b60405180910390fd5b5f8211610bf6576040517f08c379a0000000000000000000000000000000000000000000000000000000008152600401610bed90611b1b565b60405180910390fd5b5f81670de0b6b3a764000084610c0c9190611893565b610c169190611901565b905080471015610c5b576040517f08c379a0000000000000000000000000000000000000000000000000000000008152600401610c5290611b83565b60405180910390fd5b610c66333085610ddf565b3373ffffffffffffffffffffffffffffffffffffffff166108fc8290811502906040515f60405180830381858888f19350505050158015610ca9573d5f5f3e3d5ffd5b50505050565b610cb7610ecf565b5f73ffffffffffffffffffffffffffffffffffffffff168173ffffffffffffffffffffffffffffffffffffffff1603610d27575f6040517f1e4fbdf7000000000000000000000000000000000000000000000000000000008152600401610d1e91906116a4565b60405180910390fd5b610d3081610f56565b50565b5f33905090565b610d478383836001611019565b505050565b5f610d578484610a35565b90507fffffffffffffffffffffffffffffffffffffffffffffffffffffffffffffffff811015610dd95781811015610dca578281836040517ffb8f41b2000000000000000000000000000000000000000000000000000000008152600401610dc193929190611ba1565b60405180910390fd5b610dd884848484035f611019565b5b50505050565b5f73ffffffffffffffffffffffffffffffffffffffff168373ffffffffffffffffffffffffffffffffffffffff1603610e4f575f6040517f96c6fd1e000000000000000000000000000000000000000000000000000000008152600401610e4691906116a4565b60405180910390fd5b5f73ffffffffffffffffffffffffffffffffffffffff168273ffffffffffffffffffffffffffffffffffffffff1603610ebf575f6040517fec442f05000000000000000000000000000000000000000000000000000000008152600401610eb691906116a4565b60405180910390fd5b610eca8383836111e8565b505050565b610ed7610d33565b73ffffffffffffffffffffffffffffffffffffffff16610ef56108a2565b73ffffffffffffffffffffffffffffffffffffffff1614610f5457610f18610d33565b6040517f118cdaa7000000000000000000000000000000000000000000000000000000008152600401610f4b91906116a4565b60405180910390fd5b565b5f60055f9054906101000a900473ffffffffffffffffffffffffffffffffffffffff1690508160055f6101000a81548173ffffffffffffffffffffffffffffffffffffffff021916908373ffffffffffffffffffffffffffffffffffffffff1602179055508173ffffffffffffffffffffffffffffffffffffffff168173ffffffffffffffffffffffffffffffffffffffff167f8be0079c531659141344cd1fd0a4f28419497f9722a3daafe3b4186f6b6457e060405160405180910390a35050565b5f73ffffffffffffffffffffffffffffffffffffffff168473ffffffffffffffffffffffffffffffffffffffff1603611089575f6040517fe602df0500000000000000000000000000000000000000000000000000000000815260040161108091906116a4565b60405180910390fd5b5f73ffffffffffffffffffffffffffffffffffffffff168373ffffffffffffffffffffffffffffffffffffffff16036110f9575f6040517f94280d620000000000000000000000000000000000000000000000000000000081526004016110f091906116a4565b60405180910390fd5b8160015f8673ffffffffffffffffffffffffffffffffffffffff1673ffffffffffffffffffffffffffffffffffffffff1681526020019081526020015f205f8573ffffffffffffffffffffffffffffffffffffffff1673ffffffffffffffffffffffffffffffffffffffff1681526020019081526020015f208190555080156111e2578273ffffffffffffffffffffffffffffffffffffffff168473ffffffffffffffffffffffffffffffffffffffff167f8c5be1e5ebec7d5bd14f71427d1e84f3dd0314c0f7b2291e5b200ac8c7c3b925846040516111d991906115a2565b60405180910390a35b50505050565b5f73ffffffffffffffffffffffffffffffffffffffff168373ffffffffffffffffffffffffffffffffffffffff1603611238578060025f82825461122c9190611bd6565b92505081905550611306565b5f5f5f8573ffffffffffffffffffffffffffffffffffffffff1673ffffffffffffffffffffffffffffffffffffffff1681526020019081526020015f20549050818110156112c1578381836040517fe450d38c0000000000000000000000000000000000000000000000000000000081526004016112b893929190611ba1565b60405180910390fd5b8181035f5f8673ffffffffffffffffffffffffffffffffffffffff1673ffffffffffffffffffffffffffffffffffffffff1681526020019081526020015f2081905550505b5f73ffffffffffffffffffffffffffffffffffffffff168273ffffffffffffffffffffffffffffffffffffffff160361134d578060025f8282540392505081905550611397565b805f5f8473ffffffffffffffffffffffffffffffffffffffff1673ffffffffffffffffffffffffffffffffffffffff1681526020019081526020015f205f82825401925050819055505b8173ffffffffffffffffffffffffffffffffffffffff168373ffffffffffffffffffffffffffffffffffffffff167fddf252ad1be2c89b69c2b068fc378daa952ba7f163c4a11628f55a4df523b3ef836040516113f491906115a2565b60405180910390a3505050565b5f81519050919050565b5f82825260208201905092915050565b8281835e5f83830152505050565b5f601f19601f8301169050919050565b5f61144382611401565b61144d818561140b565b935061145d81856020860161141b565b61146681611429565b840191505092915050565b5f6020820190508181035f8301526114898184611439565b905092915050565b5f5ffd5b5f73ffffffffffffffffffffffffffffffffffffffff82169050919050565b5f6114be82611495565b9050919050565b6114ce816114b4565b81146114d8575f5ffd5b50565b5f813590506114e9816114c5565b92915050565b5f819050919050565b611501816114ef565b811461150b575f5ffd5b50565b5f8135905061151c816114f8565b92915050565b5f5f6040838503121561153857611537611491565b5b5f611545858286016114db565b92505060206115568582860161150e565b9150509250929050565b5f8115159050919050565b61157481611560565b82525050565b5f60208201905061158d5f83018461156b565b92915050565b61159c816114ef565b82525050565b5f6020820190506115b55f830184611593565b92915050565b5f5f5f606084860312156115d2576115d1611491565b5b5f6115df868287016114db565b93505060206115f0868287016114db565b92505060406116018682870161150e565b9150509250925092565b5f60ff82169050919050565b6116208161160b565b82525050565b5f6020820190506116395f830184611617565b92915050565b5f6020828403121561165457611653611491565b5b5f6116618482850161150e565b91505092915050565b5f6020828403121561167f5761167e611491565b5b5f61168c848285016114db565b91505092915050565b61169e816114b4565b82525050565b5f6020820190506116b75f830184611695565b92915050565b5f5f604083850312156116d3576116d2611491565b5b5f6116e0858286016114db565b92505060206116f1858286016114db565b9150509250929050565b5f5f6040838503121561171157611710611491565b5b5f61171e8582860161150e565b925050602061172f8582860161150e565b9150509250929050565b7f4e487b71000000000000000000000000000000000000000000000000000000005f52602260045260245ffd5b5f600282049050600182168061177d57607f821691505b6020821081036117905761178f611739565b5b50919050565b7f4e6f7420617574686f72697a65640000000000000000000000000000000000005f82015250565b5f6117ca600e8361140b565b91506117d582611796565b602082019050919050565b5f6020820190508181035f8301526117f7816117be565b9050919050565b7f53656e642045544820746f20627579206659454e0000000000000000000000005f82015250565b5f61183260148361140b565b915061183d826117fe565b602082019050919050565b5f6020820190508181035f83015261185f81611826565b9050919050565b7f4e487b71000000000000000000000000000000000000000000000000000000005f52601160045260245ffd5b5f61189d826114ef565b91506118a8836114ef565b92508282026118b6816114ef565b915082820484148315176118cd576118cc611866565b5b5092915050565b7f4e487b71000000000000000000000000000000000000000000000000000000005f52601260045260245ffd5b5f61190b826114ef565b9150611916836114ef565b925082611926576119256118d4565b5b828204905092915050565b7f4e6f7420656e6f756768206659454e20696e20636f6e747261637400000000005f82015250565b5f611965601b8361140b565b915061197082611931565b602082019050919050565b5f6020820190508181035f83015261199281611959565b9050919050565b7f496e76616c6964206170702061646472657373000000000000000000000000005f82015250565b5f6119cd60138361140b565b91506119d882611999565b602082019050919050565b5f6020820190508181035f8301526119fa816119c1565b9050919050565b7f496e73756666696369656e742062616c616e63650000000000000000000000005f82015250565b5f611a3560148361140b565b9150611a4082611a01565b602082019050919050565b5f6020820190508181035f830152611a6281611a29565b9050919050565b7f496e76616c69642041707020636f6e74726163740000000000000000000000005f82015250565b5f611a9d60148361140b565b9150611aa882611a69565b602082019050919050565b5f6020820190508181035f830152611aca81611a91565b9050919050565b7f4d7573742073656c6c203e203020746f6b656e730000000000000000000000005f82015250565b5f611b0560148361140b565b9150611b1082611ad1565b602082019050919050565b5f6020820190508181035f830152611b3281611af9565b9050919050565b7f4e6f7420656e6f75676820455448206c697175696469747900000000000000005f82015250565b5f611b6d60188361140b565b9150611b7882611b39565b602082019050919050565b5f6020820190508181035f830152611b9a81611b61565b9050919050565b5f606082019050611bb45f830186611695565b611bc16020830185611593565b611bce6040830184611593565b949350505050565b5f611be0826114ef565b9150611beb836114ef565b9250828201905080821115611c0357611c02611866565b5b9291505056fea2646970667358221220fb69cd40f379be6104e73ce4f53b911e2476c868a8a05a9adeb1ba3308eb9db064736f6c634300081e0033","linkReferences":{}},"methodIdentifiers":{"SCALE()":"eced5526","allowance(address,address)":"dd62ed3e","appContract()":"debe86ed","approve(address,uint256)":"095ea7b3","balanceOf(address)":"70a08231","buyTokens(uint256)":"3610724e","decimals()":"313ce567","name()":"06fdde03","owner()":"8da5cb5b","renounceOwnership()":"715018a6","sellTokens(uint256,uint256)":"ed9772b6","setAppContract(address)":"a23ea588","symbol()":"95d89b41","totalSupply()":"18160ddd","transfer(address,uint256)":"a9059cbb","transferFrom(address,address,uint256)":"23b872dd","transferOwnership(address)":"f2fde38b","transferToApp(address,uint256)":"6d8ea4be"},"id":50}